{
  "contractName": "Auction",
  "abi": [
    {
      "anonymous": false,
      "inputs": [
        {
          "indexed": false,
          "internalType": "string",
          "name": "_nftCollection",
          "type": "string"
        },
        {
          "indexed": false,
          "internalType": "uint256",
          "name": "_nftTokenID",
          "type": "uint256"
        },
        {
          "indexed": false,
          "internalType": "address",
          "name": "_newOwner",
          "type": "address"
        },
        {
          "indexed": false,
          "internalType": "uint256",
          "name": "_price",
          "type": "uint256"
        }
      ],
      "name": "AuctionClosed",
      "type": "event"
    },
    {
      "anonymous": false,
      "inputs": [
        {
          "indexed": false,
          "internalType": "string",
          "name": "_nftCollection",
          "type": "string"
        },
        {
          "indexed": false,
          "internalType": "uint256",
          "name": "_nftTokenID",
          "type": "uint256"
        },
        {
          "indexed": false,
          "internalType": "address",
          "name": "_owner",
          "type": "address"
        }
      ],
      "name": "AuctionStarted",
      "type": "event"
    },
    {
      "anonymous": false,
      "inputs": [
        {
          "indexed": false,
          "internalType": "string",
          "name": "_nftCollection",
          "type": "string"
        },
        {
          "indexed": false,
          "internalType": "uint256",
          "name": "_nftTokenID",
          "type": "uint256"
        },
        {
          "indexed": false,
          "internalType": "address",
          "name": "_bidder",
          "type": "address"
        },
        {
          "indexed": false,
          "internalType": "uint256",
          "name": "_newBid",
          "type": "uint256"
        }
      ],
      "name": "HighestBidIncreased",
      "type": "event"
    },
    {
      "inputs": [
        {
          "internalType": "string",
          "name": "_nftCollection",
          "type": "string"
        },
        {
          "internalType": "uint256",
          "name": "_nftTokenID",
          "type": "uint256"
        },
        {
          "internalType": "uint256",
          "name": "_biddingTime",
          "type": "uint256"
        }
      ],
      "name": "initializeAuction",
      "outputs": [],
      "stateMutability": "payable",
      "type": "function"
    },
    {
      "inputs": [
        {
          "internalType": "string",
          "name": "_nftCollection",
          "type": "string"
        },
        {
          "internalType": "uint256",
          "name": "_nftTokenID",
          "type": "uint256"
        }
      ],
      "name": "bid",
      "outputs": [],
      "stateMutability": "payable",
      "type": "function"
    },
    {
      "inputs": [
        {
          "internalType": "string",
          "name": "_nftCollection",
          "type": "string"
        },
        {
          "internalType": "uint256",
          "name": "_nftTokenID",
          "type": "uint256"
        }
      ],
      "name": "withdrawRefund",
      "outputs": [],
      "stateMutability": "nonpayable",
      "type": "function"
    },
    {
      "inputs": [
        {
          "internalType": "string",
          "name": "_nftCollection",
          "type": "string"
        },
        {
          "internalType": "uint256",
          "name": "_nftTokenID",
          "type": "uint256"
        }
      ],
      "name": "endAuction",
      "outputs": [],
      "stateMutability": "nonpayable",
      "type": "function"
    },
    {
      "inputs": [
        {
          "internalType": "string",
          "name": "_nftCollection",
          "type": "string"
        },
        {
          "internalType": "uint256",
          "name": "_nftTokenID",
          "type": "uint256"
        }
      ],
      "name": "checkAuctionTimeExpired",
      "outputs": [
        {
          "internalType": "bool",
          "name": "",
          "type": "bool"
        }
      ],
      "stateMutability": "view",
      "type": "function"
    },
    {
      "inputs": [
        {
          "internalType": "string",
          "name": "_nftCollection",
          "type": "string"
        },
        {
          "internalType": "uint256",
          "name": "_nftTokenID",
          "type": "uint256"
        }
      ],
      "name": "getCurrentHighestBidder",
      "outputs": [
        {
          "internalType": "address",
          "name": "",
          "type": "address"
        }
      ],
      "stateMutability": "view",
      "type": "function"
    },
    {
      "inputs": [
        {
          "internalType": "string",
          "name": "_nftCollection",
          "type": "string"
        },
        {
          "internalType": "uint256",
          "name": "_nftTokenID",
          "type": "uint256"
        }
      ],
      "name": "getCurrentHighestBid",
      "outputs": [
        {
          "internalType": "uint256",
          "name": "",
          "type": "uint256"
        }
      ],
      "stateMutability": "view",
      "type": "function"
    },
    {
      "inputs": [
        {
          "internalType": "string",
          "name": "_nftCollection",
          "type": "string"
        },
        {
          "internalType": "uint256",
          "name": "_nftTokenID",
          "type": "uint256"
        }
      ],
      "name": "getBiddersAmount",
      "outputs": [
        {
          "internalType": "uint256",
          "name": "",
          "type": "uint256"
        }
      ],
      "stateMutability": "view",
      "type": "function"
    }
  ],
  "bytecode": "0x608060405234801561001057600080fd5b5061203b806100206000396000f3fe60806040526004361061007b5760003560e01c806378d9170f1161004e57806378d9170f1461012b578063cef3f1ff14610168578063e8bbb71414610184578063f3ccf70b146101c15761007b565b8063368d5707146100805780635dade73c146100a95780635ed01355146100e65780635f4833131461010f575b600080fd5b34801561008c57600080fd5b506100a760048036038101906100a2919061177e565b6101fe565b005b3480156100b557600080fd5b506100d060048036038101906100cb919061177e565b61058f565b6040516100dd91906117f5565b60405180910390f35b3480156100f257600080fd5b5061010d6004803603810190610108919061177e565b61064d565b005b6101296004803603810190610124919061177e565b6108d5565b005b34801561013757600080fd5b50610152600480360381019061014d919061177e565b61100b565b60405161015f919061181f565b60405180910390f35b610182600480360381019061017d919061183a565b6110c9565b005b34801561019057600080fd5b506101ab60048036038101906101a6919061177e565b61141a565b6040516101b891906118ea565b60405180910390f35b3480156101cd57600080fd5b506101e860048036038101906101e3919061177e565b6114f5565b6040516101f5919061181f565b60405180910390f35b60008260405161020e919061197f565b9081526020016040518091039020600082815260200190815260200160002060000160009054906101000a900460ff1661027d576040517f08c379a000000000000000000000000000000000000000000000000000000000815260040161027490611a19565b60405180910390fd5b60008260405161028d919061197f565b90815260200160405180910390206000828152602001908152602001600020600101544210156102f2576040517f08c379a00000000000000000000000000000000000000000000000000000000081526004016102e990611aab565b60405180910390fd5b60008083604051610303919061197f565b9081526020016040518091039020600083815260200190815260200160002060000160006101000a81548160ff0219169083151502179055506000808360405161034d919061197f565b908152602001604051809103902060008381526020019081526020016000206006018054905090506000808290505b600081111561048957600085604051610395919061197f565b908152602001604051809103902060008581526020019081526020016000206006016001826103c49190611afa565b815481106103d5576103d4611b2e565b5b9060005260206000200160009054906101000a900473ffffffffffffffffffffffffffffffffffffffff16915060008086604051610413919061197f565b9081526020016040518091039020600086815260200190815260200160002060050160008473ffffffffffffffffffffffffffffffffffffffff1673ffffffffffffffffffffffffffffffffffffffff16815260200190815260200160002081905550808061048190611b5d565b91505061037c565b5060008460405161049a919061197f565b9081526020016040518091039020600084815260200190815260200160002060060160006104c891906115b0565b7fa7953ef2bb4951672b4e763a37e675cde6fa9e924ad07b06d533488c8be51abe84846000876040516104fb919061197f565b9081526020016040518091039020600087815260200190815260200160002060020160009054906101000a900473ffffffffffffffffffffffffffffffffffffffff1660008860405161054e919061197f565b90815260200160405180910390206000888152602001908152602001600020600301546040516105819493929190611bbf565b60405180910390a150505050565b600080836040516105a0919061197f565b9081526020016040518091039020600083815260200190815260200160002060000160009054906101000a900460ff1661060f576040517f08c379a000000000000000000000000000000000000000000000000000000000815260040161060690611a19565b60405180910390fd5b60008360405161061f919061197f565b9081526020016040518091039020600083815260200190815260200160002060010154421015905092915050565b6000808360405161065e919061197f565b9081526020016040518091039020600083815260200190815260200160002060040160003373ffffffffffffffffffffffffffffffffffffffff1673ffffffffffffffffffffffffffffffffffffffff16815260200190815260200160002054116106fe576040517f08c379a00000000000000000000000000000000000000000000000000000000081526004016106f590611c7d565b60405180910390fd5b6000808360405161070f919061197f565b9081526020016040518091039020600083815260200190815260200160002060040160003373ffffffffffffffffffffffffffffffffffffffff1673ffffffffffffffffffffffffffffffffffffffff16815260200190815260200160002054905060008084604051610782919061197f565b9081526020016040518091039020600084815260200190815260200160002060040160003373ffffffffffffffffffffffffffffffffffffffff1673ffffffffffffffffffffffffffffffffffffffff16815260200190815260200160002081905550600080846040516107f6919061197f565b9081526020016040518091039020600084815260200190815260200160002060050160003373ffffffffffffffffffffffffffffffffffffffff1673ffffffffffffffffffffffffffffffffffffffff1681526020019081526020016000208190555060003373ffffffffffffffffffffffffffffffffffffffff168260405161087f90611cce565b60006040518083038185875af1925050503d80600081146108bc576040519150601f19603f3d011682016040523d82523d6000602084013e6108c1565b606091505b50509050806108cf57600080fd5b50505050565b6000826040516108e5919061197f565b9081526020016040518091039020600082815260200190815260200160002060000160009054906101000a900460ff16610954576040517f08c379a000000000000000000000000000000000000000000000000000000000815260040161094b90611a19565b60405180910390fd5b600082604051610964919061197f565b908152602001604051809103902060008281526020019081526020016000206001015442106109c8576040517f08c379a00000000000000000000000000000000000000000000000000000000081526004016109bf90611d2f565b60405180910390fd5b6103e86000836040516109db919061197f565b908152602001604051809103902060008381526020019081526020016000206006018054905010610a41576040517f08c379a0000000000000000000000000000000000000000000000000000000008152600401610a3890611dc1565b60405180910390fd5b600082604051610a51919061197f565b908152602001604051809103902060008281526020019081526020016000206003015434600084604051610a85919061197f565b9081526020016040518091039020600084815260200190815260200160002060050160003373ffffffffffffffffffffffffffffffffffffffff1673ffffffffffffffffffffffffffffffffffffffff16815260200190815260200160002054610aef9190611de1565b11610b2f576040517f08c379a0000000000000000000000000000000000000000000000000000000008152600401610b2690611e83565b60405180910390fd5b60008083604051610b40919061197f565b908152602001604051809103902060008381526020019081526020016000206003015414610c7257600082604051610b78919061197f565b9081526020016040518091039020600082815260200190815260200160002060030154600083604051610bab919061197f565b9081526020016040518091039020600083815260200190815260200160002060040160008085604051610bde919061197f565b9081526020016040518091039020600085815260200190815260200160002060020160009054906101000a900473ffffffffffffffffffffffffffffffffffffffff1673ffffffffffffffffffffffffffffffffffffffff1673ffffffffffffffffffffffffffffffffffffffff1681526020019081526020016000206000828254610c6a9190611de1565b925050819055505b60008083604051610c83919061197f565b9081526020016040518091039020600083815260200190815260200160002060050160003373ffffffffffffffffffffffffffffffffffffffff1673ffffffffffffffffffffffffffffffffffffffff1681526020019081526020016000205403610d7c57600082604051610cf8919061197f565b90815260200160405180910390206000828152602001908152602001600020600601339080600181540180825580915050600190039060005260206000200160009091909190916101000a81548173ffffffffffffffffffffffffffffffffffffffff021916908373ffffffffffffffffffffffffffffffffffffffff1602179055505b34600083604051610d8d919061197f565b9081526020016040518091039020600083815260200190815260200160002060050160003373ffffffffffffffffffffffffffffffffffffffff1673ffffffffffffffffffffffffffffffffffffffff16815260200190815260200160002054610df79190611de1565b600083604051610e07919061197f565b908152602001604051809103902060008381526020019081526020016000206003018190555033600083604051610e3e919061197f565b9081526020016040518091039020600083815260200190815260200160002060020160006101000a81548173ffffffffffffffffffffffffffffffffffffffff021916908373ffffffffffffffffffffffffffffffffffffffff16021790555034600083604051610eaf919061197f565b9081526020016040518091039020600083815260200190815260200160002060050160003373ffffffffffffffffffffffffffffffffffffffff1673ffffffffffffffffffffffffffffffffffffffff1681526020019081526020016000206000828254610f1d9190611de1565b9250508190555060008083604051610f35919061197f565b9081526020016040518091039020600083815260200190815260200160002060040160003373ffffffffffffffffffffffffffffffffffffffff1673ffffffffffffffffffffffffffffffffffffffff168152602001908152602001600020819055507f8c794bd31d11ed5130d428bae6ffb1992bed97f08efa5a1b47b0a6f846e3ea59828233600086604051610fcc919061197f565b9081526020016040518091039020600086815260200190815260200160002060030154604051610fff9493929190611bbf565b60405180910390a15050565b6000808360405161101c919061197f565b9081526020016040518091039020600083815260200190815260200160002060000160009054906101000a900460ff1661108b576040517f08c379a000000000000000000000000000000000000000000000000000000000815260040161108290611a19565b60405180910390fd5b60008360405161109b919061197f565b9081526020016040518091039020600083815260200190815260200160002060060180549050905092915050565b6000836040516110d9919061197f565b9081526020016040518091039020600083815260200190815260200160002060000160009054906101000a900460ff1615611149576040517f08c379a000000000000000000000000000000000000000000000000000000000815260040161114090611f15565b60405180910390fd5b6000811161118c576040517f08c379a000000000000000000000000000000000000000000000000000000000815260040161118390611fa7565b60405180910390fd5b80426111989190611de1565b6000846040516111a8919061197f565b9081526020016040518091039020600084815260200190815260200160002060010181905550336000846040516111df919061197f565b9081526020016040518091039020600084815260200190815260200160002060020160006101000a81548173ffffffffffffffffffffffffffffffffffffffff021916908373ffffffffffffffffffffffffffffffffffffffff16021790555034600084604051611250919061197f565b90815260200160405180910390206000848152602001908152602001600020600301819055506001600084604051611288919061197f565b9081526020016040518091039020600084815260200190815260200160002060000160006101000a81548160ff0219169083151502179055506000836040516112d1919061197f565b90815260200160405180910390206000838152602001908152602001600020600601339080600181540180825580915050600190039060005260206000200160009091909190916101000a81548173ffffffffffffffffffffffffffffffffffffffff021916908373ffffffffffffffffffffffffffffffffffffffff16021790555034600084604051611365919061197f565b9081526020016040518091039020600084815260200190815260200160002060050160003373ffffffffffffffffffffffffffffffffffffffff1673ffffffffffffffffffffffffffffffffffffffff16815260200190815260200160002060008282546113d39190611de1565b925050819055507f2bed6fb45fe1ae91f7d4c5dfdfc932e36fd80b4743242feaa5b14f1de14887a683833360405161140d93929190611fc7565b60405180910390a1505050565b6000808360405161142b919061197f565b9081526020016040518091039020600083815260200190815260200160002060000160009054906101000a900460ff1661149a576040517f08c379a000000000000000000000000000000000000000000000000000000000815260040161149190611a19565b60405180910390fd5b6000836040516114aa919061197f565b9081526020016040518091039020600083815260200190815260200160002060020160009054906101000a900473ffffffffffffffffffffffffffffffffffffffff16905092915050565b60008083604051611506919061197f565b9081526020016040518091039020600083815260200190815260200160002060000160009054906101000a900460ff16611575576040517f08c379a000000000000000000000000000000000000000000000000000000000815260040161156c90611a19565b60405180910390fd5b600083604051611585919061197f565b9081526020016040518091039020600083815260200190815260200160002060030154905092915050565b50805460008255906000526020600020908101906115ce91906115d1565b50565b5b808211156115ea5760008160009055506001016115d2565b5090565b6000604051905090565b600080fd5b600080fd5b600080fd5b600080fd5b6000601f19601f8301169050919050565b7f4e487b7100000000000000000000000000000000000000000000000000000000600052604160045260246000fd5b6116558261160c565b810181811067ffffffffffffffff821117156116745761167361161d565b5b80604052505050565b60006116876115ee565b9050611693828261164c565b919050565b600067ffffffffffffffff8211156116b3576116b261161d565b5b6116bc8261160c565b9050602081019050919050565b82818337600083830152505050565b60006116eb6116e684611698565b61167d565b90508281526020810184848401111561170757611706611607565b5b6117128482856116c9565b509392505050565b600082601f83011261172f5761172e611602565b5b813561173f8482602086016116d8565b91505092915050565b6000819050919050565b61175b81611748565b811461176657600080fd5b50565b60008135905061177881611752565b92915050565b60008060408385031215611795576117946115f8565b5b600083013567ffffffffffffffff8111156117b3576117b26115fd565b5b6117bf8582860161171a565b92505060206117d085828601611769565b9150509250929050565b60008115159050919050565b6117ef816117da565b82525050565b600060208201905061180a60008301846117e6565b92915050565b61181981611748565b82525050565b60006020820190506118346000830184611810565b92915050565b600080600060608486031215611853576118526115f8565b5b600084013567ffffffffffffffff811115611871576118706115fd565b5b61187d8682870161171a565b935050602061188e86828701611769565b925050604061189f86828701611769565b9150509250925092565b600073ffffffffffffffffffffffffffffffffffffffff82169050919050565b60006118d4826118a9565b9050919050565b6118e4816118c9565b82525050565b60006020820190506118ff60008301846118db565b92915050565b600081519050919050565b600081905092915050565b60005b8381101561193957808201518184015260208101905061191e565b83811115611948576000848401525b50505050565b600061195982611905565b6119638185611910565b935061197381856020860161191b565b80840191505092915050565b600061198b828461194e565b915081905092915050565b600082825260208201905092915050565b7f5468657265206973206e6f2061756374696f6e207374617274656420666f722060008201527f74686973204e46542e0000000000000000000000000000000000000000000000602082015250565b6000611a03602983611996565b9150611a0e826119a7565b604082019050919050565b60006020820190508181036000830152611a32816119f6565b9050919050565b7f5468652061756374696f6e20686173206e6f742066696e69736865642079657460008201527f2e00000000000000000000000000000000000000000000000000000000000000602082015250565b6000611a95602183611996565b9150611aa082611a39565b604082019050919050565b60006020820190508181036000830152611ac481611a88565b9050919050565b7f4e487b7100000000000000000000000000000000000000000000000000000000600052601160045260246000fd5b6000611b0582611748565b9150611b1083611748565b925082821015611b2357611b22611acb565b5b828203905092915050565b7f4e487b7100000000000000000000000000000000000000000000000000000000600052603260045260246000fd5b6000611b6882611748565b915060008203611b7b57611b7a611acb565b5b600182039050919050565b6000611b9182611905565b611b9b8185611996565b9350611bab81856020860161191b565b611bb48161160c565b840191505092915050565b60006080820190508181036000830152611bd98187611b86565b9050611be86020830186611810565b611bf560408301856118db565b611c026060830184611810565b95945050505050565b7f5468657265206973206e6f7468696e6720746f20726566756e6420746f20746860008201527f65206d6573736167652073656e64657220666f722074686973204e46542e0000602082015250565b6000611c67603e83611996565b9150611c7282611c0b565b604082019050919050565b60006020820190508181036000830152611c9681611c5a565b9050919050565b600081905092915050565b50565b6000611cb8600083611c9d565b9150611cc382611ca8565b600082019050919050565b6000611cd982611cab565b9150819050919050565b7f5468652061756374696f6e2068617320616c726561647920656e6465642e0000600082015250565b6000611d19601e83611996565b9150611d2482611ce3565b602082019050919050565b60006020820190508181036000830152611d4881611d0c565b9050919050565b7f546869732061756374696f6e20616368696576656420746865206d6178696d7560008201527f6d20616d6f756e74206f6620626964732e000000000000000000000000000000602082015250565b6000611dab603183611996565b9150611db682611d4f565b604082019050919050565b60006020820190508181036000830152611dda81611d9e565b9050919050565b6000611dec82611748565b9150611df783611748565b9250827fffffffffffffffffffffffffffffffffffffffffffffffffffffffffffffffff03821115611e2c57611e2b611acb565b5b828201905092915050565b7f5468652062696420697320746f6f206c6f772e00000000000000000000000000600082015250565b6000611e6d601383611996565b9150611e7882611e37565b602082019050919050565b60006020820190508181036000830152611e9c81611e60565b9050919050565b7f416e2061756374696f6e2068617320616c72656164792073746172746564206660008201527f6f722074686973204e46542e0000000000000000000000000000000000000000602082015250565b6000611eff602c83611996565b9150611f0a82611ea3565b604082019050919050565b60006020820190508181036000830152611f2e81611ef2565b9050919050565b7f506c6561736520646566696e6520616e2061756374696f6e206869676865722060008201527f7468616e207a65726f2e00000000000000000000000000000000000000000000602082015250565b6000611f91602a83611996565b9150611f9c82611f35565b604082019050919050565b60006020820190508181036000830152611fc081611f84565b9050919050565b60006060820190508181036000830152611fe18186611b86565b9050611ff06020830185611810565b611ffd60408301846118db565b94935050505056fea2646970667358221220589822e0632c9d32f9b0e77b31064f5f1973624a1a7f45dd8eec3d6b0bc966ab64736f6c634300080d0033",
  "immutableReferences": {},
  "source": "// SPDX-License-Identifier: MIT\npragma solidity 0.8.13;\n\n/// @title A decentralized auction system\n/// @author Sebastien Gazeau, Sbastien Dupertuis et Alexis Mendoza\n/// @notice This smart contract can be used in any NFT project requiring a system of auction\ncontract Auction {\n    //------------------------------------------------------------------------------------\n    // ----------------------------------Variables----------------------------------------\n    //------------------------------------------------------------------------------------\n        /// @notice This is the structure that contains all useful data to manage the auction of a given NFT\n    struct BidManagement {\n        bool hasAuctionStarted;\n        uint auctionEndTime;\n        address highestBidder;\n        uint highestBid;\n        mapping (address => uint) pendingRefunds;\n        mapping (address => uint) totalBid;\n        address[] bidders;\n    }\n\n    /// @notice Mapping of bid management data linked to each individual NFT (specified by collection name and token ID)\n    mapping (string => mapping (uint => BidManagement)) bidManager;\n\n    //------------------------------------------------------------------------------------\n    // ------------------------------------Events-----------------------------------------\n    //------------------------------------------------------------------------------------\n\n    /// @notice Event raised when the bid has increased\n    event HighestBidIncreased(string _nftCollection, uint _nftTokenID, address _bidder, uint _newBid);\n    /// @notice Event raised when the auction has started\n    event AuctionStarted(string _nftCollection, uint _nftTokenID, address _owner);\n    /// @notice Event raised when the auction has finished\n    event AuctionClosed(string _nftCollection, uint _nftTokenID, address _newOwner, uint _price);\n\n    //------------------------------------------------------------------------------------\n    // -----------------------------------Functions---------------------------------------\n    //------------------------------------------------------------------------------------\n    /// @notice This function allows to initiate a new auction\n    /// @dev Call this function when the user decides to sell his NFT through an auction. The owner can define a starting price if he sends money in the transaction.\n    /// @param _nftCollection Collection name of the given NFT\n    /// @param _nftTokenID Token ID of the given NFT\n    /// @param _biddingTime Auction time in seconds\n    function initializeAuction(string memory _nftCollection, uint _nftTokenID, uint _biddingTime) external payable {\n        require(!bidManager[_nftCollection][_nftTokenID].hasAuctionStarted, \"An auction has already started for this NFT.\");    // Make sure an auction did not start yet\n        require(_biddingTime > 0, \"Please define an auction higher than zero.\");                                                 // The auction time must be higher than zero\n\n        bidManager[_nftCollection][_nftTokenID].auctionEndTime = block.timestamp + _biddingTime;    // Define the time at which the auction will end up\n        bidManager[_nftCollection][_nftTokenID].highestBidder = msg.sender;                         // The initial highest bidder is the message sender\n        bidManager[_nftCollection][_nftTokenID].highestBid = msg.value;                        // Set the first selling price\n        bidManager[_nftCollection][_nftTokenID].hasAuctionStarted = true;                           // Auction started\n        bidManager[_nftCollection][_nftTokenID].bidders.push(msg.sender);                       // Push the owner in the bidders list\n        bidManager[_nftCollection][_nftTokenID].totalBid[msg.sender] += msg.value;              // Initialize the total bid of the owner\n\n        emit AuctionStarted(_nftCollection, _nftTokenID, msg.sender);       // Raise the event to log when an auction starts\n    }\n\n    /// @notice This function allows to place a new bid\n    /// @dev Call this function each time a user place a new bid\n    /// @param _nftCollection Collection name of the given NFT\n    /// @param _nftTokenID Token ID of the given NFT\n    function bid(string memory _nftCollection, uint _nftTokenID) external payable {\n        require(bidManager[_nftCollection][_nftTokenID].hasAuctionStarted, \"There is no auction started for this NFT.\");        // Make sure an auction is ongoing for this NFT\n        require(block.timestamp < bidManager[_nftCollection][_nftTokenID].auctionEndTime, \"The auction has already ended.\");    // Make sure the auction is not finished yet\n        require(bidManager[_nftCollection][_nftTokenID].bidders.length < 1000, \"This auction achieved the maximum amount of bids.\");    // Revert if we achieve the given limit of bids\n        require((bidManager[_nftCollection][_nftTokenID].totalBid[msg.sender]+msg.value) > bidManager[_nftCollection][_nftTokenID].highestBid, \"The bid is too low.\"); // Make sure the bid (including previous bids) is higher than the current highest bid\n    \n        // Check if there was already a bid\n        if(bidManager[_nftCollection][_nftTokenID].highestBid != 0) {\n            bidManager[_nftCollection][_nftTokenID].pendingRefunds[bidManager[_nftCollection][_nftTokenID].highestBidder] += bidManager[_nftCollection][_nftTokenID].highestBid;\n        }\n\n        // Add the bidder in the list if it is the first time\n        if(bidManager[_nftCollection][_nftTokenID].totalBid[msg.sender] == 0) {\n            bidManager[_nftCollection][_nftTokenID].bidders.push(msg.sender);\n        } \n\n        // Update the data with the new highest bid\n        bidManager[_nftCollection][_nftTokenID].highestBid = bidManager[_nftCollection][_nftTokenID].totalBid[msg.sender]+msg.value;    // The highest bid is what this user already bid + the new value of this transaction\n        bidManager[_nftCollection][_nftTokenID].highestBidder = msg.sender;             // Update the new highest bidder\n        bidManager[_nftCollection][_nftTokenID].totalBid[msg.sender] += msg.value;      // The total bid of this user is updated               \n        bidManager[_nftCollection][_nftTokenID].pendingRefunds[msg.sender] = 0;         // No pending refunds anymore\n\n        emit HighestBidIncreased(_nftCollection,_nftTokenID,msg.sender,bidManager[_nftCollection][_nftTokenID].highestBid);     // Raise the event to save the new highest bid\n    }\n\n    /// @notice This function allows a user that placed a bid (not the highest anymore) to get back his funds\n    /// @dev The user can call this function through the front when his bid is not the highest anymore.\n    /// @param _nftCollection Collection name of the given NFT\n    /// @param _nftTokenID Token ID of the given NFT\n    function withdrawRefund(string memory _nftCollection, uint _nftTokenID) external {\n        require(bidManager[_nftCollection][_nftTokenID].pendingRefunds[msg.sender] > 0, \"There is nothing to refund to the message sender for this NFT.\");   // Make sure there is funds to return\n   \n        uint refund = bidManager[_nftCollection][_nftTokenID].pendingRefunds[msg.sender];   // Recover the funds to refund before erasing it\n\n        bidManager[_nftCollection][_nftTokenID].pendingRefunds[msg.sender] = 0;             // Erase the refund counter\n        bidManager[_nftCollection][_nftTokenID].totalBid[msg.sender] = 0; \n        \n        (bool success, ) = msg.sender.call{value:refund}(\"\");\n        require(success);\n    }\n\n    /// @notice This function allows to close the auction\n    /// @dev This function is called from the front when the auction time is expired\n    /// @param _nftCollection Collection name of the given NFT\n    /// @param _nftTokenID Token ID of the given NFT\n    function endAuction(string memory _nftCollection, uint _nftTokenID) external {\n        require(bidManager[_nftCollection][_nftTokenID].hasAuctionStarted, \"There is no auction started for this NFT.\");    // Make sure an auction is ongoing for this NFT\n        require(block.timestamp >= bidManager[_nftCollection][_nftTokenID].auctionEndTime, \"The auction has not finished yet.\"); // Make sure the auction is finished\n\n        bidManager[_nftCollection][_nftTokenID].hasAuctionStarted = false; \n        \n        // Reset totalBid mapping. No risk of DoS gaz limit since the amount of bidder is limited to 1000.\n        uint listSize = bidManager[_nftCollection][_nftTokenID].bidders.length;\n        address tempAddress;\n        for (uint i=listSize; i>0; i--){\n            tempAddress=bidManager[_nftCollection][_nftTokenID].bidders[i-1];\n            bidManager[_nftCollection][_nftTokenID].totalBid[tempAddress] = 0;\n        }\n        delete bidManager[_nftCollection][_nftTokenID].bidders;\n\n        emit AuctionClosed(_nftCollection, _nftTokenID, bidManager[_nftCollection][_nftTokenID].highestBidder,bidManager[_nftCollection][_nftTokenID].highestBid);       // Raise the event to log when an auction ends\n    }\n\n\n    //------------------------------------------------------------------------------------\n    // ------------------------------------Getters----------------------------------------\n    //------------------------------------------------------------------------------------\n    /// @notice This function allows to check if the auction ended\n    /// @dev Call this function to check if the time of the auction is over or not\n    /// @param _nftCollection Collection name of the given NFT\n    /// @param _nftTokenID Token ID of the given NFT\n    /// @return Returns a boolean to define if the auction time has expired (true) or not (false)\n    function checkAuctionTimeExpired(string memory _nftCollection, uint _nftTokenID) external view returns (bool) {\n        require(bidManager[_nftCollection][_nftTokenID].hasAuctionStarted, \"There is no auction started for this NFT.\");    // Make sure an auction is ongoing for this NFT  \n\n        return (block.timestamp >= bidManager[_nftCollection][_nftTokenID].auctionEndTime);\n    }\n\n    /// @notice This function allows to check for the current highest bidder\n    /// @dev Call this function when you want to know the address of the highest bidder\n    /// @param _nftCollection Collection name of the given NFT\n    /// @param _nftTokenID Token ID of the given NFT\n    /// @return Returns the address of the current highest bidder\n    function getCurrentHighestBidder(string memory _nftCollection, uint _nftTokenID) external view returns (address) {\n        require(bidManager[_nftCollection][_nftTokenID].hasAuctionStarted, \"There is no auction started for this NFT.\");    // Make sure an auction is ongoing for this NFT  \n\n        return (bidManager[_nftCollection][_nftTokenID].highestBidder);\n    }\n\n    /// @notice This function allows to check for the current highest bid\n    /// @dev Call this function when you want to know the value of the highest bid\n    /// @param _nftCollection Collection name of the given NFT\n    /// @param _nftTokenID Token ID of the given NFT\n    /// @return Returns the value of the current highest bid\n    function getCurrentHighestBid(string memory _nftCollection, uint _nftTokenID) external view returns (uint) {\n        require(bidManager[_nftCollection][_nftTokenID].hasAuctionStarted, \"There is no auction started for this NFT.\");    // Make sure an auction is ongoing for this NFT  \n\n        return (bidManager[_nftCollection][_nftTokenID].highestBid);\n    }\n\n    /// @notice This function allows to check for the amount of bidders\n    /// @dev Call this function from the front to display the amount of bidders over the given limit (here 1000)\n    /// @param _nftCollection Collection name of the given NFT\n    /// @param _nftTokenID Token ID of the given NFT\n    /// @return Returns the amount of bidders (how many addresses)\n    function getBiddersAmount(string memory _nftCollection, uint _nftTokenID) external view returns (uint) {\n        require(bidManager[_nftCollection][_nftTokenID].hasAuctionStarted, \"There is no auction started for this NFT.\");    // Make sure an auction is ongoing for this NFT  \n\n        return (bidManager[_nftCollection][_nftTokenID].bidders.length);\n    }\n}",
  "sourcePath": "/home/sebastien/Documents/cours/project-nft-cyon/contracts/Auction.sol",
  "compiler": {
    "name": "solc",
    "version": "0.8.13+commit.abaa5c0e.Emscripten.clang"
  },
  "schemaVersion": "3.4.7",
  "updatedAt": "2022-05-12T07:53:59.757Z",
  "devdoc": {
    "author": "Sebastien Gazeau, Sbastien Dupertuis et Alexis Mendoza",
    "kind": "dev",
    "methods": {
      "bid(string,uint256)": {
        "details": "Call this function each time a user place a new bid",
        "params": {
          "_nftCollection": "Collection name of the given NFT",
          "_nftTokenID": "Token ID of the given NFT"
        }
      },
      "checkAuctionTimeExpired(string,uint256)": {
        "details": "Call this function to check if the time of the auction is over or not",
        "params": {
          "_nftCollection": "Collection name of the given NFT",
          "_nftTokenID": "Token ID of the given NFT"
        },
        "returns": {
          "_0": "Returns a boolean to define if the auction time has expired (true) or not (false)"
        }
      },
      "endAuction(string,uint256)": {
        "details": "This function is called from the front when the auction time is expired",
        "params": {
          "_nftCollection": "Collection name of the given NFT",
          "_nftTokenID": "Token ID of the given NFT"
        }
      },
      "getBiddersAmount(string,uint256)": {
        "details": "Call this function from the front to display the amount of bidders over the given limit (here 1000)",
        "params": {
          "_nftCollection": "Collection name of the given NFT",
          "_nftTokenID": "Token ID of the given NFT"
        },
        "returns": {
          "_0": "Returns the amount of bidders (how many addresses)"
        }
      },
      "getCurrentHighestBid(string,uint256)": {
        "details": "Call this function when you want to know the value of the highest bid",
        "params": {
          "_nftCollection": "Collection name of the given NFT",
          "_nftTokenID": "Token ID of the given NFT"
        },
        "returns": {
          "_0": "Returns the value of the current highest bid"
        }
      },
      "getCurrentHighestBidder(string,uint256)": {
        "details": "Call this function when you want to know the address of the highest bidder",
        "params": {
          "_nftCollection": "Collection name of the given NFT",
          "_nftTokenID": "Token ID of the given NFT"
        },
        "returns": {
          "_0": "Returns the address of the current highest bidder"
        }
      },
      "initializeAuction(string,uint256,uint256)": {
        "details": "Call this function when the user decides to sell his NFT through an auction. The owner can define a starting price if he sends money in the transaction.",
        "params": {
          "_biddingTime": "Auction time in seconds",
          "_nftCollection": "Collection name of the given NFT",
          "_nftTokenID": "Token ID of the given NFT"
        }
      },
      "withdrawRefund(string,uint256)": {
        "details": "The user can call this function through the front when his bid is not the highest anymore.",
        "params": {
          "_nftCollection": "Collection name of the given NFT",
          "_nftTokenID": "Token ID of the given NFT"
        }
      }
    },
    "title": "A decentralized auction system",
    "version": 1
  },
  "userdoc": {
    "events": {
      "AuctionClosed(string,uint256,address,uint256)": {
        "notice": "Event raised when the auction has finished"
      },
      "AuctionStarted(string,uint256,address)": {
        "notice": "Event raised when the auction has started"
      },
      "HighestBidIncreased(string,uint256,address,uint256)": {
        "notice": "Event raised when the bid has increased"
      }
    },
    "kind": "user",
    "methods": {
      "bid(string,uint256)": {
        "notice": "This function allows to place a new bid"
      },
      "checkAuctionTimeExpired(string,uint256)": {
        "notice": "This function allows to check if the auction ended"
      },
      "endAuction(string,uint256)": {
        "notice": "This function allows to close the auction"
      },
      "getBiddersAmount(string,uint256)": {
        "notice": "This function allows to check for the amount of bidders"
      },
      "getCurrentHighestBid(string,uint256)": {
        "notice": "This function allows to check for the current highest bid"
      },
      "getCurrentHighestBidder(string,uint256)": {
        "notice": "This function allows to check for the current highest bidder"
      },
      "initializeAuction(string,uint256,uint256)": {
        "notice": "This function allows to initiate a new auction"
      },
      "withdrawRefund(string,uint256)": {
        "notice": "This function allows a user that placed a bid (not the highest anymore) to get back his funds"
      }
    },
    "notice": "This smart contract can be used in any NFT project requiring a system of auction",
    "version": 1
  }
}