{
  "contractName": "Auction",
  "abi": [
    {
      "anonymous": false,
      "inputs": [
        {
          "indexed": false,
          "internalType": "address",
          "name": "_nftCollectionAddress",
          "type": "address"
        },
        {
          "indexed": false,
          "internalType": "uint256",
          "name": "_nftTokenID",
          "type": "uint256"
        },
        {
          "indexed": false,
          "internalType": "address",
          "name": "_newOwner",
          "type": "address"
        },
        {
          "indexed": false,
          "internalType": "uint256",
          "name": "_price",
          "type": "uint256"
        }
      ],
      "name": "AuctionClosed",
      "type": "event"
    },
    {
      "anonymous": false,
      "inputs": [
        {
          "indexed": false,
          "internalType": "address",
          "name": "_nftCollectionAddress",
          "type": "address"
        },
        {
          "indexed": false,
          "internalType": "uint256",
          "name": "_nftTokenID",
          "type": "uint256"
        },
        {
          "indexed": false,
          "internalType": "address",
          "name": "_owner",
          "type": "address"
        }
      ],
      "name": "AuctionStarted",
      "type": "event"
    },
    {
      "anonymous": false,
      "inputs": [
        {
          "indexed": false,
          "internalType": "address",
          "name": "_nftCollectionAddress",
          "type": "address"
        },
        {
          "indexed": false,
          "internalType": "uint256",
          "name": "_nftTokenID",
          "type": "uint256"
        },
        {
          "indexed": false,
          "internalType": "address",
          "name": "_bidder",
          "type": "address"
        },
        {
          "indexed": false,
          "internalType": "uint256",
          "name": "_newBid",
          "type": "uint256"
        }
      ],
      "name": "HighestBidIncreased",
      "type": "event"
    },
    {
      "inputs": [
        {
          "internalType": "address",
          "name": "_nftCollectionAddress",
          "type": "address"
        },
        {
          "internalType": "uint256",
          "name": "_nftTokenID",
          "type": "uint256"
        },
        {
          "internalType": "uint256",
          "name": "_biddingTime",
          "type": "uint256"
        }
      ],
      "name": "startAuction",
      "outputs": [],
      "stateMutability": "payable",
      "type": "function"
    },
    {
      "inputs": [
        {
          "internalType": "address",
          "name": "_nftCollectionAddress",
          "type": "address"
        },
        {
          "internalType": "uint256",
          "name": "_nftTokenID",
          "type": "uint256"
        }
      ],
      "name": "bid",
      "outputs": [],
      "stateMutability": "payable",
      "type": "function"
    },
    {
      "inputs": [
        {
          "internalType": "address",
          "name": "_nftCollectionAddress",
          "type": "address"
        },
        {
          "internalType": "uint256",
          "name": "_nftTokenID",
          "type": "uint256"
        }
      ],
      "name": "withdrawRefund",
      "outputs": [],
      "stateMutability": "nonpayable",
      "type": "function"
    },
    {
      "inputs": [
        {
          "internalType": "address",
          "name": "_nftCollectionAddress",
          "type": "address"
        },
        {
          "internalType": "uint256",
          "name": "_nftTokenID",
          "type": "uint256"
        }
      ],
      "name": "checkAuctionTimeExpired",
      "outputs": [
        {
          "internalType": "bool",
          "name": "",
          "type": "bool"
        }
      ],
      "stateMutability": "view",
      "type": "function"
    },
    {
      "inputs": [
        {
          "internalType": "address",
          "name": "_nftCollectionAddress",
          "type": "address"
        },
        {
          "internalType": "uint256",
          "name": "_nftTokenID",
          "type": "uint256"
        }
      ],
      "name": "getCurrentHighestBidder",
      "outputs": [
        {
          "internalType": "address",
          "name": "",
          "type": "address"
        }
      ],
      "stateMutability": "view",
      "type": "function"
    },
    {
      "inputs": [
        {
          "internalType": "address",
          "name": "_nftCollectionAddress",
          "type": "address"
        },
        {
          "internalType": "uint256",
          "name": "_nftTokenID",
          "type": "uint256"
        }
      ],
      "name": "getCurrentHighestBid",
      "outputs": [
        {
          "internalType": "uint256",
          "name": "",
          "type": "uint256"
        }
      ],
      "stateMutability": "view",
      "type": "function"
    },
    {
      "inputs": [
        {
          "internalType": "address",
          "name": "_nftCollectionAddress",
          "type": "address"
        },
        {
          "internalType": "uint256",
          "name": "_nftTokenID",
          "type": "uint256"
        }
      ],
      "name": "getBiddersAmount",
      "outputs": [
        {
          "internalType": "uint256",
          "name": "",
          "type": "uint256"
        }
      ],
      "stateMutability": "view",
      "type": "function"
    },
    {
      "inputs": [
        {
          "internalType": "address",
          "name": "_nftCollectionAddress",
          "type": "address"
        },
        {
          "internalType": "uint256",
          "name": "_nftTokenID",
          "type": "uint256"
        }
      ],
      "name": "isInAuction",
      "outputs": [
        {
          "internalType": "bool",
          "name": "",
          "type": "bool"
        }
      ],
      "stateMutability": "view",
      "type": "function"
    },
    {
      "inputs": [
        {
          "internalType": "address",
          "name": "_nftCollectionAddress",
          "type": "address"
        },
        {
          "internalType": "uint256",
          "name": "_nftTokenID",
          "type": "uint256"
        }
      ],
      "name": "getTotalBid",
      "outputs": [
        {
          "internalType": "uint256",
          "name": "",
          "type": "uint256"
        }
      ],
      "stateMutability": "view",
      "type": "function"
    },
    {
      "inputs": [
        {
          "internalType": "address",
          "name": "_nftCollectionAddress",
          "type": "address"
        },
        {
          "internalType": "uint256",
          "name": "_nftTokenID",
          "type": "uint256"
        }
      ],
      "name": "getPendingRefunds",
      "outputs": [
        {
          "internalType": "uint256",
          "name": "",
          "type": "uint256"
        }
      ],
      "stateMutability": "view",
      "type": "function"
    }
  ],
  "bytecode": "0x608060405234801561001057600080fd5b506126f3806100206000396000f3fe6080604052600436106100915760003560e01c80637b50315e116100595780637b50315e14610171578063c0791390146101ae578063cceb2a4c146101eb578063d35bfa9514610228578063f27eede01461026557610091565b806320a564e614610096578063469298b1146100d357806353ea4d8a1461011057806356dd47551461013957806359d667a514610155575b600080fd5b3480156100a257600080fd5b506100bd60048036038101906100b89190611ee0565b6102a2565b6040516100ca9190611f2f565b60405180910390f35b3480156100df57600080fd5b506100fa60048036038101906100f59190611ee0565b61040c565b6040516101079190611f2f565b60405180910390f35b34801561011c57600080fd5b5061013760048036038101906101329190611ee0565b610579565b005b610153600480360381019061014e9190611f4a565b61092a565b005b61016f600480360381019061016a9190611ee0565b610eaa565b005b34801561017d57600080fd5b5061019860048036038101906101939190611ee0565b611868565b6040516101a59190611fb8565b60405180910390f35b3480156101ba57600080fd5b506101d560048036038101906101d09190611ee0565b6119d5565b6040516101e29190611f2f565b60405180910390f35b3480156101f757600080fd5b50610212600480360381019061020d9190611ee0565b611add565b60405161021f9190611fb8565b60405180910390f35b34801561023457600080fd5b5061024f600480360381019061024a9190611ee0565b611bb5565b60405161025c9190611fe2565b60405180910390f35b34801561027157600080fd5b5061028c60048036038101906102879190611ee0565b611d3f565b6040516102999190611f2f565b60405180910390f35b60008073ffffffffffffffffffffffffffffffffffffffff168373ffffffffffffffffffffffffffffffffffffffff1603610312576040517f08c379a000000000000000000000000000000000000000000000000000000000815260040161030990612080565b60405180910390fd5b6000808473ffffffffffffffffffffffffffffffffffffffff1673ffffffffffffffffffffffffffffffffffffffff168152602001908152602001600020600083815260200190815260200160002060000160149054906101000a900460ff166103b1576040517f08c379a00000000000000000000000000000000000000000000000000000000081526004016103a890612112565b60405180910390fd5b6000808473ffffffffffffffffffffffffffffffffffffffff1673ffffffffffffffffffffffffffffffffffffffff168152602001908152602001600020600083815260200190815260200160002060030154905092915050565b60008073ffffffffffffffffffffffffffffffffffffffff168373ffffffffffffffffffffffffffffffffffffffff160361047c576040517f08c379a000000000000000000000000000000000000000000000000000000000815260040161047390612080565b60405180910390fd5b6000808473ffffffffffffffffffffffffffffffffffffffff1673ffffffffffffffffffffffffffffffffffffffff168152602001908152602001600020600083815260200190815260200160002060000160149054906101000a900460ff1661051b576040517f08c379a000000000000000000000000000000000000000000000000000000000815260040161051290612112565b60405180910390fd5b6000808473ffffffffffffffffffffffffffffffffffffffff1673ffffffffffffffffffffffffffffffffffffffff168152602001908152602001600020600083815260200190815260200160002060060180549050905092915050565b600073ffffffffffffffffffffffffffffffffffffffff168273ffffffffffffffffffffffffffffffffffffffff16036105e8576040517f08c379a00000000000000000000000000000000000000000000000000000000081526004016105df90612080565b60405180910390fd5b60008060008473ffffffffffffffffffffffffffffffffffffffff1673ffffffffffffffffffffffffffffffffffffffff168152602001908152602001600020600083815260200190815260200160002060040160003373ffffffffffffffffffffffffffffffffffffffff1673ffffffffffffffffffffffffffffffffffffffff16815260200190815260200160002054116106ba576040517f08c379a00000000000000000000000000000000000000000000000000000000081526004016106b1906121a4565b60405180910390fd5b60008060008473ffffffffffffffffffffffffffffffffffffffff1673ffffffffffffffffffffffffffffffffffffffff168152602001908152602001600020600083815260200190815260200160002060040160003373ffffffffffffffffffffffffffffffffffffffff1673ffffffffffffffffffffffffffffffffffffffff16815260200190815260200160002054905060008060008573ffffffffffffffffffffffffffffffffffffffff1673ffffffffffffffffffffffffffffffffffffffff168152602001908152602001600020600084815260200190815260200160002060040160003373ffffffffffffffffffffffffffffffffffffffff1673ffffffffffffffffffffffffffffffffffffffff1681526020019081526020016000208190555060008060008573ffffffffffffffffffffffffffffffffffffffff1673ffffffffffffffffffffffffffffffffffffffff168152602001908152602001600020600084815260200190815260200160002060050160003373ffffffffffffffffffffffffffffffffffffffff1673ffffffffffffffffffffffffffffffffffffffff1681526020019081526020016000208190555060003373ffffffffffffffffffffffffffffffffffffffff168260405161089e906121f5565b60006040518083038185875af1925050503d80600081146108db576040519150601f19603f3d011682016040523d82523d6000602084013e6108e0565b606091505b5050905080610924576040517f08c379a000000000000000000000000000000000000000000000000000000000815260040161091b9061227c565b60405180910390fd5b50505050565b600073ffffffffffffffffffffffffffffffffffffffff168373ffffffffffffffffffffffffffffffffffffffff1603610999576040517f08c379a000000000000000000000000000000000000000000000000000000000815260040161099090612080565b60405180910390fd5b3373ffffffffffffffffffffffffffffffffffffffff166000808573ffffffffffffffffffffffffffffffffffffffff1673ffffffffffffffffffffffffffffffffffffffff168152602001908152602001600020600084815260200190815260200160002060000160009054906101000a900473ffffffffffffffffffffffffffffffffffffffff1673ffffffffffffffffffffffffffffffffffffffff1614610a79576040517f08c379a0000000000000000000000000000000000000000000000000000000008152600401610a709061230e565b60405180910390fd5b6000808473ffffffffffffffffffffffffffffffffffffffff1673ffffffffffffffffffffffffffffffffffffffff168152602001908152602001600020600083815260200190815260200160002060000160149054906101000a900460ff1615610b19576040517f08c379a0000000000000000000000000000000000000000000000000000000008152600401610b10906123a0565b60405180910390fd5b60008111610b5c576040517f08c379a0000000000000000000000000000000000000000000000000000000008152600401610b5390612432565b60405180910390fd5b8042610b689190612481565b6000808573ffffffffffffffffffffffffffffffffffffffff1673ffffffffffffffffffffffffffffffffffffffff168152602001908152602001600020600084815260200190815260200160002060010181905550336000808573ffffffffffffffffffffffffffffffffffffffff1673ffffffffffffffffffffffffffffffffffffffff168152602001908152602001600020600084815260200190815260200160002060020160006101000a81548173ffffffffffffffffffffffffffffffffffffffff021916908373ffffffffffffffffffffffffffffffffffffffff160217905550346000808573ffffffffffffffffffffffffffffffffffffffff1673ffffffffffffffffffffffffffffffffffffffff16815260200190815260200160002060008481526020019081526020016000206003018190555060016000808573ffffffffffffffffffffffffffffffffffffffff1673ffffffffffffffffffffffffffffffffffffffff168152602001908152602001600020600084815260200190815260200160002060000160146101000a81548160ff0219169083151502179055506000808473ffffffffffffffffffffffffffffffffffffffff1673ffffffffffffffffffffffffffffffffffffffff1681526020019081526020016000206000838152602001908152602001600020600601339080600181540180825580915050600190039060005260206000200160009091909190916101000a81548173ffffffffffffffffffffffffffffffffffffffff021916908373ffffffffffffffffffffffffffffffffffffffff160217905550346000808573ffffffffffffffffffffffffffffffffffffffff1673ffffffffffffffffffffffffffffffffffffffff168152602001908152602001600020600084815260200190815260200160002060050160003373ffffffffffffffffffffffffffffffffffffffff1673ffffffffffffffffffffffffffffffffffffffff1681526020019081526020016000206000828254610e639190612481565b925050819055507f881afad1f847f87e78464b076756f7b1016a2062fbff555c3c4992527cc2dbe0838333604051610e9d939291906124d7565b60405180910390a1505050565b600073ffffffffffffffffffffffffffffffffffffffff168273ffffffffffffffffffffffffffffffffffffffff1603610f19576040517f08c379a0000000000000000000000000000000000000000000000000000000008152600401610f1090612080565b60405180910390fd5b6000808373ffffffffffffffffffffffffffffffffffffffff1673ffffffffffffffffffffffffffffffffffffffff168152602001908152602001600020600082815260200190815260200160002060000160149054906101000a900460ff16610fb8576040517f08c379a0000000000000000000000000000000000000000000000000000000008152600401610faf90612112565b60405180910390fd5b6000808373ffffffffffffffffffffffffffffffffffffffff1673ffffffffffffffffffffffffffffffffffffffff168152602001908152602001600020600082815260200190815260200160002060010154421061104c576040517f08c379a00000000000000000000000000000000000000000000000000000000081526004016110439061255a565b60405180910390fd5b6103e86000808473ffffffffffffffffffffffffffffffffffffffff1673ffffffffffffffffffffffffffffffffffffffff168152602001908152602001600020600083815260200190815260200160002060060180549050106110e5576040517f08c379a00000000000000000000000000000000000000000000000000000000081526004016110dc906125ec565b60405180910390fd5b6000808373ffffffffffffffffffffffffffffffffffffffff1673ffffffffffffffffffffffffffffffffffffffff168152602001908152602001600020600082815260200190815260200160002060030154346000808573ffffffffffffffffffffffffffffffffffffffff1673ffffffffffffffffffffffffffffffffffffffff168152602001908152602001600020600084815260200190815260200160002060050160003373ffffffffffffffffffffffffffffffffffffffff1673ffffffffffffffffffffffffffffffffffffffff168152602001908152602001600020546111d39190612481565b11611213576040517f08c379a000000000000000000000000000000000000000000000000000000000815260040161120a90612658565b60405180910390fd5b60008060008473ffffffffffffffffffffffffffffffffffffffff1673ffffffffffffffffffffffffffffffffffffffff168152602001908152602001600020600083815260200190815260200160002060030154146113d8576000808373ffffffffffffffffffffffffffffffffffffffff1673ffffffffffffffffffffffffffffffffffffffff1681526020019081526020016000206000828152602001908152602001600020600301546000808473ffffffffffffffffffffffffffffffffffffffff1673ffffffffffffffffffffffffffffffffffffffff168152602001908152602001600020600083815260200190815260200160002060040160008060008673ffffffffffffffffffffffffffffffffffffffff1673ffffffffffffffffffffffffffffffffffffffff168152602001908152602001600020600085815260200190815260200160002060020160009054906101000a900473ffffffffffffffffffffffffffffffffffffffff1673ffffffffffffffffffffffffffffffffffffffff1673ffffffffffffffffffffffffffffffffffffffff16815260200190815260200160002060008282546113d09190612481565b925050819055505b60008060008473ffffffffffffffffffffffffffffffffffffffff1673ffffffffffffffffffffffffffffffffffffffff168152602001908152602001600020600083815260200190815260200160002060050160003373ffffffffffffffffffffffffffffffffffffffff1673ffffffffffffffffffffffffffffffffffffffff1681526020019081526020016000205403611523576000808373ffffffffffffffffffffffffffffffffffffffff1673ffffffffffffffffffffffffffffffffffffffff1681526020019081526020016000206000828152602001908152602001600020600601339080600181540180825580915050600190039060005260206000200160009091909190916101000a81548173ffffffffffffffffffffffffffffffffffffffff021916908373ffffffffffffffffffffffffffffffffffffffff1602179055505b346000808473ffffffffffffffffffffffffffffffffffffffff1673ffffffffffffffffffffffffffffffffffffffff168152602001908152602001600020600083815260200190815260200160002060050160003373ffffffffffffffffffffffffffffffffffffffff1673ffffffffffffffffffffffffffffffffffffffff16815260200190815260200160002060008282546115c29190612481565b925050819055506000808373ffffffffffffffffffffffffffffffffffffffff1673ffffffffffffffffffffffffffffffffffffffff168152602001908152602001600020600082815260200190815260200160002060050160003373ffffffffffffffffffffffffffffffffffffffff1673ffffffffffffffffffffffffffffffffffffffff168152602001908152602001600020546000808473ffffffffffffffffffffffffffffffffffffffff1673ffffffffffffffffffffffffffffffffffffffff168152602001908152602001600020600083815260200190815260200160002060030181905550336000808473ffffffffffffffffffffffffffffffffffffffff1673ffffffffffffffffffffffffffffffffffffffff168152602001908152602001600020600083815260200190815260200160002060020160006101000a81548173ffffffffffffffffffffffffffffffffffffffff021916908373ffffffffffffffffffffffffffffffffffffffff16021790555060008060008473ffffffffffffffffffffffffffffffffffffffff1673ffffffffffffffffffffffffffffffffffffffff168152602001908152602001600020600083815260200190815260200160002060040160003373ffffffffffffffffffffffffffffffffffffffff1673ffffffffffffffffffffffffffffffffffffffff168152602001908152602001600020819055507ffab03ca36a06bc40a01733649a187387b026bc61b5ce7c1f2e0db35ff066bda88282336000808773ffffffffffffffffffffffffffffffffffffffff1673ffffffffffffffffffffffffffffffffffffffff16815260200190815260200160002060008681526020019081526020016000206003015460405161185c9493929190612678565b60405180910390a15050565b60008073ffffffffffffffffffffffffffffffffffffffff168373ffffffffffffffffffffffffffffffffffffffff16036118d8576040517f08c379a00000000000000000000000000000000000000000000000000000000081526004016118cf90612080565b60405180910390fd5b6000808473ffffffffffffffffffffffffffffffffffffffff1673ffffffffffffffffffffffffffffffffffffffff168152602001908152602001600020600083815260200190815260200160002060000160149054906101000a900460ff16611977576040517f08c379a000000000000000000000000000000000000000000000000000000000815260040161196e90612112565b60405180910390fd5b6000808473ffffffffffffffffffffffffffffffffffffffff1673ffffffffffffffffffffffffffffffffffffffff168152602001908152602001600020600083815260200190815260200160002060010154421015905092915050565b60008073ffffffffffffffffffffffffffffffffffffffff168373ffffffffffffffffffffffffffffffffffffffff1603611a45576040517f08c379a0000000000000000000000000000000000000000000000000000000008152600401611a3c90612080565b60405180910390fd5b6000808473ffffffffffffffffffffffffffffffffffffffff1673ffffffffffffffffffffffffffffffffffffffff168152602001908152602001600020600083815260200190815260200160002060040160003373ffffffffffffffffffffffffffffffffffffffff1673ffffffffffffffffffffffffffffffffffffffff16815260200190815260200160002054905092915050565b60008073ffffffffffffffffffffffffffffffffffffffff168373ffffffffffffffffffffffffffffffffffffffff1603611b4d576040517f08c379a0000000000000000000000000000000000000000000000000000000008152600401611b4490612080565b60405180910390fd5b6000808473ffffffffffffffffffffffffffffffffffffffff1673ffffffffffffffffffffffffffffffffffffffff168152602001908152602001600020600083815260200190815260200160002060000160149054906101000a900460ff16905092915050565b60008073ffffffffffffffffffffffffffffffffffffffff168373ffffffffffffffffffffffffffffffffffffffff1603611c25576040517f08c379a0000000000000000000000000000000000000000000000000000000008152600401611c1c90612080565b60405180910390fd5b6000808473ffffffffffffffffffffffffffffffffffffffff1673ffffffffffffffffffffffffffffffffffffffff168152602001908152602001600020600083815260200190815260200160002060000160149054906101000a900460ff16611cc4576040517f08c379a0000000000000000000000000000000000000000000000000000000008152600401611cbb90612112565b60405180910390fd5b6000808473ffffffffffffffffffffffffffffffffffffffff1673ffffffffffffffffffffffffffffffffffffffff168152602001908152602001600020600083815260200190815260200160002060020160009054906101000a900473ffffffffffffffffffffffffffffffffffffffff16905092915050565b60008073ffffffffffffffffffffffffffffffffffffffff168373ffffffffffffffffffffffffffffffffffffffff1603611daf576040517f08c379a0000000000000000000000000000000000000000000000000000000008152600401611da690612080565b60405180910390fd5b6000808473ffffffffffffffffffffffffffffffffffffffff1673ffffffffffffffffffffffffffffffffffffffff168152602001908152602001600020600083815260200190815260200160002060050160003373ffffffffffffffffffffffffffffffffffffffff1673ffffffffffffffffffffffffffffffffffffffff16815260200190815260200160002054905092915050565b600080fd5b600073ffffffffffffffffffffffffffffffffffffffff82169050919050565b6000611e7782611e4c565b9050919050565b611e8781611e6c565b8114611e9257600080fd5b50565b600081359050611ea481611e7e565b92915050565b6000819050919050565b611ebd81611eaa565b8114611ec857600080fd5b50565b600081359050611eda81611eb4565b92915050565b60008060408385031215611ef757611ef6611e47565b5b6000611f0585828601611e95565b9250506020611f1685828601611ecb565b9150509250929050565b611f2981611eaa565b82525050565b6000602082019050611f446000830184611f20565b92915050565b600080600060608486031215611f6357611f62611e47565b5b6000611f7186828701611e95565b9350506020611f8286828701611ecb565b9250506040611f9386828701611ecb565b9150509250925092565b60008115159050919050565b611fb281611f9d565b82525050565b6000602082019050611fcd6000830184611fa9565b92915050565b611fdc81611e6c565b82525050565b6000602082019050611ff76000830184611fd3565b92915050565b600082825260208201905092915050565b7f54686520636f6c6c656374696f6e2061646472657373206e6565647320746f2060008201527f626520646966666572656e742066726f6d207a65726f2e000000000000000000602082015250565b600061206a603783611ffd565b91506120758261200e565b604082019050919050565b600060208201905081810360008301526120998161205d565b9050919050565b7f5468657265206973206e6f2061756374696f6e207374617274656420666f722060008201527f74686973204e46542e0000000000000000000000000000000000000000000000602082015250565b60006120fc602983611ffd565b9150612107826120a0565b604082019050919050565b6000602082019050818103600083015261212b816120ef565b9050919050565b7f5468657265206973206e6f7468696e6720746f20726566756e6420746f20746860008201527f65206d6573736167652073656e64657220666f722074686973204e46542e0000602082015250565b600061218e603e83611ffd565b915061219982612132565b604082019050919050565b600060208201905081810360008301526121bd81612181565b9050919050565b600081905092915050565b50565b60006121df6000836121c4565b91506121ea826121cf565b600082019050919050565b6000612200826121d2565b9150819050919050565b7f4661696c656420746f2073656e642045544820746f207468652072657175657360008201527f7465722e00000000000000000000000000000000000000000000000000000000602082015250565b6000612266602483611ffd565b91506122718261220a565b604082019050919050565b6000602082019050818103600083015261229581612259565b9050919050565b7f5468652076616c6964697479206f66207468652061756374696f6e206861732060008201527f6e6f74206265656e2076657269666965642c2079657400000000000000000000602082015250565b60006122f8603683611ffd565b91506123038261229c565b604082019050919050565b60006020820190508181036000830152612327816122eb565b9050919050565b7f416e2061756374696f6e2068617320616c72656164792073746172746564206660008201527f6f722074686973204e46542e0000000000000000000000000000000000000000602082015250565b600061238a602c83611ffd565b91506123958261232e565b604082019050919050565b600060208201905081810360008301526123b98161237d565b9050919050565b7f506c6561736520646566696e6520616e2061756374696f6e206869676865722060008201527f7468616e207a65726f2e00000000000000000000000000000000000000000000602082015250565b600061241c602a83611ffd565b9150612427826123c0565b604082019050919050565b6000602082019050818103600083015261244b8161240f565b9050919050565b7f4e487b7100000000000000000000000000000000000000000000000000000000600052601160045260246000fd5b600061248c82611eaa565b915061249783611eaa565b9250827fffffffffffffffffffffffffffffffffffffffffffffffffffffffffffffffff038211156124cc576124cb612452565b5b828201905092915050565b60006060820190506124ec6000830186611fd3565b6124f96020830185611f20565b6125066040830184611fd3565b949350505050565b7f5468652061756374696f6e2068617320616c726561647920656e6465642e0000600082015250565b6000612544601e83611ffd565b915061254f8261250e565b602082019050919050565b6000602082019050818103600083015261257381612537565b9050919050565b7f546869732061756374696f6e20616368696576656420746865206d6178696d7560008201527f6d20616d6f756e74206f6620626964646572732e000000000000000000000000602082015250565b60006125d6603483611ffd565b91506125e18261257a565b604082019050919050565b60006020820190508181036000830152612605816125c9565b9050919050565b7f5468652062696420697320746f6f206c6f772e00000000000000000000000000600082015250565b6000612642601383611ffd565b915061264d8261260c565b602082019050919050565b6000602082019050818103600083015261267181612635565b9050919050565b600060808201905061268d6000830187611fd3565b61269a6020830186611f20565b6126a76040830185611fd3565b6126b46060830184611f20565b9594505050505056fea2646970667358221220088b9f1bbf89d1ec7fe3fb2b076110860f8bba78f7675b47da25bfb54c18485d64736f6c634300080d0033",
  "immutableReferences": {},
  "source": "// SPDX-License-Identifier: MIT\npragma solidity 0.8.13;\n\n/// @title A decentralized auction system\n/// @author Sebastien Gazeau, Sbastien Dupertuis et Alexis Mendoza\n/// @notice This smart contract can be used in any NFT project requiring a system of auction\ncontract Auction {\n    //------------------------------------------------------------------------------------\n    // ----------------------------------Variables----------------------------------------\n    //------------------------------------------------------------------------------------\n        /// @notice This is the structure that contains all useful data to manage the auction of a given NFT\n    struct BidManagement {\n        address currentOwner;\n        bool hasAuctionStarted;\n        uint auctionEndTime;\n        address highestBidder;\n        uint highestBid;\n        mapping (address => uint) pendingRefunds;\n        mapping (address => uint) totalBid;\n        address[] bidders;\n    }\n\n    /// @notice Mapping of bid management data linked to each individual NFT (specified by collection address and token ID)\n    mapping (address => mapping (uint => BidManagement)) bidManager;\n\n    //------------------------------------------------------------------------------------\n    // ------------------------------------Events-----------------------------------------\n    //------------------------------------------------------------------------------------\n\n    /// @notice Event raised when the bid has increased\n    event HighestBidIncreased(address _nftCollectionAddress, uint _nftTokenID, address _bidder, uint _newBid);\n    /// @notice Event raised when the auction has started\n    event AuctionStarted(address _nftCollectionAddress, uint _nftTokenID, address _owner);\n    /// @notice Event raised when the auction has finished\n    event AuctionClosed(address _nftCollectionAddress, uint _nftTokenID, address _newOwner, uint _price);\n\n    //------------------------------------------------------------------------------------\n    // -----------------------------------Functions---------------------------------------\n    //------------------------------------------------------------------------------------\n    /// @notice This function confirms a valid auction request\n    /// @dev This function is called from the master file when an auction is requested from the front\n    /// @param _nftCollectionAddress Collection address of th\n    /// @param _nftTokenID Token ID of the given NFTe given NFT\n    /// @param _currentOwner The current owner of the NFT\n    function setAuctionValidity(address _nftCollectionAddress, uint _nftTokenID, address _currentOwner) internal {\n        require(!bidManager[_nftCollectionAddress][_nftTokenID].hasAuctionStarted, \"An auction has already started for this NFT.\");    // Make sure an auction did not start yet\n\n        bidManager[_nftCollectionAddress][_nftTokenID].currentOwner = _currentOwner;\n    }\n\n    /// @notice This function allows to start a new auction\n    /// @dev Call this function when the user decides to sell his NFT through an auction. The owner can define a starting price if he sends money in the transaction.\n    /// @param _nftCollectionAddress Collection address of the given NFT\n    /// @param _nftTokenID Token ID of the given NFT\n    /// @param _biddingTime Auction time in seconds\n    function startAuction(address _nftCollectionAddress, uint _nftTokenID, uint _biddingTime) external payable {\n        require(_nftCollectionAddress != address(0),\"The collection address needs to be different from zero.\");    // Make sure the address is different from zero\n        require(bidManager[_nftCollectionAddress][_nftTokenID].currentOwner == msg.sender,\"The validity of the auction has not been verified, yet\"); // Make sure it is allowed to start an auction on this NFT \n        require(!bidManager[_nftCollectionAddress][_nftTokenID].hasAuctionStarted, \"An auction has already started for this NFT.\");    // Make sure an auction did not start yet\n        require(_biddingTime > 0, \"Please define an auction higher than zero.\");                                                 // The auction time must be higher than zero\n\n        bidManager[_nftCollectionAddress][_nftTokenID].auctionEndTime = block.timestamp + _biddingTime;    // Define the time at which the auction will end up\n        bidManager[_nftCollectionAddress][_nftTokenID].highestBidder = msg.sender;                         // The initial highest bidder is the message sender\n        bidManager[_nftCollectionAddress][_nftTokenID].highestBid = msg.value;                        // Set the first selling price\n        bidManager[_nftCollectionAddress][_nftTokenID].hasAuctionStarted = true;                           // Auction started\n        bidManager[_nftCollectionAddress][_nftTokenID].bidders.push(msg.sender);                       // Push the owner in the bidders list\n        bidManager[_nftCollectionAddress][_nftTokenID].totalBid[msg.sender] += msg.value;              // Initialize the total bid of the owner\n\n        emit AuctionStarted(_nftCollectionAddress, _nftTokenID, msg.sender);       // Raise the event to log when an auction starts\n    }\n\n    /// @notice This function allows to place a new bid\n    /// @dev Call this function each time a user place a new bid\n    /// @param _nftCollectionAddress Collection address of the given NFT\n    /// @param _nftTokenID Token ID of the given NFT\n    function bid(address _nftCollectionAddress, uint _nftTokenID) external payable {\n        require(_nftCollectionAddress != address(0),\"The collection address needs to be different from zero.\");    // Make sure the address is different from zero\n        require(bidManager[_nftCollectionAddress][_nftTokenID].hasAuctionStarted, \"There is no auction started for this NFT.\");        // Make sure an auction is ongoing for this NFT\n        require(block.timestamp < bidManager[_nftCollectionAddress][_nftTokenID].auctionEndTime, \"The auction has already ended.\");    // Make sure the auction is not finished yet\n        require(bidManager[_nftCollectionAddress][_nftTokenID].bidders.length < 1000, \"This auction achieved the maximum amount of bidders.\");    // Revert if we achieve the given limit of bids\n        require((bidManager[_nftCollectionAddress][_nftTokenID].totalBid[msg.sender]+msg.value) > bidManager[_nftCollectionAddress][_nftTokenID].highestBid, \"The bid is too low.\"); // Make sure the bid (including previous bids) is higher than the current highest bid\n    \n        // Check if there was already a bid\n        if(bidManager[_nftCollectionAddress][_nftTokenID].highestBid != 0) {\n            bidManager[_nftCollectionAddress][_nftTokenID].pendingRefunds[bidManager[_nftCollectionAddress][_nftTokenID].highestBidder] += bidManager[_nftCollectionAddress][_nftTokenID].highestBid;\n        }\n\n        // Add the bidder in the list if it is the first time\n        if(bidManager[_nftCollectionAddress][_nftTokenID].totalBid[msg.sender] == 0) {\n            bidManager[_nftCollectionAddress][_nftTokenID].bidders.push(msg.sender);\n        } \n\n        // Update the data with the new highest bid\n        bidManager[_nftCollectionAddress][_nftTokenID].totalBid[msg.sender] += msg.value;      // The total bid of this user is updated  \n        bidManager[_nftCollectionAddress][_nftTokenID].highestBid = bidManager[_nftCollectionAddress][_nftTokenID].totalBid[msg.sender];    // The highest bid is what this user already bid + the new value of this transaction\n        bidManager[_nftCollectionAddress][_nftTokenID].highestBidder = msg.sender;             // Update the new highest bidder             \n        bidManager[_nftCollectionAddress][_nftTokenID].pendingRefunds[msg.sender] = 0;         // No pending refunds anymore\n\n        emit HighestBidIncreased(_nftCollectionAddress,_nftTokenID,msg.sender,bidManager[_nftCollectionAddress][_nftTokenID].highestBid);     // Raise the event to save the new highest bid\n    }\n\n    /// @notice This function allows a user that placed a bid (not the highest anymore) to get back his funds\n    /// @dev The user can call this function through the front when his bid is not the highest anymore.\n    /// @param _nftCollectionAddress Collection address of the given NFT\n    /// @param _nftTokenID Token ID of the given NFT\n    function withdrawRefund(address _nftCollectionAddress, uint _nftTokenID) external {\n        require(_nftCollectionAddress != address(0),\"The collection address needs to be different from zero.\");    // Make sure the address is different from zero\n        require(bidManager[_nftCollectionAddress][_nftTokenID].pendingRefunds[msg.sender] > 0, \"There is nothing to refund to the message sender for this NFT.\");   // Make sure there is funds to return\n   \n        uint refund = bidManager[_nftCollectionAddress][_nftTokenID].pendingRefunds[msg.sender];   // Recover the funds to refund before erasing it\n\n        bidManager[_nftCollectionAddress][_nftTokenID].pendingRefunds[msg.sender] = 0;             // Erase the refund counter\n        bidManager[_nftCollectionAddress][_nftTokenID].totalBid[msg.sender] = 0; \n        \n        (bool success, ) = msg.sender.call{value:refund}(\"\");\n        require(success, \"Failed to send ETH to the requester.\");\n    }\n\n    /// @notice This function allows to close the auction\n    /// @dev This function is called from the front when the auction time is expired\n    /// @param _nftCollectionAddress Collection address of the given NFT\n    /// @param _nftTokenID Token ID of the given NFT\n    function endAuction(address _nftCollectionAddress, uint _nftTokenID) internal {\n        //require(_nftCollectionAddress != address(0),\"The collection address needs to be different from zero.\");    // Make sure the address is different from zero\n        //require(bidManager[_nftCollectionAddress][_nftTokenID].hasAuctionStarted, \"There is no auction started for this NFT.\");    // Make sure an auction is ongoing for this NFT\n        //require(block.timestamp >= bidManager[_nftCollectionAddress][_nftTokenID].auctionEndTime, \"The auction has not finished yet.\"); // Make sure the auction is finished\n\n        bidManager[_nftCollectionAddress][_nftTokenID].hasAuctionStarted = false; \n        bidManager[_nftCollectionAddress][_nftTokenID].currentOwner = address(0);\n        \n        // Reset totalBid mapping. No risk of DoS gaz limit since the amount of bidders is limited to 1000.\n        uint listSize = bidManager[_nftCollectionAddress][_nftTokenID].bidders.length;\n        address tempAddress;\n        for (uint i=listSize; i>0; i--){\n            tempAddress=bidManager[_nftCollectionAddress][_nftTokenID].bidders[i-1];\n            bidManager[_nftCollectionAddress][_nftTokenID].totalBid[tempAddress] = 0;\n        }\n        delete bidManager[_nftCollectionAddress][_nftTokenID].bidders;\n\n        emit AuctionClosed(_nftCollectionAddress, _nftTokenID, bidManager[_nftCollectionAddress][_nftTokenID].highestBidder,bidManager[_nftCollectionAddress][_nftTokenID].highestBid);       // Raise the event to log when an auction ends\n    }\n\n\n    //------------------------------------------------------------------------------------\n    // ------------------------------------Getters----------------------------------------\n    //------------------------------------------------------------------------------------\n    /// @notice This function allows to check if the auction ended\n    /// @dev Call this function to check if the time of the auction is over or not\n    /// @param _nftCollectionAddress Collection address of the given NFT\n    /// @param _nftTokenID Token ID of the given NFT\n    /// @return Returns a boolean to define if the auction time has expired (true) or not (false)\n    function checkAuctionTimeExpired(address _nftCollectionAddress, uint _nftTokenID) external view returns (bool) {\n        require(_nftCollectionAddress != address(0),\"The collection address needs to be different from zero.\");    // Make sure the address is different from zero\n        require(bidManager[_nftCollectionAddress][_nftTokenID].hasAuctionStarted, \"There is no auction started for this NFT.\");    // Make sure an auction is ongoing for this NFT  \n\n        return (block.timestamp >= bidManager[_nftCollectionAddress][_nftTokenID].auctionEndTime);\n    }\n\n    /// @notice This function allows to check for the current highest bidder\n    /// @dev Call this function when you want to know the address of the highest bidder\n    /// @param _nftCollectionAddress Collection address of the given NFT\n    /// @param _nftTokenID Token ID of the given NFT\n    /// @return Returns the address of the current highest bidder\n    function getCurrentHighestBidder(address _nftCollectionAddress, uint _nftTokenID) external view returns (address) {\n        require(_nftCollectionAddress != address(0),\"The collection address needs to be different from zero.\");    // Make sure the address is different from zero\n        require(bidManager[_nftCollectionAddress][_nftTokenID].hasAuctionStarted, \"There is no auction started for this NFT.\");    // Make sure an auction is ongoing for this NFT  \n\n        return (bidManager[_nftCollectionAddress][_nftTokenID].highestBidder);\n    }\n\n    /// @notice This function allows to check for the current highest bid\n    /// @dev Call this function when you want to know the value of the highest bid\n    /// @param _nftCollectionAddress Collection address of the given NFT\n    /// @param _nftTokenID Token ID of the given NFT\n    /// @return Returns the value of the current highest bid\n    function getCurrentHighestBid(address _nftCollectionAddress, uint _nftTokenID) external view returns (uint) {\n        require(_nftCollectionAddress != address(0),\"The collection address needs to be different from zero.\");    // Make sure the address is different from zero\n        require(bidManager[_nftCollectionAddress][_nftTokenID].hasAuctionStarted, \"There is no auction started for this NFT.\");    // Make sure an auction is ongoing for this NFT  \n\n        return (bidManager[_nftCollectionAddress][_nftTokenID].highestBid);\n    }\n\n    /// @notice This function allows to check for the amount of bidders\n    /// @dev Call this function from the front to display the amount of bidders over the given limit (here 1000)\n    /// @param _nftCollectionAddress Collection address of the given NFT\n    /// @param _nftTokenID Token ID of the given NFT\n    /// @return Returns the amount of bidders (how many addresses)\n    function getBiddersAmount(address _nftCollectionAddress, uint _nftTokenID) external view returns (uint) {\n        require(_nftCollectionAddress != address(0),\"The collection address needs to be different from zero.\");    // Make sure the address is different from zero\n        require(bidManager[_nftCollectionAddress][_nftTokenID].hasAuctionStarted, \"There is no auction started for this NFT.\");    // Make sure an auction is ongoing for this NFT  \n\n        return (bidManager[_nftCollectionAddress][_nftTokenID].bidders.length);\n    }\n \n    /// @notice This function allows to check if there is an auction in progress for the given NFT\n    /// @dev Call this function from the front to know if there is an auction ongoing\n    /// @param _nftCollectionAddress Collection address of the given NFT\n    /// @param _nftTokenID Token ID of the given NFT\n    /// @return Returns true if an auction is in progress\n    function isInAuction(address _nftCollectionAddress, uint _nftTokenID) external view returns (bool) {\n        require(_nftCollectionAddress != address(0),\"The collection address needs to be different from zero.\");    // Make sure the address is different from zero\n        return(bidManager[_nftCollectionAddress][_nftTokenID].hasAuctionStarted);\n    }\n\n    /// @notice This function allows to check the total bid of the user calling the message\n    /// @dev Call this function from the front to know how mush the bidder already bidded\n    /// @param _nftCollectionAddress Collection address of the given NFT\n    /// @param _nftTokenID Token ID of the given NFT\n    /// @return Returns the total amount the user bidded till now\n    function getTotalBid(address _nftCollectionAddress, uint _nftTokenID) external view returns (uint256) {\n        require(_nftCollectionAddress != address(0),\"The collection address needs to be different from zero.\");    // Make sure the address is different from zero\n        return(bidManager[_nftCollectionAddress][_nftTokenID].totalBid[msg.sender]);\n    }\n\n    /// @notice This function allows to check the total pending refunds of a user, if any\n    /// @dev Call this function from the front to know how much pending refunds a user has\n    /// @param _nftCollectionAddress Collection address of the given NFT\n    /// @param _nftTokenID Token ID of the given NFT\n    /// @return Returns the total amount of pending refunds\n    function getPendingRefunds(address _nftCollectionAddress, uint _nftTokenID) external view returns (uint256) {\n        require(_nftCollectionAddress != address(0),\"The collection address needs to be different from zero.\");    // Make sure the address is different from zero\n        return(bidManager[_nftCollectionAddress][_nftTokenID].pendingRefunds[msg.sender]);\n    }\n}",
  "sourcePath": "/home/alexis/Projects/project-nft-cyon/contracts/Auction.sol",
  "compiler": {
    "name": "solc",
    "version": "0.8.13+commit.abaa5c0e.Emscripten.clang"
  },
  "schemaVersion": "3.4.7",
  "updatedAt": "2022-05-15T16:44:54.823Z",
  "devdoc": {
    "author": "Sebastien Gazeau, Sbastien Dupertuis et Alexis Mendoza",
    "kind": "dev",
    "methods": {
      "bid(address,uint256)": {
        "details": "Call this function each time a user place a new bid",
        "params": {
          "_nftCollectionAddress": "Collection address of the given NFT",
          "_nftTokenID": "Token ID of the given NFT"
        }
      },
      "checkAuctionTimeExpired(address,uint256)": {
        "details": "Call this function to check if the time of the auction is over or not",
        "params": {
          "_nftCollectionAddress": "Collection address of the given NFT",
          "_nftTokenID": "Token ID of the given NFT"
        },
        "returns": {
          "_0": "Returns a boolean to define if the auction time has expired (true) or not (false)"
        }
      },
      "getBiddersAmount(address,uint256)": {
        "details": "Call this function from the front to display the amount of bidders over the given limit (here 1000)",
        "params": {
          "_nftCollectionAddress": "Collection address of the given NFT",
          "_nftTokenID": "Token ID of the given NFT"
        },
        "returns": {
          "_0": "Returns the amount of bidders (how many addresses)"
        }
      },
      "getCurrentHighestBid(address,uint256)": {
        "details": "Call this function when you want to know the value of the highest bid",
        "params": {
          "_nftCollectionAddress": "Collection address of the given NFT",
          "_nftTokenID": "Token ID of the given NFT"
        },
        "returns": {
          "_0": "Returns the value of the current highest bid"
        }
      },
      "getCurrentHighestBidder(address,uint256)": {
        "details": "Call this function when you want to know the address of the highest bidder",
        "params": {
          "_nftCollectionAddress": "Collection address of the given NFT",
          "_nftTokenID": "Token ID of the given NFT"
        },
        "returns": {
          "_0": "Returns the address of the current highest bidder"
        }
      },
      "getPendingRefunds(address,uint256)": {
        "details": "Call this function from the front to know how much pending refunds a user has",
        "params": {
          "_nftCollectionAddress": "Collection address of the given NFT",
          "_nftTokenID": "Token ID of the given NFT"
        },
        "returns": {
          "_0": "Returns the total amount of pending refunds"
        }
      },
      "getTotalBid(address,uint256)": {
        "details": "Call this function from the front to know how mush the bidder already bidded",
        "params": {
          "_nftCollectionAddress": "Collection address of the given NFT",
          "_nftTokenID": "Token ID of the given NFT"
        },
        "returns": {
          "_0": "Returns the total amount the user bidded till now"
        }
      },
      "isInAuction(address,uint256)": {
        "details": "Call this function from the front to know if there is an auction ongoing",
        "params": {
          "_nftCollectionAddress": "Collection address of the given NFT",
          "_nftTokenID": "Token ID of the given NFT"
        },
        "returns": {
          "_0": "Returns true if an auction is in progress"
        }
      },
      "startAuction(address,uint256,uint256)": {
        "details": "Call this function when the user decides to sell his NFT through an auction. The owner can define a starting price if he sends money in the transaction.",
        "params": {
          "_biddingTime": "Auction time in seconds",
          "_nftCollectionAddress": "Collection address of the given NFT",
          "_nftTokenID": "Token ID of the given NFT"
        }
      },
      "withdrawRefund(address,uint256)": {
        "details": "The user can call this function through the front when his bid is not the highest anymore.",
        "params": {
          "_nftCollectionAddress": "Collection address of the given NFT",
          "_nftTokenID": "Token ID of the given NFT"
        }
      }
    },
    "title": "A decentralized auction system",
    "version": 1
  },
  "userdoc": {
    "events": {
      "AuctionClosed(address,uint256,address,uint256)": {
        "notice": "Event raised when the auction has finished"
      },
      "AuctionStarted(address,uint256,address)": {
        "notice": "Event raised when the auction has started"
      },
      "HighestBidIncreased(address,uint256,address,uint256)": {
        "notice": "Event raised when the bid has increased"
      }
    },
    "kind": "user",
    "methods": {
      "bid(address,uint256)": {
        "notice": "This function allows to place a new bid"
      },
      "checkAuctionTimeExpired(address,uint256)": {
        "notice": "This function allows to check if the auction ended"
      },
      "getBiddersAmount(address,uint256)": {
        "notice": "This function allows to check for the amount of bidders"
      },
      "getCurrentHighestBid(address,uint256)": {
        "notice": "This function allows to check for the current highest bid"
      },
      "getCurrentHighestBidder(address,uint256)": {
        "notice": "This function allows to check for the current highest bidder"
      },
      "getPendingRefunds(address,uint256)": {
        "notice": "This function allows to check the total pending refunds of a user, if any"
      },
      "getTotalBid(address,uint256)": {
        "notice": "This function allows to check the total bid of the user calling the message"
      },
      "isInAuction(address,uint256)": {
        "notice": "This function allows to check if there is an auction in progress for the given NFT"
      },
      "startAuction(address,uint256,uint256)": {
        "notice": "This function allows to start a new auction"
      },
      "withdrawRefund(address,uint256)": {
        "notice": "This function allows a user that placed a bid (not the highest anymore) to get back his funds"
      }
    },
    "notice": "This smart contract can be used in any NFT project requiring a system of auction",
    "version": 1
  }
}