{
  "contractName": "Auction",
  "abi": [
    {
      "anonymous": false,
      "inputs": [
        {
          "indexed": false,
          "internalType": "string",
          "name": "_nftCollection",
          "type": "string"
        },
        {
          "indexed": false,
          "internalType": "uint256",
          "name": "_nftTokenID",
          "type": "uint256"
        },
        {
          "indexed": false,
          "internalType": "address",
          "name": "_newOwner",
          "type": "address"
        },
        {
          "indexed": false,
          "internalType": "uint256",
          "name": "_price",
          "type": "uint256"
        }
      ],
      "name": "AuctionClosed",
      "type": "event"
    },
    {
      "anonymous": false,
      "inputs": [
        {
          "indexed": false,
          "internalType": "string",
          "name": "_nftCollection",
          "type": "string"
        },
        {
          "indexed": false,
          "internalType": "uint256",
          "name": "_nftTokenID",
          "type": "uint256"
        },
        {
          "indexed": false,
          "internalType": "address",
          "name": "_owner",
          "type": "address"
        }
      ],
      "name": "AuctionStarted",
      "type": "event"
    },
    {
      "anonymous": false,
      "inputs": [
        {
          "indexed": false,
          "internalType": "string",
          "name": "_nftCollection",
          "type": "string"
        },
        {
          "indexed": false,
          "internalType": "uint256",
          "name": "_nftTokenID",
          "type": "uint256"
        },
        {
          "indexed": false,
          "internalType": "address",
          "name": "_bidder",
          "type": "address"
        },
        {
          "indexed": false,
          "internalType": "uint256",
          "name": "_newBid",
          "type": "uint256"
        }
      ],
      "name": "HighestBidIncreased",
      "type": "event"
    },
    {
      "inputs": [
        {
          "internalType": "string",
          "name": "_nftCollection",
          "type": "string"
        },
        {
          "internalType": "uint256",
          "name": "_nftTokenID",
          "type": "uint256"
        },
        {
          "internalType": "uint256",
          "name": "_biddingTime",
          "type": "uint256"
        }
      ],
      "name": "initializeAuction",
      "outputs": [],
      "stateMutability": "payable",
      "type": "function",
      "payable": true
    },
    {
      "inputs": [
        {
          "internalType": "string",
          "name": "_nftCollection",
          "type": "string"
        },
        {
          "internalType": "uint256",
          "name": "_nftTokenID",
          "type": "uint256"
        }
      ],
      "name": "bid",
      "outputs": [],
      "stateMutability": "payable",
      "type": "function",
      "payable": true
    },
    {
      "inputs": [
        {
          "internalType": "string",
          "name": "_nftCollection",
          "type": "string"
        },
        {
          "internalType": "uint256",
          "name": "_nftTokenID",
          "type": "uint256"
        }
      ],
      "name": "withdrawRefund",
      "outputs": [],
      "stateMutability": "nonpayable",
      "type": "function"
    },
    {
      "inputs": [
        {
          "internalType": "string",
          "name": "_nftCollection",
          "type": "string"
        },
        {
          "internalType": "uint256",
          "name": "_nftTokenID",
          "type": "uint256"
        }
      ],
      "name": "endAuction",
      "outputs": [],
      "stateMutability": "nonpayable",
      "type": "function"
    },
    {
      "inputs": [
        {
          "internalType": "string",
          "name": "_nftCollection",
          "type": "string"
        },
        {
          "internalType": "uint256",
          "name": "_nftTokenID",
          "type": "uint256"
        }
      ],
      "name": "checkAuctionTimeExpired",
      "outputs": [
        {
          "internalType": "bool",
          "name": "",
          "type": "bool"
        }
      ],
      "stateMutability": "view",
      "type": "function",
      "constant": true
    }
  ],
  "bytecode": "0x608060405234801561001057600080fd5b50611aa5806100206000396000f3fe60806040526004361061004a5760003560e01c8063368d57071461004f5780635dade73c146100785780635ed01355146100b55780635f483313146100de578063cef3f1ff146100fa575b600080fd5b34801561005b57600080fd5b50610076600480360381019061007191906112b0565b610116565b005b34801561008457600080fd5b5061009f600480360381019061009a91906112b0565b6104a7565b6040516100ac9190611327565b60405180910390f35b3480156100c157600080fd5b506100dc60048036038101906100d791906112b0565b610565565b005b6100f860048036038101906100f391906112b0565b6107ed565b005b610114600480360381019061010f9190611342565b610eaa565b005b600082604051610126919061142b565b9081526020016040518091039020600082815260200190815260200160002060000160009054906101000a900460ff16610195576040517f08c379a000000000000000000000000000000000000000000000000000000000815260040161018c906114c5565b60405180910390fd5b6000826040516101a5919061142b565b908152602001604051809103902060008281526020019081526020016000206001015442101561020a576040517f08c379a000000000000000000000000000000000000000000000000000000000815260040161020190611557565b60405180910390fd5b6000808360405161021b919061142b565b9081526020016040518091039020600083815260200190815260200160002060000160006101000a81548160ff02191690831515021790555060008083604051610265919061142b565b908152602001604051809103902060008381526020019081526020016000206006018054905090506000808290505b60008111156103a1576000856040516102ad919061142b565b908152602001604051809103902060008581526020019081526020016000206006016001826102dc91906115a6565b815481106102ed576102ec6115da565b5b9060005260206000200160009054906101000a900473ffffffffffffffffffffffffffffffffffffffff1691506000808660405161032b919061142b565b9081526020016040518091039020600086815260200190815260200160002060050160008473ffffffffffffffffffffffffffffffffffffffff1673ffffffffffffffffffffffffffffffffffffffff16815260200190815260200160002081905550808061039990611609565b915050610294565b506000846040516103b2919061142b565b9081526020016040518091039020600084815260200190815260200160002060060160006103e091906110e2565b7fa7953ef2bb4951672b4e763a37e675cde6fa9e924ad07b06d533488c8be51abe8484600087604051610413919061142b565b9081526020016040518091039020600087815260200190815260200160002060020160009054906101000a900473ffffffffffffffffffffffffffffffffffffffff16600088604051610466919061142b565b908152602001604051809103902060008881526020019081526020016000206003015460405161049994939291906116bb565b60405180910390a150505050565b600080836040516104b8919061142b565b9081526020016040518091039020600083815260200190815260200160002060000160009054906101000a900460ff16610527576040517f08c379a000000000000000000000000000000000000000000000000000000000815260040161051e906114c5565b60405180910390fd5b600083604051610537919061142b565b9081526020016040518091039020600083815260200190815260200160002060010154421015905092915050565b60008083604051610576919061142b565b9081526020016040518091039020600083815260200190815260200160002060040160003373ffffffffffffffffffffffffffffffffffffffff1673ffffffffffffffffffffffffffffffffffffffff1681526020019081526020016000205411610616576040517f08c379a000000000000000000000000000000000000000000000000000000000815260040161060d90611779565b60405180910390fd5b60008083604051610627919061142b565b9081526020016040518091039020600083815260200190815260200160002060040160003373ffffffffffffffffffffffffffffffffffffffff1673ffffffffffffffffffffffffffffffffffffffff1681526020019081526020016000205490506000808460405161069a919061142b565b9081526020016040518091039020600084815260200190815260200160002060040160003373ffffffffffffffffffffffffffffffffffffffff1673ffffffffffffffffffffffffffffffffffffffff168152602001908152602001600020819055506000808460405161070e919061142b565b9081526020016040518091039020600084815260200190815260200160002060050160003373ffffffffffffffffffffffffffffffffffffffff1673ffffffffffffffffffffffffffffffffffffffff1681526020019081526020016000208190555060003373ffffffffffffffffffffffffffffffffffffffff1682604051610797906117ca565b60006040518083038185875af1925050503d80600081146107d4576040519150601f19603f3d011682016040523d82523d6000602084013e6107d9565b606091505b50509050806107e757600080fd5b50505050565b6000826040516107fd919061142b565b9081526020016040518091039020600082815260200190815260200160002060000160009054906101000a900460ff1661086c576040517f08c379a0000000000000000000000000000000000000000000000000000000008152600401610863906114c5565b60405180910390fd5b60008260405161087c919061142b565b908152602001604051809103902060008281526020019081526020016000206001015442106108e0576040517f08c379a00000000000000000000000000000000000000000000000000000000081526004016108d79061182b565b60405180910390fd5b6000826040516108f0919061142b565b908152602001604051809103902060008281526020019081526020016000206003015434600084604051610924919061142b565b9081526020016040518091039020600084815260200190815260200160002060050160003373ffffffffffffffffffffffffffffffffffffffff1673ffffffffffffffffffffffffffffffffffffffff1681526020019081526020016000205461098e919061184b565b116109ce576040517f08c379a00000000000000000000000000000000000000000000000000000000081526004016109c5906118ed565b60405180910390fd5b600080836040516109df919061142b565b908152602001604051809103902060008381526020019081526020016000206003015414610b1157600082604051610a17919061142b565b9081526020016040518091039020600082815260200190815260200160002060030154600083604051610a4a919061142b565b9081526020016040518091039020600083815260200190815260200160002060040160008085604051610a7d919061142b565b9081526020016040518091039020600085815260200190815260200160002060020160009054906101000a900473ffffffffffffffffffffffffffffffffffffffff1673ffffffffffffffffffffffffffffffffffffffff1673ffffffffffffffffffffffffffffffffffffffff1681526020019081526020016000206000828254610b09919061184b565b925050819055505b60008083604051610b22919061142b565b9081526020016040518091039020600083815260200190815260200160002060050160003373ffffffffffffffffffffffffffffffffffffffff1673ffffffffffffffffffffffffffffffffffffffff1681526020019081526020016000205403610c1b57600082604051610b97919061142b565b90815260200160405180910390206000828152602001908152602001600020600601339080600181540180825580915050600190039060005260206000200160009091909190916101000a81548173ffffffffffffffffffffffffffffffffffffffff021916908373ffffffffffffffffffffffffffffffffffffffff1602179055505b34600083604051610c2c919061142b565b9081526020016040518091039020600083815260200190815260200160002060050160003373ffffffffffffffffffffffffffffffffffffffff1673ffffffffffffffffffffffffffffffffffffffff16815260200190815260200160002054610c96919061184b565b600083604051610ca6919061142b565b908152602001604051809103902060008381526020019081526020016000206003018190555033600083604051610cdd919061142b565b9081526020016040518091039020600083815260200190815260200160002060020160006101000a81548173ffffffffffffffffffffffffffffffffffffffff021916908373ffffffffffffffffffffffffffffffffffffffff16021790555034600083604051610d4e919061142b565b9081526020016040518091039020600083815260200190815260200160002060050160003373ffffffffffffffffffffffffffffffffffffffff1673ffffffffffffffffffffffffffffffffffffffff1681526020019081526020016000206000828254610dbc919061184b565b9250508190555060008083604051610dd4919061142b565b9081526020016040518091039020600083815260200190815260200160002060040160003373ffffffffffffffffffffffffffffffffffffffff1673ffffffffffffffffffffffffffffffffffffffff168152602001908152602001600020819055507f8c794bd31d11ed5130d428bae6ffb1992bed97f08efa5a1b47b0a6f846e3ea59828233600086604051610e6b919061142b565b9081526020016040518091039020600086815260200190815260200160002060030154604051610e9e94939291906116bb565b60405180910390a15050565b600083604051610eba919061142b565b9081526020016040518091039020600083815260200190815260200160002060000160009054906101000a900460ff1615610f2a576040517f08c379a0000000000000000000000000000000000000000000000000000000008152600401610f219061197f565b60405180910390fd5b60008111610f6d576040517f08c379a0000000000000000000000000000000000000000000000000000000008152600401610f6490611a11565b60405180910390fd5b8042610f79919061184b565b600084604051610f89919061142b565b908152602001604051809103902060008481526020019081526020016000206001018190555033600084604051610fc0919061142b565b9081526020016040518091039020600084815260200190815260200160002060020160006101000a81548173ffffffffffffffffffffffffffffffffffffffff021916908373ffffffffffffffffffffffffffffffffffffffff16021790555034600084604051611031919061142b565b90815260200160405180910390206000848152602001908152602001600020600301819055506001600084604051611069919061142b565b9081526020016040518091039020600084815260200190815260200160002060000160006101000a81548160ff0219169083151502179055507f2bed6fb45fe1ae91f7d4c5dfdfc932e36fd80b4743242feaa5b14f1de14887a68383336040516110d593929190611a31565b60405180910390a1505050565b50805460008255906000526020600020908101906111009190611103565b50565b5b8082111561111c576000816000905550600101611104565b5090565b6000604051905090565b600080fd5b600080fd5b600080fd5b600080fd5b6000601f19601f8301169050919050565b7f4e487b7100000000000000000000000000000000000000000000000000000000600052604160045260246000fd5b6111878261113e565b810181811067ffffffffffffffff821117156111a6576111a561114f565b5b80604052505050565b60006111b9611120565b90506111c5828261117e565b919050565b600067ffffffffffffffff8211156111e5576111e461114f565b5b6111ee8261113e565b9050602081019050919050565b82818337600083830152505050565b600061121d611218846111ca565b6111af565b90508281526020810184848401111561123957611238611139565b5b6112448482856111fb565b509392505050565b600082601f83011261126157611260611134565b5b813561127184826020860161120a565b91505092915050565b6000819050919050565b61128d8161127a565b811461129857600080fd5b50565b6000813590506112aa81611284565b92915050565b600080604083850312156112c7576112c661112a565b5b600083013567ffffffffffffffff8111156112e5576112e461112f565b5b6112f18582860161124c565b92505060206113028582860161129b565b9150509250929050565b60008115159050919050565b6113218161130c565b82525050565b600060208201905061133c6000830184611318565b92915050565b60008060006060848603121561135b5761135a61112a565b5b600084013567ffffffffffffffff8111156113795761137861112f565b5b6113858682870161124c565b93505060206113968682870161129b565b92505060406113a78682870161129b565b9150509250925092565b600081519050919050565b600081905092915050565b60005b838110156113e55780820151818401526020810190506113ca565b838111156113f4576000848401525b50505050565b6000611405826113b1565b61140f81856113bc565b935061141f8185602086016113c7565b80840191505092915050565b600061143782846113fa565b915081905092915050565b600082825260208201905092915050565b7f5468657265206973206e6f2061756374696f6e207374617274656420666f722060008201527f74686973204e46542e0000000000000000000000000000000000000000000000602082015250565b60006114af602983611442565b91506114ba82611453565b604082019050919050565b600060208201905081810360008301526114de816114a2565b9050919050565b7f5468652061756374696f6e20686173206e6f742066696e69736865642079657460008201527f2e00000000000000000000000000000000000000000000000000000000000000602082015250565b6000611541602183611442565b915061154c826114e5565b604082019050919050565b6000602082019050818103600083015261157081611534565b9050919050565b7f4e487b7100000000000000000000000000000000000000000000000000000000600052601160045260246000fd5b60006115b18261127a565b91506115bc8361127a565b9250828210156115cf576115ce611577565b5b828203905092915050565b7f4e487b7100000000000000000000000000000000000000000000000000000000600052603260045260246000fd5b60006116148261127a565b91506000820361162757611626611577565b5b600182039050919050565b600061163d826113b1565b6116478185611442565b93506116578185602086016113c7565b6116608161113e565b840191505092915050565b6116748161127a565b82525050565b600073ffffffffffffffffffffffffffffffffffffffff82169050919050565b60006116a58261167a565b9050919050565b6116b58161169a565b82525050565b600060808201905081810360008301526116d58187611632565b90506116e4602083018661166b565b6116f160408301856116ac565b6116fe606083018461166b565b95945050505050565b7f5468657265206973206e6f7468696e6720746f20726566756e6420746f20746860008201527f65206d6573736167652073656e64657220666f722074686973204e46542e0000602082015250565b6000611763603e83611442565b915061176e82611707565b604082019050919050565b6000602082019050818103600083015261179281611756565b9050919050565b600081905092915050565b50565b60006117b4600083611799565b91506117bf826117a4565b600082019050919050565b60006117d5826117a7565b9150819050919050565b7f5468652061756374696f6e2068617320616c726561647920656e6465642e0000600082015250565b6000611815601e83611442565b9150611820826117df565b602082019050919050565b6000602082019050818103600083015261184481611808565b9050919050565b60006118568261127a565b91506118618361127a565b9250827fffffffffffffffffffffffffffffffffffffffffffffffffffffffffffffffff0382111561189657611895611577565b5b828201905092915050565b7f5468652062696420697320746f6f206c6f772e00000000000000000000000000600082015250565b60006118d7601383611442565b91506118e2826118a1565b602082019050919050565b60006020820190508181036000830152611906816118ca565b9050919050565b7f416e2061756374696f6e2068617320616c72656164792073746172746564206660008201527f6f722074686973204e46542e0000000000000000000000000000000000000000602082015250565b6000611969602c83611442565b91506119748261190d565b604082019050919050565b600060208201905081810360008301526119988161195c565b9050919050565b7f506c6561736520646566696e6520616e2061756374696f6e206869676865722060008201527f746861207a65726f2e0000000000000000000000000000000000000000000000602082015250565b60006119fb602983611442565b9150611a068261199f565b604082019050919050565b60006020820190508181036000830152611a2a816119ee565b9050919050565b60006060820190508181036000830152611a4b8186611632565b9050611a5a602083018561166b565b611a6760408301846116ac565b94935050505056fea26469706673582212200bf8dc64762ef7b58dfcf112d75b0135cf10370c02e6c0ea545bd4657c591f9e64736f6c634300080d0033",
  "immutableReferences": {},
  "source": "// SPDX-License-Identifier: MIT\npragma solidity 0.8.13;\n\ncontract Auction {\n    //------------------------------------------------------------------------------------\n    // ----------------------------------Variables----------------------------------------\n    //------------------------------------------------------------------------------------\n        /// @notice This is the structure that contains all useful data to manage the auction of a given NFT\n    struct BidManagement {\n        bool hasAuctionStarted;\n        uint auctionEndTime;\n        address highestBidder;\n        uint highestBid;\n        mapping (address => uint) pendingRefunds;\n        mapping (address => uint) totalBid;\n        address[] bidders;\n    }\n\n    /// @notice Mapping of bid management data linked to each individual NFT (specified by collection name and token ID)\n    mapping (string => mapping (uint => BidManagement)) bidManager;\n\n    //------------------------------------------------------------------------------------\n    // ------------------------------------Events-----------------------------------------\n    //------------------------------------------------------------------------------------\n\n    /// @notice Event raised when the bid has increased\n    event HighestBidIncreased(string _nftCollection, uint _nftTokenID, address _bidder, uint _newBid);\n    /// @notice Event raised when the auction has started\n    event AuctionStarted(string _nftCollection, uint _nftTokenID, address _owner);\n    /// @notice Event raised when the auction has finished\n    event AuctionClosed(string _nftCollection, uint _nftTokenID, address _newOwner, uint _price);\n\n    //------------------------------------------------------------------------------------\n    // -----------------------------------Functions---------------------------------------\n    //------------------------------------------------------------------------------------\n    /// @notice This function allows to initiate a new auction\n    /// @dev Call this function when the user decides to sell his NFT through an auction. The owner can define a starting price if he sends money in the transaction.\n    /// @param _nftCollection Collection name of the given NFT\n    /// @param _nftTokenID Token ID of the given NFT\n    /// @param _biddingTime Auction time in seconds\n    function initializeAuction(string memory _nftCollection, uint _nftTokenID, uint _biddingTime) external payable {\n        require(!bidManager[_nftCollection][_nftTokenID].hasAuctionStarted, \"An auction has already started for this NFT.\");    // Make sure an auction did not start yet\n        require(_biddingTime > 0, \"Please define an auction higher tha zero.\");                                                 // The auction time must be higher than zero\n\n        bidManager[_nftCollection][_nftTokenID].auctionEndTime = block.timestamp + _biddingTime;    // Define the time at which the auction will end up\n        bidManager[_nftCollection][_nftTokenID].highestBidder = msg.sender;                         // The initial highest bidder is the message sender\n        bidManager[_nftCollection][_nftTokenID].highestBid = msg.value;                        // Set the first selling price\n        bidManager[_nftCollection][_nftTokenID].hasAuctionStarted = true;                           // Auction started\n\n        emit AuctionStarted(_nftCollection, _nftTokenID, msg.sender);       // Raise the event to log when an auction starts\n    }\n\n    /// @notice This function allows to place a new bid\n    /// @dev Call this function each time a user place a new bid\n    /// @param _nftCollection Collection name of the given NFT\n    /// @param _nftTokenID Token ID of the given NFT\n    function bid(string memory _nftCollection, uint _nftTokenID) external payable {\n        require(bidManager[_nftCollection][_nftTokenID].hasAuctionStarted, \"There is no auction started for this NFT.\");    // Make sure an auction is ongoing for this NFT\n        require(block.timestamp < bidManager[_nftCollection][_nftTokenID].auctionEndTime, \"The auction has already ended.\");// Make sure the auction is not finished yet\n        require((bidManager[_nftCollection][_nftTokenID].totalBid[msg.sender]+msg.value) > bidManager[_nftCollection][_nftTokenID].highestBid, \"The bid is too low.\"); // Make sure the bid (including previous bids) is higher than the current highest bid\n    \n        // Check if there was already a bid\n        if(bidManager[_nftCollection][_nftTokenID].highestBid != 0) {\n            bidManager[_nftCollection][_nftTokenID].pendingRefunds[bidManager[_nftCollection][_nftTokenID].highestBidder] += bidManager[_nftCollection][_nftTokenID].highestBid;\n        }\n\n        // Add the bidder in the list if it is the first time\n        if(bidManager[_nftCollection][_nftTokenID].totalBid[msg.sender] == 0) {\n            bidManager[_nftCollection][_nftTokenID].bidders.push(msg.sender);\n        } \n\n        // Update the data with the new highest bid\n        bidManager[_nftCollection][_nftTokenID].highestBid = bidManager[_nftCollection][_nftTokenID].totalBid[msg.sender]+msg.value;    // The highest bid is what this user already bid + the new value of this transaction\n        bidManager[_nftCollection][_nftTokenID].highestBidder = msg.sender;             // Update the new highest bidder\n        bidManager[_nftCollection][_nftTokenID].totalBid[msg.sender] += msg.value;      // The total bid of this user is updated               \n        bidManager[_nftCollection][_nftTokenID].pendingRefunds[msg.sender] = 0;         // No pending refunds anymore\n\n        emit HighestBidIncreased(_nftCollection,_nftTokenID,msg.sender,bidManager[_nftCollection][_nftTokenID].highestBid);     // Raise the event to save the new highest bid\n    }\n\n    /// @notice This function allows a user that placed a bid (not the highest anymore) to get back his funds\n    /// @dev The user can call this function through the front when his bid is not the highest anymore.\n    /// @param _nftCollection Collection name of the given NFT\n    /// @param _nftTokenID Token ID of the given NFT\n    function withdrawRefund(string memory _nftCollection, uint _nftTokenID) external {\n        require(bidManager[_nftCollection][_nftTokenID].pendingRefunds[msg.sender] > 0, \"There is nothing to refund to the message sender for this NFT.\");   // Make sure there is funds to return\n   \n        uint refund = bidManager[_nftCollection][_nftTokenID].pendingRefunds[msg.sender];   // Recover the funds to refund before erasing it\n\n        bidManager[_nftCollection][_nftTokenID].pendingRefunds[msg.sender] = 0;             // Erase the refund counter\n        bidManager[_nftCollection][_nftTokenID].totalBid[msg.sender] = 0;\n        \n        (bool success, ) = msg.sender.call{value:refund}(\"\");\n        require(success);\n    }\n\n    /// @notice This function allows to close the auction\n    /// @dev This function is called from the front when the auction time is expired\n    /// @param _nftCollection Collection name of the given NFT\n    /// @param _nftTokenID Token ID of the given NFT\n    function endAuction(string memory _nftCollection, uint _nftTokenID) external {\n        require(bidManager[_nftCollection][_nftTokenID].hasAuctionStarted, \"There is no auction started for this NFT.\");    // Make sure an auction is ongoing for this NFT\n        require(block.timestamp >= bidManager[_nftCollection][_nftTokenID].auctionEndTime, \"The auction has not finished yet.\"); // Make sure the auction is finished\n\n        bidManager[_nftCollection][_nftTokenID].hasAuctionStarted = false; \n        \n        // Reset totalBid mapping\n        uint listSize = bidManager[_nftCollection][_nftTokenID].bidders.length;\n        address tempAddress;\n        for (uint i=listSize; i>0; i--){\n            tempAddress=bidManager[_nftCollection][_nftTokenID].bidders[i-1];\n            bidManager[_nftCollection][_nftTokenID].totalBid[tempAddress] = 0;\n        }\n        delete bidManager[_nftCollection][_nftTokenID].bidders;\n\n        emit AuctionClosed(_nftCollection, _nftTokenID, bidManager[_nftCollection][_nftTokenID].highestBidder,bidManager[_nftCollection][_nftTokenID].highestBid);       // Raise the event to log when an auction ends\n    }\n\n\n    //------------------------------------------------------------------------------------\n    // ------------------------------------Getters----------------------------------------\n    //------------------------------------------------------------------------------------\n    /// @notice This function allows to initiate a new auction\n    /// @dev Call this function to check if the time of the auction is over or not\n    /// @param _nftCollection Collection name of the given NFT\n    /// @param _nftTokenID Token ID of the given NFT\n    /// @return Returns a boolean to define if the auction time has expired (true) or not (false)\n    function checkAuctionTimeExpired(string memory _nftCollection, uint _nftTokenID) external view returns (bool) {\n        require(bidManager[_nftCollection][_nftTokenID].hasAuctionStarted, \"There is no auction started for this NFT.\");    // Make sure an auction is ongoing for this NFT  \n\n        return (block.timestamp >= bidManager[_nftCollection][_nftTokenID].auctionEndTime);\n    }\n}",
  "sourcePath": "/home/sebastien/Documents/cours/project-nft-cyon/contracts/Auction.sol",
  "compiler": {
    "name": "solc",
    "version": "0.8.13+commit.abaa5c0e.Emscripten.clang"
  },
  "schemaVersion": "3.4.7",
  "updatedAt": "2022-05-09T11:13:22.906Z",
  "networkType": "ethereum",
  "devdoc": {
    "kind": "dev",
    "methods": {
      "bid(string,uint256)": {
        "details": "Call this function each time a user place a new bid",
        "params": {
          "_nftCollection": "Collection name of the given NFT",
          "_nftTokenID": "Token ID of the given NFT"
        }
      },
      "checkAuctionTimeExpired(string,uint256)": {
        "details": "Call this function to check if the time of the auction is over or not",
        "params": {
          "_nftCollection": "Collection name of the given NFT",
          "_nftTokenID": "Token ID of the given NFT"
        },
        "returns": {
          "_0": "Returns a boolean to define if the auction time has expired (true) or not (false)"
        }
      },
      "endAuction(string,uint256)": {
        "details": "This function is called from the front when the auction time is expired",
        "params": {
          "_nftCollection": "Collection name of the given NFT",
          "_nftTokenID": "Token ID of the given NFT"
        }
      },
      "initializeAuction(string,uint256,uint256)": {
        "details": "Call this function when the user decides to sell his NFT through an auction. The owner can define a starting price if he sends money in the transaction.",
        "params": {
          "_biddingTime": "Auction time in seconds",
          "_nftCollection": "Collection name of the given NFT",
          "_nftTokenID": "Token ID of the given NFT"
        }
      },
      "withdrawRefund(string,uint256)": {
        "details": "The user can call this function through the front when his bid is not the highest anymore.",
        "params": {
          "_nftCollection": "Collection name of the given NFT",
          "_nftTokenID": "Token ID of the given NFT"
        }
      }
    },
    "version": 1
  },
  "userdoc": {
    "events": {
      "AuctionClosed(string,uint256,address,uint256)": {
        "notice": "Event raised when the auction has finished"
      },
      "AuctionStarted(string,uint256,address)": {
        "notice": "Event raised when the auction has started"
      },
      "HighestBidIncreased(string,uint256,address,uint256)": {
        "notice": "Event raised when the bid has increased"
      }
    },
    "kind": "user",
    "methods": {
      "bid(string,uint256)": {
        "notice": "This function allows to place a new bid"
      },
      "checkAuctionTimeExpired(string,uint256)": {
        "notice": "This function allows to initiate a new auction"
      },
      "endAuction(string,uint256)": {
        "notice": "This function allows to close the auction"
      },
      "initializeAuction(string,uint256,uint256)": {
        "notice": "This function allows to initiate a new auction"
      },
      "withdrawRefund(string,uint256)": {
        "notice": "This function allows a user that placed a bid (not the highest anymore) to get back his funds"
      }
    },
    "version": 1
  }
}