{
  "contractName": "CYONToken",
  "abi": [
    {
      "inputs": [
        {
          "internalType": "uint256",
          "name": "_initialSupply",
          "type": "uint256"
        }
      ],
      "stateMutability": "nonpayable",
      "type": "constructor"
    },
    {
      "anonymous": false,
      "inputs": [
        {
          "indexed": true,
          "internalType": "address",
          "name": "owner",
          "type": "address"
        },
        {
          "indexed": true,
          "internalType": "address",
          "name": "spender",
          "type": "address"
        },
        {
          "indexed": false,
          "internalType": "uint256",
          "name": "value",
          "type": "uint256"
        }
      ],
      "name": "Approval",
      "type": "event"
    },
    {
      "anonymous": false,
      "inputs": [
        {
          "indexed": false,
          "internalType": "uint256",
          "name": "balanceCYON",
          "type": "uint256"
        },
        {
          "indexed": false,
          "internalType": "address",
          "name": "userAddress",
          "type": "address"
        }
      ],
      "name": "CYONtoETH",
      "type": "event"
    },
    {
      "anonymous": false,
      "inputs": [
        {
          "indexed": false,
          "internalType": "uint256",
          "name": "balanceETH",
          "type": "uint256"
        },
        {
          "indexed": false,
          "internalType": "address",
          "name": "userAddress",
          "type": "address"
        }
      ],
      "name": "ETHtoCYON",
      "type": "event"
    },
    {
      "anonymous": false,
      "inputs": [
        {
          "indexed": true,
          "internalType": "address",
          "name": "from",
          "type": "address"
        },
        {
          "indexed": true,
          "internalType": "address",
          "name": "to",
          "type": "address"
        },
        {
          "indexed": false,
          "internalType": "uint256",
          "name": "value",
          "type": "uint256"
        }
      ],
      "name": "Transfer",
      "type": "event"
    },
    {
      "inputs": [
        {
          "internalType": "address",
          "name": "owner",
          "type": "address"
        },
        {
          "internalType": "address",
          "name": "spender",
          "type": "address"
        }
      ],
      "name": "allowance",
      "outputs": [
        {
          "internalType": "uint256",
          "name": "",
          "type": "uint256"
        }
      ],
      "stateMutability": "view",
      "type": "function",
      "constant": true
    },
    {
      "inputs": [
        {
          "internalType": "address",
          "name": "spender",
          "type": "address"
        },
        {
          "internalType": "uint256",
          "name": "amount",
          "type": "uint256"
        }
      ],
      "name": "approve",
      "outputs": [
        {
          "internalType": "bool",
          "name": "",
          "type": "bool"
        }
      ],
      "stateMutability": "nonpayable",
      "type": "function"
    },
    {
      "inputs": [
        {
          "internalType": "address",
          "name": "account",
          "type": "address"
        }
      ],
      "name": "balanceOf",
      "outputs": [
        {
          "internalType": "uint256",
          "name": "",
          "type": "uint256"
        }
      ],
      "stateMutability": "view",
      "type": "function",
      "constant": true
    },
    {
      "inputs": [],
      "name": "decimals",
      "outputs": [
        {
          "internalType": "uint8",
          "name": "",
          "type": "uint8"
        }
      ],
      "stateMutability": "view",
      "type": "function",
      "constant": true
    },
    {
      "inputs": [
        {
          "internalType": "address",
          "name": "spender",
          "type": "address"
        },
        {
          "internalType": "uint256",
          "name": "subtractedValue",
          "type": "uint256"
        }
      ],
      "name": "decreaseAllowance",
      "outputs": [
        {
          "internalType": "bool",
          "name": "",
          "type": "bool"
        }
      ],
      "stateMutability": "nonpayable",
      "type": "function"
    },
    {
      "inputs": [
        {
          "internalType": "address",
          "name": "spender",
          "type": "address"
        },
        {
          "internalType": "uint256",
          "name": "addedValue",
          "type": "uint256"
        }
      ],
      "name": "increaseAllowance",
      "outputs": [
        {
          "internalType": "bool",
          "name": "",
          "type": "bool"
        }
      ],
      "stateMutability": "nonpayable",
      "type": "function"
    },
    {
      "inputs": [],
      "name": "name",
      "outputs": [
        {
          "internalType": "string",
          "name": "",
          "type": "string"
        }
      ],
      "stateMutability": "view",
      "type": "function",
      "constant": true
    },
    {
      "inputs": [],
      "name": "symbol",
      "outputs": [
        {
          "internalType": "string",
          "name": "",
          "type": "string"
        }
      ],
      "stateMutability": "view",
      "type": "function",
      "constant": true
    },
    {
      "inputs": [],
      "name": "token1",
      "outputs": [
        {
          "internalType": "contract IERC20",
          "name": "",
          "type": "address"
        }
      ],
      "stateMutability": "view",
      "type": "function",
      "constant": true
    },
    {
      "inputs": [],
      "name": "token2",
      "outputs": [
        {
          "internalType": "contract IERC20",
          "name": "",
          "type": "address"
        }
      ],
      "stateMutability": "view",
      "type": "function",
      "constant": true
    },
    {
      "inputs": [],
      "name": "totalSupply",
      "outputs": [
        {
          "internalType": "uint256",
          "name": "",
          "type": "uint256"
        }
      ],
      "stateMutability": "view",
      "type": "function",
      "constant": true
    },
    {
      "inputs": [
        {
          "internalType": "address",
          "name": "to",
          "type": "address"
        },
        {
          "internalType": "uint256",
          "name": "amount",
          "type": "uint256"
        }
      ],
      "name": "transfer",
      "outputs": [
        {
          "internalType": "bool",
          "name": "",
          "type": "bool"
        }
      ],
      "stateMutability": "nonpayable",
      "type": "function"
    },
    {
      "inputs": [
        {
          "internalType": "address",
          "name": "from",
          "type": "address"
        },
        {
          "internalType": "address",
          "name": "to",
          "type": "address"
        },
        {
          "internalType": "uint256",
          "name": "amount",
          "type": "uint256"
        }
      ],
      "name": "transferFrom",
      "outputs": [
        {
          "internalType": "bool",
          "name": "",
          "type": "bool"
        }
      ],
      "stateMutability": "nonpayable",
      "type": "function"
    },
    {
      "inputs": [],
      "name": "swapETHtoCYON",
      "outputs": [],
      "stateMutability": "payable",
      "type": "function",
      "payable": true
    },
    {
      "inputs": [
        {
          "internalType": "uint256",
          "name": "_amountCYON",
          "type": "uint256"
        }
      ],
      "name": "swapCYONtoETH",
      "outputs": [],
      "stateMutability": "payable",
      "type": "function",
      "payable": true
    },
    {
      "inputs": [],
      "name": "getBalanceETH",
      "outputs": [
        {
          "internalType": "uint256",
          "name": "balance",
          "type": "uint256"
        }
      ],
      "stateMutability": "view",
      "type": "function",
      "constant": true
    }
  ],
  "bytecode": "0x60806040527364ff637fb478863b7468bc97d30a5bf3a428a1fd600560006101000a81548173ffffffffffffffffffffffffffffffffffffffff021916908373ffffffffffffffffffffffffffffffffffffffff16021790555030600660006101000a81548173ffffffffffffffffffffffffffffffffffffffff021916908373ffffffffffffffffffffffffffffffffffffffff160217905550348015620000a757600080fd5b5060405162002616380380620026168339818101604052810190620000cd9190620003f8565b6040518060400160405280601381526020017f43686f6f736520596f7572204f776e204e4654000000000000000000000000008152506040518060400160405280600481526020017f43594f4e0000000000000000000000000000000000000000000000000000000081525081600390805190602001906200015192919062000308565b5080600490805190602001906200016a92919062000308565b5050506200017f33826200018660201b60201c565b50620005cb565b600073ffffffffffffffffffffffffffffffffffffffff168273ffffffffffffffffffffffffffffffffffffffff1603620001f8576040517f08c379a0000000000000000000000000000000000000000000000000000000008152600401620001ef906200048b565b60405180910390fd5b6200020c60008383620002fe60201b60201c565b8060026000828254620002209190620004dc565b92505081905550806000808473ffffffffffffffffffffffffffffffffffffffff1673ffffffffffffffffffffffffffffffffffffffff1681526020019081526020016000206000828254620002779190620004dc565b925050819055508173ffffffffffffffffffffffffffffffffffffffff16600073ffffffffffffffffffffffffffffffffffffffff167fddf252ad1be2c89b69c2b068fc378daa952ba7f163c4a11628f55a4df523b3ef83604051620002de91906200054a565b60405180910390a3620002fa600083836200030360201b60201c565b5050565b505050565b505050565b828054620003169062000596565b90600052602060002090601f0160209004810192826200033a576000855562000386565b82601f106200035557805160ff191683800117855562000386565b8280016001018555821562000386579182015b828111156200038557825182559160200191906001019062000368565b5b50905062000395919062000399565b5090565b5b80821115620003b45760008160009055506001016200039a565b5090565b600080fd5b6000819050919050565b620003d281620003bd565b8114620003de57600080fd5b50565b600081519050620003f281620003c7565b92915050565b600060208284031215620004115762000410620003b8565b5b60006200042184828501620003e1565b91505092915050565b600082825260208201905092915050565b7f45524332303a206d696e7420746f20746865207a65726f206164647265737300600082015250565b600062000473601f836200042a565b915062000480826200043b565b602082019050919050565b60006020820190508181036000830152620004a68162000464565b9050919050565b7f4e487b7100000000000000000000000000000000000000000000000000000000600052601160045260246000fd5b6000620004e982620003bd565b9150620004f683620003bd565b9250827fffffffffffffffffffffffffffffffffffffffffffffffffffffffffffffffff038211156200052e576200052d620004ad565b5b828201905092915050565b6200054481620003bd565b82525050565b600060208201905062000561600083018462000539565b92915050565b7f4e487b7100000000000000000000000000000000000000000000000000000000600052602260045260246000fd5b60006002820490506001821680620005af57607f821691505b602082108103620005c557620005c462000567565b5b50919050565b61203b80620005db6000396000f3fe6080604052600436106100f35760003560e01c806370a082311161008a578063a9059cbb11610059578063a9059cbb14610326578063acd1f25414610363578063d21220a71461038e578063dd62ed3e146103b9576100f3565b806370a08231146102775780637189b260146102b457806395d89b41146102be578063a457c2d7146102e9576100f3565b806325be124e116100c657806325be124e146101c85780632901c706146101f3578063313ce5671461020f578063395093511461023a576100f3565b806306fdde03146100f8578063095ea7b31461012357806318160ddd1461016057806323b872dd1461018b575b600080fd5b34801561010457600080fd5b5061010d6103f6565b60405161011a9190611247565b60405180910390f35b34801561012f57600080fd5b5061014a60048036038101906101459190611302565b610488565b604051610157919061135d565b60405180910390f35b34801561016c57600080fd5b506101756104ab565b6040516101829190611387565b60405180910390f35b34801561019757600080fd5b506101b260048036038101906101ad91906113a2565b6104b5565b6040516101bf919061135d565b60405180910390f35b3480156101d457600080fd5b506101dd6104e4565b6040516101ea9190611454565b60405180910390f35b61020d6004803603810190610208919061146f565b61050a565b005b34801561021b57600080fd5b506102246107b7565b60405161023191906114b8565b60405180910390f35b34801561024657600080fd5b50610261600480360381019061025c9190611302565b6107c0565b60405161026e919061135d565b60405180910390f35b34801561028357600080fd5b5061029e600480360381019061029991906114d3565b6107f7565b6040516102ab9190611387565b60405180910390f35b6102bc61083f565b005b3480156102ca57600080fd5b506102d3610a1c565b6040516102e09190611247565b60405180910390f35b3480156102f557600080fd5b50610310600480360381019061030b9190611302565b610aae565b60405161031d919061135d565b60405180910390f35b34801561033257600080fd5b5061034d60048036038101906103489190611302565b610b25565b60405161035a919061135d565b60405180910390f35b34801561036f57600080fd5b50610378610b48565b6040516103859190611387565b60405180910390f35b34801561039a57600080fd5b506103a3610b50565b6040516103b09190611454565b60405180910390f35b3480156103c557600080fd5b506103e060048036038101906103db9190611500565b610b76565b6040516103ed9190611387565b60405180910390f35b6060600380546104059061156f565b80601f01602080910402602001604051908101604052809291908181526020018280546104319061156f565b801561047e5780601f106104535761010080835404028352916020019161047e565b820191906000526020600020905b81548152906001019060200180831161046157829003601f168201915b5050505050905090565b600080610493610bfd565b90506104a0818585610c05565b600191505092915050565b6000600254905090565b6000806104c0610bfd565b90506104cd858285610dce565b6104d8858585610e5a565b60019150509392505050565b600660009054906101000a900473ffffffffffffffffffffffffffffffffffffffff1681565b606481101561054e576040517f08c379a000000000000000000000000000000000000000000000000000000000815260040161054590611612565b60405180910390fd5b47606460018361055e9190611661565b61056891906116ea565b106105a8576040517f08c379a000000000000000000000000000000000000000000000000000000000815260040161059f90611767565b60405180910390fd5b80600660009054906101000a900473ffffffffffffffffffffffffffffffffffffffff1673ffffffffffffffffffffffffffffffffffffffff1663dd62ed3e33306040518363ffffffff1660e01b8152600401610606929190611796565b602060405180830381865afa158015610623573d6000803e3d6000fd5b505050506040513d601f19601f8201168201806040525081019061064791906117d4565b1015610688576040517f08c379a000000000000000000000000000000000000000000000000000000000815260040161067f9061184d565b60405180910390fd5b6106b6600660009054906101000a900473ffffffffffffffffffffffffffffffffffffffff163330846110d9565b60003373ffffffffffffffffffffffffffffffffffffffff1660646001846106de9190611661565b6106e891906116ea565b6040516106f49061189e565b60006040518083038185875af1925050503d8060008114610731576040519150601f19603f3d011682016040523d82523d6000602084013e610736565b606091505b505090508061077a576040517f08c379a0000000000000000000000000000000000000000000000000000000008152600401610771906118ff565b60405180910390fd5b7fac23ae26e2b680a417fcbc8393730054f98e1f2380a9006e0abc07ee6d2cacdb82336040516107ab92919061191f565b60405180910390a15050565b60006012905090565b6000806107cb610bfd565b90506107ec8185856107dd8589610b76565b6107e79190611948565b610c05565b600191505092915050565b60008060008373ffffffffffffffffffffffffffffffffffffffff1673ffffffffffffffffffffffffffffffffffffffff168152602001908152602001600020549050919050565b60003411610882576040517f08c379a000000000000000000000000000000000000000000000000000000000815260040161087990611a10565b60405180910390fd5b61088b306107f7565b600160643461089a9190611661565b6108a491906116ea565b106108e4576040517f08c379a00000000000000000000000000000000000000000000000000000000081526004016108db90611a7c565b60405180910390fd5b6000600660009054906101000a900473ffffffffffffffffffffffffffffffffffffffff1673ffffffffffffffffffffffffffffffffffffffff1663a9059cbb3360016064346109349190611661565b61093e91906116ea565b6040518363ffffffff1660e01b815260040161095b929190611a9c565b6020604051808303816000875af115801561097a573d6000803e3d6000fd5b505050506040513d601f19601f8201168201806040525081019061099e9190611af1565b9050806109e0576040517f08c379a00000000000000000000000000000000000000000000000000000000081526004016109d790611b6a565b60405180910390fd5b7f029ae71f36116a42811a92f226b0e62aacf9fc6dd1458b1efa1571e06b32ad663433604051610a1192919061191f565b60405180910390a150565b606060048054610a2b9061156f565b80601f0160208091040260200160405190810160405280929190818152602001828054610a579061156f565b8015610aa45780601f10610a7957610100808354040283529160200191610aa4565b820191906000526020600020905b815481529060010190602001808311610a8757829003601f168201915b5050505050905090565b600080610ab9610bfd565b90506000610ac78286610b76565b905083811015610b0c576040517f08c379a0000000000000000000000000000000000000000000000000000000008152600401610b0390611bfc565b60405180910390fd5b610b198286868403610c05565b60019250505092915050565b600080610b30610bfd565b9050610b3d818585610e5a565b600191505092915050565b600047905090565b600560009054906101000a900473ffffffffffffffffffffffffffffffffffffffff1681565b6000600160008473ffffffffffffffffffffffffffffffffffffffff1673ffffffffffffffffffffffffffffffffffffffff16815260200190815260200160002060008373ffffffffffffffffffffffffffffffffffffffff1673ffffffffffffffffffffffffffffffffffffffff16815260200190815260200160002054905092915050565b600033905090565b600073ffffffffffffffffffffffffffffffffffffffff168373ffffffffffffffffffffffffffffffffffffffff1603610c74576040517f08c379a0000000000000000000000000000000000000000000000000000000008152600401610c6b90611c8e565b60405180910390fd5b600073ffffffffffffffffffffffffffffffffffffffff168273ffffffffffffffffffffffffffffffffffffffff1603610ce3576040517f08c379a0000000000000000000000000000000000000000000000000000000008152600401610cda90611d20565b60405180910390fd5b80600160008573ffffffffffffffffffffffffffffffffffffffff1673ffffffffffffffffffffffffffffffffffffffff16815260200190815260200160002060008473ffffffffffffffffffffffffffffffffffffffff1673ffffffffffffffffffffffffffffffffffffffff168152602001908152602001600020819055508173ffffffffffffffffffffffffffffffffffffffff168373ffffffffffffffffffffffffffffffffffffffff167f8c5be1e5ebec7d5bd14f71427d1e84f3dd0314c0f7b2291e5b200ac8c7c3b92583604051610dc19190611387565b60405180910390a3505050565b6000610dda8484610b76565b90507fffffffffffffffffffffffffffffffffffffffffffffffffffffffffffffffff8114610e545781811015610e46576040517f08c379a0000000000000000000000000000000000000000000000000000000008152600401610e3d90611d8c565b60405180910390fd5b610e538484848403610c05565b5b50505050565b600073ffffffffffffffffffffffffffffffffffffffff168373ffffffffffffffffffffffffffffffffffffffff1603610ec9576040517f08c379a0000000000000000000000000000000000000000000000000000000008152600401610ec090611e1e565b60405180910390fd5b600073ffffffffffffffffffffffffffffffffffffffff168273ffffffffffffffffffffffffffffffffffffffff1603610f38576040517f08c379a0000000000000000000000000000000000000000000000000000000008152600401610f2f90611eb0565b60405180910390fd5b610f438383836111a4565b60008060008573ffffffffffffffffffffffffffffffffffffffff1673ffffffffffffffffffffffffffffffffffffffff16815260200190815260200160002054905081811015610fc9576040517f08c379a0000000000000000000000000000000000000000000000000000000008152600401610fc090611f42565b60405180910390fd5b8181036000808673ffffffffffffffffffffffffffffffffffffffff1673ffffffffffffffffffffffffffffffffffffffff16815260200190815260200160002081905550816000808573ffffffffffffffffffffffffffffffffffffffff1673ffffffffffffffffffffffffffffffffffffffff168152602001908152602001600020600082825461105c9190611948565b925050819055508273ffffffffffffffffffffffffffffffffffffffff168473ffffffffffffffffffffffffffffffffffffffff167fddf252ad1be2c89b69c2b068fc378daa952ba7f163c4a11628f55a4df523b3ef846040516110c09190611387565b60405180910390a36110d38484846111a9565b50505050565b60008473ffffffffffffffffffffffffffffffffffffffff166323b872dd8585856040518463ffffffff1660e01b815260040161111893929190611f62565b6020604051808303816000875af1158015611137573d6000803e3d6000fd5b505050506040513d601f19601f8201168201806040525081019061115b9190611af1565b90508061119d576040517f08c379a000000000000000000000000000000000000000000000000000000000815260040161119490611fe5565b60405180910390fd5b5050505050565b505050565b505050565b600081519050919050565b600082825260208201905092915050565b60005b838110156111e85780820151818401526020810190506111cd565b838111156111f7576000848401525b50505050565b6000601f19601f8301169050919050565b6000611219826111ae565b61122381856111b9565b93506112338185602086016111ca565b61123c816111fd565b840191505092915050565b60006020820190508181036000830152611261818461120e565b905092915050565b600080fd5b600073ffffffffffffffffffffffffffffffffffffffff82169050919050565b60006112998261126e565b9050919050565b6112a98161128e565b81146112b457600080fd5b50565b6000813590506112c6816112a0565b92915050565b6000819050919050565b6112df816112cc565b81146112ea57600080fd5b50565b6000813590506112fc816112d6565b92915050565b6000806040838503121561131957611318611269565b5b6000611327858286016112b7565b9250506020611338858286016112ed565b9150509250929050565b60008115159050919050565b61135781611342565b82525050565b6000602082019050611372600083018461134e565b92915050565b611381816112cc565b82525050565b600060208201905061139c6000830184611378565b92915050565b6000806000606084860312156113bb576113ba611269565b5b60006113c9868287016112b7565b93505060206113da868287016112b7565b92505060406113eb868287016112ed565b9150509250925092565b6000819050919050565b600061141a6114156114108461126e565b6113f5565b61126e565b9050919050565b600061142c826113ff565b9050919050565b600061143e82611421565b9050919050565b61144e81611433565b82525050565b60006020820190506114696000830184611445565b92915050565b60006020828403121561148557611484611269565b5b6000611493848285016112ed565b91505092915050565b600060ff82169050919050565b6114b28161149c565b82525050565b60006020820190506114cd60008301846114a9565b92915050565b6000602082840312156114e9576114e8611269565b5b60006114f7848285016112b7565b91505092915050565b6000806040838503121561151757611516611269565b5b6000611525858286016112b7565b9250506020611536858286016112b7565b9150509250929050565b7f4e487b7100000000000000000000000000000000000000000000000000000000600052602260045260246000fd5b6000600282049050600182168061158757607f821691505b60208210810361159a57611599611540565b5b50919050565b7f74686520616d6f756e74206f662043594f4e206d75737420626520677265617460008201527f6572207468616e206f7220657175616c20746f20313030000000000000000000602082015250565b60006115fc6037836111b9565b9150611607826115a0565b604082019050919050565b6000602082019050818103600083015261162b816115ef565b9050919050565b7f4e487b7100000000000000000000000000000000000000000000000000000000600052601160045260246000fd5b600061166c826112cc565b9150611677836112cc565b9250817fffffffffffffffffffffffffffffffffffffffffffffffffffffffffffffffff04831182151516156116b0576116af611632565b5b828202905092915050565b7f4e487b7100000000000000000000000000000000000000000000000000000000600052601260045260246000fd5b60006116f5826112cc565b9150611700836112cc565b9250826117105761170f6116bb565b5b828204905092915050565b7f546f74616c20737570706c792045544820686173206265656e2073656c6c0000600082015250565b6000611751601e836111b9565b915061175c8261171b565b602082019050919050565b6000602082019050818103600083015261178081611744565b9050919050565b6117908161128e565b82525050565b60006040820190506117ab6000830185611787565b6117b86020830184611787565b9392505050565b6000815190506117ce816112d6565b92915050565b6000602082840312156117ea576117e9611269565b5b60006117f8848285016117bf565b91505092915050565b7f546f6b656e203220616c6c6f77616e636520746f6f206c6f7700000000000000600082015250565b60006118376019836111b9565b915061184282611801565b602082019050919050565b600060208201905081810360008301526118668161182a565b9050919050565b600081905092915050565b50565b600061188860008361186d565b915061189382611878565b600082019050919050565b60006118a98261187b565b9150819050919050565b7f4661696c656420746f2073656e64204554480000000000000000000000000000600082015250565b60006118e96012836111b9565b91506118f4826118b3565b602082019050919050565b60006020820190508181036000830152611918816118dc565b9050919050565b60006040820190506119346000830185611378565b6119416020830184611787565b9392505050565b6000611953826112cc565b915061195e836112cc565b9250827fffffffffffffffffffffffffffffffffffffffffffffffffffffffffffffffff0382111561199357611992611632565b5b828201905092915050565b7f74686520616d6f756e74206d7573742062652067726561746572207468616e2060008201527f3000000000000000000000000000000000000000000000000000000000000000602082015250565b60006119fa6021836111b9565b9150611a058261199e565b604082019050919050565b60006020820190508181036000830152611a29816119ed565b9050919050565b7f546f74616c20737570706c792043594f4e20686173206265656e2073656c6c00600082015250565b6000611a66601f836111b9565b9150611a7182611a30565b602082019050919050565b60006020820190508181036000830152611a9581611a59565b9050919050565b6000604082019050611ab16000830185611787565b611abe6020830184611378565b9392505050565b611ace81611342565b8114611ad957600080fd5b50565b600081519050611aeb81611ac5565b92915050565b600060208284031215611b0757611b06611269565b5b6000611b1584828501611adc565b91505092915050565b7f4661696c656420746f2073656e642043594f4e00000000000000000000000000600082015250565b6000611b546013836111b9565b9150611b5f82611b1e565b602082019050919050565b60006020820190508181036000830152611b8381611b47565b9050919050565b7f45524332303a2064656372656173656420616c6c6f77616e63652062656c6f7760008201527f207a65726f000000000000000000000000000000000000000000000000000000602082015250565b6000611be66025836111b9565b9150611bf182611b8a565b604082019050919050565b60006020820190508181036000830152611c1581611bd9565b9050919050565b7f45524332303a20617070726f76652066726f6d20746865207a65726f2061646460008201527f7265737300000000000000000000000000000000000000000000000000000000602082015250565b6000611c786024836111b9565b9150611c8382611c1c565b604082019050919050565b60006020820190508181036000830152611ca781611c6b565b9050919050565b7f45524332303a20617070726f766520746f20746865207a65726f20616464726560008201527f7373000000000000000000000000000000000000000000000000000000000000602082015250565b6000611d0a6022836111b9565b9150611d1582611cae565b604082019050919050565b60006020820190508181036000830152611d3981611cfd565b9050919050565b7f45524332303a20696e73756666696369656e7420616c6c6f77616e6365000000600082015250565b6000611d76601d836111b9565b9150611d8182611d40565b602082019050919050565b60006020820190508181036000830152611da581611d69565b9050919050565b7f45524332303a207472616e736665722066726f6d20746865207a65726f20616460008201527f6472657373000000000000000000000000000000000000000000000000000000602082015250565b6000611e086025836111b9565b9150611e1382611dac565b604082019050919050565b60006020820190508181036000830152611e3781611dfb565b9050919050565b7f45524332303a207472616e7366657220746f20746865207a65726f206164647260008201527f6573730000000000000000000000000000000000000000000000000000000000602082015250565b6000611e9a6023836111b9565b9150611ea582611e3e565b604082019050919050565b60006020820190508181036000830152611ec981611e8d565b9050919050565b7f45524332303a207472616e7366657220616d6f756e742065786365656473206260008201527f616c616e63650000000000000000000000000000000000000000000000000000602082015250565b6000611f2c6026836111b9565b9150611f3782611ed0565b604082019050919050565b60006020820190508181036000830152611f5b81611f1f565b9050919050565b6000606082019050611f776000830186611787565b611f846020830185611787565b611f916040830184611378565b949350505050565b7f546f6b656e207472616e73666572206661696c65640000000000000000000000600082015250565b6000611fcf6015836111b9565b9150611fda82611f99565b602082019050919050565b60006020820190508181036000830152611ffe81611fc2565b905091905056fea264697066735822122030ab4da30e0e561877d50a7b3b20550ece4d3d7e16cf3293d98fe7cadfdceae464736f6c634300080d0033",
  "immutableReferences": {},
  "source": "// SPDX-License-Identifier: GPL-3.0\npragma solidity 0.8.13;\n\nimport \"@openzeppelin/contracts/token/ERC20/ERC20.sol\";\nimport \"@openzeppelin/contracts/token/ERC20/IERC20.sol\";\n/**\n * @title CYONToken token ERC20\n * @author Sebastien Gazeau, Sbastien Dupertuis et Alexis Mendoza\n * @dev An erc20 token with an exchange system between eth and CYON and a fixed conversion rate of 1(eth)/100(cyon)\n */\ncontract CYONToken is ERC20 {\n\tIERC20 public token1 = IERC20(address(0x64FF637fB478863B7468bc97D30a5bF3A428a1fD));\n\tIERC20 public token2 = IERC20(address(this));\n\n\t/**\n\t * @dev Issued when a user wants CYON tokens, \n\t * where `balanceETH` is the funds deposited by `userAddress`\n\t */\n\tevent ETHtoCYON(uint balanceETH, address userAddress);\n\t/**\n\t * @dev Issued when a user wants ETH tokens, \n\t * where `balanceEthCYON` is the funds deposited by `userAddress`\n\t */\n\tevent CYONtoETH(uint balanceCYON, address userAddress);\n\n\tconstructor(uint256 _initialSupply) ERC20(\"Choose Your Own NFT\", \"CYON\") {\n\t\t_mint(msg.sender, _initialSupply);\n\t}\n\t/**\n\t * @dev modifier to check if msg.value is not 0\n\t */ \n\tmodifier valueNotZero(){\n\t\trequire(msg.value > 0, 'the amount must be greater than 0');\n\t\t_;\n\t}\n\n\t/**\n\t * @dev exchange of eth for cyon\n\t */\n\tfunction swapETHtoCYON() external payable valueNotZero {\n\t\trequire((msg.value * 100 / 1) < balanceOf(address(this)), 'Total supply CYON has been sell');\n\t\tbool sent = token2.transfer(msg.sender, (msg.value * 100 / 1));\n\t\trequire(sent, \"Failed to send CYON\");\n\n\t\temit ETHtoCYON(msg.value, msg.sender);\n\t}\n\t/**\n\t * @dev exchange of eth for cyon\n\t * @param _amountCYON amount of CYON to be exchanged\n\t */\n\tfunction swapCYONtoETH(uint _amountCYON) external payable {\n\t\trequire(_amountCYON >= 100, 'the amount of CYON must be greater than or equal to 100');\n\t\trequire((_amountCYON * 1 / 100) < address(this).balance, 'Total supply ETH has been sell');\n\t\trequire(token2.allowance(msg.sender, address(this)) >= _amountCYON, \"Token 2 allowance too low\");\n\t\t_safeTransferFrom(token2, msg.sender, address(this), _amountCYON);\n\t\t(bool sent, )= address(msg.sender).call{value: (_amountCYON * 1 / 100)}(\"\");\n\t\trequire(sent, \"Failed to send ETH\");\n\n\t\temit CYONtoETH(_amountCYON, msg.sender);\n\t}\n\n\t/**\n\t * @dev erc20 token transfer\n\t * @param _token interface of the token to transfer\n\t * @param _sender the sender of the transfer\n\t * @param _recipient the recipient of the transfer\n\t * @param _amount the amount of the transfer\n\t */\n\tfunction _safeTransferFrom(IERC20 _token, address _sender, address _recipient, uint _amount) private {\n\t\tbool sent = _token.transferFrom(_sender, _recipient, _amount);\n\t\trequire(sent, \"Token transfer failed\");\n\t}\n\n\t/**\n\t * @dev to know the balance of the contract\n\t */\n\tfunction getBalanceETH() external view returns(uint balance){\n\t\treturn address(this).balance;\n\t}\n}",
  "sourcePath": "/home/alexis/Projects/project-nft-cyon/contracts/CYONToken.sol",
  "compiler": {
    "name": "solc",
    "version": "0.8.13+commit.abaa5c0e.Emscripten.clang"
  },
  "schemaVersion": "3.4.7",
  "updatedAt": "2022-05-15T18:52:27.907Z",
  "networkType": "ethereum",
  "devdoc": {
    "author": "Sebastien Gazeau, Sbastien Dupertuis et Alexis Mendoza",
    "details": "An erc20 token with an exchange system between eth and CYON and a fixed conversion rate of 1(eth)/100(cyon)",
    "events": {
      "CYONtoETH(uint256,address)": {
        "details": "Issued when a user wants ETH tokens,  where `balanceEthCYON` is the funds deposited by `userAddress`"
      },
      "ETHtoCYON(uint256,address)": {
        "details": "Issued when a user wants CYON tokens,  where `balanceETH` is the funds deposited by `userAddress`"
      }
    },
    "kind": "dev",
    "methods": {
      "allowance(address,address)": {
        "details": "See {IERC20-allowance}."
      },
      "approve(address,uint256)": {
        "details": "See {IERC20-approve}. NOTE: If `amount` is the maximum `uint256`, the allowance is not updated on `transferFrom`. This is semantically equivalent to an infinite approval. Requirements: - `spender` cannot be the zero address."
      },
      "balanceOf(address)": {
        "details": "See {IERC20-balanceOf}."
      },
      "decimals()": {
        "details": "Returns the number of decimals used to get its user representation. For example, if `decimals` equals `2`, a balance of `505` tokens should be displayed to a user as `5.05` (`505 / 10 ** 2`). Tokens usually opt for a value of 18, imitating the relationship between Ether and Wei. This is the value {ERC20} uses, unless this function is overridden; NOTE: This information is only used for _display_ purposes: it in no way affects any of the arithmetic of the contract, including {IERC20-balanceOf} and {IERC20-transfer}."
      },
      "decreaseAllowance(address,uint256)": {
        "details": "Atomically decreases the allowance granted to `spender` by the caller. This is an alternative to {approve} that can be used as a mitigation for problems described in {IERC20-approve}. Emits an {Approval} event indicating the updated allowance. Requirements: - `spender` cannot be the zero address. - `spender` must have allowance for the caller of at least `subtractedValue`."
      },
      "getBalanceETH()": {
        "details": "to know the balance of the contract"
      },
      "increaseAllowance(address,uint256)": {
        "details": "Atomically increases the allowance granted to `spender` by the caller. This is an alternative to {approve} that can be used as a mitigation for problems described in {IERC20-approve}. Emits an {Approval} event indicating the updated allowance. Requirements: - `spender` cannot be the zero address."
      },
      "name()": {
        "details": "Returns the name of the token."
      },
      "swapCYONtoETH(uint256)": {
        "details": "exchange of eth for cyon",
        "params": {
          "_amountCYON": "amount of CYON to be exchanged"
        }
      },
      "swapETHtoCYON()": {
        "details": "exchange of eth for cyon"
      },
      "symbol()": {
        "details": "Returns the symbol of the token, usually a shorter version of the name."
      },
      "totalSupply()": {
        "details": "See {IERC20-totalSupply}."
      },
      "transfer(address,uint256)": {
        "details": "See {IERC20-transfer}. Requirements: - `to` cannot be the zero address. - the caller must have a balance of at least `amount`."
      },
      "transferFrom(address,address,uint256)": {
        "details": "See {IERC20-transferFrom}. Emits an {Approval} event indicating the updated allowance. This is not required by the EIP. See the note at the beginning of {ERC20}. NOTE: Does not update the allowance if the current allowance is the maximum `uint256`. Requirements: - `from` and `to` cannot be the zero address. - `from` must have a balance of at least `amount`. - the caller must have allowance for ``from``'s tokens of at least `amount`."
      }
    },
    "title": "CYONToken token ERC20",
    "version": 1
  },
  "userdoc": {
    "kind": "user",
    "methods": {},
    "version": 1
  }
}