{
  "contractName": "CYONToken",
  "abi": [
    {
      "inputs": [
        {
          "internalType": "uint256",
          "name": "_initialSupply",
          "type": "uint256"
        }
      ],
      "stateMutability": "nonpayable",
      "type": "constructor"
    },
    {
      "anonymous": false,
      "inputs": [
        {
          "indexed": true,
          "internalType": "address",
          "name": "owner",
          "type": "address"
        },
        {
          "indexed": true,
          "internalType": "address",
          "name": "spender",
          "type": "address"
        },
        {
          "indexed": false,
          "internalType": "uint256",
          "name": "value",
          "type": "uint256"
        }
      ],
      "name": "Approval",
      "type": "event"
    },
    {
      "anonymous": false,
      "inputs": [
        {
          "indexed": true,
          "internalType": "address",
          "name": "from",
          "type": "address"
        },
        {
          "indexed": true,
          "internalType": "address",
          "name": "to",
          "type": "address"
        },
        {
          "indexed": false,
          "internalType": "uint256",
          "name": "value",
          "type": "uint256"
        }
      ],
      "name": "Transfer",
      "type": "event"
    },
    {
      "inputs": [
        {
          "internalType": "address",
          "name": "owner",
          "type": "address"
        },
        {
          "internalType": "address",
          "name": "spender",
          "type": "address"
        }
      ],
      "name": "allowance",
      "outputs": [
        {
          "internalType": "uint256",
          "name": "",
          "type": "uint256"
        }
      ],
      "stateMutability": "view",
      "type": "function",
      "constant": true
    },
    {
      "inputs": [
        {
          "internalType": "address",
          "name": "spender",
          "type": "address"
        },
        {
          "internalType": "uint256",
          "name": "amount",
          "type": "uint256"
        }
      ],
      "name": "approve",
      "outputs": [
        {
          "internalType": "bool",
          "name": "",
          "type": "bool"
        }
      ],
      "stateMutability": "nonpayable",
      "type": "function"
    },
    {
      "inputs": [
        {
          "internalType": "address",
          "name": "account",
          "type": "address"
        }
      ],
      "name": "balanceOf",
      "outputs": [
        {
          "internalType": "uint256",
          "name": "",
          "type": "uint256"
        }
      ],
      "stateMutability": "view",
      "type": "function",
      "constant": true
    },
    {
      "inputs": [],
      "name": "decimals",
      "outputs": [
        {
          "internalType": "uint8",
          "name": "",
          "type": "uint8"
        }
      ],
      "stateMutability": "view",
      "type": "function",
      "constant": true
    },
    {
      "inputs": [
        {
          "internalType": "address",
          "name": "spender",
          "type": "address"
        },
        {
          "internalType": "uint256",
          "name": "subtractedValue",
          "type": "uint256"
        }
      ],
      "name": "decreaseAllowance",
      "outputs": [
        {
          "internalType": "bool",
          "name": "",
          "type": "bool"
        }
      ],
      "stateMutability": "nonpayable",
      "type": "function"
    },
    {
      "inputs": [
        {
          "internalType": "address",
          "name": "spender",
          "type": "address"
        },
        {
          "internalType": "uint256",
          "name": "addedValue",
          "type": "uint256"
        }
      ],
      "name": "increaseAllowance",
      "outputs": [
        {
          "internalType": "bool",
          "name": "",
          "type": "bool"
        }
      ],
      "stateMutability": "nonpayable",
      "type": "function"
    },
    {
      "inputs": [],
      "name": "name",
      "outputs": [
        {
          "internalType": "string",
          "name": "",
          "type": "string"
        }
      ],
      "stateMutability": "view",
      "type": "function",
      "constant": true
    },
    {
      "inputs": [],
      "name": "symbol",
      "outputs": [
        {
          "internalType": "string",
          "name": "",
          "type": "string"
        }
      ],
      "stateMutability": "view",
      "type": "function",
      "constant": true
    },
    {
      "inputs": [],
      "name": "token1",
      "outputs": [
        {
          "internalType": "contract IERC20",
          "name": "",
          "type": "address"
        }
      ],
      "stateMutability": "view",
      "type": "function",
      "constant": true
    },
    {
      "inputs": [],
      "name": "token2",
      "outputs": [
        {
          "internalType": "contract IERC20",
          "name": "",
          "type": "address"
        }
      ],
      "stateMutability": "view",
      "type": "function",
      "constant": true
    },
    {
      "inputs": [],
      "name": "totalSupply",
      "outputs": [
        {
          "internalType": "uint256",
          "name": "",
          "type": "uint256"
        }
      ],
      "stateMutability": "view",
      "type": "function",
      "constant": true
    },
    {
      "inputs": [
        {
          "internalType": "address",
          "name": "to",
          "type": "address"
        },
        {
          "internalType": "uint256",
          "name": "amount",
          "type": "uint256"
        }
      ],
      "name": "transfer",
      "outputs": [
        {
          "internalType": "bool",
          "name": "",
          "type": "bool"
        }
      ],
      "stateMutability": "nonpayable",
      "type": "function"
    },
    {
      "inputs": [
        {
          "internalType": "address",
          "name": "from",
          "type": "address"
        },
        {
          "internalType": "address",
          "name": "to",
          "type": "address"
        },
        {
          "internalType": "uint256",
          "name": "amount",
          "type": "uint256"
        }
      ],
      "name": "transferFrom",
      "outputs": [
        {
          "internalType": "bool",
          "name": "",
          "type": "bool"
        }
      ],
      "stateMutability": "nonpayable",
      "type": "function"
    },
    {
      "inputs": [],
      "name": "swapETHtoCYON",
      "outputs": [],
      "stateMutability": "payable",
      "type": "function",
      "payable": true
    },
    {
      "inputs": [
        {
          "internalType": "uint256",
          "name": "_amountCYON",
          "type": "uint256"
        }
      ],
      "name": "swapCYONtoETH",
      "outputs": [],
      "stateMutability": "payable",
      "type": "function",
      "payable": true
    },
    {
      "inputs": [],
      "name": "getBalanceETH",
      "outputs": [
        {
          "internalType": "uint256",
          "name": "balance",
          "type": "uint256"
        }
      ],
      "stateMutability": "view",
      "type": "function",
      "constant": true
    }
  ],
  "bytecode": "0x60806040527364ff637fb478863b7468bc97d30a5bf3a428a1fd600560006101000a81548173ffffffffffffffffffffffffffffffffffffffff021916908373ffffffffffffffffffffffffffffffffffffffff16021790555030600660006101000a81548173ffffffffffffffffffffffffffffffffffffffff021916908373ffffffffffffffffffffffffffffffffffffffff160217905550348015620000a757600080fd5b506040516200257b3803806200257b8339818101604052810190620000cd9190620003f8565b6040518060400160405280601381526020017f43686f6f736520596f7572204f776e204e4654000000000000000000000000008152506040518060400160405280600481526020017f43594f4e0000000000000000000000000000000000000000000000000000000081525081600390805190602001906200015192919062000308565b5080600490805190602001906200016a92919062000308565b5050506200017f33826200018660201b60201c565b50620005cb565b600073ffffffffffffffffffffffffffffffffffffffff168273ffffffffffffffffffffffffffffffffffffffff1603620001f8576040517f08c379a0000000000000000000000000000000000000000000000000000000008152600401620001ef906200048b565b60405180910390fd5b6200020c60008383620002fe60201b60201c565b8060026000828254620002209190620004dc565b92505081905550806000808473ffffffffffffffffffffffffffffffffffffffff1673ffffffffffffffffffffffffffffffffffffffff1681526020019081526020016000206000828254620002779190620004dc565b925050819055508173ffffffffffffffffffffffffffffffffffffffff16600073ffffffffffffffffffffffffffffffffffffffff167fddf252ad1be2c89b69c2b068fc378daa952ba7f163c4a11628f55a4df523b3ef83604051620002de91906200054a565b60405180910390a3620002fa600083836200030360201b60201c565b5050565b505050565b505050565b828054620003169062000596565b90600052602060002090601f0160209004810192826200033a576000855562000386565b82601f106200035557805160ff191683800117855562000386565b8280016001018555821562000386579182015b828111156200038557825182559160200191906001019062000368565b5b50905062000395919062000399565b5090565b5b80821115620003b45760008160009055506001016200039a565b5090565b600080fd5b6000819050919050565b620003d281620003bd565b8114620003de57600080fd5b50565b600081519050620003f281620003c7565b92915050565b600060208284031215620004115762000410620003b8565b5b60006200042184828501620003e1565b91505092915050565b600082825260208201905092915050565b7f45524332303a206d696e7420746f20746865207a65726f206164647265737300600082015250565b600062000473601f836200042a565b915062000480826200043b565b602082019050919050565b60006020820190508181036000830152620004a68162000464565b9050919050565b7f4e487b7100000000000000000000000000000000000000000000000000000000600052601160045260246000fd5b6000620004e982620003bd565b9150620004f683620003bd565b9250827fffffffffffffffffffffffffffffffffffffffffffffffffffffffffffffffff038211156200052e576200052d620004ad565b5b828201905092915050565b6200054481620003bd565b82525050565b600060208201905062000561600083018462000539565b92915050565b7f4e487b7100000000000000000000000000000000000000000000000000000000600052602260045260246000fd5b60006002820490506001821680620005af57607f821691505b602082108103620005c557620005c462000567565b5b50919050565b611fa080620005db6000396000f3fe6080604052600436106100f35760003560e01c806370a082311161008a578063a9059cbb11610059578063a9059cbb14610326578063acd1f25414610363578063d21220a71461038e578063dd62ed3e146103b9576100f3565b806370a08231146102775780637189b260146102b457806395d89b41146102be578063a457c2d7146102e9576100f3565b806325be124e116100c657806325be124e146101c85780632901c706146101f3578063313ce5671461020f578063395093511461023a576100f3565b806306fdde03146100f8578063095ea7b31461012357806318160ddd1461016057806323b872dd1461018b575b600080fd5b34801561010457600080fd5b5061010d6103f6565b60405161011a91906111d5565b60405180910390f35b34801561012f57600080fd5b5061014a60048036038101906101459190611290565b610488565b60405161015791906112eb565b60405180910390f35b34801561016c57600080fd5b506101756104ab565b6040516101829190611315565b60405180910390f35b34801561019757600080fd5b506101b260048036038101906101ad9190611330565b6104b5565b6040516101bf91906112eb565b60405180910390f35b3480156101d457600080fd5b506101dd6104e4565b6040516101ea91906113e2565b60405180910390f35b61020d600480360381019061020891906113fd565b61050a565b005b34801561021b57600080fd5b5061022461077e565b6040516102319190611446565b60405180910390f35b34801561024657600080fd5b50610261600480360381019061025c9190611290565b610787565b60405161026e91906112eb565b60405180910390f35b34801561028357600080fd5b5061029e60048036038101906102999190611461565b6107be565b6040516102ab9190611315565b60405180910390f35b6102bc610806565b005b3480156102ca57600080fd5b506102d36109aa565b6040516102e091906111d5565b60405180910390f35b3480156102f557600080fd5b50610310600480360381019061030b9190611290565b610a3c565b60405161031d91906112eb565b60405180910390f35b34801561033257600080fd5b5061034d60048036038101906103489190611290565b610ab3565b60405161035a91906112eb565b60405180910390f35b34801561036f57600080fd5b50610378610ad6565b6040516103859190611315565b60405180910390f35b34801561039a57600080fd5b506103a3610ade565b6040516103b091906113e2565b60405180910390f35b3480156103c557600080fd5b506103e060048036038101906103db919061148e565b610b04565b6040516103ed9190611315565b60405180910390f35b606060038054610405906114fd565b80601f0160208091040260200160405190810160405280929190818152602001828054610431906114fd565b801561047e5780601f106104535761010080835404028352916020019161047e565b820191906000526020600020905b81548152906001019060200180831161046157829003601f168201915b5050505050905090565b600080610493610b8b565b90506104a0818585610b93565b600191505092915050565b6000600254905090565b6000806104c0610b8b565b90506104cd858285610d5c565b6104d8858585610de8565b60019150509392505050565b600660009054906101000a900473ffffffffffffffffffffffffffffffffffffffff1681565b606481101561054e576040517f08c379a0000000000000000000000000000000000000000000000000000000008152600401610545906115a0565b60405180910390fd5b47606460018361055e91906115ef565b6105689190611678565b106105a8576040517f08c379a000000000000000000000000000000000000000000000000000000000815260040161059f906116f5565b60405180910390fd5b80600660009054906101000a900473ffffffffffffffffffffffffffffffffffffffff1673ffffffffffffffffffffffffffffffffffffffff1663dd62ed3e33306040518363ffffffff1660e01b8152600401610606929190611724565b602060405180830381865afa158015610623573d6000803e3d6000fd5b505050506040513d601f19601f820116820180604052508101906106479190611762565b1015610688576040517f08c379a000000000000000000000000000000000000000000000000000000000815260040161067f906117db565b60405180910390fd5b6106b6600660009054906101000a900473ffffffffffffffffffffffffffffffffffffffff16333084611067565b60003373ffffffffffffffffffffffffffffffffffffffff1660646001846106de91906115ef565b6106e89190611678565b6040516106f49061182c565b60006040518083038185875af1925050503d8060008114610731576040519150601f19603f3d011682016040523d82523d6000602084013e610736565b606091505b505090508061077a576040517f08c379a00000000000000000000000000000000000000000000000000000000081526004016107719061188d565b60405180910390fd5b5050565b60006012905090565b600080610792610b8b565b90506107b38185856107a48589610b04565b6107ae91906118ad565b610b93565b600191505092915050565b60008060008373ffffffffffffffffffffffffffffffffffffffff1673ffffffffffffffffffffffffffffffffffffffff168152602001908152602001600020549050919050565b60003411610849576040517f08c379a000000000000000000000000000000000000000000000000000000000815260040161084090611975565b60405180910390fd5b610852306107be565b600160643461086191906115ef565b61086b9190611678565b106108ab576040517f08c379a00000000000000000000000000000000000000000000000000000000081526004016108a2906119e1565b60405180910390fd5b6000600660009054906101000a900473ffffffffffffffffffffffffffffffffffffffff1673ffffffffffffffffffffffffffffffffffffffff1663a9059cbb3360016064346108fb91906115ef565b6109059190611678565b6040518363ffffffff1660e01b8152600401610922929190611a01565b6020604051808303816000875af1158015610941573d6000803e3d6000fd5b505050506040513d601f19601f820116820180604052508101906109659190611a56565b9050806109a7576040517f08c379a000000000000000000000000000000000000000000000000000000000815260040161099e90611acf565b60405180910390fd5b50565b6060600480546109b9906114fd565b80601f01602080910402602001604051908101604052809291908181526020018280546109e5906114fd565b8015610a325780601f10610a0757610100808354040283529160200191610a32565b820191906000526020600020905b815481529060010190602001808311610a1557829003601f168201915b5050505050905090565b600080610a47610b8b565b90506000610a558286610b04565b905083811015610a9a576040517f08c379a0000000000000000000000000000000000000000000000000000000008152600401610a9190611b61565b60405180910390fd5b610aa78286868403610b93565b60019250505092915050565b600080610abe610b8b565b9050610acb818585610de8565b600191505092915050565b600047905090565b600560009054906101000a900473ffffffffffffffffffffffffffffffffffffffff1681565b6000600160008473ffffffffffffffffffffffffffffffffffffffff1673ffffffffffffffffffffffffffffffffffffffff16815260200190815260200160002060008373ffffffffffffffffffffffffffffffffffffffff1673ffffffffffffffffffffffffffffffffffffffff16815260200190815260200160002054905092915050565b600033905090565b600073ffffffffffffffffffffffffffffffffffffffff168373ffffffffffffffffffffffffffffffffffffffff1603610c02576040517f08c379a0000000000000000000000000000000000000000000000000000000008152600401610bf990611bf3565b60405180910390fd5b600073ffffffffffffffffffffffffffffffffffffffff168273ffffffffffffffffffffffffffffffffffffffff1603610c71576040517f08c379a0000000000000000000000000000000000000000000000000000000008152600401610c6890611c85565b60405180910390fd5b80600160008573ffffffffffffffffffffffffffffffffffffffff1673ffffffffffffffffffffffffffffffffffffffff16815260200190815260200160002060008473ffffffffffffffffffffffffffffffffffffffff1673ffffffffffffffffffffffffffffffffffffffff168152602001908152602001600020819055508173ffffffffffffffffffffffffffffffffffffffff168373ffffffffffffffffffffffffffffffffffffffff167f8c5be1e5ebec7d5bd14f71427d1e84f3dd0314c0f7b2291e5b200ac8c7c3b92583604051610d4f9190611315565b60405180910390a3505050565b6000610d688484610b04565b90507fffffffffffffffffffffffffffffffffffffffffffffffffffffffffffffffff8114610de25781811015610dd4576040517f08c379a0000000000000000000000000000000000000000000000000000000008152600401610dcb90611cf1565b60405180910390fd5b610de18484848403610b93565b5b50505050565b600073ffffffffffffffffffffffffffffffffffffffff168373ffffffffffffffffffffffffffffffffffffffff1603610e57576040517f08c379a0000000000000000000000000000000000000000000000000000000008152600401610e4e90611d83565b60405180910390fd5b600073ffffffffffffffffffffffffffffffffffffffff168273ffffffffffffffffffffffffffffffffffffffff1603610ec6576040517f08c379a0000000000000000000000000000000000000000000000000000000008152600401610ebd90611e15565b60405180910390fd5b610ed1838383611132565b60008060008573ffffffffffffffffffffffffffffffffffffffff1673ffffffffffffffffffffffffffffffffffffffff16815260200190815260200160002054905081811015610f57576040517f08c379a0000000000000000000000000000000000000000000000000000000008152600401610f4e90611ea7565b60405180910390fd5b8181036000808673ffffffffffffffffffffffffffffffffffffffff1673ffffffffffffffffffffffffffffffffffffffff16815260200190815260200160002081905550816000808573ffffffffffffffffffffffffffffffffffffffff1673ffffffffffffffffffffffffffffffffffffffff1681526020019081526020016000206000828254610fea91906118ad565b925050819055508273ffffffffffffffffffffffffffffffffffffffff168473ffffffffffffffffffffffffffffffffffffffff167fddf252ad1be2c89b69c2b068fc378daa952ba7f163c4a11628f55a4df523b3ef8460405161104e9190611315565b60405180910390a3611061848484611137565b50505050565b60008473ffffffffffffffffffffffffffffffffffffffff166323b872dd8585856040518463ffffffff1660e01b81526004016110a693929190611ec7565b6020604051808303816000875af11580156110c5573d6000803e3d6000fd5b505050506040513d601f19601f820116820180604052508101906110e99190611a56565b90508061112b576040517f08c379a000000000000000000000000000000000000000000000000000000000815260040161112290611f4a565b60405180910390fd5b5050505050565b505050565b505050565b600081519050919050565b600082825260208201905092915050565b60005b8381101561117657808201518184015260208101905061115b565b83811115611185576000848401525b50505050565b6000601f19601f8301169050919050565b60006111a78261113c565b6111b18185611147565b93506111c1818560208601611158565b6111ca8161118b565b840191505092915050565b600060208201905081810360008301526111ef818461119c565b905092915050565b600080fd5b600073ffffffffffffffffffffffffffffffffffffffff82169050919050565b6000611227826111fc565b9050919050565b6112378161121c565b811461124257600080fd5b50565b6000813590506112548161122e565b92915050565b6000819050919050565b61126d8161125a565b811461127857600080fd5b50565b60008135905061128a81611264565b92915050565b600080604083850312156112a7576112a66111f7565b5b60006112b585828601611245565b92505060206112c68582860161127b565b9150509250929050565b60008115159050919050565b6112e5816112d0565b82525050565b600060208201905061130060008301846112dc565b92915050565b61130f8161125a565b82525050565b600060208201905061132a6000830184611306565b92915050565b600080600060608486031215611349576113486111f7565b5b600061135786828701611245565b935050602061136886828701611245565b92505060406113798682870161127b565b9150509250925092565b6000819050919050565b60006113a86113a361139e846111fc565b611383565b6111fc565b9050919050565b60006113ba8261138d565b9050919050565b60006113cc826113af565b9050919050565b6113dc816113c1565b82525050565b60006020820190506113f760008301846113d3565b92915050565b600060208284031215611413576114126111f7565b5b60006114218482850161127b565b91505092915050565b600060ff82169050919050565b6114408161142a565b82525050565b600060208201905061145b6000830184611437565b92915050565b600060208284031215611477576114766111f7565b5b600061148584828501611245565b91505092915050565b600080604083850312156114a5576114a46111f7565b5b60006114b385828601611245565b92505060206114c485828601611245565b9150509250929050565b7f4e487b7100000000000000000000000000000000000000000000000000000000600052602260045260246000fd5b6000600282049050600182168061151557607f821691505b602082108103611528576115276114ce565b5b50919050565b7f74686520616d6f756e74206f662043594f4e206d75737420626520677265617460008201527f6572207468616e206f7220657175616c20746f20313030000000000000000000602082015250565b600061158a603783611147565b91506115958261152e565b604082019050919050565b600060208201905081810360008301526115b98161157d565b9050919050565b7f4e487b7100000000000000000000000000000000000000000000000000000000600052601160045260246000fd5b60006115fa8261125a565b91506116058361125a565b9250817fffffffffffffffffffffffffffffffffffffffffffffffffffffffffffffffff048311821515161561163e5761163d6115c0565b5b828202905092915050565b7f4e487b7100000000000000000000000000000000000000000000000000000000600052601260045260246000fd5b60006116838261125a565b915061168e8361125a565b92508261169e5761169d611649565b5b828204905092915050565b7f546f74616c20737570706c792045544820686173206265656e2073656c6c0000600082015250565b60006116df601e83611147565b91506116ea826116a9565b602082019050919050565b6000602082019050818103600083015261170e816116d2565b9050919050565b61171e8161121c565b82525050565b60006040820190506117396000830185611715565b6117466020830184611715565b9392505050565b60008151905061175c81611264565b92915050565b600060208284031215611778576117776111f7565b5b60006117868482850161174d565b91505092915050565b7f546f6b656e203220616c6c6f77616e636520746f6f206c6f7700000000000000600082015250565b60006117c5601983611147565b91506117d08261178f565b602082019050919050565b600060208201905081810360008301526117f4816117b8565b9050919050565b600081905092915050565b50565b60006118166000836117fb565b915061182182611806565b600082019050919050565b600061183782611809565b9150819050919050565b7f4661696c656420746f2073656e64204554480000000000000000000000000000600082015250565b6000611877601283611147565b915061188282611841565b602082019050919050565b600060208201905081810360008301526118a68161186a565b9050919050565b60006118b88261125a565b91506118c38361125a565b9250827fffffffffffffffffffffffffffffffffffffffffffffffffffffffffffffffff038211156118f8576118f76115c0565b5b828201905092915050565b7f74686520616d6f756e74206d7573742062652067726561746572207468616e2060008201527f3000000000000000000000000000000000000000000000000000000000000000602082015250565b600061195f602183611147565b915061196a82611903565b604082019050919050565b6000602082019050818103600083015261198e81611952565b9050919050565b7f546f74616c20737570706c792043594f4e20686173206265656e2073656c6c00600082015250565b60006119cb601f83611147565b91506119d682611995565b602082019050919050565b600060208201905081810360008301526119fa816119be565b9050919050565b6000604082019050611a166000830185611715565b611a236020830184611306565b9392505050565b611a33816112d0565b8114611a3e57600080fd5b50565b600081519050611a5081611a2a565b92915050565b600060208284031215611a6c57611a6b6111f7565b5b6000611a7a84828501611a41565b91505092915050565b7f4661696c656420746f2073656e642043594f4e00000000000000000000000000600082015250565b6000611ab9601383611147565b9150611ac482611a83565b602082019050919050565b60006020820190508181036000830152611ae881611aac565b9050919050565b7f45524332303a2064656372656173656420616c6c6f77616e63652062656c6f7760008201527f207a65726f000000000000000000000000000000000000000000000000000000602082015250565b6000611b4b602583611147565b9150611b5682611aef565b604082019050919050565b60006020820190508181036000830152611b7a81611b3e565b9050919050565b7f45524332303a20617070726f76652066726f6d20746865207a65726f2061646460008201527f7265737300000000000000000000000000000000000000000000000000000000602082015250565b6000611bdd602483611147565b9150611be882611b81565b604082019050919050565b60006020820190508181036000830152611c0c81611bd0565b9050919050565b7f45524332303a20617070726f766520746f20746865207a65726f20616464726560008201527f7373000000000000000000000000000000000000000000000000000000000000602082015250565b6000611c6f602283611147565b9150611c7a82611c13565b604082019050919050565b60006020820190508181036000830152611c9e81611c62565b9050919050565b7f45524332303a20696e73756666696369656e7420616c6c6f77616e6365000000600082015250565b6000611cdb601d83611147565b9150611ce682611ca5565b602082019050919050565b60006020820190508181036000830152611d0a81611cce565b9050919050565b7f45524332303a207472616e736665722066726f6d20746865207a65726f20616460008201527f6472657373000000000000000000000000000000000000000000000000000000602082015250565b6000611d6d602583611147565b9150611d7882611d11565b604082019050919050565b60006020820190508181036000830152611d9c81611d60565b9050919050565b7f45524332303a207472616e7366657220746f20746865207a65726f206164647260008201527f6573730000000000000000000000000000000000000000000000000000000000602082015250565b6000611dff602383611147565b9150611e0a82611da3565b604082019050919050565b60006020820190508181036000830152611e2e81611df2565b9050919050565b7f45524332303a207472616e7366657220616d6f756e742065786365656473206260008201527f616c616e63650000000000000000000000000000000000000000000000000000602082015250565b6000611e91602683611147565b9150611e9c82611e35565b604082019050919050565b60006020820190508181036000830152611ec081611e84565b9050919050565b6000606082019050611edc6000830186611715565b611ee96020830185611715565b611ef66040830184611306565b949350505050565b7f546f6b656e207472616e73666572206661696c65640000000000000000000000600082015250565b6000611f34601583611147565b9150611f3f82611efe565b602082019050919050565b60006020820190508181036000830152611f6381611f27565b905091905056fea2646970667358221220c365ecab60032fc03e845ecd3b0f8a914f30eee2c4c554ae63e0f491afebdcdc64736f6c634300080d0033",
  "immutableReferences": {},
  "source": "// SPDX-License-Identifier: GPL-3.0\npragma solidity 0.8.13;\n\n// import \"@openzeppelin/contracts-upgradeable/proxy/utils/Initializable.sol\";\n// import \"@openzeppelin/contracts-upgradeable/token/ERC20/ERC20Upgradeable.sol\";\nimport \"@openzeppelin/contracts/token/ERC20/ERC20.sol\";\nimport \"@openzeppelin/contracts/token/ERC20/IERC20.sol\";\ncontract CYONToken is ERC20 {\n    IERC20 public token1 = IERC20(address(0x64FF637fB478863B7468bc97D30a5bF3A428a1fD));\n    IERC20 public token2 = IERC20(address(this));\n    // function initialize(uint256 initialSupply) public virtual initializer {\n    //     __ERC20_init(\"Choose Your Own NFT\", \"CYON\");\n    //     _mint(_msgSender(), initialSupply);        \n    //     // token1 = IERC20Upgradeable(address(0x64FF637fB478863B7468bc97D30a5bF3A428a1fD));\n    // }\n    constructor(uint256 _initialSupply) ERC20(\"Choose Your Own NFT\", \"CYON\") {\n        _mint(msg.sender, _initialSupply);\n    }\n    modifier valueNotZero(){\n        require(msg.value > 0, 'the amount must be greater than 0');\n        _;\n    }\n    function swapETHtoCYON() public payable valueNotZero {\n        // uint amountTransfert = msg.value * 100 / 1;\n        require((msg.value * 100 / 1) < balanceOf(address(this)), 'Total supply CYON has been sell');\n        bool sent = token2.transfer(msg.sender, (msg.value * 100 / 1));\n        require(sent, \"Failed to send CYON\");\n    }\n\n    function swapCYONtoETH(uint _amountCYON) public payable {\n        require(_amountCYON >= 100, 'the amount of CYON must be greater than or equal to 100');\n        // uint amountTransfert = _amountCYON * 1 / 100;\n        require((_amountCYON * 1 / 100) < address(this).balance, 'Total supply ETH has been sell');\n        require(token2.allowance(msg.sender, address(this)) >= _amountCYON, \"Token 2 allowance too low\");\n        _safeTransferFrom(token2, msg.sender, address(this), _amountCYON);\n        (bool sent, )= address(msg.sender).call{value: (_amountCYON * 1 / 100)}(\"\");\n        require(sent, \"Failed to send ETH\");\n    }\n\n    function _safeTransferFrom(IERC20 _token, address _sender, address _recipient, uint _amount) private {\n        bool sent = _token.transferFrom(_sender, _recipient, _amount);\n        require(sent, \"Token transfer failed\");\n    }\n    function getBalanceETH() external view returns(uint balance){\n\t\treturn address(this).balance;\n\t}\n}",
  "sourcePath": "/home/alexis/Projects/project-nft-cyon/contracts/CYONToken.sol",
  "compiler": {
    "name": "solc",
    "version": "0.8.13+commit.abaa5c0e.Emscripten.clang"
  },
  "schemaVersion": "3.4.7",
  "updatedAt": "2022-05-13T16:54:34.207Z",
  "networkType": "ethereum",
  "devdoc": {
    "kind": "dev",
    "methods": {
      "allowance(address,address)": {
        "details": "See {IERC20-allowance}."
      },
      "approve(address,uint256)": {
        "details": "See {IERC20-approve}. NOTE: If `amount` is the maximum `uint256`, the allowance is not updated on `transferFrom`. This is semantically equivalent to an infinite approval. Requirements: - `spender` cannot be the zero address."
      },
      "balanceOf(address)": {
        "details": "See {IERC20-balanceOf}."
      },
      "decimals()": {
        "details": "Returns the number of decimals used to get its user representation. For example, if `decimals` equals `2`, a balance of `505` tokens should be displayed to a user as `5.05` (`505 / 10 ** 2`). Tokens usually opt for a value of 18, imitating the relationship between Ether and Wei. This is the value {ERC20} uses, unless this function is overridden; NOTE: This information is only used for _display_ purposes: it in no way affects any of the arithmetic of the contract, including {IERC20-balanceOf} and {IERC20-transfer}."
      },
      "decreaseAllowance(address,uint256)": {
        "details": "Atomically decreases the allowance granted to `spender` by the caller. This is an alternative to {approve} that can be used as a mitigation for problems described in {IERC20-approve}. Emits an {Approval} event indicating the updated allowance. Requirements: - `spender` cannot be the zero address. - `spender` must have allowance for the caller of at least `subtractedValue`."
      },
      "increaseAllowance(address,uint256)": {
        "details": "Atomically increases the allowance granted to `spender` by the caller. This is an alternative to {approve} that can be used as a mitigation for problems described in {IERC20-approve}. Emits an {Approval} event indicating the updated allowance. Requirements: - `spender` cannot be the zero address."
      },
      "name()": {
        "details": "Returns the name of the token."
      },
      "symbol()": {
        "details": "Returns the symbol of the token, usually a shorter version of the name."
      },
      "totalSupply()": {
        "details": "See {IERC20-totalSupply}."
      },
      "transfer(address,uint256)": {
        "details": "See {IERC20-transfer}. Requirements: - `to` cannot be the zero address. - the caller must have a balance of at least `amount`."
      },
      "transferFrom(address,address,uint256)": {
        "details": "See {IERC20-transferFrom}. Emits an {Approval} event indicating the updated allowance. This is not required by the EIP. See the note at the beginning of {ERC20}. NOTE: Does not update the allowance if the current allowance is the maximum `uint256`. Requirements: - `from` and `to` cannot be the zero address. - `from` must have a balance of at least `amount`. - the caller must have allowance for ``from``'s tokens of at least `amount`."
      }
    },
    "version": 1
  },
  "userdoc": {
    "kind": "user",
    "methods": {},
    "version": 1
  }
}