{
  "contractName": "Master",
  "abi": [
    {
      "inputs": [
        {
          "internalType": "address",
          "name": "_addressCYON",
          "type": "address"
        }
      ],
      "stateMutability": "nonpayable",
      "type": "constructor"
    },
    {
      "anonymous": false,
      "inputs": [
        {
          "indexed": false,
          "internalType": "string",
          "name": "_nftCollection",
          "type": "string"
        },
        {
          "indexed": false,
          "internalType": "uint256",
          "name": "_nftTokenID",
          "type": "uint256"
        },
        {
          "indexed": false,
          "internalType": "address",
          "name": "_newOwner",
          "type": "address"
        },
        {
          "indexed": false,
          "internalType": "uint256",
          "name": "_price",
          "type": "uint256"
        }
      ],
      "name": "AuctionClosed",
      "type": "event"
    },
    {
      "anonymous": false,
      "inputs": [
        {
          "indexed": false,
          "internalType": "string",
          "name": "_nftCollection",
          "type": "string"
        },
        {
          "indexed": false,
          "internalType": "uint256",
          "name": "_nftTokenID",
          "type": "uint256"
        },
        {
          "indexed": false,
          "internalType": "address",
          "name": "_owner",
          "type": "address"
        }
      ],
      "name": "AuctionStarted",
      "type": "event"
    },
    {
      "anonymous": false,
      "inputs": [
        {
          "indexed": false,
          "internalType": "string",
          "name": "_nftCollection",
          "type": "string"
        },
        {
          "indexed": false,
          "internalType": "uint256",
          "name": "_nftTokenID",
          "type": "uint256"
        },
        {
          "indexed": false,
          "internalType": "address",
          "name": "_bidder",
          "type": "address"
        },
        {
          "indexed": false,
          "internalType": "uint256",
          "name": "_newBid",
          "type": "uint256"
        }
      ],
      "name": "HighestBidIncreased",
      "type": "event"
    },
    {
      "inputs": [
        {
          "internalType": "string",
          "name": "_nftCollection",
          "type": "string"
        },
        {
          "internalType": "uint256",
          "name": "_nftTokenID",
          "type": "uint256"
        }
      ],
      "name": "bid",
      "outputs": [],
      "stateMutability": "payable",
      "type": "function",
      "payable": true
    },
    {
      "inputs": [
        {
          "internalType": "string",
          "name": "_nftCollection",
          "type": "string"
        },
        {
          "internalType": "uint256",
          "name": "_nftTokenID",
          "type": "uint256"
        }
      ],
      "name": "checkAuctionTimeExpired",
      "outputs": [
        {
          "internalType": "bool",
          "name": "",
          "type": "bool"
        }
      ],
      "stateMutability": "view",
      "type": "function",
      "constant": true
    },
    {
      "inputs": [
        {
          "internalType": "string",
          "name": "_nftCollection",
          "type": "string"
        },
        {
          "internalType": "uint256",
          "name": "_nftTokenID",
          "type": "uint256"
        }
      ],
      "name": "endAuction",
      "outputs": [],
      "stateMutability": "nonpayable",
      "type": "function"
    },
    {
      "inputs": [
        {
          "internalType": "string",
          "name": "_nftCollection",
          "type": "string"
        },
        {
          "internalType": "uint256",
          "name": "_nftTokenID",
          "type": "uint256"
        }
      ],
      "name": "getBiddersAmount",
      "outputs": [
        {
          "internalType": "uint256",
          "name": "",
          "type": "uint256"
        }
      ],
      "stateMutability": "view",
      "type": "function",
      "constant": true
    },
    {
      "inputs": [
        {
          "internalType": "string",
          "name": "_nftCollection",
          "type": "string"
        },
        {
          "internalType": "uint256",
          "name": "_nftTokenID",
          "type": "uint256"
        }
      ],
      "name": "getCurrentHighestBid",
      "outputs": [
        {
          "internalType": "uint256",
          "name": "",
          "type": "uint256"
        }
      ],
      "stateMutability": "view",
      "type": "function",
      "constant": true
    },
    {
      "inputs": [
        {
          "internalType": "string",
          "name": "_nftCollection",
          "type": "string"
        },
        {
          "internalType": "uint256",
          "name": "_nftTokenID",
          "type": "uint256"
        }
      ],
      "name": "getCurrentHighestBidder",
      "outputs": [
        {
          "internalType": "address",
          "name": "",
          "type": "address"
        }
      ],
      "stateMutability": "view",
      "type": "function",
      "constant": true
    },
    {
      "inputs": [
        {
          "internalType": "string",
          "name": "_nftCollection",
          "type": "string"
        },
        {
          "internalType": "uint256",
          "name": "_nftTokenID",
          "type": "uint256"
        },
        {
          "internalType": "uint256",
          "name": "_biddingTime",
          "type": "uint256"
        }
      ],
      "name": "initializeAuction",
      "outputs": [],
      "stateMutability": "payable",
      "type": "function",
      "payable": true
    },
    {
      "inputs": [],
      "name": "tokenCYON",
      "outputs": [
        {
          "internalType": "contract IERC20",
          "name": "",
          "type": "address"
        }
      ],
      "stateMutability": "view",
      "type": "function",
      "constant": true
    },
    {
      "inputs": [
        {
          "internalType": "string",
          "name": "_nftCollection",
          "type": "string"
        },
        {
          "internalType": "uint256",
          "name": "_nftTokenID",
          "type": "uint256"
        }
      ],
      "name": "withdrawRefund",
      "outputs": [],
      "stateMutability": "nonpayable",
      "type": "function"
    },
    {
      "inputs": [
        {
          "internalType": "address",
          "name": "_collectionAddress",
          "type": "address"
        },
        {
          "internalType": "address",
          "name": "_firstOwner",
          "type": "address"
        },
        {
          "internalType": "string",
          "name": "_tokenURI",
          "type": "string"
        },
        {
          "internalType": "string",
          "name": "_name",
          "type": "string"
        },
        {
          "internalType": "string",
          "name": "_description",
          "type": "string"
        },
        {
          "internalType": "string",
          "name": "_tag",
          "type": "string"
        }
      ],
      "name": "createNFT",
      "outputs": [],
      "stateMutability": "nonpayable",
      "type": "function"
    },
    {
      "inputs": [
        {
          "internalType": "address",
          "name": "_collectionAddress",
          "type": "address"
        },
        {
          "internalType": "uint256",
          "name": "_tokenID",
          "type": "uint256"
        },
        {
          "internalType": "uint256",
          "name": "_price",
          "type": "uint256"
        }
      ],
      "name": "setNewPrice",
      "outputs": [],
      "stateMutability": "nonpayable",
      "type": "function"
    }
  ],
  "bytecode": "0x60806040523480156200001157600080fd5b5060405162002cd538038062002cd58339818101604052810190620000379190620000e9565b80600160006101000a81548173ffffffffffffffffffffffffffffffffffffffff021916908373ffffffffffffffffffffffffffffffffffffffff160217905550506200011b565b600080fd5b600073ffffffffffffffffffffffffffffffffffffffff82169050919050565b6000620000b18262000084565b9050919050565b620000c381620000a4565b8114620000cf57600080fd5b50565b600081519050620000e381620000b8565b92915050565b6000602082840312156200010257620001016200007f565b5b60006200011284828501620000d2565b91505092915050565b612baa806200012b6000396000f3fe60806040526004361061009c5760003560e01c80635f483313116100645780635f4833131461018457806378d9170f146101a0578063811ca7cf146101dd578063cef3f1ff14610206578063e8bbb71414610222578063f3ccf70b1461025f5761009c565b806328d4ae0f146100a1578063368d5707146100ca57806350194895146100f35780635dade73c1461011e5780635ed013551461015b575b600080fd5b3480156100ad57600080fd5b506100c860048036038101906100c39190611bbb565b61029c565b005b3480156100d657600080fd5b506100f160048036038101906100ec9190611d54565b610564565b005b3480156100ff57600080fd5b506101086108f5565b6040516101159190611e0f565b60405180910390f35b34801561012a57600080fd5b5061014560048036038101906101409190611d54565b61091b565b6040516101529190611e45565b60405180910390f35b34801561016757600080fd5b50610182600480360381019061017d9190611d54565b6109d9565b005b61019e60048036038101906101999190611d54565b610c61565b005b3480156101ac57600080fd5b506101c760048036038101906101c29190611d54565b611397565b6040516101d49190611e6f565b60405180910390f35b3480156101e957600080fd5b5061020460048036038101906101ff9190611e8a565b611455565b005b610220600480360381019061021b9190611f87565b6115ee565b005b34801561022e57600080fd5b5061024960048036038101906102449190611d54565b61193f565b6040516102569190612005565b60405180910390f35b34801561026b57600080fd5b5061028660048036038101906102819190611d54565b611a1a565b6040516102939190611e6f565b60405180910390f35b600073ffffffffffffffffffffffffffffffffffffffff168373ffffffffffffffffffffffffffffffffffffffff160361030b576040517f08c379a0000000000000000000000000000000000000000000000000000000008152600401610302906120a3565b60405180910390fd5b8273ffffffffffffffffffffffffffffffffffffffff1663c4e41b226040518163ffffffff1660e01b8152600401602060405180830381865afa158015610356573d6000803e3d6000fd5b505050506040513d601f19601f8201168201806040525081019061037a91906120d8565b82111580156103895750600082115b6103c8576040517f08c379a00000000000000000000000000000000000000000000000000000000081526004016103bf90612151565b60405180910390fd5b3373ffffffffffffffffffffffffffffffffffffffff168373ffffffffffffffffffffffffffffffffffffffff16636352211e846040518263ffffffff1660e01b81526004016104189190611e6f565b602060405180830381865afa158015610435573d6000803e3d6000fd5b505050506040513d601f19601f820116820180604052508101906104599190612186565b73ffffffffffffffffffffffffffffffffffffffff16146104af576040517f08c379a00000000000000000000000000000000000000000000000000000000081526004016104a690612225565b60405180910390fd5b600081116104f2576040517f08c379a00000000000000000000000000000000000000000000000000000000081526004016104e9906122b7565b60405180910390fd5b8273ffffffffffffffffffffffffffffffffffffffff1663f7d9757783836040518363ffffffff1660e01b815260040161052d9291906122d7565b600060405180830381600087803b15801561054757600080fd5b505af115801561055b573d6000803e3d6000fd5b50505050505050565b600082604051610574919061237a565b9081526020016040518091039020600082815260200190815260200160002060000160009054906101000a900460ff166105e3576040517f08c379a00000000000000000000000000000000000000000000000000000000081526004016105da90612403565b60405180910390fd5b6000826040516105f3919061237a565b9081526020016040518091039020600082815260200190815260200160002060010154421015610658576040517f08c379a000000000000000000000000000000000000000000000000000000000815260040161064f90612495565b60405180910390fd5b60008083604051610669919061237a565b9081526020016040518091039020600083815260200190815260200160002060000160006101000a81548160ff021916908315150217905550600080836040516106b3919061237a565b908152602001604051809103902060008381526020019081526020016000206006018054905090506000808290505b60008111156107ef576000856040516106fb919061237a565b9081526020016040518091039020600085815260200190815260200160002060060160018261072a91906124e4565b8154811061073b5761073a612518565b5b9060005260206000200160009054906101000a900473ffffffffffffffffffffffffffffffffffffffff16915060008086604051610779919061237a565b9081526020016040518091039020600086815260200190815260200160002060050160008473ffffffffffffffffffffffffffffffffffffffff1673ffffffffffffffffffffffffffffffffffffffff1681526020019081526020016000208190555080806107e790612547565b9150506106e2565b50600084604051610800919061237a565b90815260200160405180910390206000848152602001908152602001600020600601600061082e9190611ad5565b7fa7953ef2bb4951672b4e763a37e675cde6fa9e924ad07b06d533488c8be51abe8484600087604051610861919061237a565b9081526020016040518091039020600087815260200190815260200160002060020160009054906101000a900473ffffffffffffffffffffffffffffffffffffffff166000886040516108b4919061237a565b90815260200160405180910390206000888152602001908152602001600020600301546040516108e794939291906125a9565b60405180910390a150505050565b600160009054906101000a900473ffffffffffffffffffffffffffffffffffffffff1681565b6000808360405161092c919061237a565b9081526020016040518091039020600083815260200190815260200160002060000160009054906101000a900460ff1661099b576040517f08c379a000000000000000000000000000000000000000000000000000000000815260040161099290612403565b60405180910390fd5b6000836040516109ab919061237a565b9081526020016040518091039020600083815260200190815260200160002060010154421015905092915050565b600080836040516109ea919061237a565b9081526020016040518091039020600083815260200190815260200160002060040160003373ffffffffffffffffffffffffffffffffffffffff1673ffffffffffffffffffffffffffffffffffffffff1681526020019081526020016000205411610a8a576040517f08c379a0000000000000000000000000000000000000000000000000000000008152600401610a8190612667565b60405180910390fd5b60008083604051610a9b919061237a565b9081526020016040518091039020600083815260200190815260200160002060040160003373ffffffffffffffffffffffffffffffffffffffff1673ffffffffffffffffffffffffffffffffffffffff16815260200190815260200160002054905060008084604051610b0e919061237a565b9081526020016040518091039020600084815260200190815260200160002060040160003373ffffffffffffffffffffffffffffffffffffffff1673ffffffffffffffffffffffffffffffffffffffff1681526020019081526020016000208190555060008084604051610b82919061237a565b9081526020016040518091039020600084815260200190815260200160002060050160003373ffffffffffffffffffffffffffffffffffffffff1673ffffffffffffffffffffffffffffffffffffffff1681526020019081526020016000208190555060003373ffffffffffffffffffffffffffffffffffffffff1682604051610c0b906126b8565b60006040518083038185875af1925050503d8060008114610c48576040519150601f19603f3d011682016040523d82523d6000602084013e610c4d565b606091505b5050905080610c5b57600080fd5b50505050565b600082604051610c71919061237a565b9081526020016040518091039020600082815260200190815260200160002060000160009054906101000a900460ff16610ce0576040517f08c379a0000000000000000000000000000000000000000000000000000000008152600401610cd790612403565b60405180910390fd5b600082604051610cf0919061237a565b90815260200160405180910390206000828152602001908152602001600020600101544210610d54576040517f08c379a0000000000000000000000000000000000000000000000000000000008152600401610d4b90612719565b60405180910390fd5b6103e8600083604051610d67919061237a565b908152602001604051809103902060008381526020019081526020016000206006018054905010610dcd576040517f08c379a0000000000000000000000000000000000000000000000000000000008152600401610dc4906127ab565b60405180910390fd5b600082604051610ddd919061237a565b908152602001604051809103902060008281526020019081526020016000206003015434600084604051610e11919061237a565b9081526020016040518091039020600084815260200190815260200160002060050160003373ffffffffffffffffffffffffffffffffffffffff1673ffffffffffffffffffffffffffffffffffffffff16815260200190815260200160002054610e7b91906127cb565b11610ebb576040517f08c379a0000000000000000000000000000000000000000000000000000000008152600401610eb29061286d565b60405180910390fd5b60008083604051610ecc919061237a565b908152602001604051809103902060008381526020019081526020016000206003015414610ffe57600082604051610f04919061237a565b9081526020016040518091039020600082815260200190815260200160002060030154600083604051610f37919061237a565b9081526020016040518091039020600083815260200190815260200160002060040160008085604051610f6a919061237a565b9081526020016040518091039020600085815260200190815260200160002060020160009054906101000a900473ffffffffffffffffffffffffffffffffffffffff1673ffffffffffffffffffffffffffffffffffffffff1673ffffffffffffffffffffffffffffffffffffffff1681526020019081526020016000206000828254610ff691906127cb565b925050819055505b6000808360405161100f919061237a565b9081526020016040518091039020600083815260200190815260200160002060050160003373ffffffffffffffffffffffffffffffffffffffff1673ffffffffffffffffffffffffffffffffffffffff168152602001908152602001600020540361110857600082604051611084919061237a565b90815260200160405180910390206000828152602001908152602001600020600601339080600181540180825580915050600190039060005260206000200160009091909190916101000a81548173ffffffffffffffffffffffffffffffffffffffff021916908373ffffffffffffffffffffffffffffffffffffffff1602179055505b34600083604051611119919061237a565b9081526020016040518091039020600083815260200190815260200160002060050160003373ffffffffffffffffffffffffffffffffffffffff1673ffffffffffffffffffffffffffffffffffffffff1681526020019081526020016000205461118391906127cb565b600083604051611193919061237a565b9081526020016040518091039020600083815260200190815260200160002060030181905550336000836040516111ca919061237a565b9081526020016040518091039020600083815260200190815260200160002060020160006101000a81548173ffffffffffffffffffffffffffffffffffffffff021916908373ffffffffffffffffffffffffffffffffffffffff1602179055503460008360405161123b919061237a565b9081526020016040518091039020600083815260200190815260200160002060050160003373ffffffffffffffffffffffffffffffffffffffff1673ffffffffffffffffffffffffffffffffffffffff16815260200190815260200160002060008282546112a991906127cb565b92505081905550600080836040516112c1919061237a565b9081526020016040518091039020600083815260200190815260200160002060040160003373ffffffffffffffffffffffffffffffffffffffff1673ffffffffffffffffffffffffffffffffffffffff168152602001908152602001600020819055507f8c794bd31d11ed5130d428bae6ffb1992bed97f08efa5a1b47b0a6f846e3ea59828233600086604051611358919061237a565b908152602001604051809103902060008681526020019081526020016000206003015460405161138b94939291906125a9565b60405180910390a15050565b600080836040516113a8919061237a565b9081526020016040518091039020600083815260200190815260200160002060000160009054906101000a900460ff16611417576040517f08c379a000000000000000000000000000000000000000000000000000000000815260040161140e90612403565b60405180910390fd5b600083604051611427919061237a565b9081526020016040518091039020600083815260200190815260200160002060060180549050905092915050565b600073ffffffffffffffffffffffffffffffffffffffff168673ffffffffffffffffffffffffffffffffffffffff16036114c4576040517f08c379a00000000000000000000000000000000000000000000000000000000081526004016114bb906120a3565b60405180910390fd5b600073ffffffffffffffffffffffffffffffffffffffff168573ffffffffffffffffffffffffffffffffffffffff1603611533576040517f08c379a000000000000000000000000000000000000000000000000000000000815260040161152a906128ff565b60405180910390fd5b8573ffffffffffffffffffffffffffffffffffffffff1663338e111e863387878787600160009054906101000a900473ffffffffffffffffffffffffffffffffffffffff1660008060006040518b63ffffffff1660e01b81526004016115a29a9998979695949392919061295a565b6020604051808303816000875af11580156115c1573d6000803e3d6000fd5b505050506040513d601f19601f820116820180604052508101906115e591906120d8565b50505050505050565b6000836040516115fe919061237a565b9081526020016040518091039020600083815260200190815260200160002060000160009054906101000a900460ff161561166e576040517f08c379a000000000000000000000000000000000000000000000000000000000815260040161166590612a84565b60405180910390fd5b600081116116b1576040517f08c379a00000000000000000000000000000000000000000000000000000000081526004016116a890612b16565b60405180910390fd5b80426116bd91906127cb565b6000846040516116cd919061237a565b908152602001604051809103902060008481526020019081526020016000206001018190555033600084604051611704919061237a565b9081526020016040518091039020600084815260200190815260200160002060020160006101000a81548173ffffffffffffffffffffffffffffffffffffffff021916908373ffffffffffffffffffffffffffffffffffffffff16021790555034600084604051611775919061237a565b908152602001604051809103902060008481526020019081526020016000206003018190555060016000846040516117ad919061237a565b9081526020016040518091039020600084815260200190815260200160002060000160006101000a81548160ff0219169083151502179055506000836040516117f6919061237a565b90815260200160405180910390206000838152602001908152602001600020600601339080600181540180825580915050600190039060005260206000200160009091909190916101000a81548173ffffffffffffffffffffffffffffffffffffffff021916908373ffffffffffffffffffffffffffffffffffffffff1602179055503460008460405161188a919061237a565b9081526020016040518091039020600084815260200190815260200160002060050160003373ffffffffffffffffffffffffffffffffffffffff1673ffffffffffffffffffffffffffffffffffffffff16815260200190815260200160002060008282546118f891906127cb565b925050819055507f2bed6fb45fe1ae91f7d4c5dfdfc932e36fd80b4743242feaa5b14f1de14887a683833360405161193293929190612b36565b60405180910390a1505050565b60008083604051611950919061237a565b9081526020016040518091039020600083815260200190815260200160002060000160009054906101000a900460ff166119bf576040517f08c379a00000000000000000000000000000000000000000000000000000000081526004016119b690612403565b60405180910390fd5b6000836040516119cf919061237a565b9081526020016040518091039020600083815260200190815260200160002060020160009054906101000a900473ffffffffffffffffffffffffffffffffffffffff16905092915050565b60008083604051611a2b919061237a565b9081526020016040518091039020600083815260200190815260200160002060000160009054906101000a900460ff16611a9a576040517f08c379a0000000000000000000000000000000000000000000000000000000008152600401611a9190612403565b60405180910390fd5b600083604051611aaa919061237a565b9081526020016040518091039020600083815260200190815260200160002060030154905092915050565b5080546000825590600052602060002090810190611af39190611af6565b50565b5b80821115611b0f576000816000905550600101611af7565b5090565b6000604051905090565b600080fd5b600080fd5b600073ffffffffffffffffffffffffffffffffffffffff82169050919050565b6000611b5282611b27565b9050919050565b611b6281611b47565b8114611b6d57600080fd5b50565b600081359050611b7f81611b59565b92915050565b6000819050919050565b611b9881611b85565b8114611ba357600080fd5b50565b600081359050611bb581611b8f565b92915050565b600080600060608486031215611bd457611bd3611b1d565b5b6000611be286828701611b70565b9350506020611bf386828701611ba6565b9250506040611c0486828701611ba6565b9150509250925092565b600080fd5b600080fd5b6000601f19601f8301169050919050565b7f4e487b7100000000000000000000000000000000000000000000000000000000600052604160045260246000fd5b611c6182611c18565b810181811067ffffffffffffffff82111715611c8057611c7f611c29565b5b80604052505050565b6000611c93611b13565b9050611c9f8282611c58565b919050565b600067ffffffffffffffff821115611cbf57611cbe611c29565b5b611cc882611c18565b9050602081019050919050565b82818337600083830152505050565b6000611cf7611cf284611ca4565b611c89565b905082815260208101848484011115611d1357611d12611c13565b5b611d1e848285611cd5565b509392505050565b600082601f830112611d3b57611d3a611c0e565b5b8135611d4b848260208601611ce4565b91505092915050565b60008060408385031215611d6b57611d6a611b1d565b5b600083013567ffffffffffffffff811115611d8957611d88611b22565b5b611d9585828601611d26565b9250506020611da685828601611ba6565b9150509250929050565b6000819050919050565b6000611dd5611dd0611dcb84611b27565b611db0565b611b27565b9050919050565b6000611de782611dba565b9050919050565b6000611df982611ddc565b9050919050565b611e0981611dee565b82525050565b6000602082019050611e246000830184611e00565b92915050565b60008115159050919050565b611e3f81611e2a565b82525050565b6000602082019050611e5a6000830184611e36565b92915050565b611e6981611b85565b82525050565b6000602082019050611e846000830184611e60565b92915050565b60008060008060008060c08789031215611ea757611ea6611b1d565b5b6000611eb589828a01611b70565b9650506020611ec689828a01611b70565b955050604087013567ffffffffffffffff811115611ee757611ee6611b22565b5b611ef389828a01611d26565b945050606087013567ffffffffffffffff811115611f1457611f13611b22565b5b611f2089828a01611d26565b935050608087013567ffffffffffffffff811115611f4157611f40611b22565b5b611f4d89828a01611d26565b92505060a087013567ffffffffffffffff811115611f6e57611f6d611b22565b5b611f7a89828a01611d26565b9150509295509295509295565b600080600060608486031215611fa057611f9f611b1d565b5b600084013567ffffffffffffffff811115611fbe57611fbd611b22565b5b611fca86828701611d26565b9350506020611fdb86828701611ba6565b9250506040611fec86828701611ba6565b9150509250925092565b611fff81611b47565b82525050565b600060208201905061201a6000830184611ff6565b92915050565b600082825260208201905092915050565b7f54686520636f6c6c656374696f6e2061646472657373206e6565647320746f2060008201527f626520646966666572656e742066726f6d207a65726f2e000000000000000000602082015250565b600061208d603783612020565b915061209882612031565b604082019050919050565b600060208201905081810360008301526120bc81612080565b9050919050565b6000815190506120d281611b8f565b92915050565b6000602082840312156120ee576120ed611b1d565b5b60006120fc848285016120c3565b91505092915050565b7f5468697320746f6b656e20494420646f6573206e6f742065786973742e000000600082015250565b600061213b601d83612020565b915061214682612105565b602082019050919050565b6000602082019050818103600083015261216a8161212e565b9050919050565b60008151905061218081611b59565b92915050565b60006020828403121561219c5761219b611b1d565b5b60006121aa84828501612171565b91505092915050565b7f54686973204e465420646f6573206e6f742062656c6f6e6720746f207468652060008201527f63757272656e74206d6573736167652073656e6465722e000000000000000000602082015250565b600061220f603783612020565b915061221a826121b3565b604082019050919050565b6000602082019050818103600083015261223e81612202565b9050919050565b7f506c6561736520646566696e6520612073656c6c696e6720707269636520686960008201527f67686572207468616e207a65726f2e0000000000000000000000000000000000602082015250565b60006122a1602f83612020565b91506122ac82612245565b604082019050919050565b600060208201905081810360008301526122d081612294565b9050919050565b60006040820190506122ec6000830185611e60565b6122f96020830184611e60565b9392505050565b600081519050919050565b600081905092915050565b60005b83811015612334578082015181840152602081019050612319565b83811115612343576000848401525b50505050565b600061235482612300565b61235e818561230b565b935061236e818560208601612316565b80840191505092915050565b60006123868284612349565b915081905092915050565b7f5468657265206973206e6f2061756374696f6e207374617274656420666f722060008201527f74686973204e46542e0000000000000000000000000000000000000000000000602082015250565b60006123ed602983612020565b91506123f882612391565b604082019050919050565b6000602082019050818103600083015261241c816123e0565b9050919050565b7f5468652061756374696f6e20686173206e6f742066696e69736865642079657460008201527f2e00000000000000000000000000000000000000000000000000000000000000602082015250565b600061247f602183612020565b915061248a82612423565b604082019050919050565b600060208201905081810360008301526124ae81612472565b9050919050565b7f4e487b7100000000000000000000000000000000000000000000000000000000600052601160045260246000fd5b60006124ef82611b85565b91506124fa83611b85565b92508282101561250d5761250c6124b5565b5b828203905092915050565b7f4e487b7100000000000000000000000000000000000000000000000000000000600052603260045260246000fd5b600061255282611b85565b915060008203612565576125646124b5565b5b600182039050919050565b600061257b82612300565b6125858185612020565b9350612595818560208601612316565b61259e81611c18565b840191505092915050565b600060808201905081810360008301526125c38187612570565b90506125d26020830186611e60565b6125df6040830185611ff6565b6125ec6060830184611e60565b95945050505050565b7f5468657265206973206e6f7468696e6720746f20726566756e6420746f20746860008201527f65206d6573736167652073656e64657220666f722074686973204e46542e0000602082015250565b6000612651603e83612020565b915061265c826125f5565b604082019050919050565b6000602082019050818103600083015261268081612644565b9050919050565b600081905092915050565b50565b60006126a2600083612687565b91506126ad82612692565b600082019050919050565b60006126c382612695565b9150819050919050565b7f5468652061756374696f6e2068617320616c726561647920656e6465642e0000600082015250565b6000612703601e83612020565b915061270e826126cd565b602082019050919050565b60006020820190508181036000830152612732816126f6565b9050919050565b7f546869732061756374696f6e20616368696576656420746865206d6178696d7560008201527f6d20616d6f756e74206f6620626964732e000000000000000000000000000000602082015250565b6000612795603183612020565b91506127a082612739565b604082019050919050565b600060208201905081810360008301526127c481612788565b9050919050565b60006127d682611b85565b91506127e183611b85565b9250827fffffffffffffffffffffffffffffffffffffffffffffffffffffffffffffffff03821115612816576128156124b5565b5b828201905092915050565b7f5468652062696420697320746f6f206c6f772e00000000000000000000000000600082015250565b6000612857601383612020565b915061286282612821565b602082019050919050565b600060208201905081810360008301526128868161284a565b9050919050565b7f54686520757365722061646472657373206e6565647320746f2062652064696660008201527f666572656e742066726f6d207a65726f2e000000000000000000000000000000602082015250565b60006128e9603183612020565b91506128f48261288d565b604082019050919050565b60006020820190508181036000830152612918816128dc565b9050919050565b6000819050919050565b600061294461293f61293a8461291f565b611db0565b611b85565b9050919050565b61295481612929565b82525050565b600061014082019050612970600083018d611ff6565b61297d602083018c611ff6565b818103604083015261298f818b612570565b905081810360608301526129a3818a612570565b905081810360808301526129b78189612570565b905081810360a08301526129cb8188612570565b90506129da60c0830187611ff6565b6129e760e083018661294b565b6129f5610100830185611e36565b612a03610120830184611e36565b9b9a5050505050505050505050565b7f416e2061756374696f6e2068617320616c72656164792073746172746564206660008201527f6f722074686973204e46542e0000000000000000000000000000000000000000602082015250565b6000612a6e602c83612020565b9150612a7982612a12565b604082019050919050565b60006020820190508181036000830152612a9d81612a61565b9050919050565b7f506c6561736520646566696e6520616e2061756374696f6e206869676865722060008201527f7468616e207a65726f2e00000000000000000000000000000000000000000000602082015250565b6000612b00602a83612020565b9150612b0b82612aa4565b604082019050919050565b60006020820190508181036000830152612b2f81612af3565b9050919050565b60006060820190508181036000830152612b508186612570565b9050612b5f6020830185611e60565b612b6c6040830184611ff6565b94935050505056fea2646970667358221220cf20f05584810c736319706001de914d891e126128aaa29b328bcde76ad5a84264736f6c634300080d0033",
  "immutableReferences": {},
  "source": "// SPDX-License-Identifier: GPL-3.0\npragma solidity 0.8.13;\n\nimport \"./Auction.sol\";\nimport \"./NFTCollectionFactory.sol\";\nimport \"../node_modules/@openzeppelin/contracts/token/ERC20/IERC20.sol\";\ncontract Master is Auction {\n    \n    \n\n    //------------------------------------------------------------------------------------\n    // ----------------------------------Variables----------------------------------------\n    //------------------------------------------------------------------------------------\n    IERC20 public tokenCYON;\n\n    //------------------------------------------------------------------------------------\n    // ------------------------------------Events-----------------------------------------\n    //------------------------------------------------------------------------------------\n\n    //------------------------------------------------------------------------------------\n    // ----------------------------------Constructor--------------------------------------\n    //------------------------------------------------------------------------------------\n    /// @notice The constructor the Master smart contract\n    /// @param _addressCYON The ERC20 address of the platform token (CYON) \n    constructor(address _addressCYON) {\n        tokenCYON = IERC20(_addressCYON);\n    }\n\n    //------------------------------------------------------------------------------------\n    // -----------------------------------Functions---------------------------------------\n    //------------------------------------------------------------------------------------\n    /// @notice This function allows to create NFTs inside a collection and mint it directly\n    /// @dev Call this function when the user wants to create a new NFT and mint it to the given address\n    /// @param _collectionAddress The address of the collection in which the NFT will be created/minted\n    /// @param _firstOwner The destination address to which the NFT is minted\n    /// @param _tokenURI The metadata through a link URI\n    /// @param _name Name of the new NFT\n    /// @param _description Description of the new NFT\n    /// @param _tag Tag of the new NFT allowing filtering\n    function createNFT(address _collectionAddress, address _firstOwner, string memory _tokenURI, string memory _name, \n        string memory _description, string memory _tag) external {\n            require(_collectionAddress != address(0),\"The collection address needs to be different from zero.\");\n            require(_firstOwner != address(0),\"The user address needs to be different from zero.\");  \n\n            NFTCollections(_collectionAddress).MintNFT(_firstOwner,msg.sender,_tokenURI,_name,_description,_tag,address(tokenCYON),0,false,false);\n        }\n\n\n    /// @notice This function allows to set the price of the given NFT\n    /// @dev Call this function when a sale is initiated\n    /// @param _collectionAddress The address of the collection of the NFT to set the price\n    /// @param _tokenID The token ID of the NFT to set the price\n    /// @param _price The price to set\n    function setNewPrice(address _collectionAddress, uint256 _tokenID, uint256 _price) external {\n        require(_collectionAddress != address(0),\"The collection address needs to be different from zero.\");    // Make sure the address is different from zero\n        require((_tokenID <= NFTCollections(_collectionAddress).getTotalSupply()) && (_tokenID > 0), \"This token ID does not exist.\");      // Make sure the token ID exists\n        require(NFTCollections(_collectionAddress).ownerOf(_tokenID) == msg.sender,\"This NFT does not belong to the current message sender.\");  // Make sure the sale comes from the owner\n        require(_price > 0,\"Please define a selling price higher than zero.\");                                  // Make sure the price is more than zero\n\n        NFTCollections(_collectionAddress).setPrice(_tokenID,_price);\n    }\n\n\n    //------------------------------------------------------------------------------------\n    // ------------------------------------Getters----------------------------------------\n    //------------------------------------------------------------------------------------\n    \n}\n",
  "sourcePath": "/home/sebastien/Documents/cours/project-nft-cyon/contracts/Master.sol",
  "compiler": {
    "name": "solc",
    "version": "0.8.13+commit.abaa5c0e.Emscripten.clang"
  },
  "schemaVersion": "3.4.7",
  "updatedAt": "2022-05-12T08:38:45.135Z",
  "networkType": "ethereum",
  "devdoc": {
    "kind": "dev",
    "methods": {
      "bid(string,uint256)": {
        "details": "Call this function each time a user place a new bid",
        "params": {
          "_nftCollection": "Collection name of the given NFT",
          "_nftTokenID": "Token ID of the given NFT"
        }
      },
      "checkAuctionTimeExpired(string,uint256)": {
        "details": "Call this function to check if the time of the auction is over or not",
        "params": {
          "_nftCollection": "Collection name of the given NFT",
          "_nftTokenID": "Token ID of the given NFT"
        },
        "returns": {
          "_0": "Returns a boolean to define if the auction time has expired (true) or not (false)"
        }
      },
      "constructor": {
        "params": {
          "_addressCYON": "The ERC20 address of the platform token (CYON) "
        }
      },
      "createNFT(address,address,string,string,string,string)": {
        "details": "Call this function when the user wants to create a new NFT and mint it to the given address",
        "params": {
          "_collectionAddress": "The address of the collection in which the NFT will be created/minted",
          "_description": "Description of the new NFT",
          "_firstOwner": "The destination address to which the NFT is minted",
          "_name": "Name of the new NFT",
          "_tag": "Tag of the new NFT allowing filtering",
          "_tokenURI": "The metadata through a link URI"
        }
      },
      "endAuction(string,uint256)": {
        "details": "This function is called from the front when the auction time is expired",
        "params": {
          "_nftCollection": "Collection name of the given NFT",
          "_nftTokenID": "Token ID of the given NFT"
        }
      },
      "getBiddersAmount(string,uint256)": {
        "details": "Call this function from the front to display the amount of bidders over the given limit (here 1000)",
        "params": {
          "_nftCollection": "Collection name of the given NFT",
          "_nftTokenID": "Token ID of the given NFT"
        },
        "returns": {
          "_0": "Returns the amount of bidders (how many addresses)"
        }
      },
      "getCurrentHighestBid(string,uint256)": {
        "details": "Call this function when you want to know the value of the highest bid",
        "params": {
          "_nftCollection": "Collection name of the given NFT",
          "_nftTokenID": "Token ID of the given NFT"
        },
        "returns": {
          "_0": "Returns the value of the current highest bid"
        }
      },
      "getCurrentHighestBidder(string,uint256)": {
        "details": "Call this function when you want to know the address of the highest bidder",
        "params": {
          "_nftCollection": "Collection name of the given NFT",
          "_nftTokenID": "Token ID of the given NFT"
        },
        "returns": {
          "_0": "Returns the address of the current highest bidder"
        }
      },
      "initializeAuction(string,uint256,uint256)": {
        "details": "Call this function when the user decides to sell his NFT through an auction. The owner can define a starting price if he sends money in the transaction.",
        "params": {
          "_biddingTime": "Auction time in seconds",
          "_nftCollection": "Collection name of the given NFT",
          "_nftTokenID": "Token ID of the given NFT"
        }
      },
      "setNewPrice(address,uint256,uint256)": {
        "details": "Call this function when a sale is initiated",
        "params": {
          "_collectionAddress": "The address of the collection of the NFT to set the price",
          "_price": "The price to set",
          "_tokenID": "The token ID of the NFT to set the price"
        }
      },
      "withdrawRefund(string,uint256)": {
        "details": "The user can call this function through the front when his bid is not the highest anymore.",
        "params": {
          "_nftCollection": "Collection name of the given NFT",
          "_nftTokenID": "Token ID of the given NFT"
        }
      }
    },
    "version": 1
  },
  "userdoc": {
    "events": {
      "AuctionClosed(string,uint256,address,uint256)": {
        "notice": "Event raised when the auction has finished"
      },
      "AuctionStarted(string,uint256,address)": {
        "notice": "Event raised when the auction has started"
      },
      "HighestBidIncreased(string,uint256,address,uint256)": {
        "notice": "Event raised when the bid has increased"
      }
    },
    "kind": "user",
    "methods": {
      "bid(string,uint256)": {
        "notice": "This function allows to place a new bid"
      },
      "checkAuctionTimeExpired(string,uint256)": {
        "notice": "This function allows to check if the auction ended"
      },
      "constructor": {
        "notice": "The constructor the Master smart contract"
      },
      "createNFT(address,address,string,string,string,string)": {
        "notice": "This function allows to create NFTs inside a collection and mint it directly"
      },
      "endAuction(string,uint256)": {
        "notice": "This function allows to close the auction"
      },
      "getBiddersAmount(string,uint256)": {
        "notice": "This function allows to check for the amount of bidders"
      },
      "getCurrentHighestBid(string,uint256)": {
        "notice": "This function allows to check for the current highest bid"
      },
      "getCurrentHighestBidder(string,uint256)": {
        "notice": "This function allows to check for the current highest bidder"
      },
      "initializeAuction(string,uint256,uint256)": {
        "notice": "This function allows to initiate a new auction"
      },
      "setNewPrice(address,uint256,uint256)": {
        "notice": "This function allows to set the price of the given NFT"
      },
      "withdrawRefund(string,uint256)": {
        "notice": "This function allows a user that placed a bid (not the highest anymore) to get back his funds"
      }
    },
    "version": 1
  }
}