{
  "contractName": "Master",
  "abi": [
    {
      "inputs": [
        {
          "internalType": "address",
          "name": "_addressCYON",
          "type": "address"
        }
      ],
      "stateMutability": "nonpayable",
      "type": "constructor"
    },
    {
      "anonymous": false,
      "inputs": [
        {
          "indexed": false,
          "internalType": "address",
          "name": "_nftCollectionAddress",
          "type": "address"
        },
        {
          "indexed": false,
          "internalType": "uint256",
          "name": "_nftTokenID",
          "type": "uint256"
        },
        {
          "indexed": false,
          "internalType": "address",
          "name": "_newOwner",
          "type": "address"
        },
        {
          "indexed": false,
          "internalType": "uint256",
          "name": "_price",
          "type": "uint256"
        }
      ],
      "name": "AuctionClosed",
      "type": "event"
    },
    {
      "anonymous": false,
      "inputs": [
        {
          "indexed": false,
          "internalType": "address",
          "name": "_nftCollectionAddress",
          "type": "address"
        },
        {
          "indexed": false,
          "internalType": "uint256",
          "name": "_nftTokenID",
          "type": "uint256"
        },
        {
          "indexed": false,
          "internalType": "address",
          "name": "_owner",
          "type": "address"
        }
      ],
      "name": "AuctionStarted",
      "type": "event"
    },
    {
      "anonymous": false,
      "inputs": [
        {
          "indexed": false,
          "internalType": "address",
          "name": "_nftCollectionAddress",
          "type": "address"
        },
        {
          "indexed": false,
          "internalType": "uint256",
          "name": "_nftTokenID",
          "type": "uint256"
        },
        {
          "indexed": false,
          "internalType": "address",
          "name": "_bidder",
          "type": "address"
        },
        {
          "indexed": false,
          "internalType": "uint256",
          "name": "_newBid",
          "type": "uint256"
        }
      ],
      "name": "HighestBidIncreased",
      "type": "event"
    },
    {
      "anonymous": false,
      "inputs": [
        {
          "indexed": false,
          "internalType": "string",
          "name": "_collectionName",
          "type": "string"
        },
        {
          "indexed": false,
          "internalType": "address",
          "name": "_collectionAddress",
          "type": "address"
        },
        {
          "indexed": false,
          "internalType": "uint256",
          "name": "_tokenID",
          "type": "uint256"
        },
        {
          "indexed": false,
          "internalType": "address",
          "name": "_oldOwner",
          "type": "address"
        },
        {
          "indexed": false,
          "internalType": "address",
          "name": "_newOwner",
          "type": "address"
        },
        {
          "indexed": false,
          "internalType": "uint256",
          "name": "_price",
          "type": "uint256"
        }
      ],
      "name": "NFTSold",
      "type": "event"
    },
    {
      "inputs": [
        {
          "internalType": "address",
          "name": "_nftCollectionAddress",
          "type": "address"
        },
        {
          "internalType": "uint256",
          "name": "_nftTokenID",
          "type": "uint256"
        }
      ],
      "name": "bid",
      "outputs": [],
      "stateMutability": "payable",
      "type": "function",
      "payable": true
    },
    {
      "inputs": [
        {
          "internalType": "address",
          "name": "_nftCollectionAddress",
          "type": "address"
        },
        {
          "internalType": "uint256",
          "name": "_nftTokenID",
          "type": "uint256"
        }
      ],
      "name": "checkAuctionTimeExpired",
      "outputs": [
        {
          "internalType": "bool",
          "name": "",
          "type": "bool"
        }
      ],
      "stateMutability": "view",
      "type": "function",
      "constant": true
    },
    {
      "inputs": [
        {
          "internalType": "address",
          "name": "_nftCollectionAddress",
          "type": "address"
        },
        {
          "internalType": "uint256",
          "name": "_nftTokenID",
          "type": "uint256"
        }
      ],
      "name": "getBiddersAmount",
      "outputs": [
        {
          "internalType": "uint256",
          "name": "",
          "type": "uint256"
        }
      ],
      "stateMutability": "view",
      "type": "function",
      "constant": true
    },
    {
      "inputs": [
        {
          "internalType": "address",
          "name": "_nftCollectionAddress",
          "type": "address"
        },
        {
          "internalType": "uint256",
          "name": "_nftTokenID",
          "type": "uint256"
        }
      ],
      "name": "getCurrentHighestBid",
      "outputs": [
        {
          "internalType": "uint256",
          "name": "",
          "type": "uint256"
        }
      ],
      "stateMutability": "view",
      "type": "function",
      "constant": true
    },
    {
      "inputs": [
        {
          "internalType": "address",
          "name": "_nftCollectionAddress",
          "type": "address"
        },
        {
          "internalType": "uint256",
          "name": "_nftTokenID",
          "type": "uint256"
        }
      ],
      "name": "getCurrentHighestBidder",
      "outputs": [
        {
          "internalType": "address",
          "name": "",
          "type": "address"
        }
      ],
      "stateMutability": "view",
      "type": "function",
      "constant": true
    },
    {
      "inputs": [
        {
          "internalType": "address",
          "name": "_nftCollectionAddress",
          "type": "address"
        },
        {
          "internalType": "uint256",
          "name": "_nftTokenID",
          "type": "uint256"
        }
      ],
      "name": "getTotalBid",
      "outputs": [
        {
          "internalType": "uint256",
          "name": "",
          "type": "uint256"
        }
      ],
      "stateMutability": "view",
      "type": "function",
      "constant": true
    },
    {
      "inputs": [
        {
          "internalType": "address",
          "name": "_nftCollectionAddress",
          "type": "address"
        },
        {
          "internalType": "uint256",
          "name": "_nftTokenID",
          "type": "uint256"
        }
      ],
      "name": "isInAuction",
      "outputs": [
        {
          "internalType": "bool",
          "name": "",
          "type": "bool"
        }
      ],
      "stateMutability": "view",
      "type": "function",
      "constant": true
    },
    {
      "inputs": [
        {
          "internalType": "address",
          "name": "_nftCollectionAddress",
          "type": "address"
        },
        {
          "internalType": "uint256",
          "name": "_nftTokenID",
          "type": "uint256"
        },
        {
          "internalType": "uint256",
          "name": "_biddingTime",
          "type": "uint256"
        }
      ],
      "name": "startAuction",
      "outputs": [],
      "stateMutability": "payable",
      "type": "function",
      "payable": true
    },
    {
      "inputs": [],
      "name": "tokenCYON",
      "outputs": [
        {
          "internalType": "contract IERC20",
          "name": "",
          "type": "address"
        }
      ],
      "stateMutability": "view",
      "type": "function",
      "constant": true
    },
    {
      "inputs": [
        {
          "internalType": "address",
          "name": "_nftCollectionAddress",
          "type": "address"
        },
        {
          "internalType": "uint256",
          "name": "_nftTokenID",
          "type": "uint256"
        }
      ],
      "name": "withdrawRefund",
      "outputs": [],
      "stateMutability": "nonpayable",
      "type": "function"
    },
    {
      "inputs": [
        {
          "internalType": "address",
          "name": "_collectionAddress",
          "type": "address"
        },
        {
          "internalType": "address",
          "name": "_firstOwner",
          "type": "address"
        },
        {
          "internalType": "string",
          "name": "_tokenURI",
          "type": "string"
        },
        {
          "internalType": "string",
          "name": "_name",
          "type": "string"
        },
        {
          "internalType": "string",
          "name": "_description",
          "type": "string"
        },
        {
          "internalType": "string",
          "name": "_tag",
          "type": "string"
        }
      ],
      "name": "createNFT",
      "outputs": [],
      "stateMutability": "nonpayable",
      "type": "function"
    },
    {
      "inputs": [
        {
          "internalType": "address",
          "name": "_collectionAddress",
          "type": "address"
        },
        {
          "internalType": "uint256",
          "name": "_tokenID",
          "type": "uint256"
        },
        {
          "internalType": "uint256",
          "name": "_price",
          "type": "uint256"
        }
      ],
      "name": "setNewPrice",
      "outputs": [],
      "stateMutability": "nonpayable",
      "type": "function"
    },
    {
      "inputs": [
        {
          "internalType": "address",
          "name": "_collectionAddress",
          "type": "address"
        },
        {
          "internalType": "uint256",
          "name": "_tokenID",
          "type": "uint256"
        }
      ],
      "name": "buyNFT",
      "outputs": [],
      "stateMutability": "payable",
      "type": "function",
      "payable": true
    },
    {
      "inputs": [
        {
          "internalType": "address",
          "name": "_collectionAddress",
          "type": "address"
        },
        {
          "internalType": "uint256",
          "name": "_tokenID",
          "type": "uint256"
        }
      ],
      "name": "requestAuction",
      "outputs": [
        {
          "internalType": "bool",
          "name": "",
          "type": "bool"
        }
      ],
      "stateMutability": "nonpayable",
      "type": "function"
    },
    {
      "inputs": [
        {
          "internalType": "address",
          "name": "_collectionAddress",
          "type": "address"
        },
        {
          "internalType": "uint256",
          "name": "_tokenID",
          "type": "uint256"
        }
      ],
      "name": "closeAuction",
      "outputs": [],
      "stateMutability": "nonpayable",
      "type": "function"
    },
    {
      "inputs": [
        {
          "internalType": "address",
          "name": "_collectionAddress",
          "type": "address"
        },
        {
          "internalType": "uint256",
          "name": "_tokenID",
          "type": "uint256"
        }
      ],
      "name": "getURI",
      "outputs": [
        {
          "internalType": "string",
          "name": "",
          "type": "string"
        }
      ],
      "stateMutability": "view",
      "type": "function",
      "constant": true
    }
  ],
  "bytecode": "0x60806040523480156200001157600080fd5b5060405162005155380380620051558339818101604052810190620000379190620000e9565b80600160006101000a81548173ffffffffffffffffffffffffffffffffffffffff021916908373ffffffffffffffffffffffffffffffffffffffff160217905550506200011b565b600080fd5b600073ffffffffffffffffffffffffffffffffffffffff82169050919050565b6000620000b18262000084565b9050919050565b620000c381620000a4565b8114620000cf57600080fd5b50565b600081519050620000e381620000b8565b92915050565b6000602082840312156200010257620001016200007f565b5b60006200011284828501620000d2565b91505092915050565b61502a806200012b6000396000f3fe6080604052600436106100f35760003560e01c806359d667a51161008a578063cceb2a4c11610059578063cceb2a4c1461030f578063d189ab191461034c578063d35bfa9514610389578063f27eede0146103c6576100f3565b806359d667a5146102715780637b50315e1461028d578063811ca7cf146102ca578063a82ba76f146102f3576100f3565b806347237162116100c657806347237162146101c4578063501948951461020157806353ea4d8a1461022c57806356dd475514610255576100f3565b806320a564e6146100f857806328d4ae0f14610135578063438364a11461015e578063469298b114610187575b600080fd5b34801561010457600080fd5b5061011f600480360381019061011a9190613a52565b610403565b60405161012c9190613aa1565b60405180910390f35b34801561014157600080fd5b5061015c60048036038101906101579190613abc565b61056d565b005b34801561016a57600080fd5b5061018560048036038101906101809190613a52565b610778565b005b34801561019357600080fd5b506101ae60048036038101906101a99190613a52565b610fa6565b6040516101bb9190613aa1565b60405180910390f35b3480156101d057600080fd5b506101eb60048036038101906101e69190613a52565b611113565b6040516101f89190613ba8565b60405180910390f35b34801561020d57600080fd5b50610216611217565b6040516102239190613c29565b60405180910390f35b34801561023857600080fd5b50610253600480360381019061024e9190613a52565b61123d565b005b61026f600480360381019061026a9190613abc565b6115ee565b005b61028b60048036038101906102869190613a52565b611b6e565b005b34801561029957600080fd5b506102b460048036038101906102af9190613a52565b61252c565b6040516102c19190613c5f565b60405180910390f35b3480156102d657600080fd5b506102f160048036038101906102ec9190613daf565b612699565b005b61030d60048036038101906103089190613a52565b612832565b005b34801561031b57600080fd5b5061033660048036038101906103319190613a52565b612e23565b6040516103439190613c5f565b60405180910390f35b34801561035857600080fd5b50610373600480360381019061036e9190613a52565b612efb565b6040516103809190613c5f565b60405180910390f35b34801561039557600080fd5b506103b060048036038101906103ab9190613a52565b613123565b6040516103bd9190613ebb565b60405180910390f35b3480156103d257600080fd5b506103ed60048036038101906103e89190613a52565b6132ad565b6040516103fa9190613aa1565b60405180910390f35b60008073ffffffffffffffffffffffffffffffffffffffff168373ffffffffffffffffffffffffffffffffffffffff1603610473576040517f08c379a000000000000000000000000000000000000000000000000000000000815260040161046a90613f48565b60405180910390fd5b6000808473ffffffffffffffffffffffffffffffffffffffff1673ffffffffffffffffffffffffffffffffffffffff168152602001908152602001600020600083815260200190815260200160002060000160149054906101000a900460ff16610512576040517f08c379a000000000000000000000000000000000000000000000000000000000815260040161050990613fda565b60405180910390fd5b6000808473ffffffffffffffffffffffffffffffffffffffff1673ffffffffffffffffffffffffffffffffffffffff168152602001908152602001600020600083815260200190815260200160002060030154905092915050565b600073ffffffffffffffffffffffffffffffffffffffff168373ffffffffffffffffffffffffffffffffffffffff16036105dc576040517f08c379a00000000000000000000000000000000000000000000000000000000081526004016105d390613f48565b60405180910390fd5b3373ffffffffffffffffffffffffffffffffffffffff168373ffffffffffffffffffffffffffffffffffffffff16636352211e846040518263ffffffff1660e01b815260040161062c9190613aa1565b602060405180830381865afa158015610649573d6000803e3d6000fd5b505050506040513d601f19601f8201168201806040525081019061066d919061400f565b73ffffffffffffffffffffffffffffffffffffffff16146106c3576040517f08c379a00000000000000000000000000000000000000000000000000000000081526004016106ba906140ae565b60405180910390fd5b60008111610706576040517f08c379a00000000000000000000000000000000000000000000000000000000081526004016106fd90614140565b60405180910390fd5b8273ffffffffffffffffffffffffffffffffffffffff1663f7d9757783836040518363ffffffff1660e01b8152600401610741929190614160565b600060405180830381600087803b15801561075b57600080fd5b505af115801561076f573d6000803e3d6000fd5b50505050505050565b600073ffffffffffffffffffffffffffffffffffffffff168273ffffffffffffffffffffffffffffffffffffffff16036107e7576040517f08c379a00000000000000000000000000000000000000000000000000000000081526004016107de90613f48565b60405180910390fd5b8173ffffffffffffffffffffffffffffffffffffffff16636352211e826040518263ffffffff1660e01b81526004016108209190613aa1565b602060405180830381865afa15801561083d573d6000803e3d6000fd5b505050506040513d601f19601f82011682018060405250810190610861919061400f565b503073ffffffffffffffffffffffffffffffffffffffff1663cceb2a4c83836040518363ffffffff1660e01b815260040161089d929190614189565b602060405180830381865afa1580156108ba573d6000803e3d6000fd5b505050506040513d601f19601f820116820180604052508101906108de91906141de565b61091d576040517f08c379a00000000000000000000000000000000000000000000000000000000081526004016109149061427d565b60405180910390fd5b3073ffffffffffffffffffffffffffffffffffffffff16637b50315e83836040518363ffffffff1660e01b8152600401610958929190614189565b602060405180830381865afa158015610975573d6000803e3d6000fd5b505050506040513d601f19601f8201168201806040525081019061099991906141de565b6109d8576040517f08c379a00000000000000000000000000000000000000000000000000000000081526004016109cf9061430f565b60405180910390fd5b60003073ffffffffffffffffffffffffffffffffffffffff166320a564e684846040518363ffffffff1660e01b8152600401610a15929190614189565b602060405180830381865afa158015610a32573d6000803e3d6000fd5b505050506040513d601f19601f82011682018060405250810190610a569190614344565b905060008373ffffffffffffffffffffffffffffffffffffffff16636352211e846040518263ffffffff1660e01b8152600401610a939190613aa1565b602060405180830381865afa158015610ab0573d6000803e3d6000fd5b505050506040513d601f19601f82011682018060405250810190610ad4919061400f565b905060003073ffffffffffffffffffffffffffffffffffffffff1663d35bfa9586866040518363ffffffff1660e01b8152600401610b13929190614189565b602060405180830381865afa158015610b30573d6000803e3d6000fd5b505050506040513d601f19601f82011682018060405250810190610b54919061400f565b9050600073ffffffffffffffffffffffffffffffffffffffff168173ffffffffffffffffffffffffffffffffffffffff1603610bc5576040517f08c379a0000000000000000000000000000000000000000000000000000000008152600401610bbc906143e3565b60405180910390fd5b6000831115610f9f5760008273ffffffffffffffffffffffffffffffffffffffff1684604051610bf490614434565b60006040518083038185875af1925050503d8060008114610c31576040519150601f19603f3d011682016040523d82523d6000602084013e610c36565b606091505b5050905080610c7a576040517f08c379a0000000000000000000000000000000000000000000000000000000008152600401610c71906144bb565b60405180910390fd5b8273ffffffffffffffffffffffffffffffffffffffff168273ffffffffffffffffffffffffffffffffffffffff1614610f93578573ffffffffffffffffffffffffffffffffffffffff1663f7d9757786866040518363ffffffff1660e01b8152600401610ce8929190614160565b600060405180830381600087803b158015610d0257600080fd5b505af1158015610d16573d6000803e3d6000fd5b505050503073ffffffffffffffffffffffffffffffffffffffff168673ffffffffffffffffffffffffffffffffffffffff1663081812fc876040518263ffffffff1660e01b8152600401610d6a9190613aa1565b602060405180830381865afa158015610d87573d6000803e3d6000fd5b505050506040513d601f19601f82011682018060405250810190610dab919061400f565b73ffffffffffffffffffffffffffffffffffffffff1614610e01576040517f08c379a0000000000000000000000000000000000000000000000000000000008152600401610df8906144fe565b60405180910390fd5b8573ffffffffffffffffffffffffffffffffffffffff166342842e0e8484886040518463ffffffff1660e01b8152600401610e3e9392919061451e565b600060405180830381600087803b158015610e5857600080fd5b505af1158015610e6c573d6000803e3d6000fd5b505050508573ffffffffffffffffffffffffffffffffffffffff1663f7d975778660006040518363ffffffff1660e01b8152600401610eac929190614590565b600060405180830381600087803b158015610ec657600080fd5b505af1158015610eda573d6000803e3d6000fd5b505050507f8146a1050e7850dd9a48240ef51ee45f907a45710d3c5136077e83e633c3ebe18673ffffffffffffffffffffffffffffffffffffffff166306fdde036040518163ffffffff1660e01b8152600401600060405180830381865afa158015610f4a573d6000803e3d6000fd5b505050506040513d6000823e3d601f19601f82011682018060405250810190610f739190614629565b8787868689604051610f8a96959493929190614672565b60405180910390a15b610f9d86866133b5565b505b5050505050565b60008073ffffffffffffffffffffffffffffffffffffffff168373ffffffffffffffffffffffffffffffffffffffff1603611016576040517f08c379a000000000000000000000000000000000000000000000000000000000815260040161100d90613f48565b60405180910390fd5b6000808473ffffffffffffffffffffffffffffffffffffffff1673ffffffffffffffffffffffffffffffffffffffff168152602001908152602001600020600083815260200190815260200160002060000160149054906101000a900460ff166110b5576040517f08c379a00000000000000000000000000000000000000000000000000000000081526004016110ac90613fda565b60405180910390fd5b6000808473ffffffffffffffffffffffffffffffffffffffff1673ffffffffffffffffffffffffffffffffffffffff168152602001908152602001600020600083815260200190815260200160002060060180549050905092915050565b60608273ffffffffffffffffffffffffffffffffffffffff16636352211e836040518263ffffffff1660e01b815260040161114e9190613aa1565b602060405180830381865afa15801561116b573d6000803e3d6000fd5b505050506040513d601f19601f8201168201806040525081019061118f919061400f565b508273ffffffffffffffffffffffffffffffffffffffff1663c87b56dd836040518263ffffffff1660e01b81526004016111c99190613aa1565b600060405180830381865afa1580156111e6573d6000803e3d6000fd5b505050506040513d6000823e3d601f19601f8201168201806040525081019061120f9190614629565b905092915050565b600160009054906101000a900473ffffffffffffffffffffffffffffffffffffffff1681565b600073ffffffffffffffffffffffffffffffffffffffff168273ffffffffffffffffffffffffffffffffffffffff16036112ac576040517f08c379a00000000000000000000000000000000000000000000000000000000081526004016112a390613f48565b60405180910390fd5b60008060008473ffffffffffffffffffffffffffffffffffffffff1673ffffffffffffffffffffffffffffffffffffffff168152602001908152602001600020600083815260200190815260200160002060040160003373ffffffffffffffffffffffffffffffffffffffff1673ffffffffffffffffffffffffffffffffffffffff168152602001908152602001600020541161137e576040517f08c379a00000000000000000000000000000000000000000000000000000000081526004016113759061474c565b60405180910390fd5b60008060008473ffffffffffffffffffffffffffffffffffffffff1673ffffffffffffffffffffffffffffffffffffffff168152602001908152602001600020600083815260200190815260200160002060040160003373ffffffffffffffffffffffffffffffffffffffff1673ffffffffffffffffffffffffffffffffffffffff16815260200190815260200160002054905060008060008573ffffffffffffffffffffffffffffffffffffffff1673ffffffffffffffffffffffffffffffffffffffff168152602001908152602001600020600084815260200190815260200160002060040160003373ffffffffffffffffffffffffffffffffffffffff1673ffffffffffffffffffffffffffffffffffffffff1681526020019081526020016000208190555060008060008573ffffffffffffffffffffffffffffffffffffffff1673ffffffffffffffffffffffffffffffffffffffff168152602001908152602001600020600084815260200190815260200160002060050160003373ffffffffffffffffffffffffffffffffffffffff1673ffffffffffffffffffffffffffffffffffffffff1681526020019081526020016000208190555060003373ffffffffffffffffffffffffffffffffffffffff168260405161156290614434565b60006040518083038185875af1925050503d806000811461159f576040519150601f19603f3d011682016040523d82523d6000602084013e6115a4565b606091505b50509050806115e8576040517f08c379a00000000000000000000000000000000000000000000000000000000081526004016115df906147de565b60405180910390fd5b50505050565b600073ffffffffffffffffffffffffffffffffffffffff168373ffffffffffffffffffffffffffffffffffffffff160361165d576040517f08c379a000000000000000000000000000000000000000000000000000000000815260040161165490613f48565b60405180910390fd5b3373ffffffffffffffffffffffffffffffffffffffff166000808573ffffffffffffffffffffffffffffffffffffffff1673ffffffffffffffffffffffffffffffffffffffff168152602001908152602001600020600084815260200190815260200160002060000160009054906101000a900473ffffffffffffffffffffffffffffffffffffffff1673ffffffffffffffffffffffffffffffffffffffff161461173d576040517f08c379a000000000000000000000000000000000000000000000000000000000815260040161173490614870565b60405180910390fd5b6000808473ffffffffffffffffffffffffffffffffffffffff1673ffffffffffffffffffffffffffffffffffffffff168152602001908152602001600020600083815260200190815260200160002060000160149054906101000a900460ff16156117dd576040517f08c379a00000000000000000000000000000000000000000000000000000000081526004016117d490614902565b60405180910390fd5b60008111611820576040517f08c379a000000000000000000000000000000000000000000000000000000000815260040161181790614994565b60405180910390fd5b804261182c91906149e3565b6000808573ffffffffffffffffffffffffffffffffffffffff1673ffffffffffffffffffffffffffffffffffffffff168152602001908152602001600020600084815260200190815260200160002060010181905550336000808573ffffffffffffffffffffffffffffffffffffffff1673ffffffffffffffffffffffffffffffffffffffff168152602001908152602001600020600084815260200190815260200160002060020160006101000a81548173ffffffffffffffffffffffffffffffffffffffff021916908373ffffffffffffffffffffffffffffffffffffffff160217905550346000808573ffffffffffffffffffffffffffffffffffffffff1673ffffffffffffffffffffffffffffffffffffffff16815260200190815260200160002060008481526020019081526020016000206003018190555060016000808573ffffffffffffffffffffffffffffffffffffffff1673ffffffffffffffffffffffffffffffffffffffff168152602001908152602001600020600084815260200190815260200160002060000160146101000a81548160ff0219169083151502179055506000808473ffffffffffffffffffffffffffffffffffffffff1673ffffffffffffffffffffffffffffffffffffffff1681526020019081526020016000206000838152602001908152602001600020600601339080600181540180825580915050600190039060005260206000200160009091909190916101000a81548173ffffffffffffffffffffffffffffffffffffffff021916908373ffffffffffffffffffffffffffffffffffffffff160217905550346000808573ffffffffffffffffffffffffffffffffffffffff1673ffffffffffffffffffffffffffffffffffffffff168152602001908152602001600020600084815260200190815260200160002060050160003373ffffffffffffffffffffffffffffffffffffffff1673ffffffffffffffffffffffffffffffffffffffff1681526020019081526020016000206000828254611b2791906149e3565b925050819055507f881afad1f847f87e78464b076756f7b1016a2062fbff555c3c4992527cc2dbe0838333604051611b6193929190614a39565b60405180910390a1505050565b600073ffffffffffffffffffffffffffffffffffffffff168273ffffffffffffffffffffffffffffffffffffffff1603611bdd576040517f08c379a0000000000000000000000000000000000000000000000000000000008152600401611bd490613f48565b60405180910390fd5b6000808373ffffffffffffffffffffffffffffffffffffffff1673ffffffffffffffffffffffffffffffffffffffff168152602001908152602001600020600082815260200190815260200160002060000160149054906101000a900460ff16611c7c576040517f08c379a0000000000000000000000000000000000000000000000000000000008152600401611c7390613fda565b60405180910390fd5b6000808373ffffffffffffffffffffffffffffffffffffffff1673ffffffffffffffffffffffffffffffffffffffff1681526020019081526020016000206000828152602001908152602001600020600101544210611d10576040517f08c379a0000000000000000000000000000000000000000000000000000000008152600401611d0790614abc565b60405180910390fd5b6103e86000808473ffffffffffffffffffffffffffffffffffffffff1673ffffffffffffffffffffffffffffffffffffffff16815260200190815260200160002060008381526020019081526020016000206006018054905010611da9576040517f08c379a0000000000000000000000000000000000000000000000000000000008152600401611da090614b4e565b60405180910390fd5b6000808373ffffffffffffffffffffffffffffffffffffffff1673ffffffffffffffffffffffffffffffffffffffff168152602001908152602001600020600082815260200190815260200160002060030154346000808573ffffffffffffffffffffffffffffffffffffffff1673ffffffffffffffffffffffffffffffffffffffff168152602001908152602001600020600084815260200190815260200160002060050160003373ffffffffffffffffffffffffffffffffffffffff1673ffffffffffffffffffffffffffffffffffffffff16815260200190815260200160002054611e9791906149e3565b11611ed7576040517f08c379a0000000000000000000000000000000000000000000000000000000008152600401611ece90614bba565b60405180910390fd5b60008060008473ffffffffffffffffffffffffffffffffffffffff1673ffffffffffffffffffffffffffffffffffffffff1681526020019081526020016000206000838152602001908152602001600020600301541461209c576000808373ffffffffffffffffffffffffffffffffffffffff1673ffffffffffffffffffffffffffffffffffffffff1681526020019081526020016000206000828152602001908152602001600020600301546000808473ffffffffffffffffffffffffffffffffffffffff1673ffffffffffffffffffffffffffffffffffffffff168152602001908152602001600020600083815260200190815260200160002060040160008060008673ffffffffffffffffffffffffffffffffffffffff1673ffffffffffffffffffffffffffffffffffffffff168152602001908152602001600020600085815260200190815260200160002060020160009054906101000a900473ffffffffffffffffffffffffffffffffffffffff1673ffffffffffffffffffffffffffffffffffffffff1673ffffffffffffffffffffffffffffffffffffffff168152602001908152602001600020600082825461209491906149e3565b925050819055505b60008060008473ffffffffffffffffffffffffffffffffffffffff1673ffffffffffffffffffffffffffffffffffffffff168152602001908152602001600020600083815260200190815260200160002060050160003373ffffffffffffffffffffffffffffffffffffffff1673ffffffffffffffffffffffffffffffffffffffff16815260200190815260200160002054036121e7576000808373ffffffffffffffffffffffffffffffffffffffff1673ffffffffffffffffffffffffffffffffffffffff1681526020019081526020016000206000828152602001908152602001600020600601339080600181540180825580915050600190039060005260206000200160009091909190916101000a81548173ffffffffffffffffffffffffffffffffffffffff021916908373ffffffffffffffffffffffffffffffffffffffff1602179055505b346000808473ffffffffffffffffffffffffffffffffffffffff1673ffffffffffffffffffffffffffffffffffffffff168152602001908152602001600020600083815260200190815260200160002060050160003373ffffffffffffffffffffffffffffffffffffffff1673ffffffffffffffffffffffffffffffffffffffff168152602001908152602001600020600082825461228691906149e3565b925050819055506000808373ffffffffffffffffffffffffffffffffffffffff1673ffffffffffffffffffffffffffffffffffffffff168152602001908152602001600020600082815260200190815260200160002060050160003373ffffffffffffffffffffffffffffffffffffffff1673ffffffffffffffffffffffffffffffffffffffff168152602001908152602001600020546000808473ffffffffffffffffffffffffffffffffffffffff1673ffffffffffffffffffffffffffffffffffffffff168152602001908152602001600020600083815260200190815260200160002060030181905550336000808473ffffffffffffffffffffffffffffffffffffffff1673ffffffffffffffffffffffffffffffffffffffff168152602001908152602001600020600083815260200190815260200160002060020160006101000a81548173ffffffffffffffffffffffffffffffffffffffff021916908373ffffffffffffffffffffffffffffffffffffffff16021790555060008060008473ffffffffffffffffffffffffffffffffffffffff1673ffffffffffffffffffffffffffffffffffffffff168152602001908152602001600020600083815260200190815260200160002060040160003373ffffffffffffffffffffffffffffffffffffffff1673ffffffffffffffffffffffffffffffffffffffff168152602001908152602001600020819055507ffab03ca36a06bc40a01733649a187387b026bc61b5ce7c1f2e0db35ff066bda88282336000808773ffffffffffffffffffffffffffffffffffffffff1673ffffffffffffffffffffffffffffffffffffffff1681526020019081526020016000206000868152602001908152602001600020600301546040516125209493929190614bda565b60405180910390a15050565b60008073ffffffffffffffffffffffffffffffffffffffff168373ffffffffffffffffffffffffffffffffffffffff160361259c576040517f08c379a000000000000000000000000000000000000000000000000000000000815260040161259390613f48565b60405180910390fd5b6000808473ffffffffffffffffffffffffffffffffffffffff1673ffffffffffffffffffffffffffffffffffffffff168152602001908152602001600020600083815260200190815260200160002060000160149054906101000a900460ff1661263b576040517f08c379a000000000000000000000000000000000000000000000000000000000815260040161263290613fda565b60405180910390fd5b6000808473ffffffffffffffffffffffffffffffffffffffff1673ffffffffffffffffffffffffffffffffffffffff168152602001908152602001600020600083815260200190815260200160002060010154421015905092915050565b600073ffffffffffffffffffffffffffffffffffffffff168673ffffffffffffffffffffffffffffffffffffffff1603612708576040517f08c379a00000000000000000000000000000000000000000000000000000000081526004016126ff90613f48565b60405180910390fd5b600073ffffffffffffffffffffffffffffffffffffffff168573ffffffffffffffffffffffffffffffffffffffff1603612777576040517f08c379a000000000000000000000000000000000000000000000000000000000815260040161276e90614c91565b60405180910390fd5b8573ffffffffffffffffffffffffffffffffffffffff1663338e111e863387878787600160009054906101000a900473ffffffffffffffffffffffffffffffffffffffff1660008060006040518b63ffffffff1660e01b81526004016127e69a99989796959493929190614cb1565b6020604051808303816000875af1158015612805573d6000803e3d6000fd5b505050506040513d601f19601f820116820180604052508101906128299190614344565b50505050505050565b600073ffffffffffffffffffffffffffffffffffffffff168273ffffffffffffffffffffffffffffffffffffffff16036128a1576040517f08c379a000000000000000000000000000000000000000000000000000000000815260040161289890613f48565b60405180910390fd5b60008273ffffffffffffffffffffffffffffffffffffffff1663e7572230836040518263ffffffff1660e01b81526004016128dc9190613aa1565b602060405180830381865afa1580156128f9573d6000803e3d6000fd5b505050506040513d601f19601f8201168201806040525081019061291d9190614344565b905060008111612962576040517f08c379a000000000000000000000000000000000000000000000000000000000815260040161295990614db5565b60405180910390fd5b80600160009054906101000a900473ffffffffffffffffffffffffffffffffffffffff1673ffffffffffffffffffffffffffffffffffffffff1663dd62ed3e33306040518363ffffffff1660e01b81526004016129c0929190614dd5565b602060405180830381865afa1580156129dd573d6000803e3d6000fd5b505050506040513d601f19601f82011682018060405250810190612a019190614344565b1015612a42576040517f08c379a0000000000000000000000000000000000000000000000000000000008152600401612a3990614e4a565b60405180910390fd5b60008373ffffffffffffffffffffffffffffffffffffffff16636352211e846040518263ffffffff1660e01b8152600401612a7d9190613aa1565b602060405180830381865afa158015612a9a573d6000803e3d6000fd5b505050506040513d601f19601f82011682018060405250810190612abe919061400f565b90506000600160009054906101000a900473ffffffffffffffffffffffffffffffffffffffff1673ffffffffffffffffffffffffffffffffffffffff1663a9059cbb83856040518363ffffffff1660e01b8152600401612b1f929190614189565b6020604051808303816000875af1158015612b3e573d6000803e3d6000fd5b505050506040513d601f19601f82011682018060405250810190612b6291906141de565b905080612ba4576040517f08c379a0000000000000000000000000000000000000000000000000000000008152600401612b9b90614edc565b60405180910390fd5b3073ffffffffffffffffffffffffffffffffffffffff168573ffffffffffffffffffffffffffffffffffffffff1663081812fc866040518263ffffffff1660e01b8152600401612bf49190613aa1565b602060405180830381865afa158015612c11573d6000803e3d6000fd5b505050506040513d601f19601f82011682018060405250810190612c35919061400f565b73ffffffffffffffffffffffffffffffffffffffff1614612c8b576040517f08c379a0000000000000000000000000000000000000000000000000000000008152600401612c82906144fe565b60405180910390fd5b8473ffffffffffffffffffffffffffffffffffffffff166342842e0e8333876040518463ffffffff1660e01b8152600401612cc89392919061451e565b600060405180830381600087803b158015612ce257600080fd5b505af1158015612cf6573d6000803e3d6000fd5b505050508473ffffffffffffffffffffffffffffffffffffffff1663f7d975778560006040518363ffffffff1660e01b8152600401612d36929190614590565b600060405180830381600087803b158015612d5057600080fd5b505af1158015612d64573d6000803e3d6000fd5b505050507f8146a1050e7850dd9a48240ef51ee45f907a45710d3c5136077e83e633c3ebe18573ffffffffffffffffffffffffffffffffffffffff166306fdde036040518163ffffffff1660e01b8152600401600060405180830381865afa158015612dd4573d6000803e3d6000fd5b505050506040513d6000823e3d601f19601f82011682018060405250810190612dfd9190614629565b8686853388604051612e1496959493929190614672565b60405180910390a15050505050565b60008073ffffffffffffffffffffffffffffffffffffffff168373ffffffffffffffffffffffffffffffffffffffff1603612e93576040517f08c379a0000000000000000000000000000000000000000000000000000000008152600401612e8a90613f48565b60405180910390fd5b6000808473ffffffffffffffffffffffffffffffffffffffff1673ffffffffffffffffffffffffffffffffffffffff168152602001908152602001600020600083815260200190815260200160002060000160149054906101000a900460ff16905092915050565b60008073ffffffffffffffffffffffffffffffffffffffff168373ffffffffffffffffffffffffffffffffffffffff1603612f6b576040517f08c379a0000000000000000000000000000000000000000000000000000000008152600401612f6290613f48565b60405180910390fd5b3373ffffffffffffffffffffffffffffffffffffffff168373ffffffffffffffffffffffffffffffffffffffff16636352211e846040518263ffffffff1660e01b8152600401612fbb9190613aa1565b602060405180830381865afa158015612fd8573d6000803e3d6000fd5b505050506040513d601f19601f82011682018060405250810190612ffc919061400f565b73ffffffffffffffffffffffffffffffffffffffff1614613052576040517f08c379a0000000000000000000000000000000000000000000000000000000008152600401613049906140ae565b60405180910390fd5b60008373ffffffffffffffffffffffffffffffffffffffff1663e7572230846040518263ffffffff1660e01b815260040161308d9190613aa1565b602060405180830381865afa1580156130aa573d6000803e3d6000fd5b505050506040513d601f19601f820116820180604052508101906130ce9190614344565b1461310e576040517f08c379a000000000000000000000000000000000000000000000000000000000815260040161310590614f48565b60405180910390fd5b6131198383336137c7565b6001905092915050565b60008073ffffffffffffffffffffffffffffffffffffffff168373ffffffffffffffffffffffffffffffffffffffff1603613193576040517f08c379a000000000000000000000000000000000000000000000000000000000815260040161318a90613f48565b60405180910390fd5b6000808473ffffffffffffffffffffffffffffffffffffffff1673ffffffffffffffffffffffffffffffffffffffff168152602001908152602001600020600083815260200190815260200160002060000160149054906101000a900460ff16613232576040517f08c379a000000000000000000000000000000000000000000000000000000000815260040161322990613fda565b60405180910390fd5b6000808473ffffffffffffffffffffffffffffffffffffffff1673ffffffffffffffffffffffffffffffffffffffff168152602001908152602001600020600083815260200190815260200160002060020160009054906101000a900473ffffffffffffffffffffffffffffffffffffffff16905092915050565b60008073ffffffffffffffffffffffffffffffffffffffff168373ffffffffffffffffffffffffffffffffffffffff160361331d576040517f08c379a000000000000000000000000000000000000000000000000000000000815260040161331490613f48565b60405180910390fd5b6000808473ffffffffffffffffffffffffffffffffffffffff1673ffffffffffffffffffffffffffffffffffffffff168152602001908152602001600020600083815260200190815260200160002060050160003373ffffffffffffffffffffffffffffffffffffffff1673ffffffffffffffffffffffffffffffffffffffff16815260200190815260200160002054905092915050565b60008060008473ffffffffffffffffffffffffffffffffffffffff1673ffffffffffffffffffffffffffffffffffffffff168152602001908152602001600020600083815260200190815260200160002060000160146101000a81548160ff02191690831515021790555060008060008473ffffffffffffffffffffffffffffffffffffffff1673ffffffffffffffffffffffffffffffffffffffff168152602001908152602001600020600083815260200190815260200160002060000160006101000a81548173ffffffffffffffffffffffffffffffffffffffff021916908373ffffffffffffffffffffffffffffffffffffffff16021790555060008060008473ffffffffffffffffffffffffffffffffffffffff1673ffffffffffffffffffffffffffffffffffffffff16815260200190815260200160002060008381526020019081526020016000206006018054905090506000808290505b6000811115613661576000808673ffffffffffffffffffffffffffffffffffffffff1673ffffffffffffffffffffffffffffffffffffffff168152602001908152602001600020600085815260200190815260200160002060060160018261357b9190614f68565b8154811061358c5761358b614f9c565b5b9060005260206000200160009054906101000a900473ffffffffffffffffffffffffffffffffffffffff16915060008060008773ffffffffffffffffffffffffffffffffffffffff1673ffffffffffffffffffffffffffffffffffffffff168152602001908152602001600020600086815260200190815260200160002060050160008473ffffffffffffffffffffffffffffffffffffffff1673ffffffffffffffffffffffffffffffffffffffff16815260200190815260200160002081905550808061365990614fcb565b915050613513565b506000808573ffffffffffffffffffffffffffffffffffffffff1673ffffffffffffffffffffffffffffffffffffffff168152602001908152602001600020600084815260200190815260200160002060060160006136c0919061396c565b7ff821246114f0eb7e6c237eb13dac30e0cae5c2f953eef99ca5c103d3ce0d639584846000808873ffffffffffffffffffffffffffffffffffffffff1673ffffffffffffffffffffffffffffffffffffffff168152602001908152602001600020600087815260200190815260200160002060020160009054906101000a900473ffffffffffffffffffffffffffffffffffffffff166000808973ffffffffffffffffffffffffffffffffffffffff1673ffffffffffffffffffffffffffffffffffffffff1681526020019081526020016000206000888152602001908152602001600020600301546040516137b99493929190614bda565b60405180910390a150505050565b600073ffffffffffffffffffffffffffffffffffffffff168373ffffffffffffffffffffffffffffffffffffffff1603613836576040517f08c379a000000000000000000000000000000000000000000000000000000000815260040161382d90613f48565b60405180910390fd5b6000808473ffffffffffffffffffffffffffffffffffffffff1673ffffffffffffffffffffffffffffffffffffffff168152602001908152602001600020600083815260200190815260200160002060000160149054906101000a900460ff16156138d6576040517f08c379a00000000000000000000000000000000000000000000000000000000081526004016138cd90614902565b60405180910390fd5b806000808573ffffffffffffffffffffffffffffffffffffffff1673ffffffffffffffffffffffffffffffffffffffff168152602001908152602001600020600084815260200190815260200160002060000160006101000a81548173ffffffffffffffffffffffffffffffffffffffff021916908373ffffffffffffffffffffffffffffffffffffffff160217905550505050565b508054600082559060005260206000209081019061398a919061398d565b50565b5b808211156139a657600081600090555060010161398e565b5090565b6000604051905090565b600080fd5b600080fd5b600073ffffffffffffffffffffffffffffffffffffffff82169050919050565b60006139e9826139be565b9050919050565b6139f9816139de565b8114613a0457600080fd5b50565b600081359050613a16816139f0565b92915050565b6000819050919050565b613a2f81613a1c565b8114613a3a57600080fd5b50565b600081359050613a4c81613a26565b92915050565b60008060408385031215613a6957613a686139b4565b5b6000613a7785828601613a07565b9250506020613a8885828601613a3d565b9150509250929050565b613a9b81613a1c565b82525050565b6000602082019050613ab66000830184613a92565b92915050565b600080600060608486031215613ad557613ad46139b4565b5b6000613ae386828701613a07565b9350506020613af486828701613a3d565b9250506040613b0586828701613a3d565b9150509250925092565b600081519050919050565b600082825260208201905092915050565b60005b83811015613b49578082015181840152602081019050613b2e565b83811115613b58576000848401525b50505050565b6000601f19601f8301169050919050565b6000613b7a82613b0f565b613b848185613b1a565b9350613b94818560208601613b2b565b613b9d81613b5e565b840191505092915050565b60006020820190508181036000830152613bc28184613b6f565b905092915050565b6000819050919050565b6000613bef613bea613be5846139be565b613bca565b6139be565b9050919050565b6000613c0182613bd4565b9050919050565b6000613c1382613bf6565b9050919050565b613c2381613c08565b82525050565b6000602082019050613c3e6000830184613c1a565b92915050565b60008115159050919050565b613c5981613c44565b82525050565b6000602082019050613c746000830184613c50565b92915050565b600080fd5b600080fd5b7f4e487b7100000000000000000000000000000000000000000000000000000000600052604160045260246000fd5b613cbc82613b5e565b810181811067ffffffffffffffff82111715613cdb57613cda613c84565b5b80604052505050565b6000613cee6139aa565b9050613cfa8282613cb3565b919050565b600067ffffffffffffffff821115613d1a57613d19613c84565b5b613d2382613b5e565b9050602081019050919050565b82818337600083830152505050565b6000613d52613d4d84613cff565b613ce4565b905082815260208101848484011115613d6e57613d6d613c7f565b5b613d79848285613d30565b509392505050565b600082601f830112613d9657613d95613c7a565b5b8135613da6848260208601613d3f565b91505092915050565b60008060008060008060c08789031215613dcc57613dcb6139b4565b5b6000613dda89828a01613a07565b9650506020613deb89828a01613a07565b955050604087013567ffffffffffffffff811115613e0c57613e0b6139b9565b5b613e1889828a01613d81565b945050606087013567ffffffffffffffff811115613e3957613e386139b9565b5b613e4589828a01613d81565b935050608087013567ffffffffffffffff811115613e6657613e656139b9565b5b613e7289828a01613d81565b92505060a087013567ffffffffffffffff811115613e9357613e926139b9565b5b613e9f89828a01613d81565b9150509295509295509295565b613eb5816139de565b82525050565b6000602082019050613ed06000830184613eac565b92915050565b7f54686520636f6c6c656374696f6e2061646472657373206e6565647320746f2060008201527f626520646966666572656e742066726f6d207a65726f2e000000000000000000602082015250565b6000613f32603783613b1a565b9150613f3d82613ed6565b604082019050919050565b60006020820190508181036000830152613f6181613f25565b9050919050565b7f5468657265206973206e6f2061756374696f6e207374617274656420666f722060008201527f74686973204e46542e0000000000000000000000000000000000000000000000602082015250565b6000613fc4602983613b1a565b9150613fcf82613f68565b604082019050919050565b60006020820190508181036000830152613ff381613fb7565b9050919050565b600081519050614009816139f0565b92915050565b600060208284031215614025576140246139b4565b5b600061403384828501613ffa565b91505092915050565b7f54686973204e465420646f6573206e6f742062656c6f6e6720746f207468652060008201527f63757272656e74206d6573736167652073656e6465722e000000000000000000602082015250565b6000614098603783613b1a565b91506140a38261403c565b604082019050919050565b600060208201905081810360008301526140c78161408b565b9050919050565b7f506c6561736520646566696e6520612073656c6c696e6720707269636520686960008201527f67686572207468616e207a65726f2e0000000000000000000000000000000000602082015250565b600061412a602f83613b1a565b9150614135826140ce565b604082019050919050565b600060208201905081810360008301526141598161411d565b9050919050565b60006040820190506141756000830185613a92565b6141826020830184613a92565b9392505050565b600060408201905061419e6000830185613eac565b6141ab6020830184613a92565b9392505050565b6141bb81613c44565b81146141c657600080fd5b50565b6000815190506141d8816141b2565b92915050565b6000602082840312156141f4576141f36139b4565b5b6000614202848285016141c9565b91505092915050565b7f54686973204e465420646964206e6f7420737461727420616e2061756374696f60008201527f6e2e000000000000000000000000000000000000000000000000000000000000602082015250565b6000614267602283613b1a565b91506142728261420b565b604082019050919050565b600060208201905081810360008301526142968161425a565b9050919050565b7f5468652061756374696f6e20686173206e6f742066696e69736865642079657460008201527f2e00000000000000000000000000000000000000000000000000000000000000602082015250565b60006142f9602183613b1a565b91506143048261429d565b604082019050919050565b60006020820190508181036000830152614328816142ec565b9050919050565b60008151905061433e81613a26565b92915050565b60006020828403121561435a576143596139b4565b5b60006143688482850161432f565b91505092915050565b7f4572726f723a207468652068696768657374206269646465722069732074686560008201527f207a65726f20616464726573732e000000000000000000000000000000000000602082015250565b60006143cd602e83613b1a565b91506143d882614371565b604082019050919050565b600060208201905081810360008301526143fc816143c0565b9050919050565b600081905092915050565b50565b600061441e600083614403565b91506144298261440e565b600082019050919050565b600061443f82614411565b9150819050919050565b7f4661696c656420746f2073656e642045544820746f20746865204e4654206f7760008201527f6e65722e00000000000000000000000000000000000000000000000000000000602082015250565b60006144a5602483613b1a565b91506144b082614449565b604082019050919050565b600060208201905081810360008301526144d481614498565b9050919050565b60006144e8600083613b1a565b91506144f38261440e565b600082019050919050565b60006020820190508181036000830152614517816144db565b9050919050565b60006060820190506145336000830186613eac565b6145406020830185613eac565b61454d6040830184613a92565b949350505050565b6000819050919050565b600061457a61457561457084614555565b613bca565b613a1c565b9050919050565b61458a8161455f565b82525050565b60006040820190506145a56000830185613a92565b6145b26020830184614581565b9392505050565b60006145cc6145c784613cff565b613ce4565b9050828152602081018484840111156145e8576145e7613c7f565b5b6145f3848285613b2b565b509392505050565b600082601f8301126146105761460f613c7a565b5b81516146208482602086016145b9565b91505092915050565b60006020828403121561463f5761463e6139b4565b5b600082015167ffffffffffffffff81111561465d5761465c6139b9565b5b614669848285016145fb565b91505092915050565b600060c082019050818103600083015261468c8189613b6f565b905061469b6020830188613eac565b6146a86040830187613a92565b6146b56060830186613eac565b6146c26080830185613eac565b6146cf60a0830184613a92565b979650505050505050565b7f5468657265206973206e6f7468696e6720746f20726566756e6420746f20746860008201527f65206d6573736167652073656e64657220666f722074686973204e46542e0000602082015250565b6000614736603e83613b1a565b9150614741826146da565b604082019050919050565b6000602082019050818103600083015261476581614729565b9050919050565b7f4661696c656420746f2073656e642045544820746f207468652072657175657360008201527f7465722e00000000000000000000000000000000000000000000000000000000602082015250565b60006147c8602483613b1a565b91506147d38261476c565b604082019050919050565b600060208201905081810360008301526147f7816147bb565b9050919050565b7f5468652076616c6964697479206f66207468652061756374696f6e206861732060008201527f6e6f74206265656e2076657269666965642c2079657400000000000000000000602082015250565b600061485a603683613b1a565b9150614865826147fe565b604082019050919050565b600060208201905081810360008301526148898161484d565b9050919050565b7f416e2061756374696f6e2068617320616c72656164792073746172746564206660008201527f6f722074686973204e46542e0000000000000000000000000000000000000000602082015250565b60006148ec602c83613b1a565b91506148f782614890565b604082019050919050565b6000602082019050818103600083015261491b816148df565b9050919050565b7f506c6561736520646566696e6520616e2061756374696f6e206869676865722060008201527f7468616e207a65726f2e00000000000000000000000000000000000000000000602082015250565b600061497e602a83613b1a565b915061498982614922565b604082019050919050565b600060208201905081810360008301526149ad81614971565b9050919050565b7f4e487b7100000000000000000000000000000000000000000000000000000000600052601160045260246000fd5b60006149ee82613a1c565b91506149f983613a1c565b9250827fffffffffffffffffffffffffffffffffffffffffffffffffffffffffffffffff03821115614a2e57614a2d6149b4565b5b828201905092915050565b6000606082019050614a4e6000830186613eac565b614a5b6020830185613a92565b614a686040830184613eac565b949350505050565b7f5468652061756374696f6e2068617320616c726561647920656e6465642e0000600082015250565b6000614aa6601e83613b1a565b9150614ab182614a70565b602082019050919050565b60006020820190508181036000830152614ad581614a99565b9050919050565b7f546869732061756374696f6e20616368696576656420746865206d6178696d7560008201527f6d20616d6f756e74206f6620626964732e000000000000000000000000000000602082015250565b6000614b38603183613b1a565b9150614b4382614adc565b604082019050919050565b60006020820190508181036000830152614b6781614b2b565b9050919050565b7f5468652062696420697320746f6f206c6f772e00000000000000000000000000600082015250565b6000614ba4601383613b1a565b9150614baf82614b6e565b602082019050919050565b60006020820190508181036000830152614bd381614b97565b9050919050565b6000608082019050614bef6000830187613eac565b614bfc6020830186613a92565b614c096040830185613eac565b614c166060830184613a92565b95945050505050565b7f54686520757365722061646472657373206e6565647320746f2062652064696660008201527f666572656e742066726f6d207a65726f2e000000000000000000000000000000602082015250565b6000614c7b603183613b1a565b9150614c8682614c1f565b604082019050919050565b60006020820190508181036000830152614caa81614c6e565b9050919050565b600061014082019050614cc7600083018d613eac565b614cd4602083018c613eac565b8181036040830152614ce6818b613b6f565b90508181036060830152614cfa818a613b6f565b90508181036080830152614d0e8189613b6f565b905081810360a0830152614d228188613b6f565b9050614d3160c0830187613eac565b614d3e60e0830186614581565b614d4c610100830185613c50565b614d5a610120830184613c50565b9b9a5050505050505050505050565b7f54686973204e4654206973206e6f7420666f722073616c652e00000000000000600082015250565b6000614d9f601983613b1a565b9150614daa82614d69565b602082019050919050565b60006020820190508181036000830152614dce81614d92565b9050919050565b6000604082019050614dea6000830185613eac565b614df76020830184613eac565b9392505050565b7f43594f4e20746f6b656e20616c6c6f77616e636520746f6f206c6f772e000000600082015250565b6000614e34601d83613b1a565b9150614e3f82614dfe565b602082019050919050565b60006020820190508181036000830152614e6381614e27565b9050919050565b7f4661696c656420746f2073656e642043594f4e20746f20746865204e4654206f60008201527f776e65722e000000000000000000000000000000000000000000000000000000602082015250565b6000614ec6602583613b1a565b9150614ed182614e6a565b604082019050919050565b60006020820190508181036000830152614ef581614eb9565b9050919050565b7f54686973204e465420697320616c726561647920666f722073616c652e000000600082015250565b6000614f32601d83613b1a565b9150614f3d82614efc565b602082019050919050565b60006020820190508181036000830152614f6181614f25565b9050919050565b6000614f7382613a1c565b9150614f7e83613a1c565b925082821015614f9157614f906149b4565b5b828203905092915050565b7f4e487b7100000000000000000000000000000000000000000000000000000000600052603260045260246000fd5b6000614fd682613a1c565b915060008203614fe957614fe86149b4565b5b60018203905091905056fea2646970667358221220c334d3b074d57331dc060dccc7ba65b76990bd1e3f494a717370d309146fb93c64736f6c634300080d0033",
  "immutableReferences": {},
  "source": "// SPDX-License-Identifier: GPL-3.0\npragma solidity 0.8.13;\n\nimport \"./Auction.sol\";\nimport \"./NFTCollectionFactory.sol\";\nimport \"@openzeppelin/contracts/token/ERC20/IERC20.sol\";\n\n/// @title Master contract to manage the decentralized NFT market place \n/// @author Sebastien Gazeau, Sbastien Dupertuis et Alexis Mendoza\n/// @notice This smart contract is the link between the Dapp and the subcontracts\ncontract Master is Auction {\n    \n    //------------------------------------------------------------------------------------\n    // ----------------------------------Variables----------------------------------------\n    //------------------------------------------------------------------------------------\n    IERC20 public tokenCYON;\n\n    //------------------------------------------------------------------------------------\n    // ------------------------------------Events-----------------------------------------\n    //------------------------------------------------------------------------------------\n    /// @notice event for NFT sales\n    /// @param _collectionName Name of the NFT collection\n    /// @param _collectionAddress Address of the collection\n    /// @param _tokenID The ID of this given NFT\n    /// @param _oldOwner Previous owner of the sold NFT\n    /// @param _newOwner New owner of the bought NFT\n    /// @param _price The sale price of the given NFT\n    event NFTSold(string _collectionName, address _collectionAddress, uint256 _tokenID, address _oldOwner, address _newOwner, uint256 _price);\n\n    //------------------------------------------------------------------------------------\n    // ----------------------------------Constructor--------------------------------------\n    //------------------------------------------------------------------------------------\n    /// @notice The constructor the Master smart contract\n    /// @param _addressCYON The ERC20 address of the platform token (CYON) \n    constructor(address _addressCYON) {\n        tokenCYON = IERC20(_addressCYON);\n    }\n\n    //------------------------------------------------------------------------------------\n    // -----------------------------------Functions---------------------------------------\n    //------------------------------------------------------------------------------------\n    /// @notice This function allows to create NFTs inside a collection and mint it directly\n    /// @dev Call this function when the user wants to create a new NFT and mint it to the given address\n    /// @param _collectionAddress The address of the collection in which the NFT will be created/minted\n    /// @param _firstOwner The destination address to which the NFT is minted\n    /// @param _tokenURI The metadata through a link URI\n    /// @param _name Name of the new NFT\n    /// @param _description Description of the new NFT\n    /// @param _tag Tag of the new NFT allowing filtering\n    function createNFT(address _collectionAddress, address _firstOwner, string memory _tokenURI, string memory _name, \n        string memory _description, string memory _tag) external {\n            require(_collectionAddress != address(0),\"The collection address needs to be different from zero.\");\n            require(_firstOwner != address(0),\"The user address needs to be different from zero.\");  \n\n            NFTCollections(_collectionAddress).MintNFT(_firstOwner,msg.sender,_tokenURI,_name,_description,_tag,address(tokenCYON),0,false,false);\n        }\n\n\n    /// @notice This function allows to set the price of the given NFT\n    /// @dev Call this function when a sale is initiated\n    /// @param _collectionAddress The address of the collection of the NFT to set the price\n    /// @param _tokenID The token ID of the NFT to set the price\n    /// @param _price The price to set\n    function setNewPrice(address _collectionAddress, uint256 _tokenID, uint256 _price) external {\n        require(_collectionAddress != address(0),\"The collection address needs to be different from zero.\");    // Make sure the address is different from zero\n        //require((_tokenID <= NFTCollections(_collectionAddress).getTotalSupply()) && (_tokenID > 0), \"This token ID does not exist.\");      // Make sure the token ID exists\n        require(NFTCollections(_collectionAddress).ownerOf(_tokenID) == msg.sender,\"This NFT does not belong to the current message sender.\");  // Make sure the sale comes from the owner. Revert if the tokenID does not exist (ERC721Upgradeable library)\n        require(_price > 0,\"Please define a selling price higher than zero.\");                                  // Make sure the price is more than zero\n\n        NFTCollections(_collectionAddress).setPrice(_tokenID,_price);\n    }\n\n    /// @notice This function allows to transfer the money to the NFT owner and the NFT to the buyer after a direct sale.\n    /// @dev Call this function when a buyer click on the BUY button\n    /// @param _collectionAddress The address of the collection of the NFT to be sold/transfered\n    /// @param _tokenID The token ID of the NFT to be sold/transfered\n    function buyNFT(address _collectionAddress, uint256 _tokenID) external payable {\n        // Global requires\n        require(_collectionAddress != address(0),\"The collection address needs to be different from zero.\");    // Make sure the address is different from zero\n        uint256 price = NFTCollections(_collectionAddress).getPrice(_tokenID);\n        require(price > 0,\"This NFT is not for sale.\");     // Make sure the NFT is for sale\n    \n        // Send the CYON to the current NFT owner\n        require(tokenCYON.allowance(msg.sender, address(this)) >= price, \"CYON token allowance too low.\");      // Make sure the Master contract has the allowance to manage the CYON transfer\n        address currentOwner = NFTCollections(_collectionAddress).ownerOf(_tokenID);\n        bool sent = tokenCYON.transfer(currentOwner, price);\n        require(sent, \"Failed to send CYON to the NFT owner.\");\n\n        // Send the NFT to the new owner\n        require(NFTCollections(_collectionAddress).getApproved(_tokenID) == address(this),\"\");       // Make sure the Master contract has the allowance to manage the NFT transfer\n        NFTCollections(_collectionAddress).safeTransferFrom(currentOwner, msg.sender, _tokenID);\n\n        // Reset the price to 0 after the sale\n        NFTCollections(_collectionAddress).setPrice(_tokenID,0);\n\n        emit NFTSold(NFTCollections(_collectionAddress).name(), _collectionAddress, _tokenID, currentOwner, msg.sender, price);\n    }\n\n    /// @notice This function allows to initiate an auction by verifying owner and tokenID\n    /// @dev Call this function before starting the auction procedure\n    /// @param _collectionAddress The address of the collection of the NFT to start an auction\n    /// @param _tokenID The token ID of the NFT to start an auction\n    /// @return _validity True if the auction is authorized\n    function requestAuction(address _collectionAddress, uint256 _tokenID) external returns (bool) {\n        require(_collectionAddress != address(0),\"The collection address needs to be different from zero.\");    // Make sure the address is different from zero\n        require(NFTCollections(_collectionAddress).ownerOf(_tokenID) == msg.sender,\"This NFT does not belong to the current message sender.\");  // Make sure the sale comes from the owner. Revert if the tokenID does not exist (ERC721Upgradeable library)\n        require(NFTCollections(_collectionAddress).getPrice(_tokenID) == 0,\"This NFT is already for sale.\");     // Make sure the NFT is not already for sale\n\n        setAuctionValidity(_collectionAddress, _tokenID, msg.sender);\n\n        return true;\n    }\n\n    /// @notice This function allows to close an auction when the time has expired\n    /// @dev Call this function from the front when the auction time has expired\n    /// @param _collectionAddress The address of the collection of the NFT to close the auction\n    /// @param _tokenID The token ID of the NFT to close the auction\n    function closeAuction(address _collectionAddress, uint256 _tokenID) external {\n        require(_collectionAddress != address(0),\"The collection address needs to be different from zero.\");    // Make sure the address is different from zero\n        NFTCollections(_collectionAddress).ownerOf(_tokenID);       // Revert if the tokenID does not exist (ERC721Upgradeable library)\n        require(this.isInAuction(_collectionAddress,_tokenID),\"This NFT did not start an auction.\");         // Make sure an auction started\n        require(this.checkAuctionTimeExpired(_collectionAddress,_tokenID), \"The auction has not finished yet.\"); // Make sure the auction is finished\n\n        // Get the data of the auction\n        uint256 price = this.getCurrentHighestBid(_collectionAddress,_tokenID);\n        address currentOwner = NFTCollections(_collectionAddress).ownerOf(_tokenID);\n        address highestBidder = this.getCurrentHighestBidder(_collectionAddress, _tokenID);\n        require(highestBidder != address(0),\"Error: the highest bidder is the zero address.\");  // Make sure the address of the highest bidder is valid\n\n        // Check if price is more than 0. Otherwise, nobody has bidded\n        if(price > 0) {\n            // Send the ETH to the current NFT owner\n            (bool success, ) = payable(currentOwner).call{value:price}(\"\");\n            require(success, \"Failed to send ETH to the NFT owner.\");\n\n            // Verify that the highest bidder is not the current owner. Otherwise, nobody has bidded, except the initial bid of the owner (starting price)\n            if(highestBidder != currentOwner) {\n                NFTCollections(_collectionAddress).setPrice(_tokenID,price);        // Update the price of the NFT for event tracking\n            \n                // Send the NFT to the new owner\n                require(NFTCollections(_collectionAddress).getApproved(_tokenID) == address(this),\"\");       // Make sure the Master contract has the allowance to manage the NFT transfer\n                NFTCollections(_collectionAddress).safeTransferFrom(currentOwner, highestBidder, _tokenID);\n\n                // Reset the price to 0 after the sale for price tracking\n                NFTCollections(_collectionAddress).setPrice(_tokenID,0);\n\n                emit NFTSold(NFTCollections(_collectionAddress).name(), _collectionAddress, _tokenID, currentOwner, highestBidder, price);\n            }\n            \n            // Reset the auction data\n            endAuction(_collectionAddress, _tokenID);\n        }\n    }\n\n\n    //------------------------------------------------------------------------------------\n    // ------------------------------------Getters----------------------------------------\n    //------------------------------------------------------------------------------------\n    /// @notice This function returns the URI data of the given NFT\n    /// @dev Call this function to get the metadata of the NFT\n    /// @param _collectionAddress The address of the collection of the NFT to get the URI\n    /// @param _tokenID The token ID of the NFT to get the URI\n    /// @return _URI The URI data\n    function getURI(address _collectionAddress, uint256 _tokenID) external view returns (string memory) {\n        //require((_tokenID <= NFTCollections(_collectionAddress).getTotalSupply()) && (_tokenID > 0), \"This token ID does not exist.\");      // Make sure the token ID exists\n        NFTCollections(_collectionAddress).ownerOf(_tokenID);       // Revert if the tokenID does not exist (ERC721Upgradeable library)\n        return(NFTCollections(_collectionAddress).tokenURI(_tokenID));\n    }\n/*\n    /// @notice This function returns the current owner of the given NFT\n    /// @dev Call this function to get the owner of the NFT. Revert if the tokenID does not exist\n    /// @param _collectionAddress The address of the collection of the NFT to get the owner\n    /// @param _tokenID The token ID of the NFT to get the owner\n    /// @return _address The owner address\n    function getNFTOwner(address _collectionAddress, uint256 _tokenID) external view returns (address) {\n        return(NFTCollections(_collectionAddress).ownerOf(_tokenID));\n    }*/\n}\n",
  "sourcePath": "/home/alexis/Projects/project-nft-cyon/contracts/Master.sol",
  "compiler": {
    "name": "solc",
    "version": "0.8.13+commit.abaa5c0e.Emscripten.clang"
  },
  "schemaVersion": "3.4.7",
  "updatedAt": "2022-05-13T16:54:34.175Z",
  "networkType": "ethereum",
  "devdoc": {
    "author": "Sebastien Gazeau, Sbastien Dupertuis et Alexis Mendoza",
    "events": {
      "NFTSold(string,address,uint256,address,address,uint256)": {
        "params": {
          "_collectionAddress": "Address of the collection",
          "_collectionName": "Name of the NFT collection",
          "_newOwner": "New owner of the bought NFT",
          "_oldOwner": "Previous owner of the sold NFT",
          "_price": "The sale price of the given NFT",
          "_tokenID": "The ID of this given NFT"
        }
      }
    },
    "kind": "dev",
    "methods": {
      "bid(address,uint256)": {
        "details": "Call this function each time a user place a new bid",
        "params": {
          "_nftCollectionAddress": "Collection address of the given NFT",
          "_nftTokenID": "Token ID of the given NFT"
        }
      },
      "buyNFT(address,uint256)": {
        "details": "Call this function when a buyer click on the BUY button",
        "params": {
          "_collectionAddress": "The address of the collection of the NFT to be sold/transfered",
          "_tokenID": "The token ID of the NFT to be sold/transfered"
        }
      },
      "checkAuctionTimeExpired(address,uint256)": {
        "details": "Call this function to check if the time of the auction is over or not",
        "params": {
          "_nftCollectionAddress": "Collection address of the given NFT",
          "_nftTokenID": "Token ID of the given NFT"
        },
        "returns": {
          "_0": "Returns a boolean to define if the auction time has expired (true) or not (false)"
        }
      },
      "closeAuction(address,uint256)": {
        "details": "Call this function from the front when the auction time has expired",
        "params": {
          "_collectionAddress": "The address of the collection of the NFT to close the auction",
          "_tokenID": "The token ID of the NFT to close the auction"
        }
      },
      "constructor": {
        "params": {
          "_addressCYON": "The ERC20 address of the platform token (CYON) "
        }
      },
      "createNFT(address,address,string,string,string,string)": {
        "details": "Call this function when the user wants to create a new NFT and mint it to the given address",
        "params": {
          "_collectionAddress": "The address of the collection in which the NFT will be created/minted",
          "_description": "Description of the new NFT",
          "_firstOwner": "The destination address to which the NFT is minted",
          "_name": "Name of the new NFT",
          "_tag": "Tag of the new NFT allowing filtering",
          "_tokenURI": "The metadata through a link URI"
        }
      },
      "getBiddersAmount(address,uint256)": {
        "details": "Call this function from the front to display the amount of bidders over the given limit (here 1000)",
        "params": {
          "_nftCollectionAddress": "Collection address of the given NFT",
          "_nftTokenID": "Token ID of the given NFT"
        },
        "returns": {
          "_0": "Returns the amount of bidders (how many addresses)"
        }
      },
      "getCurrentHighestBid(address,uint256)": {
        "details": "Call this function when you want to know the value of the highest bid",
        "params": {
          "_nftCollectionAddress": "Collection address of the given NFT",
          "_nftTokenID": "Token ID of the given NFT"
        },
        "returns": {
          "_0": "Returns the value of the current highest bid"
        }
      },
      "getCurrentHighestBidder(address,uint256)": {
        "details": "Call this function when you want to know the address of the highest bidder",
        "params": {
          "_nftCollectionAddress": "Collection address of the given NFT",
          "_nftTokenID": "Token ID of the given NFT"
        },
        "returns": {
          "_0": "Returns the address of the current highest bidder"
        }
      },
      "getTotalBid(address,uint256)": {
        "details": "Call this function from the front to know how mush the bidder already bidded",
        "params": {
          "_nftCollectionAddress": "Collection address of the given NFT",
          "_nftTokenID": "Token ID of the given NFT"
        },
        "returns": {
          "_0": "Returns the total amount the user bidded till now"
        }
      },
      "getURI(address,uint256)": {
        "details": "Call this function to get the metadata of the NFT",
        "params": {
          "_collectionAddress": "The address of the collection of the NFT to get the URI",
          "_tokenID": "The token ID of the NFT to get the URI"
        },
        "returns": {
          "_0": "_URI The URI data"
        }
      },
      "isInAuction(address,uint256)": {
        "details": "Call this function from the front to know if there is an auction ongoing",
        "params": {
          "_nftCollectionAddress": "Collection address of the given NFT",
          "_nftTokenID": "Token ID of the given NFT"
        },
        "returns": {
          "_0": "Returns true if an auction is in progress"
        }
      },
      "requestAuction(address,uint256)": {
        "details": "Call this function before starting the auction procedure",
        "params": {
          "_collectionAddress": "The address of the collection of the NFT to start an auction",
          "_tokenID": "The token ID of the NFT to start an auction"
        },
        "returns": {
          "_0": "_validity True if the auction is authorized"
        }
      },
      "setNewPrice(address,uint256,uint256)": {
        "details": "Call this function when a sale is initiated",
        "params": {
          "_collectionAddress": "The address of the collection of the NFT to set the price",
          "_price": "The price to set",
          "_tokenID": "The token ID of the NFT to set the price"
        }
      },
      "startAuction(address,uint256,uint256)": {
        "details": "Call this function when the user decides to sell his NFT through an auction. The owner can define a starting price if he sends money in the transaction.",
        "params": {
          "_biddingTime": "Auction time in seconds",
          "_nftCollectionAddress": "Collection address of the given NFT",
          "_nftTokenID": "Token ID of the given NFT"
        }
      },
      "withdrawRefund(address,uint256)": {
        "details": "The user can call this function through the front when his bid is not the highest anymore.",
        "params": {
          "_nftCollectionAddress": "Collection address of the given NFT",
          "_nftTokenID": "Token ID of the given NFT"
        }
      }
    },
    "title": "Master contract to manage the decentralized NFT market place ",
    "version": 1
  },
  "userdoc": {
    "events": {
      "AuctionClosed(address,uint256,address,uint256)": {
        "notice": "Event raised when the auction has finished"
      },
      "AuctionStarted(address,uint256,address)": {
        "notice": "Event raised when the auction has started"
      },
      "HighestBidIncreased(address,uint256,address,uint256)": {
        "notice": "Event raised when the bid has increased"
      },
      "NFTSold(string,address,uint256,address,address,uint256)": {
        "notice": "event for NFT sales"
      }
    },
    "kind": "user",
    "methods": {
      "bid(address,uint256)": {
        "notice": "This function allows to place a new bid"
      },
      "buyNFT(address,uint256)": {
        "notice": "This function allows to transfer the money to the NFT owner and the NFT to the buyer after a direct sale."
      },
      "checkAuctionTimeExpired(address,uint256)": {
        "notice": "This function allows to check if the auction ended"
      },
      "closeAuction(address,uint256)": {
        "notice": "This function allows to close an auction when the time has expired"
      },
      "constructor": {
        "notice": "The constructor the Master smart contract"
      },
      "createNFT(address,address,string,string,string,string)": {
        "notice": "This function allows to create NFTs inside a collection and mint it directly"
      },
      "getBiddersAmount(address,uint256)": {
        "notice": "This function allows to check for the amount of bidders"
      },
      "getCurrentHighestBid(address,uint256)": {
        "notice": "This function allows to check for the current highest bid"
      },
      "getCurrentHighestBidder(address,uint256)": {
        "notice": "This function allows to check for the current highest bidder"
      },
      "getTotalBid(address,uint256)": {
        "notice": "This function allows to check the total bid of the user calling the message"
      },
      "getURI(address,uint256)": {
        "notice": "This function returns the URI data of the given NFT"
      },
      "isInAuction(address,uint256)": {
        "notice": "This function allows to check if there is an auction in progress for the given NFT"
      },
      "requestAuction(address,uint256)": {
        "notice": "This function allows to initiate an auction by verifying owner and tokenID"
      },
      "setNewPrice(address,uint256,uint256)": {
        "notice": "This function allows to set the price of the given NFT"
      },
      "startAuction(address,uint256,uint256)": {
        "notice": "This function allows to start a new auction"
      },
      "withdrawRefund(address,uint256)": {
        "notice": "This function allows a user that placed a bid (not the highest anymore) to get back his funds"
      }
    },
    "notice": "This smart contract is the link between the Dapp and the subcontracts",
    "version": 1
  }
}