{
  "contractName": "Master",
  "abi": [
    {
      "inputs": [
        {
          "internalType": "address",
          "name": "_addressCYON",
          "type": "address"
        }
      ],
      "stateMutability": "nonpayable",
      "type": "constructor"
    },
    {
      "anonymous": false,
      "inputs": [
        {
          "indexed": false,
          "internalType": "address",
          "name": "_nftCollectionAddress",
          "type": "address"
        },
        {
          "indexed": false,
          "internalType": "uint256",
          "name": "_nftTokenID",
          "type": "uint256"
        },
        {
          "indexed": false,
          "internalType": "address",
          "name": "_newOwner",
          "type": "address"
        },
        {
          "indexed": false,
          "internalType": "uint256",
          "name": "_price",
          "type": "uint256"
        }
      ],
      "name": "AuctionClosed",
      "type": "event"
    },
    {
      "anonymous": false,
      "inputs": [
        {
          "indexed": false,
          "internalType": "address",
          "name": "_nftCollectionAddress",
          "type": "address"
        },
        {
          "indexed": false,
          "internalType": "uint256",
          "name": "_nftTokenID",
          "type": "uint256"
        },
        {
          "indexed": false,
          "internalType": "address",
          "name": "_owner",
          "type": "address"
        }
      ],
      "name": "AuctionStarted",
      "type": "event"
    },
    {
      "anonymous": false,
      "inputs": [
        {
          "indexed": false,
          "internalType": "address",
          "name": "_nftCollectionAddress",
          "type": "address"
        },
        {
          "indexed": false,
          "internalType": "uint256",
          "name": "_nftTokenID",
          "type": "uint256"
        },
        {
          "indexed": false,
          "internalType": "address",
          "name": "_bidder",
          "type": "address"
        },
        {
          "indexed": false,
          "internalType": "uint256",
          "name": "_newBid",
          "type": "uint256"
        }
      ],
      "name": "HighestBidIncreased",
      "type": "event"
    },
    {
      "anonymous": false,
      "inputs": [
        {
          "indexed": false,
          "internalType": "string",
          "name": "_collectionName",
          "type": "string"
        },
        {
          "indexed": false,
          "internalType": "address",
          "name": "_collectionAddress",
          "type": "address"
        },
        {
          "indexed": false,
          "internalType": "uint256",
          "name": "_tokenID",
          "type": "uint256"
        },
        {
          "indexed": false,
          "internalType": "address",
          "name": "_oldOwner",
          "type": "address"
        },
        {
          "indexed": false,
          "internalType": "address",
          "name": "_newOwner",
          "type": "address"
        },
        {
          "indexed": false,
          "internalType": "uint256",
          "name": "_price",
          "type": "uint256"
        },
        {
          "indexed": false,
          "internalType": "string",
          "name": "_units",
          "type": "string"
        }
      ],
      "name": "NFTSold",
      "type": "event"
    },
    {
      "inputs": [
        {
          "internalType": "address",
          "name": "_nftCollectionAddress",
          "type": "address"
        },
        {
          "internalType": "uint256",
          "name": "_nftTokenID",
          "type": "uint256"
        }
      ],
      "name": "bid",
      "outputs": [],
      "stateMutability": "payable",
      "type": "function",
      "payable": true
    },
    {
      "inputs": [
        {
          "internalType": "address",
          "name": "_nftCollectionAddress",
          "type": "address"
        },
        {
          "internalType": "uint256",
          "name": "_nftTokenID",
          "type": "uint256"
        }
      ],
      "name": "checkAuctionTimeExpired",
      "outputs": [
        {
          "internalType": "bool",
          "name": "",
          "type": "bool"
        }
      ],
      "stateMutability": "view",
      "type": "function",
      "constant": true
    },
    {
      "inputs": [
        {
          "internalType": "address",
          "name": "_nftCollectionAddress",
          "type": "address"
        },
        {
          "internalType": "uint256",
          "name": "_nftTokenID",
          "type": "uint256"
        }
      ],
      "name": "getBiddersAmount",
      "outputs": [
        {
          "internalType": "uint256",
          "name": "",
          "type": "uint256"
        }
      ],
      "stateMutability": "view",
      "type": "function",
      "constant": true
    },
    {
      "inputs": [
        {
          "internalType": "address",
          "name": "_nftCollectionAddress",
          "type": "address"
        },
        {
          "internalType": "uint256",
          "name": "_nftTokenID",
          "type": "uint256"
        }
      ],
      "name": "getCurrentHighestBid",
      "outputs": [
        {
          "internalType": "uint256",
          "name": "",
          "type": "uint256"
        }
      ],
      "stateMutability": "view",
      "type": "function",
      "constant": true
    },
    {
      "inputs": [
        {
          "internalType": "address",
          "name": "_nftCollectionAddress",
          "type": "address"
        },
        {
          "internalType": "uint256",
          "name": "_nftTokenID",
          "type": "uint256"
        }
      ],
      "name": "getCurrentHighestBidder",
      "outputs": [
        {
          "internalType": "address",
          "name": "",
          "type": "address"
        }
      ],
      "stateMutability": "view",
      "type": "function",
      "constant": true
    },
    {
      "inputs": [
        {
          "internalType": "address",
          "name": "_nftCollectionAddress",
          "type": "address"
        },
        {
          "internalType": "uint256",
          "name": "_nftTokenID",
          "type": "uint256"
        }
      ],
      "name": "getTotalBid",
      "outputs": [
        {
          "internalType": "uint256",
          "name": "",
          "type": "uint256"
        }
      ],
      "stateMutability": "view",
      "type": "function",
      "constant": true
    },
    {
      "inputs": [
        {
          "internalType": "address",
          "name": "_nftCollectionAddress",
          "type": "address"
        },
        {
          "internalType": "uint256",
          "name": "_nftTokenID",
          "type": "uint256"
        }
      ],
      "name": "isInAuction",
      "outputs": [
        {
          "internalType": "bool",
          "name": "",
          "type": "bool"
        }
      ],
      "stateMutability": "view",
      "type": "function",
      "constant": true
    },
    {
      "inputs": [
        {
          "internalType": "address",
          "name": "_nftCollectionAddress",
          "type": "address"
        },
        {
          "internalType": "uint256",
          "name": "_nftTokenID",
          "type": "uint256"
        },
        {
          "internalType": "uint256",
          "name": "_biddingTime",
          "type": "uint256"
        }
      ],
      "name": "startAuction",
      "outputs": [],
      "stateMutability": "payable",
      "type": "function",
      "payable": true
    },
    {
      "inputs": [],
      "name": "tokenCYON",
      "outputs": [
        {
          "internalType": "contract IERC20",
          "name": "",
          "type": "address"
        }
      ],
      "stateMutability": "view",
      "type": "function",
      "constant": true
    },
    {
      "inputs": [
        {
          "internalType": "address",
          "name": "_nftCollectionAddress",
          "type": "address"
        },
        {
          "internalType": "uint256",
          "name": "_nftTokenID",
          "type": "uint256"
        }
      ],
      "name": "withdrawRefund",
      "outputs": [],
      "stateMutability": "nonpayable",
      "type": "function"
    },
    {
      "inputs": [
        {
          "internalType": "address",
          "name": "_collectionAddress",
          "type": "address"
        },
        {
          "internalType": "address",
          "name": "_firstOwner",
          "type": "address"
        },
        {
          "internalType": "string",
          "name": "_tokenURI",
          "type": "string"
        },
        {
          "internalType": "string",
          "name": "_name",
          "type": "string"
        },
        {
          "internalType": "string",
          "name": "_description",
          "type": "string"
        },
        {
          "internalType": "string",
          "name": "_tag",
          "type": "string"
        }
      ],
      "name": "createNFT",
      "outputs": [
        {
          "internalType": "uint256",
          "name": "",
          "type": "uint256"
        }
      ],
      "stateMutability": "nonpayable",
      "type": "function"
    },
    {
      "inputs": [
        {
          "internalType": "address",
          "name": "_collectionAddress",
          "type": "address"
        },
        {
          "internalType": "uint256",
          "name": "_tokenID",
          "type": "uint256"
        },
        {
          "internalType": "uint256",
          "name": "_price",
          "type": "uint256"
        }
      ],
      "name": "setNewPrice",
      "outputs": [],
      "stateMutability": "nonpayable",
      "type": "function"
    },
    {
      "inputs": [
        {
          "internalType": "address",
          "name": "_collectionAddress",
          "type": "address"
        },
        {
          "internalType": "uint256",
          "name": "_tokenID",
          "type": "uint256"
        }
      ],
      "name": "buyNFT",
      "outputs": [],
      "stateMutability": "payable",
      "type": "function",
      "payable": true
    },
    {
      "inputs": [
        {
          "internalType": "address",
          "name": "_collectionAddress",
          "type": "address"
        },
        {
          "internalType": "uint256",
          "name": "_tokenID",
          "type": "uint256"
        }
      ],
      "name": "requestAuction",
      "outputs": [
        {
          "internalType": "bool",
          "name": "",
          "type": "bool"
        }
      ],
      "stateMutability": "nonpayable",
      "type": "function"
    },
    {
      "inputs": [
        {
          "internalType": "address",
          "name": "_collectionAddress",
          "type": "address"
        },
        {
          "internalType": "uint256",
          "name": "_tokenID",
          "type": "uint256"
        }
      ],
      "name": "closeAuction",
      "outputs": [],
      "stateMutability": "nonpayable",
      "type": "function"
    },
    {
      "inputs": [
        {
          "internalType": "address",
          "name": "_collectionAddress",
          "type": "address"
        },
        {
          "internalType": "uint256",
          "name": "_tokenID",
          "type": "uint256"
        }
      ],
      "name": "getURI",
      "outputs": [
        {
          "internalType": "string",
          "name": "",
          "type": "string"
        }
      ],
      "stateMutability": "view",
      "type": "function",
      "constant": true
    }
  ],
  "bytecode": "0x60806040523480156200001157600080fd5b5060405162005275380380620052758339818101604052810190620000379190620000e9565b80600160006101000a81548173ffffffffffffffffffffffffffffffffffffffff021916908373ffffffffffffffffffffffffffffffffffffffff160217905550506200011b565b600080fd5b600073ffffffffffffffffffffffffffffffffffffffff82169050919050565b6000620000b18262000084565b9050919050565b620000c381620000a4565b8114620000cf57600080fd5b50565b600081519050620000e381620000b8565b92915050565b6000602082840312156200010257620001016200007f565b5b60006200011284828501620000d2565b91505092915050565b61514a806200012b6000396000f3fe6080604052600436106100f35760003560e01c806359d667a51161008a578063cceb2a4c11610059578063cceb2a4c14610323578063d189ab1914610360578063d35bfa951461039d578063f27eede0146103da576100f3565b806359d667a5146102715780637b50315e1461028d578063811ca7cf146102ca578063a82ba76f14610307576100f3565b806347237162116100c657806347237162146101c4578063501948951461020157806353ea4d8a1461022c57806356dd475514610255576100f3565b806320a564e6146100f857806328d4ae0f14610135578063438364a11461015e578063469298b114610187575b600080fd5b34801561010457600080fd5b5061011f600480360381019061011a91906139fd565b610417565b60405161012c9190613a4c565b60405180910390f35b34801561014157600080fd5b5061015c60048036038101906101579190613a67565b610581565b005b34801561016a57600080fd5b50610185600480360381019061018091906139fd565b61078c565b005b34801561019357600080fd5b506101ae60048036038101906101a991906139fd565b610fba565b6040516101bb9190613a4c565b60405180910390f35b3480156101d057600080fd5b506101eb60048036038101906101e691906139fd565b611127565b6040516101f89190613b53565b60405180910390f35b34801561020d57600080fd5b5061021661122b565b6040516102239190613bd4565b60405180910390f35b34801561023857600080fd5b50610253600480360381019061024e91906139fd565b611251565b005b61026f600480360381019061026a9190613a67565b611602565b005b61028b600480360381019061028691906139fd565b611b82565b005b34801561029957600080fd5b506102b460048036038101906102af91906139fd565b612540565b6040516102c19190613c0a565b60405180910390f35b3480156102d657600080fd5b506102f160048036038101906102ec9190613d5a565b6126ad565b6040516102fe9190613a4c565b60405180910390f35b610321600480360381019061031c91906139fd565b61284a565b005b34801561032f57600080fd5b5061034a600480360381019061034591906139fd565b612e3d565b6040516103579190613c0a565b60405180910390f35b34801561036c57600080fd5b50610387600480360381019061038291906139fd565b612f15565b6040516103949190613c0a565b60405180910390f35b3480156103a957600080fd5b506103c460048036038101906103bf91906139fd565b61313d565b6040516103d19190613e66565b60405180910390f35b3480156103e657600080fd5b5061040160048036038101906103fc91906139fd565b6132c7565b60405161040e9190613a4c565b60405180910390f35b60008073ffffffffffffffffffffffffffffffffffffffff168373ffffffffffffffffffffffffffffffffffffffff1603610487576040517f08c379a000000000000000000000000000000000000000000000000000000000815260040161047e90613ef3565b60405180910390fd5b6000808473ffffffffffffffffffffffffffffffffffffffff1673ffffffffffffffffffffffffffffffffffffffff168152602001908152602001600020600083815260200190815260200160002060000160149054906101000a900460ff16610526576040517f08c379a000000000000000000000000000000000000000000000000000000000815260040161051d90613f85565b60405180910390fd5b6000808473ffffffffffffffffffffffffffffffffffffffff1673ffffffffffffffffffffffffffffffffffffffff168152602001908152602001600020600083815260200190815260200160002060030154905092915050565b600073ffffffffffffffffffffffffffffffffffffffff168373ffffffffffffffffffffffffffffffffffffffff16036105f0576040517f08c379a00000000000000000000000000000000000000000000000000000000081526004016105e790613ef3565b60405180910390fd5b3373ffffffffffffffffffffffffffffffffffffffff168373ffffffffffffffffffffffffffffffffffffffff16636352211e846040518263ffffffff1660e01b81526004016106409190613a4c565b602060405180830381865afa15801561065d573d6000803e3d6000fd5b505050506040513d601f19601f820116820180604052508101906106819190613fba565b73ffffffffffffffffffffffffffffffffffffffff16146106d7576040517f08c379a00000000000000000000000000000000000000000000000000000000081526004016106ce90614059565b60405180910390fd5b6000811161071a576040517f08c379a0000000000000000000000000000000000000000000000000000000008152600401610711906140eb565b60405180910390fd5b8273ffffffffffffffffffffffffffffffffffffffff1663f7d9757783836040518363ffffffff1660e01b815260040161075592919061410b565b600060405180830381600087803b15801561076f57600080fd5b505af1158015610783573d6000803e3d6000fd5b50505050505050565b600073ffffffffffffffffffffffffffffffffffffffff168273ffffffffffffffffffffffffffffffffffffffff16036107fb576040517f08c379a00000000000000000000000000000000000000000000000000000000081526004016107f290613ef3565b60405180910390fd5b8173ffffffffffffffffffffffffffffffffffffffff16636352211e826040518263ffffffff1660e01b81526004016108349190613a4c565b602060405180830381865afa158015610851573d6000803e3d6000fd5b505050506040513d601f19601f820116820180604052508101906108759190613fba565b503073ffffffffffffffffffffffffffffffffffffffff1663cceb2a4c83836040518363ffffffff1660e01b81526004016108b1929190614134565b602060405180830381865afa1580156108ce573d6000803e3d6000fd5b505050506040513d601f19601f820116820180604052508101906108f29190614189565b610931576040517f08c379a000000000000000000000000000000000000000000000000000000000815260040161092890614228565b60405180910390fd5b3073ffffffffffffffffffffffffffffffffffffffff16637b50315e83836040518363ffffffff1660e01b815260040161096c929190614134565b602060405180830381865afa158015610989573d6000803e3d6000fd5b505050506040513d601f19601f820116820180604052508101906109ad9190614189565b6109ec576040517f08c379a00000000000000000000000000000000000000000000000000000000081526004016109e3906142ba565b60405180910390fd5b60003073ffffffffffffffffffffffffffffffffffffffff166320a564e684846040518363ffffffff1660e01b8152600401610a29929190614134565b602060405180830381865afa158015610a46573d6000803e3d6000fd5b505050506040513d601f19601f82011682018060405250810190610a6a91906142ef565b905060008373ffffffffffffffffffffffffffffffffffffffff16636352211e846040518263ffffffff1660e01b8152600401610aa79190613a4c565b602060405180830381865afa158015610ac4573d6000803e3d6000fd5b505050506040513d601f19601f82011682018060405250810190610ae89190613fba565b905060003073ffffffffffffffffffffffffffffffffffffffff1663d35bfa9586866040518363ffffffff1660e01b8152600401610b27929190614134565b602060405180830381865afa158015610b44573d6000803e3d6000fd5b505050506040513d601f19601f82011682018060405250810190610b689190613fba565b9050600073ffffffffffffffffffffffffffffffffffffffff168173ffffffffffffffffffffffffffffffffffffffff1603610bd9576040517f08c379a0000000000000000000000000000000000000000000000000000000008152600401610bd09061438e565b60405180910390fd5b6000831115610fb35760008273ffffffffffffffffffffffffffffffffffffffff1684604051610c08906143df565b60006040518083038185875af1925050503d8060008114610c45576040519150601f19603f3d011682016040523d82523d6000602084013e610c4a565b606091505b5050905080610c8e576040517f08c379a0000000000000000000000000000000000000000000000000000000008152600401610c8590614466565b60405180910390fd5b8273ffffffffffffffffffffffffffffffffffffffff168273ffffffffffffffffffffffffffffffffffffffff1614610fa7578573ffffffffffffffffffffffffffffffffffffffff1663f7d9757786866040518363ffffffff1660e01b8152600401610cfc92919061410b565b600060405180830381600087803b158015610d1657600080fd5b505af1158015610d2a573d6000803e3d6000fd5b505050503073ffffffffffffffffffffffffffffffffffffffff168673ffffffffffffffffffffffffffffffffffffffff1663081812fc876040518263ffffffff1660e01b8152600401610d7e9190613a4c565b602060405180830381865afa158015610d9b573d6000803e3d6000fd5b505050506040513d601f19601f82011682018060405250810190610dbf9190613fba565b73ffffffffffffffffffffffffffffffffffffffff1614610e15576040517f08c379a0000000000000000000000000000000000000000000000000000000008152600401610e0c906144f8565b60405180910390fd5b8573ffffffffffffffffffffffffffffffffffffffff166342842e0e8484886040518463ffffffff1660e01b8152600401610e5293929190614518565b600060405180830381600087803b158015610e6c57600080fd5b505af1158015610e80573d6000803e3d6000fd5b505050508573ffffffffffffffffffffffffffffffffffffffff1663f7d975778660006040518363ffffffff1660e01b8152600401610ec092919061458a565b600060405180830381600087803b158015610eda57600080fd5b505af1158015610eee573d6000803e3d6000fd5b505050507f746c6af116c0281aa3f3d8cecf00764b0e9b9ff8f4b82331cc4155f549572a9d8673ffffffffffffffffffffffffffffffffffffffff166306fdde036040518163ffffffff1660e01b8152600401600060405180830381865afa158015610f5e573d6000803e3d6000fd5b505050506040513d6000823e3d601f19601f82011682018060405250810190610f879190614623565b8787868689604051610f9e969594939291906146b8565b60405180910390a15b610fb186866133cf565b505b5050505050565b60008073ffffffffffffffffffffffffffffffffffffffff168373ffffffffffffffffffffffffffffffffffffffff160361102a576040517f08c379a000000000000000000000000000000000000000000000000000000000815260040161102190613ef3565b60405180910390fd5b6000808473ffffffffffffffffffffffffffffffffffffffff1673ffffffffffffffffffffffffffffffffffffffff168152602001908152602001600020600083815260200190815260200160002060000160149054906101000a900460ff166110c9576040517f08c379a00000000000000000000000000000000000000000000000000000000081526004016110c090613f85565b60405180910390fd5b6000808473ffffffffffffffffffffffffffffffffffffffff1673ffffffffffffffffffffffffffffffffffffffff168152602001908152602001600020600083815260200190815260200160002060060180549050905092915050565b60608273ffffffffffffffffffffffffffffffffffffffff16636352211e836040518263ffffffff1660e01b81526004016111629190613a4c565b602060405180830381865afa15801561117f573d6000803e3d6000fd5b505050506040513d601f19601f820116820180604052508101906111a39190613fba565b508273ffffffffffffffffffffffffffffffffffffffff1663c87b56dd836040518263ffffffff1660e01b81526004016111dd9190613a4c565b600060405180830381865afa1580156111fa573d6000803e3d6000fd5b505050506040513d6000823e3d601f19601f820116820180604052508101906112239190614623565b905092915050565b600160009054906101000a900473ffffffffffffffffffffffffffffffffffffffff1681565b600073ffffffffffffffffffffffffffffffffffffffff168273ffffffffffffffffffffffffffffffffffffffff16036112c0576040517f08c379a00000000000000000000000000000000000000000000000000000000081526004016112b790613ef3565b60405180910390fd5b60008060008473ffffffffffffffffffffffffffffffffffffffff1673ffffffffffffffffffffffffffffffffffffffff168152602001908152602001600020600083815260200190815260200160002060040160003373ffffffffffffffffffffffffffffffffffffffff1673ffffffffffffffffffffffffffffffffffffffff1681526020019081526020016000205411611392576040517f08c379a0000000000000000000000000000000000000000000000000000000008152600401611389906147a5565b60405180910390fd5b60008060008473ffffffffffffffffffffffffffffffffffffffff1673ffffffffffffffffffffffffffffffffffffffff168152602001908152602001600020600083815260200190815260200160002060040160003373ffffffffffffffffffffffffffffffffffffffff1673ffffffffffffffffffffffffffffffffffffffff16815260200190815260200160002054905060008060008573ffffffffffffffffffffffffffffffffffffffff1673ffffffffffffffffffffffffffffffffffffffff168152602001908152602001600020600084815260200190815260200160002060040160003373ffffffffffffffffffffffffffffffffffffffff1673ffffffffffffffffffffffffffffffffffffffff1681526020019081526020016000208190555060008060008573ffffffffffffffffffffffffffffffffffffffff1673ffffffffffffffffffffffffffffffffffffffff168152602001908152602001600020600084815260200190815260200160002060050160003373ffffffffffffffffffffffffffffffffffffffff1673ffffffffffffffffffffffffffffffffffffffff1681526020019081526020016000208190555060003373ffffffffffffffffffffffffffffffffffffffff1682604051611576906143df565b60006040518083038185875af1925050503d80600081146115b3576040519150601f19603f3d011682016040523d82523d6000602084013e6115b8565b606091505b50509050806115fc576040517f08c379a00000000000000000000000000000000000000000000000000000000081526004016115f390614837565b60405180910390fd5b50505050565b600073ffffffffffffffffffffffffffffffffffffffff168373ffffffffffffffffffffffffffffffffffffffff1603611671576040517f08c379a000000000000000000000000000000000000000000000000000000000815260040161166890613ef3565b60405180910390fd5b3373ffffffffffffffffffffffffffffffffffffffff166000808573ffffffffffffffffffffffffffffffffffffffff1673ffffffffffffffffffffffffffffffffffffffff168152602001908152602001600020600084815260200190815260200160002060000160009054906101000a900473ffffffffffffffffffffffffffffffffffffffff1673ffffffffffffffffffffffffffffffffffffffff1614611751576040517f08c379a0000000000000000000000000000000000000000000000000000000008152600401611748906148c9565b60405180910390fd5b6000808473ffffffffffffffffffffffffffffffffffffffff1673ffffffffffffffffffffffffffffffffffffffff168152602001908152602001600020600083815260200190815260200160002060000160149054906101000a900460ff16156117f1576040517f08c379a00000000000000000000000000000000000000000000000000000000081526004016117e89061495b565b60405180910390fd5b60008111611834576040517f08c379a000000000000000000000000000000000000000000000000000000000815260040161182b906149ed565b60405180910390fd5b80426118409190614a3c565b6000808573ffffffffffffffffffffffffffffffffffffffff1673ffffffffffffffffffffffffffffffffffffffff168152602001908152602001600020600084815260200190815260200160002060010181905550336000808573ffffffffffffffffffffffffffffffffffffffff1673ffffffffffffffffffffffffffffffffffffffff168152602001908152602001600020600084815260200190815260200160002060020160006101000a81548173ffffffffffffffffffffffffffffffffffffffff021916908373ffffffffffffffffffffffffffffffffffffffff160217905550346000808573ffffffffffffffffffffffffffffffffffffffff1673ffffffffffffffffffffffffffffffffffffffff16815260200190815260200160002060008481526020019081526020016000206003018190555060016000808573ffffffffffffffffffffffffffffffffffffffff1673ffffffffffffffffffffffffffffffffffffffff168152602001908152602001600020600084815260200190815260200160002060000160146101000a81548160ff0219169083151502179055506000808473ffffffffffffffffffffffffffffffffffffffff1673ffffffffffffffffffffffffffffffffffffffff1681526020019081526020016000206000838152602001908152602001600020600601339080600181540180825580915050600190039060005260206000200160009091909190916101000a81548173ffffffffffffffffffffffffffffffffffffffff021916908373ffffffffffffffffffffffffffffffffffffffff160217905550346000808573ffffffffffffffffffffffffffffffffffffffff1673ffffffffffffffffffffffffffffffffffffffff168152602001908152602001600020600084815260200190815260200160002060050160003373ffffffffffffffffffffffffffffffffffffffff1673ffffffffffffffffffffffffffffffffffffffff1681526020019081526020016000206000828254611b3b9190614a3c565b925050819055507f881afad1f847f87e78464b076756f7b1016a2062fbff555c3c4992527cc2dbe0838333604051611b7593929190614a92565b60405180910390a1505050565b600073ffffffffffffffffffffffffffffffffffffffff168273ffffffffffffffffffffffffffffffffffffffff1603611bf1576040517f08c379a0000000000000000000000000000000000000000000000000000000008152600401611be890613ef3565b60405180910390fd5b6000808373ffffffffffffffffffffffffffffffffffffffff1673ffffffffffffffffffffffffffffffffffffffff168152602001908152602001600020600082815260200190815260200160002060000160149054906101000a900460ff16611c90576040517f08c379a0000000000000000000000000000000000000000000000000000000008152600401611c8790613f85565b60405180910390fd5b6000808373ffffffffffffffffffffffffffffffffffffffff1673ffffffffffffffffffffffffffffffffffffffff1681526020019081526020016000206000828152602001908152602001600020600101544210611d24576040517f08c379a0000000000000000000000000000000000000000000000000000000008152600401611d1b90614b15565b60405180910390fd5b6103e86000808473ffffffffffffffffffffffffffffffffffffffff1673ffffffffffffffffffffffffffffffffffffffff16815260200190815260200160002060008381526020019081526020016000206006018054905010611dbd576040517f08c379a0000000000000000000000000000000000000000000000000000000008152600401611db490614ba7565b60405180910390fd5b6000808373ffffffffffffffffffffffffffffffffffffffff1673ffffffffffffffffffffffffffffffffffffffff168152602001908152602001600020600082815260200190815260200160002060030154346000808573ffffffffffffffffffffffffffffffffffffffff1673ffffffffffffffffffffffffffffffffffffffff168152602001908152602001600020600084815260200190815260200160002060050160003373ffffffffffffffffffffffffffffffffffffffff1673ffffffffffffffffffffffffffffffffffffffff16815260200190815260200160002054611eab9190614a3c565b11611eeb576040517f08c379a0000000000000000000000000000000000000000000000000000000008152600401611ee290614c13565b60405180910390fd5b60008060008473ffffffffffffffffffffffffffffffffffffffff1673ffffffffffffffffffffffffffffffffffffffff168152602001908152602001600020600083815260200190815260200160002060030154146120b0576000808373ffffffffffffffffffffffffffffffffffffffff1673ffffffffffffffffffffffffffffffffffffffff1681526020019081526020016000206000828152602001908152602001600020600301546000808473ffffffffffffffffffffffffffffffffffffffff1673ffffffffffffffffffffffffffffffffffffffff168152602001908152602001600020600083815260200190815260200160002060040160008060008673ffffffffffffffffffffffffffffffffffffffff1673ffffffffffffffffffffffffffffffffffffffff168152602001908152602001600020600085815260200190815260200160002060020160009054906101000a900473ffffffffffffffffffffffffffffffffffffffff1673ffffffffffffffffffffffffffffffffffffffff1673ffffffffffffffffffffffffffffffffffffffff16815260200190815260200160002060008282546120a89190614a3c565b925050819055505b60008060008473ffffffffffffffffffffffffffffffffffffffff1673ffffffffffffffffffffffffffffffffffffffff168152602001908152602001600020600083815260200190815260200160002060050160003373ffffffffffffffffffffffffffffffffffffffff1673ffffffffffffffffffffffffffffffffffffffff16815260200190815260200160002054036121fb576000808373ffffffffffffffffffffffffffffffffffffffff1673ffffffffffffffffffffffffffffffffffffffff1681526020019081526020016000206000828152602001908152602001600020600601339080600181540180825580915050600190039060005260206000200160009091909190916101000a81548173ffffffffffffffffffffffffffffffffffffffff021916908373ffffffffffffffffffffffffffffffffffffffff1602179055505b346000808473ffffffffffffffffffffffffffffffffffffffff1673ffffffffffffffffffffffffffffffffffffffff168152602001908152602001600020600083815260200190815260200160002060050160003373ffffffffffffffffffffffffffffffffffffffff1673ffffffffffffffffffffffffffffffffffffffff168152602001908152602001600020600082825461229a9190614a3c565b925050819055506000808373ffffffffffffffffffffffffffffffffffffffff1673ffffffffffffffffffffffffffffffffffffffff168152602001908152602001600020600082815260200190815260200160002060050160003373ffffffffffffffffffffffffffffffffffffffff1673ffffffffffffffffffffffffffffffffffffffff168152602001908152602001600020546000808473ffffffffffffffffffffffffffffffffffffffff1673ffffffffffffffffffffffffffffffffffffffff168152602001908152602001600020600083815260200190815260200160002060030181905550336000808473ffffffffffffffffffffffffffffffffffffffff1673ffffffffffffffffffffffffffffffffffffffff168152602001908152602001600020600083815260200190815260200160002060020160006101000a81548173ffffffffffffffffffffffffffffffffffffffff021916908373ffffffffffffffffffffffffffffffffffffffff16021790555060008060008473ffffffffffffffffffffffffffffffffffffffff1673ffffffffffffffffffffffffffffffffffffffff168152602001908152602001600020600083815260200190815260200160002060040160003373ffffffffffffffffffffffffffffffffffffffff1673ffffffffffffffffffffffffffffffffffffffff168152602001908152602001600020819055507ffab03ca36a06bc40a01733649a187387b026bc61b5ce7c1f2e0db35ff066bda88282336000808773ffffffffffffffffffffffffffffffffffffffff1673ffffffffffffffffffffffffffffffffffffffff1681526020019081526020016000206000868152602001908152602001600020600301546040516125349493929190614c33565b60405180910390a15050565b60008073ffffffffffffffffffffffffffffffffffffffff168373ffffffffffffffffffffffffffffffffffffffff16036125b0576040517f08c379a00000000000000000000000000000000000000000000000000000000081526004016125a790613ef3565b60405180910390fd5b6000808473ffffffffffffffffffffffffffffffffffffffff1673ffffffffffffffffffffffffffffffffffffffff168152602001908152602001600020600083815260200190815260200160002060000160149054906101000a900460ff1661264f576040517f08c379a000000000000000000000000000000000000000000000000000000000815260040161264690613f85565b60405180910390fd5b6000808473ffffffffffffffffffffffffffffffffffffffff1673ffffffffffffffffffffffffffffffffffffffff168152602001908152602001600020600083815260200190815260200160002060010154421015905092915050565b60008073ffffffffffffffffffffffffffffffffffffffff168773ffffffffffffffffffffffffffffffffffffffff160361271d576040517f08c379a000000000000000000000000000000000000000000000000000000000815260040161271490613ef3565b60405180910390fd5b600073ffffffffffffffffffffffffffffffffffffffff168673ffffffffffffffffffffffffffffffffffffffff160361278c576040517f08c379a000000000000000000000000000000000000000000000000000000000815260040161278390614cea565b60405180910390fd5b8673ffffffffffffffffffffffffffffffffffffffff1663338e111e873388888888600160009054906101000a900473ffffffffffffffffffffffffffffffffffffffff1660008060006040518b63ffffffff1660e01b81526004016127fb9a99989796959493929190614d0a565b6020604051808303816000875af115801561281a573d6000803e3d6000fd5b505050506040513d601f19601f8201168201806040525081019061283e91906142ef565b90509695505050505050565b600073ffffffffffffffffffffffffffffffffffffffff168273ffffffffffffffffffffffffffffffffffffffff16036128b9576040517f08c379a00000000000000000000000000000000000000000000000000000000081526004016128b090613ef3565b60405180910390fd5b60008273ffffffffffffffffffffffffffffffffffffffff1663e7572230836040518263ffffffff1660e01b81526004016128f49190613a4c565b602060405180830381865afa158015612911573d6000803e3d6000fd5b505050506040513d601f19601f8201168201806040525081019061293591906142ef565b90506000811161297a576040517f08c379a000000000000000000000000000000000000000000000000000000000815260040161297190614e0e565b60405180910390fd5b80600160009054906101000a900473ffffffffffffffffffffffffffffffffffffffff1673ffffffffffffffffffffffffffffffffffffffff1663dd62ed3e33306040518363ffffffff1660e01b81526004016129d8929190614e2e565b602060405180830381865afa1580156129f5573d6000803e3d6000fd5b505050506040513d601f19601f82011682018060405250810190612a1991906142ef565b1015612a5a576040517f08c379a0000000000000000000000000000000000000000000000000000000008152600401612a5190614ea3565b60405180910390fd5b60008373ffffffffffffffffffffffffffffffffffffffff16636352211e846040518263ffffffff1660e01b8152600401612a959190613a4c565b602060405180830381865afa158015612ab2573d6000803e3d6000fd5b505050506040513d601f19601f82011682018060405250810190612ad69190613fba565b90506000600160009054906101000a900473ffffffffffffffffffffffffffffffffffffffff1673ffffffffffffffffffffffffffffffffffffffff166323b872dd3384866040518463ffffffff1660e01b8152600401612b3993929190614518565b6020604051808303816000875af1158015612b58573d6000803e3d6000fd5b505050506040513d601f19601f82011682018060405250810190612b7c9190614189565b905080612bbe576040517f08c379a0000000000000000000000000000000000000000000000000000000008152600401612bb590614f35565b60405180910390fd5b3073ffffffffffffffffffffffffffffffffffffffff168573ffffffffffffffffffffffffffffffffffffffff1663081812fc866040518263ffffffff1660e01b8152600401612c0e9190613a4c565b602060405180830381865afa158015612c2b573d6000803e3d6000fd5b505050506040513d601f19601f82011682018060405250810190612c4f9190613fba565b73ffffffffffffffffffffffffffffffffffffffff1614612ca5576040517f08c379a0000000000000000000000000000000000000000000000000000000008152600401612c9c906144f8565b60405180910390fd5b8473ffffffffffffffffffffffffffffffffffffffff166342842e0e8333876040518463ffffffff1660e01b8152600401612ce293929190614518565b600060405180830381600087803b158015612cfc57600080fd5b505af1158015612d10573d6000803e3d6000fd5b505050508473ffffffffffffffffffffffffffffffffffffffff1663f7d975778560006040518363ffffffff1660e01b8152600401612d5092919061458a565b600060405180830381600087803b158015612d6a57600080fd5b505af1158015612d7e573d6000803e3d6000fd5b505050507f746c6af116c0281aa3f3d8cecf00764b0e9b9ff8f4b82331cc4155f549572a9d8573ffffffffffffffffffffffffffffffffffffffff166306fdde036040518163ffffffff1660e01b8152600401600060405180830381865afa158015612dee573d6000803e3d6000fd5b505050506040513d6000823e3d601f19601f82011682018060405250810190612e179190614623565b8686853388604051612e2e96959493929190614fa1565b60405180910390a15050505050565b60008073ffffffffffffffffffffffffffffffffffffffff168373ffffffffffffffffffffffffffffffffffffffff1603612ead576040517f08c379a0000000000000000000000000000000000000000000000000000000008152600401612ea490613ef3565b60405180910390fd5b6000808473ffffffffffffffffffffffffffffffffffffffff1673ffffffffffffffffffffffffffffffffffffffff168152602001908152602001600020600083815260200190815260200160002060000160149054906101000a900460ff16905092915050565b60008073ffffffffffffffffffffffffffffffffffffffff168373ffffffffffffffffffffffffffffffffffffffff1603612f85576040517f08c379a0000000000000000000000000000000000000000000000000000000008152600401612f7c90613ef3565b60405180910390fd5b3373ffffffffffffffffffffffffffffffffffffffff168373ffffffffffffffffffffffffffffffffffffffff16636352211e846040518263ffffffff1660e01b8152600401612fd59190613a4c565b602060405180830381865afa158015612ff2573d6000803e3d6000fd5b505050506040513d601f19601f820116820180604052508101906130169190613fba565b73ffffffffffffffffffffffffffffffffffffffff161461306c576040517f08c379a000000000000000000000000000000000000000000000000000000000815260040161306390614059565b60405180910390fd5b60008373ffffffffffffffffffffffffffffffffffffffff1663e7572230846040518263ffffffff1660e01b81526004016130a79190613a4c565b602060405180830381865afa1580156130c4573d6000803e3d6000fd5b505050506040513d601f19601f820116820180604052508101906130e891906142ef565b14613128576040517f08c379a000000000000000000000000000000000000000000000000000000000815260040161311f90615068565b60405180910390fd5b6131338383336137e1565b6001905092915050565b60008073ffffffffffffffffffffffffffffffffffffffff168373ffffffffffffffffffffffffffffffffffffffff16036131ad576040517f08c379a00000000000000000000000000000000000000000000000000000000081526004016131a490613ef3565b60405180910390fd5b6000808473ffffffffffffffffffffffffffffffffffffffff1673ffffffffffffffffffffffffffffffffffffffff168152602001908152602001600020600083815260200190815260200160002060000160149054906101000a900460ff1661324c576040517f08c379a000000000000000000000000000000000000000000000000000000000815260040161324390613f85565b60405180910390fd5b6000808473ffffffffffffffffffffffffffffffffffffffff1673ffffffffffffffffffffffffffffffffffffffff168152602001908152602001600020600083815260200190815260200160002060020160009054906101000a900473ffffffffffffffffffffffffffffffffffffffff16905092915050565b60008073ffffffffffffffffffffffffffffffffffffffff168373ffffffffffffffffffffffffffffffffffffffff1603613337576040517f08c379a000000000000000000000000000000000000000000000000000000000815260040161332e90613ef3565b60405180910390fd5b6000808473ffffffffffffffffffffffffffffffffffffffff1673ffffffffffffffffffffffffffffffffffffffff168152602001908152602001600020600083815260200190815260200160002060050160003373ffffffffffffffffffffffffffffffffffffffff1673ffffffffffffffffffffffffffffffffffffffff16815260200190815260200160002054905092915050565b60008060008473ffffffffffffffffffffffffffffffffffffffff1673ffffffffffffffffffffffffffffffffffffffff168152602001908152602001600020600083815260200190815260200160002060000160146101000a81548160ff02191690831515021790555060008060008473ffffffffffffffffffffffffffffffffffffffff1673ffffffffffffffffffffffffffffffffffffffff168152602001908152602001600020600083815260200190815260200160002060000160006101000a81548173ffffffffffffffffffffffffffffffffffffffff021916908373ffffffffffffffffffffffffffffffffffffffff16021790555060008060008473ffffffffffffffffffffffffffffffffffffffff1673ffffffffffffffffffffffffffffffffffffffff16815260200190815260200160002060008381526020019081526020016000206006018054905090506000808290505b600081111561367b576000808673ffffffffffffffffffffffffffffffffffffffff1673ffffffffffffffffffffffffffffffffffffffff16815260200190815260200160002060008581526020019081526020016000206006016001826135959190615088565b815481106135a6576135a56150bc565b5b9060005260206000200160009054906101000a900473ffffffffffffffffffffffffffffffffffffffff16915060008060008773ffffffffffffffffffffffffffffffffffffffff1673ffffffffffffffffffffffffffffffffffffffff168152602001908152602001600020600086815260200190815260200160002060050160008473ffffffffffffffffffffffffffffffffffffffff1673ffffffffffffffffffffffffffffffffffffffff168152602001908152602001600020819055508080613673906150eb565b91505061352d565b506000808573ffffffffffffffffffffffffffffffffffffffff1673ffffffffffffffffffffffffffffffffffffffff168152602001908152602001600020600084815260200190815260200160002060060160006136da9190613917565b7ff821246114f0eb7e6c237eb13dac30e0cae5c2f953eef99ca5c103d3ce0d639584846000808873ffffffffffffffffffffffffffffffffffffffff1673ffffffffffffffffffffffffffffffffffffffff168152602001908152602001600020600087815260200190815260200160002060020160009054906101000a900473ffffffffffffffffffffffffffffffffffffffff166000808973ffffffffffffffffffffffffffffffffffffffff1673ffffffffffffffffffffffffffffffffffffffff1681526020019081526020016000206000888152602001908152602001600020600301546040516137d39493929190614c33565b60405180910390a150505050565b6000808473ffffffffffffffffffffffffffffffffffffffff1673ffffffffffffffffffffffffffffffffffffffff168152602001908152602001600020600083815260200190815260200160002060000160149054906101000a900460ff1615613881576040517f08c379a00000000000000000000000000000000000000000000000000000000081526004016138789061495b565b60405180910390fd5b806000808573ffffffffffffffffffffffffffffffffffffffff1673ffffffffffffffffffffffffffffffffffffffff168152602001908152602001600020600084815260200190815260200160002060000160006101000a81548173ffffffffffffffffffffffffffffffffffffffff021916908373ffffffffffffffffffffffffffffffffffffffff160217905550505050565b50805460008255906000526020600020908101906139359190613938565b50565b5b80821115613951576000816000905550600101613939565b5090565b6000604051905090565b600080fd5b600080fd5b600073ffffffffffffffffffffffffffffffffffffffff82169050919050565b600061399482613969565b9050919050565b6139a481613989565b81146139af57600080fd5b50565b6000813590506139c18161399b565b92915050565b6000819050919050565b6139da816139c7565b81146139e557600080fd5b50565b6000813590506139f7816139d1565b92915050565b60008060408385031215613a1457613a1361395f565b5b6000613a22858286016139b2565b9250506020613a33858286016139e8565b9150509250929050565b613a46816139c7565b82525050565b6000602082019050613a616000830184613a3d565b92915050565b600080600060608486031215613a8057613a7f61395f565b5b6000613a8e868287016139b2565b9350506020613a9f868287016139e8565b9250506040613ab0868287016139e8565b9150509250925092565b600081519050919050565b600082825260208201905092915050565b60005b83811015613af4578082015181840152602081019050613ad9565b83811115613b03576000848401525b50505050565b6000601f19601f8301169050919050565b6000613b2582613aba565b613b2f8185613ac5565b9350613b3f818560208601613ad6565b613b4881613b09565b840191505092915050565b60006020820190508181036000830152613b6d8184613b1a565b905092915050565b6000819050919050565b6000613b9a613b95613b9084613969565b613b75565b613969565b9050919050565b6000613bac82613b7f565b9050919050565b6000613bbe82613ba1565b9050919050565b613bce81613bb3565b82525050565b6000602082019050613be96000830184613bc5565b92915050565b60008115159050919050565b613c0481613bef565b82525050565b6000602082019050613c1f6000830184613bfb565b92915050565b600080fd5b600080fd5b7f4e487b7100000000000000000000000000000000000000000000000000000000600052604160045260246000fd5b613c6782613b09565b810181811067ffffffffffffffff82111715613c8657613c85613c2f565b5b80604052505050565b6000613c99613955565b9050613ca58282613c5e565b919050565b600067ffffffffffffffff821115613cc557613cc4613c2f565b5b613cce82613b09565b9050602081019050919050565b82818337600083830152505050565b6000613cfd613cf884613caa565b613c8f565b905082815260208101848484011115613d1957613d18613c2a565b5b613d24848285613cdb565b509392505050565b600082601f830112613d4157613d40613c25565b5b8135613d51848260208601613cea565b91505092915050565b60008060008060008060c08789031215613d7757613d7661395f565b5b6000613d8589828a016139b2565b9650506020613d9689828a016139b2565b955050604087013567ffffffffffffffff811115613db757613db6613964565b5b613dc389828a01613d2c565b945050606087013567ffffffffffffffff811115613de457613de3613964565b5b613df089828a01613d2c565b935050608087013567ffffffffffffffff811115613e1157613e10613964565b5b613e1d89828a01613d2c565b92505060a087013567ffffffffffffffff811115613e3e57613e3d613964565b5b613e4a89828a01613d2c565b9150509295509295509295565b613e6081613989565b82525050565b6000602082019050613e7b6000830184613e57565b92915050565b7f54686520636f6c6c656374696f6e2061646472657373206e6565647320746f2060008201527f626520646966666572656e742066726f6d207a65726f2e000000000000000000602082015250565b6000613edd603783613ac5565b9150613ee882613e81565b604082019050919050565b60006020820190508181036000830152613f0c81613ed0565b9050919050565b7f5468657265206973206e6f2061756374696f6e207374617274656420666f722060008201527f74686973204e46542e0000000000000000000000000000000000000000000000602082015250565b6000613f6f602983613ac5565b9150613f7a82613f13565b604082019050919050565b60006020820190508181036000830152613f9e81613f62565b9050919050565b600081519050613fb48161399b565b92915050565b600060208284031215613fd057613fcf61395f565b5b6000613fde84828501613fa5565b91505092915050565b7f54686973204e465420646f6573206e6f742062656c6f6e6720746f207468652060008201527f63757272656e74206d6573736167652073656e6465722e000000000000000000602082015250565b6000614043603783613ac5565b915061404e82613fe7565b604082019050919050565b6000602082019050818103600083015261407281614036565b9050919050565b7f506c6561736520646566696e6520612073656c6c696e6720707269636520686960008201527f67686572207468616e207a65726f2e0000000000000000000000000000000000602082015250565b60006140d5602f83613ac5565b91506140e082614079565b604082019050919050565b60006020820190508181036000830152614104816140c8565b9050919050565b60006040820190506141206000830185613a3d565b61412d6020830184613a3d565b9392505050565b60006040820190506141496000830185613e57565b6141566020830184613a3d565b9392505050565b61416681613bef565b811461417157600080fd5b50565b6000815190506141838161415d565b92915050565b60006020828403121561419f5761419e61395f565b5b60006141ad84828501614174565b91505092915050565b7f54686973204e465420646964206e6f7420737461727420616e2061756374696f60008201527f6e2e000000000000000000000000000000000000000000000000000000000000602082015250565b6000614212602283613ac5565b915061421d826141b6565b604082019050919050565b6000602082019050818103600083015261424181614205565b9050919050565b7f5468652061756374696f6e20686173206e6f742066696e69736865642079657460008201527f2e00000000000000000000000000000000000000000000000000000000000000602082015250565b60006142a4602183613ac5565b91506142af82614248565b604082019050919050565b600060208201905081810360008301526142d381614297565b9050919050565b6000815190506142e9816139d1565b92915050565b6000602082840312156143055761430461395f565b5b6000614313848285016142da565b91505092915050565b7f4572726f723a207468652068696768657374206269646465722069732074686560008201527f207a65726f20616464726573732e000000000000000000000000000000000000602082015250565b6000614378602e83613ac5565b91506143838261431c565b604082019050919050565b600060208201905081810360008301526143a78161436b565b9050919050565b600081905092915050565b50565b60006143c96000836143ae565b91506143d4826143b9565b600082019050919050565b60006143ea826143bc565b9150819050919050565b7f4661696c656420746f2073656e642045544820746f20746865204e4654206f7760008201527f6e65722e00000000000000000000000000000000000000000000000000000000602082015250565b6000614450602483613ac5565b915061445b826143f4565b604082019050919050565b6000602082019050818103600083015261447f81614443565b9050919050565b7f54686973206164647265737320646f6573206e6f74206861766520746865206160008201527f6c6c6f77616e636520746f2073656e6420746865204e46540000000000000000602082015250565b60006144e2603883613ac5565b91506144ed82614486565b604082019050919050565b60006020820190508181036000830152614511816144d5565b9050919050565b600060608201905061452d6000830186613e57565b61453a6020830185613e57565b6145476040830184613a3d565b949350505050565b6000819050919050565b600061457461456f61456a8461454f565b613b75565b6139c7565b9050919050565b61458481614559565b82525050565b600060408201905061459f6000830185613a3d565b6145ac602083018461457b565b9392505050565b60006145c66145c184613caa565b613c8f565b9050828152602081018484840111156145e2576145e1613c2a565b5b6145ed848285613ad6565b509392505050565b600082601f83011261460a57614609613c25565b5b815161461a8482602086016145b3565b91505092915050565b6000602082840312156146395761463861395f565b5b600082015167ffffffffffffffff81111561465757614656613964565b5b614663848285016145f5565b91505092915050565b7f4554480000000000000000000000000000000000000000000000000000000000600082015250565b60006146a2600383613ac5565b91506146ad8261466c565b602082019050919050565b600060e08201905081810360008301526146d28189613b1a565b90506146e16020830188613e57565b6146ee6040830187613a3d565b6146fb6060830186613e57565b6147086080830185613e57565b61471560a0830184613a3d565b81810360c083015261472681614695565b9050979650505050505050565b7f5468657265206973206e6f7468696e6720746f20726566756e6420746f20746860008201527f65206d6573736167652073656e64657220666f722074686973204e46542e0000602082015250565b600061478f603e83613ac5565b915061479a82614733565b604082019050919050565b600060208201905081810360008301526147be81614782565b9050919050565b7f4661696c656420746f2073656e642045544820746f207468652072657175657360008201527f7465722e00000000000000000000000000000000000000000000000000000000602082015250565b6000614821602483613ac5565b915061482c826147c5565b604082019050919050565b6000602082019050818103600083015261485081614814565b9050919050565b7f5468652076616c6964697479206f66207468652061756374696f6e206861732060008201527f6e6f74206265656e2076657269666965642c2079657400000000000000000000602082015250565b60006148b3603683613ac5565b91506148be82614857565b604082019050919050565b600060208201905081810360008301526148e2816148a6565b9050919050565b7f416e2061756374696f6e2068617320616c72656164792073746172746564206660008201527f6f722074686973204e46542e0000000000000000000000000000000000000000602082015250565b6000614945602c83613ac5565b9150614950826148e9565b604082019050919050565b6000602082019050818103600083015261497481614938565b9050919050565b7f506c6561736520646566696e6520616e2061756374696f6e206869676865722060008201527f7468616e207a65726f2e00000000000000000000000000000000000000000000602082015250565b60006149d7602a83613ac5565b91506149e28261497b565b604082019050919050565b60006020820190508181036000830152614a06816149ca565b9050919050565b7f4e487b7100000000000000000000000000000000000000000000000000000000600052601160045260246000fd5b6000614a47826139c7565b9150614a52836139c7565b9250827fffffffffffffffffffffffffffffffffffffffffffffffffffffffffffffffff03821115614a8757614a86614a0d565b5b828201905092915050565b6000606082019050614aa76000830186613e57565b614ab46020830185613a3d565b614ac16040830184613e57565b949350505050565b7f5468652061756374696f6e2068617320616c726561647920656e6465642e0000600082015250565b6000614aff601e83613ac5565b9150614b0a82614ac9565b602082019050919050565b60006020820190508181036000830152614b2e81614af2565b9050919050565b7f546869732061756374696f6e20616368696576656420746865206d6178696d7560008201527f6d20616d6f756e74206f6620626964732e000000000000000000000000000000602082015250565b6000614b91603183613ac5565b9150614b9c82614b35565b604082019050919050565b60006020820190508181036000830152614bc081614b84565b9050919050565b7f5468652062696420697320746f6f206c6f772e00000000000000000000000000600082015250565b6000614bfd601383613ac5565b9150614c0882614bc7565b602082019050919050565b60006020820190508181036000830152614c2c81614bf0565b9050919050565b6000608082019050614c486000830187613e57565b614c556020830186613a3d565b614c626040830185613e57565b614c6f6060830184613a3d565b95945050505050565b7f54686520757365722061646472657373206e6565647320746f2062652064696660008201527f666572656e742066726f6d207a65726f2e000000000000000000000000000000602082015250565b6000614cd4603183613ac5565b9150614cdf82614c78565b604082019050919050565b60006020820190508181036000830152614d0381614cc7565b9050919050565b600061014082019050614d20600083018d613e57565b614d2d602083018c613e57565b8181036040830152614d3f818b613b1a565b90508181036060830152614d53818a613b1a565b90508181036080830152614d678189613b1a565b905081810360a0830152614d7b8188613b1a565b9050614d8a60c0830187613e57565b614d9760e083018661457b565b614da5610100830185613bfb565b614db3610120830184613bfb565b9b9a5050505050505050505050565b7f54686973204e4654206973206e6f7420666f722073616c652e00000000000000600082015250565b6000614df8601983613ac5565b9150614e0382614dc2565b602082019050919050565b60006020820190508181036000830152614e2781614deb565b9050919050565b6000604082019050614e436000830185613e57565b614e506020830184613e57565b9392505050565b7f43594f4e20746f6b656e20616c6c6f77616e636520746f6f206c6f772e000000600082015250565b6000614e8d601d83613ac5565b9150614e9882614e57565b602082019050919050565b60006020820190508181036000830152614ebc81614e80565b9050919050565b7f4661696c656420746f2073656e642043594f4e20746f20746865204e4654206f60008201527f776e65722e000000000000000000000000000000000000000000000000000000602082015250565b6000614f1f602583613ac5565b9150614f2a82614ec3565b604082019050919050565b60006020820190508181036000830152614f4e81614f12565b9050919050565b7f43594f4e00000000000000000000000000000000000000000000000000000000600082015250565b6000614f8b600483613ac5565b9150614f9682614f55565b602082019050919050565b600060e0820190508181036000830152614fbb8189613b1a565b9050614fca6020830188613e57565b614fd76040830187613a3d565b614fe46060830186613e57565b614ff16080830185613e57565b614ffe60a0830184613a3d565b81810360c083015261500f81614f7e565b9050979650505050505050565b7f54686973204e465420697320616c726561647920666f722073616c652e000000600082015250565b6000615052601d83613ac5565b915061505d8261501c565b602082019050919050565b6000602082019050818103600083015261508181615045565b9050919050565b6000615093826139c7565b915061509e836139c7565b9250828210156150b1576150b0614a0d565b5b828203905092915050565b7f4e487b7100000000000000000000000000000000000000000000000000000000600052603260045260246000fd5b60006150f6826139c7565b91506000820361510957615108614a0d565b5b60018203905091905056fea264697066735822122017f361292a6f965668c4de32dde30c9ae89b71499545b695fc364ce7016b8d3864736f6c634300080d0033",
  "immutableReferences": {},
  "source": "// SPDX-License-Identifier: GPL-3.0\npragma solidity 0.8.13;\n\nimport \"./Auction.sol\";\nimport \"./NFTCollectionFactory.sol\";\nimport \"@openzeppelin/contracts/token/ERC20/IERC20.sol\";\n\n/// @title Master contract to manage the decentralized NFT market place \n/// @author Sebastien Gazeau, Sbastien Dupertuis et Alexis Mendoza\n/// @notice This smart contract is the link between the Dapp and the subcontracts\ncontract Master is Auction {\n    \n    //------------------------------------------------------------------------------------\n    // ----------------------------------Variables----------------------------------------\n    //------------------------------------------------------------------------------------\n    IERC20 public tokenCYON;\n\n    //------------------------------------------------------------------------------------\n    // ------------------------------------Events-----------------------------------------\n    //------------------------------------------------------------------------------------\n    /// @notice event for NFT sales\n    /// @param _collectionName Name of the NFT collection\n    /// @param _collectionAddress Address of the collection\n    /// @param _tokenID The ID of this given NFT\n    /// @param _oldOwner Previous owner of the sold NFT\n    /// @param _newOwner New owner of the bought NFT\n    /// @param _price The sale price of the given NFT\n    /// @param _units The units of the sale\n    event NFTSold(string _collectionName, address _collectionAddress, uint256 _tokenID, address _oldOwner, address _newOwner, uint256 _price, string _units);\n\n    //------------------------------------------------------------------------------------\n    // ----------------------------------Constructor--------------------------------------\n    //------------------------------------------------------------------------------------\n    /// @notice The constructor the Master smart contract\n    /// @param _addressCYON The ERC20 address of the platform token (CYON) \n    constructor(address _addressCYON) {\n        tokenCYON = IERC20(_addressCYON);\n    }\n\n    //------------------------------------------------------------------------------------\n    // -----------------------------------Functions---------------------------------------\n    //------------------------------------------------------------------------------------\n    /// @notice This function allows to create NFTs inside a collection and mint it directly\n    /// @dev Call this function when the user wants to create a new NFT and mint it to the given address\n    /// @param _collectionAddress The address of the collection in which the NFT will be created/minted\n    /// @param _firstOwner The destination address to which the NFT is minted\n    /// @param _tokenURI The metadata through a link URI\n    /// @param _name Name of the new NFT\n    /// @param _description Description of the new NFT\n    /// @param _tag Tag of the new NFT allowing filtering\n    /// @return _tokenID New id of the item that has been minted\n    function createNFT(address _collectionAddress, address _firstOwner, string memory _tokenURI, string memory _name, \n        string memory _description, string memory _tag) external  returns (uint256) {\n            require(_collectionAddress != address(0),\"The collection address needs to be different from zero.\");\n            require(_firstOwner != address(0),\"The user address needs to be different from zero.\");  \n\n            return(NFTCollections(_collectionAddress).MintNFT(_firstOwner,msg.sender,_tokenURI,_name,_description,_tag,address(tokenCYON),0,false,false));\n        }\n\n\n    /// @notice This function allows to set the price of the given NFT\n    /// @dev Call this function when a sale is initiated\n    /// @param _collectionAddress The address of the collection of the NFT to set the price\n    /// @param _tokenID The token ID of the NFT to set the price\n    /// @param _price The price to set\n    function setNewPrice(address _collectionAddress, uint256 _tokenID, uint256 _price) external {\n        require(_collectionAddress != address(0),\"The collection address needs to be different from zero.\");    // Make sure the address is different from zero\n        //require((_tokenID <= NFTCollections(_collectionAddress).getTotalSupply()) && (_tokenID > 0), \"This token ID does not exist.\");      // Make sure the token ID exists\n        require(NFTCollections(_collectionAddress).ownerOf(_tokenID) == msg.sender,\"This NFT does not belong to the current message sender.\");  // Make sure the sale comes from the owner. Revert if the tokenID does not exist (ERC721Upgradeable library)\n        require(_price > 0,\"Please define a selling price higher than zero.\");                                  // Make sure the price is more than zero\n\n        NFTCollections(_collectionAddress).setPrice(_tokenID,_price);\n    }\n\n    /// @notice This function allows to transfer the money to the NFT owner and the NFT to the buyer after a direct sale.\n    /// @dev Call this function when a buyer click on the BUY button\n    /// @param _collectionAddress The address of the collection of the NFT to be sold/transfered\n    /// @param _tokenID The token ID of the NFT to be sold/transfered\n    function buyNFT(address _collectionAddress, uint256 _tokenID) external payable {\n        // Global requires\n        require(_collectionAddress != address(0),\"The collection address needs to be different from zero.\");    // Make sure the address is different from zero\n        uint256 price = NFTCollections(_collectionAddress).getPrice(_tokenID);\n        require(price > 0,\"This NFT is not for sale.\");     // Make sure the NFT is for sale\n    \n        // Send the CYON to the current NFT owner\n        require(tokenCYON.allowance(msg.sender, address(this)) >= price, \"CYON token allowance too low.\");      // Make sure the Master contract has the allowance to manage the CYON transfer\n        address currentOwner = NFTCollections(_collectionAddress).ownerOf(_tokenID);\n        bool sent = tokenCYON.transferFrom(msg.sender,currentOwner, price);\n        require(sent, \"Failed to send CYON to the NFT owner.\");\n\n        // Send the NFT to the new owner\n        require(NFTCollections(_collectionAddress).getApproved(_tokenID) == address(this),\"This address does not have the allowance to send the NFT\");       // Make sure the Master contract has the allowance to manage the NFT transfer\n        NFTCollections(_collectionAddress).safeTransferFrom(currentOwner, msg.sender, _tokenID);\n\n        // Reset the price to 0 after the sale\n        NFTCollections(_collectionAddress).setPrice(_tokenID,0);\n\n        emit NFTSold(NFTCollections(_collectionAddress).name(), _collectionAddress, _tokenID, currentOwner, msg.sender, price, \"CYON\");\n    }\n\n    /// @notice This function allows to initiate an auction by verifying owner and tokenID\n    /// @dev Call this function before starting the auction procedure\n    /// @param _collectionAddress The address of the collection of the NFT to start an auction\n    /// @param _tokenID The token ID of the NFT to start an auction\n    /// @return _validity True if the auction is authorized\n    function requestAuction(address _collectionAddress, uint256 _tokenID) external returns (bool) {\n        require(_collectionAddress != address(0),\"The collection address needs to be different from zero.\");    // Make sure the address is different from zero\n        require(NFTCollections(_collectionAddress).ownerOf(_tokenID) == msg.sender,\"This NFT does not belong to the current message sender.\");  // Make sure the sale comes from the owner. Revert if the tokenID does not exist (ERC721Upgradeable library)\n        require(NFTCollections(_collectionAddress).getPrice(_tokenID) == 0,\"This NFT is already for sale.\");     // Make sure the NFT is not already for sale\n\n        setAuctionValidity(_collectionAddress, _tokenID, msg.sender);\n\n        return true;\n    }\n\n    /// @notice This function allows to close an auction when the time has expired\n    /// @dev Call this function from the front when the auction time has expired\n    /// @param _collectionAddress The address of the collection of the NFT to close the auction\n    /// @param _tokenID The token ID of the NFT to close the auction\n    function closeAuction(address _collectionAddress, uint256 _tokenID) external {\n        require(_collectionAddress != address(0),\"The collection address needs to be different from zero.\");    // Make sure the address is different from zero\n        NFTCollections(_collectionAddress).ownerOf(_tokenID);       // Revert if the tokenID does not exist (ERC721Upgradeable library)\n        require(this.isInAuction(_collectionAddress,_tokenID),\"This NFT did not start an auction.\");         // Make sure an auction started\n        require(this.checkAuctionTimeExpired(_collectionAddress,_tokenID), \"The auction has not finished yet.\"); // Make sure the auction is finished\n\n        // Get the data of the auction\n        uint256 price = this.getCurrentHighestBid(_collectionAddress,_tokenID);\n        address currentOwner = NFTCollections(_collectionAddress).ownerOf(_tokenID);\n        address highestBidder = this.getCurrentHighestBidder(_collectionAddress, _tokenID);\n        require(highestBidder != address(0),\"Error: the highest bidder is the zero address.\");  // Make sure the address of the highest bidder is valid\n\n        // Check if price is more than 0. Otherwise, nobody has bidded\n        if(price > 0) {\n            // Send the ETH to the current NFT owner\n            (bool success, ) = payable(currentOwner).call{value:price}(\"\");\n            require(success, \"Failed to send ETH to the NFT owner.\");\n\n            // Verify that the highest bidder is not the current owner. Otherwise, nobody has bidded, except the initial bid of the owner (starting price)\n            if(highestBidder != currentOwner) {\n                NFTCollections(_collectionAddress).setPrice(_tokenID,price);        // Update the price of the NFT for event tracking\n            \n                // Send the NFT to the new owner\n                require(NFTCollections(_collectionAddress).getApproved(_tokenID) == address(this),\"This address does not have the allowance to send the NFT\");       // Make sure the Master contract has the allowance to manage the NFT transfer\n                NFTCollections(_collectionAddress).safeTransferFrom(currentOwner, highestBidder, _tokenID);\n\n                // Reset the price to 0 after the sale for price tracking\n                NFTCollections(_collectionAddress).setPrice(_tokenID,0);\n\n                emit NFTSold(NFTCollections(_collectionAddress).name(), _collectionAddress, _tokenID, currentOwner, highestBidder, price, \"ETH\");\n            }\n            \n            // Reset the auction data\n            endAuction(_collectionAddress, _tokenID);\n        }\n    }\n\n\n    //------------------------------------------------------------------------------------\n    // ------------------------------------Getters----------------------------------------\n    //------------------------------------------------------------------------------------\n    /// @notice This function returns the URI data of the given NFT\n    /// @dev Call this function to get the metadata of the NFT\n    /// @param _collectionAddress The address of the collection of the NFT to get the URI\n    /// @param _tokenID The token ID of the NFT to get the URI\n    /// @return _URI The URI data\n    function getURI(address _collectionAddress, uint256 _tokenID) external view returns (string memory) {\n        //require((_tokenID <= NFTCollections(_collectionAddress).getTotalSupply()) && (_tokenID > 0), \"This token ID does not exist.\");      // Make sure the token ID exists\n        NFTCollections(_collectionAddress).ownerOf(_tokenID);       // Revert if the tokenID does not exist (ERC721Upgradeable library)\n        return(NFTCollections(_collectionAddress).tokenURI(_tokenID));\n    }\n\n/*\n    /// @notice This function returns the current owner of the given NFT\n    /// @dev Call this function to get the owner of the NFT. Revert if the tokenID does not exist\n    /// @param _collectionAddress The address of the collection of the NFT to get the owner\n    /// @param _tokenID The token ID of the NFT to get the owner\n    /// @return _address The owner address\n    function getNFTOwner(address _collectionAddress, uint256 _tokenID) external view returns (address) {\n        return(NFTCollections(_collectionAddress).ownerOf(_tokenID));\n    }*/\n}\n",
  "sourcePath": "/home/alexis/Projects/project-nft-cyon/contracts/Master.sol",
  "compiler": {
    "name": "solc",
    "version": "0.8.13+commit.abaa5c0e.Emscripten.clang"
  },
  "schemaVersion": "3.4.7",
  "updatedAt": "2022-05-15T09:09:49.661Z",
  "networkType": "ethereum",
  "devdoc": {
    "author": "Sebastien Gazeau, Sbastien Dupertuis et Alexis Mendoza",
    "events": {
      "NFTSold(string,address,uint256,address,address,uint256,string)": {
        "params": {
          "_collectionAddress": "Address of the collection",
          "_collectionName": "Name of the NFT collection",
          "_newOwner": "New owner of the bought NFT",
          "_oldOwner": "Previous owner of the sold NFT",
          "_price": "The sale price of the given NFT",
          "_tokenID": "The ID of this given NFT",
          "_units": "The units of the sale"
        }
      }
    },
    "kind": "dev",
    "methods": {
      "bid(address,uint256)": {
        "details": "Call this function each time a user place a new bid",
        "params": {
          "_nftCollectionAddress": "Collection address of the given NFT",
          "_nftTokenID": "Token ID of the given NFT"
        }
      },
      "buyNFT(address,uint256)": {
        "details": "Call this function when a buyer click on the BUY button",
        "params": {
          "_collectionAddress": "The address of the collection of the NFT to be sold/transfered",
          "_tokenID": "The token ID of the NFT to be sold/transfered"
        }
      },
      "checkAuctionTimeExpired(address,uint256)": {
        "details": "Call this function to check if the time of the auction is over or not",
        "params": {
          "_nftCollectionAddress": "Collection address of the given NFT",
          "_nftTokenID": "Token ID of the given NFT"
        },
        "returns": {
          "_0": "Returns a boolean to define if the auction time has expired (true) or not (false)"
        }
      },
      "closeAuction(address,uint256)": {
        "details": "Call this function from the front when the auction time has expired",
        "params": {
          "_collectionAddress": "The address of the collection of the NFT to close the auction",
          "_tokenID": "The token ID of the NFT to close the auction"
        }
      },
      "constructor": {
        "params": {
          "_addressCYON": "The ERC20 address of the platform token (CYON) "
        }
      },
      "createNFT(address,address,string,string,string,string)": {
        "details": "Call this function when the user wants to create a new NFT and mint it to the given address",
        "params": {
          "_collectionAddress": "The address of the collection in which the NFT will be created/minted",
          "_description": "Description of the new NFT",
          "_firstOwner": "The destination address to which the NFT is minted",
          "_name": "Name of the new NFT",
          "_tag": "Tag of the new NFT allowing filtering",
          "_tokenURI": "The metadata through a link URI"
        },
        "returns": {
          "_0": "_tokenID New id of the item that has been minted"
        }
      },
      "getBiddersAmount(address,uint256)": {
        "details": "Call this function from the front to display the amount of bidders over the given limit (here 1000)",
        "params": {
          "_nftCollectionAddress": "Collection address of the given NFT",
          "_nftTokenID": "Token ID of the given NFT"
        },
        "returns": {
          "_0": "Returns the amount of bidders (how many addresses)"
        }
      },
      "getCurrentHighestBid(address,uint256)": {
        "details": "Call this function when you want to know the value of the highest bid",
        "params": {
          "_nftCollectionAddress": "Collection address of the given NFT",
          "_nftTokenID": "Token ID of the given NFT"
        },
        "returns": {
          "_0": "Returns the value of the current highest bid"
        }
      },
      "getCurrentHighestBidder(address,uint256)": {
        "details": "Call this function when you want to know the address of the highest bidder",
        "params": {
          "_nftCollectionAddress": "Collection address of the given NFT",
          "_nftTokenID": "Token ID of the given NFT"
        },
        "returns": {
          "_0": "Returns the address of the current highest bidder"
        }
      },
      "getTotalBid(address,uint256)": {
        "details": "Call this function from the front to know how mush the bidder already bidded",
        "params": {
          "_nftCollectionAddress": "Collection address of the given NFT",
          "_nftTokenID": "Token ID of the given NFT"
        },
        "returns": {
          "_0": "Returns the total amount the user bidded till now"
        }
      },
      "getURI(address,uint256)": {
        "details": "Call this function to get the metadata of the NFT",
        "params": {
          "_collectionAddress": "The address of the collection of the NFT to get the URI",
          "_tokenID": "The token ID of the NFT to get the URI"
        },
        "returns": {
          "_0": "_URI The URI data"
        }
      },
      "isInAuction(address,uint256)": {
        "details": "Call this function from the front to know if there is an auction ongoing",
        "params": {
          "_nftCollectionAddress": "Collection address of the given NFT",
          "_nftTokenID": "Token ID of the given NFT"
        },
        "returns": {
          "_0": "Returns true if an auction is in progress"
        }
      },
      "requestAuction(address,uint256)": {
        "details": "Call this function before starting the auction procedure",
        "params": {
          "_collectionAddress": "The address of the collection of the NFT to start an auction",
          "_tokenID": "The token ID of the NFT to start an auction"
        },
        "returns": {
          "_0": "_validity True if the auction is authorized"
        }
      },
      "setNewPrice(address,uint256,uint256)": {
        "details": "Call this function when a sale is initiated",
        "params": {
          "_collectionAddress": "The address of the collection of the NFT to set the price",
          "_price": "The price to set",
          "_tokenID": "The token ID of the NFT to set the price"
        }
      },
      "startAuction(address,uint256,uint256)": {
        "details": "Call this function when the user decides to sell his NFT through an auction. The owner can define a starting price if he sends money in the transaction.",
        "params": {
          "_biddingTime": "Auction time in seconds",
          "_nftCollectionAddress": "Collection address of the given NFT",
          "_nftTokenID": "Token ID of the given NFT"
        }
      },
      "withdrawRefund(address,uint256)": {
        "details": "The user can call this function through the front when his bid is not the highest anymore.",
        "params": {
          "_nftCollectionAddress": "Collection address of the given NFT",
          "_nftTokenID": "Token ID of the given NFT"
        }
      }
    },
    "title": "Master contract to manage the decentralized NFT market place ",
    "version": 1
  },
  "userdoc": {
    "events": {
      "AuctionClosed(address,uint256,address,uint256)": {
        "notice": "Event raised when the auction has finished"
      },
      "AuctionStarted(address,uint256,address)": {
        "notice": "Event raised when the auction has started"
      },
      "HighestBidIncreased(address,uint256,address,uint256)": {
        "notice": "Event raised when the bid has increased"
      },
      "NFTSold(string,address,uint256,address,address,uint256,string)": {
        "notice": "event for NFT sales"
      }
    },
    "kind": "user",
    "methods": {
      "bid(address,uint256)": {
        "notice": "This function allows to place a new bid"
      },
      "buyNFT(address,uint256)": {
        "notice": "This function allows to transfer the money to the NFT owner and the NFT to the buyer after a direct sale."
      },
      "checkAuctionTimeExpired(address,uint256)": {
        "notice": "This function allows to check if the auction ended"
      },
      "closeAuction(address,uint256)": {
        "notice": "This function allows to close an auction when the time has expired"
      },
      "constructor": {
        "notice": "The constructor the Master smart contract"
      },
      "createNFT(address,address,string,string,string,string)": {
        "notice": "This function allows to create NFTs inside a collection and mint it directly"
      },
      "getBiddersAmount(address,uint256)": {
        "notice": "This function allows to check for the amount of bidders"
      },
      "getCurrentHighestBid(address,uint256)": {
        "notice": "This function allows to check for the current highest bid"
      },
      "getCurrentHighestBidder(address,uint256)": {
        "notice": "This function allows to check for the current highest bidder"
      },
      "getTotalBid(address,uint256)": {
        "notice": "This function allows to check the total bid of the user calling the message"
      },
      "getURI(address,uint256)": {
        "notice": "This function returns the URI data of the given NFT"
      },
      "isInAuction(address,uint256)": {
        "notice": "This function allows to check if there is an auction in progress for the given NFT"
      },
      "requestAuction(address,uint256)": {
        "notice": "This function allows to initiate an auction by verifying owner and tokenID"
      },
      "setNewPrice(address,uint256,uint256)": {
        "notice": "This function allows to set the price of the given NFT"
      },
      "startAuction(address,uint256,uint256)": {
        "notice": "This function allows to start a new auction"
      },
      "withdrawRefund(address,uint256)": {
        "notice": "This function allows a user that placed a bid (not the highest anymore) to get back his funds"
      }
    },
    "notice": "This smart contract is the link between the Dapp and the subcontracts",
    "version": 1
  }
}