{
  "contractName": "Master",
  "abi": [
    {
      "inputs": [
        {
          "internalType": "address",
          "name": "_addressCYON",
          "type": "address"
        }
      ],
      "stateMutability": "nonpayable",
      "type": "constructor"
    },
    {
      "anonymous": false,
      "inputs": [
        {
          "indexed": false,
          "internalType": "string",
          "name": "_collectionName",
          "type": "string"
        },
        {
          "indexed": false,
          "internalType": "address",
          "name": "_collectionAddress",
          "type": "address"
        },
        {
          "indexed": false,
          "internalType": "uint256",
          "name": "_tokenID",
          "type": "uint256"
        },
        {
          "indexed": false,
          "internalType": "address",
          "name": "_oldOwner",
          "type": "address"
        },
        {
          "indexed": false,
          "internalType": "address",
          "name": "_newOwner",
          "type": "address"
        },
        {
          "indexed": false,
          "internalType": "uint256",
          "name": "_price",
          "type": "uint256"
        }
      ],
      "name": "NFTSold",
      "type": "event"
    },
    {
      "inputs": [],
      "name": "tokenCYON",
      "outputs": [
        {
          "internalType": "contract IERC20",
          "name": "",
          "type": "address"
        }
      ],
      "stateMutability": "view",
      "type": "function",
      "constant": true
    },
    {
      "inputs": [
        {
          "internalType": "address",
          "name": "_collectionAddress",
          "type": "address"
        },
        {
          "internalType": "address",
          "name": "_firstOwner",
          "type": "address"
        },
        {
          "internalType": "string",
          "name": "_tokenURI",
          "type": "string"
        },
        {
          "internalType": "string",
          "name": "_name",
          "type": "string"
        },
        {
          "internalType": "string",
          "name": "_description",
          "type": "string"
        },
        {
          "internalType": "string",
          "name": "_tag",
          "type": "string"
        }
      ],
      "name": "createNFT",
      "outputs": [],
      "stateMutability": "nonpayable",
      "type": "function"
    },
    {
      "inputs": [
        {
          "internalType": "address",
          "name": "_collectionAddress",
          "type": "address"
        },
        {
          "internalType": "uint256",
          "name": "_tokenID",
          "type": "uint256"
        },
        {
          "internalType": "uint256",
          "name": "_price",
          "type": "uint256"
        }
      ],
      "name": "setNewPrice",
      "outputs": [],
      "stateMutability": "nonpayable",
      "type": "function"
    },
    {
      "inputs": [
        {
          "internalType": "address",
          "name": "_collectionAddress",
          "type": "address"
        },
        {
          "internalType": "uint256",
          "name": "_tokenID",
          "type": "uint256"
        }
      ],
      "name": "buyNFT",
      "outputs": [],
      "stateMutability": "payable",
      "type": "function",
      "payable": true
    },
    {
      "inputs": [
        {
          "internalType": "address",
          "name": "_collectionAddress",
          "type": "address"
        },
        {
          "internalType": "uint256",
          "name": "_tokenID",
          "type": "uint256"
        }
      ],
      "name": "getURI",
      "outputs": [
        {
          "internalType": "string",
          "name": "",
          "type": "string"
        }
      ],
      "stateMutability": "view",
      "type": "function",
      "constant": true
    }
  ],
  "bytecode": "0x60806040523480156200001157600080fd5b5060405162001b6238038062001b628339818101604052810190620000379190620000e8565b806000806101000a81548173ffffffffffffffffffffffffffffffffffffffff021916908373ffffffffffffffffffffffffffffffffffffffff160217905550506200011a565b600080fd5b600073ffffffffffffffffffffffffffffffffffffffff82169050919050565b6000620000b08262000083565b9050919050565b620000c281620000a3565b8114620000ce57600080fd5b50565b600081519050620000e281620000b7565b92915050565b6000602082840312156200010157620001006200007e565b5b60006200011184828501620000d1565b91505092915050565b611a38806200012a6000396000f3fe60806040526004361061004a5760003560e01c806328d4ae0f1461004f578063472371621461007857806350194895146100b5578063811ca7cf146100e0578063a82ba76f14610109575b600080fd5b34801561005b57600080fd5b5061007660048036038101906100719190610d84565b610125565b005b34801561008457600080fd5b5061009f600480360381019061009a9190610dd7565b6103ed565b6040516100ac9190610eb0565b60405180910390f35b3480156100c157600080fd5b506100ca610533565b6040516100d79190610f31565b60405180910390f35b3480156100ec57600080fd5b5061010760048036038101906101029190611081565b610557565b005b610123600480360381019061011e9190610dd7565b6106ee565b005b600073ffffffffffffffffffffffffffffffffffffffff168373ffffffffffffffffffffffffffffffffffffffff1603610194576040517f08c379a000000000000000000000000000000000000000000000000000000000815260040161018b906111f0565b60405180910390fd5b8273ffffffffffffffffffffffffffffffffffffffff1663c4e41b226040518163ffffffff1660e01b8152600401602060405180830381865afa1580156101df573d6000803e3d6000fd5b505050506040513d601f19601f820116820180604052508101906102039190611225565b82111580156102125750600082115b610251576040517f08c379a00000000000000000000000000000000000000000000000000000000081526004016102489061129e565b60405180910390fd5b3373ffffffffffffffffffffffffffffffffffffffff168373ffffffffffffffffffffffffffffffffffffffff16636352211e846040518263ffffffff1660e01b81526004016102a191906112cd565b602060405180830381865afa1580156102be573d6000803e3d6000fd5b505050506040513d601f19601f820116820180604052508101906102e291906112fd565b73ffffffffffffffffffffffffffffffffffffffff1614610338576040517f08c379a000000000000000000000000000000000000000000000000000000000815260040161032f9061139c565b60405180910390fd5b6000811161037b576040517f08c379a00000000000000000000000000000000000000000000000000000000081526004016103729061142e565b60405180910390fd5b8273ffffffffffffffffffffffffffffffffffffffff1663f7d9757783836040518363ffffffff1660e01b81526004016103b692919061144e565b600060405180830381600087803b1580156103d057600080fd5b505af11580156103e4573d6000803e3d6000fd5b50505050505050565b60608273ffffffffffffffffffffffffffffffffffffffff1663c4e41b226040518163ffffffff1660e01b8152600401602060405180830381865afa15801561043a573d6000803e3d6000fd5b505050506040513d601f19601f8201168201806040525081019061045e9190611225565b821115801561046d5750600082115b6104ac576040517f08c379a00000000000000000000000000000000000000000000000000000000081526004016104a39061129e565b60405180910390fd5b8273ffffffffffffffffffffffffffffffffffffffff1663c87b56dd836040518263ffffffff1660e01b81526004016104e591906112cd565b600060405180830381865afa158015610502573d6000803e3d6000fd5b505050506040513d6000823e3d601f19601f8201168201806040525081019061052b91906114e7565b905092915050565b60008054906101000a900473ffffffffffffffffffffffffffffffffffffffff1681565b600073ffffffffffffffffffffffffffffffffffffffff168673ffffffffffffffffffffffffffffffffffffffff16036105c6576040517f08c379a00000000000000000000000000000000000000000000000000000000081526004016105bd906111f0565b60405180910390fd5b600073ffffffffffffffffffffffffffffffffffffffff168573ffffffffffffffffffffffffffffffffffffffff1603610635576040517f08c379a000000000000000000000000000000000000000000000000000000000815260040161062c906115a2565b60405180910390fd5b8573ffffffffffffffffffffffffffffffffffffffff1663338e111e86338787878760008054906101000a900473ffffffffffffffffffffffffffffffffffffffff1660008060006040518b63ffffffff1660e01b81526004016106a29a99989796959493929190611627565b6020604051808303816000875af11580156106c1573d6000803e3d6000fd5b505050506040513d601f19601f820116820180604052508101906106e59190611225565b50505050505050565b600073ffffffffffffffffffffffffffffffffffffffff168273ffffffffffffffffffffffffffffffffffffffff160361075d576040517f08c379a0000000000000000000000000000000000000000000000000000000008152600401610754906111f0565b60405180910390fd5b60008273ffffffffffffffffffffffffffffffffffffffff1663e7572230836040518263ffffffff1660e01b815260040161079891906112cd565b602060405180830381865afa1580156107b5573d6000803e3d6000fd5b505050506040513d601f19601f820116820180604052508101906107d99190611225565b90506000811161081e576040517f08c379a00000000000000000000000000000000000000000000000000000000081526004016108159061172b565b60405180910390fd5b8060008054906101000a900473ffffffffffffffffffffffffffffffffffffffff1673ffffffffffffffffffffffffffffffffffffffff1663dd62ed3e33306040518363ffffffff1660e01b815260040161087a92919061174b565b602060405180830381865afa158015610897573d6000803e3d6000fd5b505050506040513d601f19601f820116820180604052508101906108bb9190611225565b10156108fc576040517f08c379a00000000000000000000000000000000000000000000000000000000081526004016108f3906117c0565b60405180910390fd5b60008373ffffffffffffffffffffffffffffffffffffffff16636352211e846040518263ffffffff1660e01b815260040161093791906112cd565b602060405180830381865afa158015610954573d6000803e3d6000fd5b505050506040513d601f19601f8201168201806040525081019061097891906112fd565b905060008060009054906101000a900473ffffffffffffffffffffffffffffffffffffffff1673ffffffffffffffffffffffffffffffffffffffff1663a9059cbb83856040518363ffffffff1660e01b81526004016109d89291906117e0565b6020604051808303816000875af11580156109f7573d6000803e3d6000fd5b505050506040513d601f19601f82011682018060405250810190610a1b9190611835565b905080610a5d576040517f08c379a0000000000000000000000000000000000000000000000000000000008152600401610a54906118d4565b60405180910390fd5b3073ffffffffffffffffffffffffffffffffffffffff168573ffffffffffffffffffffffffffffffffffffffff1663081812fc866040518263ffffffff1660e01b8152600401610aad91906112cd565b602060405180830381865afa158015610aca573d6000803e3d6000fd5b505050506040513d601f19601f82011682018060405250810190610aee91906112fd565b73ffffffffffffffffffffffffffffffffffffffff1614610b44576040517f08c379a0000000000000000000000000000000000000000000000000000000008152600401610b3b9061191a565b60405180910390fd5b8473ffffffffffffffffffffffffffffffffffffffff166342842e0e8333876040518463ffffffff1660e01b8152600401610b819392919061193a565b600060405180830381600087803b158015610b9b57600080fd5b505af1158015610baf573d6000803e3d6000fd5b505050508473ffffffffffffffffffffffffffffffffffffffff1663f7d975778560006040518363ffffffff1660e01b8152600401610bef929190611971565b600060405180830381600087803b158015610c0957600080fd5b505af1158015610c1d573d6000803e3d6000fd5b505050507f8146a1050e7850dd9a48240ef51ee45f907a45710d3c5136077e83e633c3ebe18573ffffffffffffffffffffffffffffffffffffffff166306fdde036040518163ffffffff1660e01b8152600401600060405180830381865afa158015610c8d573d6000803e3d6000fd5b505050506040513d6000823e3d601f19601f82011682018060405250810190610cb691906114e7565b8686853388604051610ccd9695949392919061199a565b60405180910390a15050505050565b6000604051905090565b600080fd5b600080fd5b600073ffffffffffffffffffffffffffffffffffffffff82169050919050565b6000610d1b82610cf0565b9050919050565b610d2b81610d10565b8114610d3657600080fd5b50565b600081359050610d4881610d22565b92915050565b6000819050919050565b610d6181610d4e565b8114610d6c57600080fd5b50565b600081359050610d7e81610d58565b92915050565b600080600060608486031215610d9d57610d9c610ce6565b5b6000610dab86828701610d39565b9350506020610dbc86828701610d6f565b9250506040610dcd86828701610d6f565b9150509250925092565b60008060408385031215610dee57610ded610ce6565b5b6000610dfc85828601610d39565b9250506020610e0d85828601610d6f565b9150509250929050565b600081519050919050565b600082825260208201905092915050565b60005b83811015610e51578082015181840152602081019050610e36565b83811115610e60576000848401525b50505050565b6000601f19601f8301169050919050565b6000610e8282610e17565b610e8c8185610e22565b9350610e9c818560208601610e33565b610ea581610e66565b840191505092915050565b60006020820190508181036000830152610eca8184610e77565b905092915050565b6000819050919050565b6000610ef7610ef2610eed84610cf0565b610ed2565b610cf0565b9050919050565b6000610f0982610edc565b9050919050565b6000610f1b82610efe565b9050919050565b610f2b81610f10565b82525050565b6000602082019050610f466000830184610f22565b92915050565b600080fd5b600080fd5b7f4e487b7100000000000000000000000000000000000000000000000000000000600052604160045260246000fd5b610f8e82610e66565b810181811067ffffffffffffffff82111715610fad57610fac610f56565b5b80604052505050565b6000610fc0610cdc565b9050610fcc8282610f85565b919050565b600067ffffffffffffffff821115610fec57610feb610f56565b5b610ff582610e66565b9050602081019050919050565b82818337600083830152505050565b600061102461101f84610fd1565b610fb6565b9050828152602081018484840111156110405761103f610f51565b5b61104b848285611002565b509392505050565b600082601f83011261106857611067610f4c565b5b8135611078848260208601611011565b91505092915050565b60008060008060008060c0878903121561109e5761109d610ce6565b5b60006110ac89828a01610d39565b96505060206110bd89828a01610d39565b955050604087013567ffffffffffffffff8111156110de576110dd610ceb565b5b6110ea89828a01611053565b945050606087013567ffffffffffffffff81111561110b5761110a610ceb565b5b61111789828a01611053565b935050608087013567ffffffffffffffff81111561113857611137610ceb565b5b61114489828a01611053565b92505060a087013567ffffffffffffffff81111561116557611164610ceb565b5b61117189828a01611053565b9150509295509295509295565b7f54686520636f6c6c656374696f6e2061646472657373206e6565647320746f2060008201527f626520646966666572656e742066726f6d207a65726f2e000000000000000000602082015250565b60006111da603783610e22565b91506111e58261117e565b604082019050919050565b60006020820190508181036000830152611209816111cd565b9050919050565b60008151905061121f81610d58565b92915050565b60006020828403121561123b5761123a610ce6565b5b600061124984828501611210565b91505092915050565b7f5468697320746f6b656e20494420646f6573206e6f742065786973742e000000600082015250565b6000611288601d83610e22565b915061129382611252565b602082019050919050565b600060208201905081810360008301526112b78161127b565b9050919050565b6112c781610d4e565b82525050565b60006020820190506112e260008301846112be565b92915050565b6000815190506112f781610d22565b92915050565b60006020828403121561131357611312610ce6565b5b6000611321848285016112e8565b91505092915050565b7f54686973204e465420646f6573206e6f742062656c6f6e6720746f207468652060008201527f63757272656e74206d6573736167652073656e6465722e000000000000000000602082015250565b6000611386603783610e22565b91506113918261132a565b604082019050919050565b600060208201905081810360008301526113b581611379565b9050919050565b7f506c6561736520646566696e6520612073656c6c696e6720707269636520686960008201527f67686572207468616e207a65726f2e0000000000000000000000000000000000602082015250565b6000611418602f83610e22565b9150611423826113bc565b604082019050919050565b600060208201905081810360008301526114478161140b565b9050919050565b600060408201905061146360008301856112be565b61147060208301846112be565b9392505050565b600061148a61148584610fd1565b610fb6565b9050828152602081018484840111156114a6576114a5610f51565b5b6114b1848285610e33565b509392505050565b600082601f8301126114ce576114cd610f4c565b5b81516114de848260208601611477565b91505092915050565b6000602082840312156114fd576114fc610ce6565b5b600082015167ffffffffffffffff81111561151b5761151a610ceb565b5b611527848285016114b9565b91505092915050565b7f54686520757365722061646472657373206e6565647320746f2062652064696660008201527f666572656e742066726f6d207a65726f2e000000000000000000000000000000602082015250565b600061158c603183610e22565b915061159782611530565b604082019050919050565b600060208201905081810360008301526115bb8161157f565b9050919050565b6115cb81610d10565b82525050565b6000819050919050565b60006115f66115f16115ec846115d1565b610ed2565b610d4e565b9050919050565b611606816115db565b82525050565b60008115159050919050565b6116218161160c565b82525050565b60006101408201905061163d600083018d6115c2565b61164a602083018c6115c2565b818103604083015261165c818b610e77565b90508181036060830152611670818a610e77565b905081810360808301526116848189610e77565b905081810360a08301526116988188610e77565b90506116a760c08301876115c2565b6116b460e08301866115fd565b6116c2610100830185611618565b6116d0610120830184611618565b9b9a5050505050505050505050565b7f54686973204e4654206973206e6f7420666f722073616c652e00000000000000600082015250565b6000611715601983610e22565b9150611720826116df565b602082019050919050565b6000602082019050818103600083015261174481611708565b9050919050565b600060408201905061176060008301856115c2565b61176d60208301846115c2565b9392505050565b7f43594f4e20746f6b656e20616c6c6f77616e636520746f6f206c6f772e000000600082015250565b60006117aa601d83610e22565b91506117b582611774565b602082019050919050565b600060208201905081810360008301526117d98161179d565b9050919050565b60006040820190506117f560008301856115c2565b61180260208301846112be565b9392505050565b6118128161160c565b811461181d57600080fd5b50565b60008151905061182f81611809565b92915050565b60006020828403121561184b5761184a610ce6565b5b600061185984828501611820565b91505092915050565b7f4661696c656420746f2073656e642043594f4e20746f20746865204e4654206f60008201527f776e65722e000000000000000000000000000000000000000000000000000000602082015250565b60006118be602583610e22565b91506118c982611862565b604082019050919050565b600060208201905081810360008301526118ed816118b1565b9050919050565b50565b6000611904600083610e22565b915061190f826118f4565b600082019050919050565b60006020820190508181036000830152611933816118f7565b9050919050565b600060608201905061194f60008301866115c2565b61195c60208301856115c2565b61196960408301846112be565b949350505050565b600060408201905061198660008301856112be565b61199360208301846115fd565b9392505050565b600060c08201905081810360008301526119b48189610e77565b90506119c360208301886115c2565b6119d060408301876112be565b6119dd60608301866115c2565b6119ea60808301856115c2565b6119f760a08301846112be565b97965050505050505056fea264697066735822122023490191cd71a49c5af628bbdd582287a71e2f9ad30466b4e2e2cbe56c1724aa64736f6c634300080d0033",
  "immutableReferences": {},
  "source": "// SPDX-License-Identifier: GPL-3.0\npragma solidity 0.8.13;\n\nimport \"./Auction.sol\";\nimport \"./NFTCollectionFactory.sol\";\nimport \"../node_modules/@openzeppelin/contracts/token/ERC20/IERC20.sol\";\n\n/// @title Master contract to manage the decentralized NFT market place \n/// @author Sebastien Gazeau, Sbastien Dupertuis et Alexis Mendoza\n/// @notice This smart contract is the link between the Dapp and the subcontracts\ncontract Master {\n    \n    //------------------------------------------------------------------------------------\n    // ----------------------------------Variables----------------------------------------\n    //------------------------------------------------------------------------------------\n    IERC20 public tokenCYON;\n\n    //------------------------------------------------------------------------------------\n    // ------------------------------------Events-----------------------------------------\n    //------------------------------------------------------------------------------------\n    /// @notice event for NFT sales\n    /// @param _collectionName Name of the NFT collection\n    /// @param _collectionAddress Address of the collection\n    /// @param _tokenID The ID of this given NFT\n    /// @param _oldOwner Previous owner of the sold NFT\n    /// @param _newOwner New owner of the bought NFT\n    /// @param _price The sale price of the given NFT\n    event NFTSold(string _collectionName, address _collectionAddress, uint256 _tokenID, address _oldOwner, address _newOwner, uint256 _price);\n\n    //------------------------------------------------------------------------------------\n    // ----------------------------------Constructor--------------------------------------\n    //------------------------------------------------------------------------------------\n    /// @notice The constructor the Master smart contract\n    /// @param _addressCYON The ERC20 address of the platform token (CYON) \n    constructor(address _addressCYON) {\n        tokenCYON = IERC20(_addressCYON);\n    }\n\n    //------------------------------------------------------------------------------------\n    // -----------------------------------Functions---------------------------------------\n    //------------------------------------------------------------------------------------\n    /// @notice This function allows to create NFTs inside a collection and mint it directly\n    /// @dev Call this function when the user wants to create a new NFT and mint it to the given address\n    /// @param _collectionAddress The address of the collection in which the NFT will be created/minted\n    /// @param _firstOwner The destination address to which the NFT is minted\n    /// @param _tokenURI The metadata through a link URI\n    /// @param _name Name of the new NFT\n    /// @param _description Description of the new NFT\n    /// @param _tag Tag of the new NFT allowing filtering\n    function createNFT(address _collectionAddress, address _firstOwner, string memory _tokenURI, string memory _name, \n        string memory _description, string memory _tag) external {\n            require(_collectionAddress != address(0),\"The collection address needs to be different from zero.\");\n            require(_firstOwner != address(0),\"The user address needs to be different from zero.\");  \n\n            NFTCollections(_collectionAddress).MintNFT(_firstOwner,msg.sender,_tokenURI,_name,_description,_tag,address(tokenCYON),0,false,false);\n        }\n\n\n    /// @notice This function allows to set the price of the given NFT\n    /// @dev Call this function when a sale is initiated\n    /// @param _collectionAddress The address of the collection of the NFT to set the price\n    /// @param _tokenID The token ID of the NFT to set the price\n    /// @param _price The price to set\n    function setNewPrice(address _collectionAddress, uint256 _tokenID, uint256 _price) external {\n        require(_collectionAddress != address(0),\"The collection address needs to be different from zero.\");    // Make sure the address is different from zero\n        require((_tokenID <= NFTCollections(_collectionAddress).getTotalSupply()) && (_tokenID > 0), \"This token ID does not exist.\");      // Make sure the token ID exists\n        require(NFTCollections(_collectionAddress).ownerOf(_tokenID) == msg.sender,\"This NFT does not belong to the current message sender.\");  // Make sure the sale comes from the owner\n        require(_price > 0,\"Please define a selling price higher than zero.\");                                  // Make sure the price is more than zero\n\n        NFTCollections(_collectionAddress).setPrice(_tokenID,_price);\n    }\n\n    /// @notice This function allows to transfer the money to the NFT owner and the NFT to the buyer.\n    /// @dev Call this function when a buyer click on the BUY button\n    /// @param _collectionAddress The address of the collection of the NFT to be sold/transfered\n    /// @param _tokenID The token ID of the NFT to be sold/transfered\n    function buyNFT(address _collectionAddress, uint256 _tokenID) external payable {\n        // Global requires\n        require(_collectionAddress != address(0),\"The collection address needs to be different from zero.\");    // Make sure the address is different from zero\n        uint256 price = NFTCollections(_collectionAddress).getPrice(_tokenID);\n        require(price > 0,\"This NFT is not for sale.\");     // Make sure the NFT is for sale\n    \n        // Send the CYON to the current NFT owner\n        require(tokenCYON.allowance(msg.sender, address(this)) >= price, \"CYON token allowance too low.\");      // Make sure the Master contract has the allowance to manage the CYON transfer\n        address currentOwner = NFTCollections(_collectionAddress).ownerOf(_tokenID);\n        bool sent = tokenCYON.transfer(currentOwner, price);\n        require(sent, \"Failed to send CYON to the NFT owner.\");\n\n        // Send the NFT to the new owner\n        require(NFTCollections(_collectionAddress).getApproved(_tokenID) == address(this),\"\");       // Make sure the Master contract has the allowance to manage the NFT transfer\n        NFTCollections(_collectionAddress).safeTransferFrom(currentOwner, msg.sender, _tokenID);\n\n        // Reset the price to 0 after the sale\n        NFTCollections(_collectionAddress).setPrice(_tokenID,0);\n\n        emit NFTSold(NFTCollections(_collectionAddress).name(), _collectionAddress, _tokenID, currentOwner, msg.sender, price);\n    }\n\n\n    //------------------------------------------------------------------------------------\n    // ------------------------------------Getters----------------------------------------\n    //------------------------------------------------------------------------------------\n    /// @notice This function returns the URI data of the given NFT\n    /// @dev Call this function to get the metadata of the NFT\n    /// @param _collectionAddress The address of the collection of the NFT to get the URI\n    /// @param _tokenID The token ID of the NFT to get the URI\n    /// @return _URI The URI data\n    function getURI(address _collectionAddress, uint256 _tokenID) external view returns (string memory) {\n        require((_tokenID <= NFTCollections(_collectionAddress).getTotalSupply()) && (_tokenID > 0), \"This token ID does not exist.\");      // Make sure the token ID exists\n        return(NFTCollections(_collectionAddress).tokenURI(_tokenID));\n    }\n}\n",
  "sourcePath": "/home/alexis/Projects/project-nft-cyon/contracts/Master.sol",
  "compiler": {
    "name": "solc",
    "version": "0.8.13+commit.abaa5c0e.Emscripten.clang"
  },
  "schemaVersion": "3.4.7",
  "updatedAt": "2022-05-13T14:01:18.775Z",
  "networkType": "ethereum",
  "devdoc": {
    "author": "Sebastien Gazeau, Sbastien Dupertuis et Alexis Mendoza",
    "events": {
      "NFTSold(string,address,uint256,address,address,uint256)": {
        "params": {
          "_collectionAddress": "Address of the collection",
          "_collectionName": "Name of the NFT collection",
          "_newOwner": "New owner of the bought NFT",
          "_oldOwner": "Previous owner of the sold NFT",
          "_price": "The sale price of the given NFT",
          "_tokenID": "The ID of this given NFT"
        }
      }
    },
    "kind": "dev",
    "methods": {
      "buyNFT(address,uint256)": {
        "details": "Call this function when a buyer click on the BUY button",
        "params": {
          "_collectionAddress": "The address of the collection of the NFT to be sold/transfered",
          "_tokenID": "The token ID of the NFT to be sold/transfered"
        }
      },
      "constructor": {
        "params": {
          "_addressCYON": "The ERC20 address of the platform token (CYON) "
        }
      },
      "createNFT(address,address,string,string,string,string)": {
        "details": "Call this function when the user wants to create a new NFT and mint it to the given address",
        "params": {
          "_collectionAddress": "The address of the collection in which the NFT will be created/minted",
          "_description": "Description of the new NFT",
          "_firstOwner": "The destination address to which the NFT is minted",
          "_name": "Name of the new NFT",
          "_tag": "Tag of the new NFT allowing filtering",
          "_tokenURI": "The metadata through a link URI"
        }
      },
      "getURI(address,uint256)": {
        "details": "Call this function to get the metadata of the NFT",
        "params": {
          "_collectionAddress": "The address of the collection of the NFT to get the URI",
          "_tokenID": "The token ID of the NFT to get the URI"
        },
        "returns": {
          "_0": "_URI The URI data"
        }
      },
      "setNewPrice(address,uint256,uint256)": {
        "details": "Call this function when a sale is initiated",
        "params": {
          "_collectionAddress": "The address of the collection of the NFT to set the price",
          "_price": "The price to set",
          "_tokenID": "The token ID of the NFT to set the price"
        }
      }
    },
    "title": "Master contract to manage the decentralized NFT market place ",
    "version": 1
  },
  "userdoc": {
    "events": {
      "NFTSold(string,address,uint256,address,address,uint256)": {
        "notice": "event for NFT sales"
      }
    },
    "kind": "user",
    "methods": {
      "buyNFT(address,uint256)": {
        "notice": "This function allows to transfer the money to the NFT owner and the NFT to the buyer."
      },
      "constructor": {
        "notice": "The constructor the Master smart contract"
      },
      "createNFT(address,address,string,string,string,string)": {
        "notice": "This function allows to create NFTs inside a collection and mint it directly"
      },
      "getURI(address,uint256)": {
        "notice": "This function returns the URI data of the given NFT"
      },
      "setNewPrice(address,uint256,uint256)": {
        "notice": "This function allows to set the price of the given NFT"
      }
    },
    "notice": "This smart contract is the link between the Dapp and the subcontracts",
    "version": 1
  }
}