{
  "contractName": "Master",
  "abi": [
    {
      "inputs": [
        {
          "internalType": "address",
          "name": "_addressCYON",
          "type": "address"
        }
      ],
      "stateMutability": "nonpayable",
      "type": "constructor"
    },
    {
      "anonymous": false,
      "inputs": [
        {
          "indexed": false,
          "internalType": "address",
          "name": "_nftCollectionAddress",
          "type": "address"
        },
        {
          "indexed": false,
          "internalType": "uint256",
          "name": "_nftTokenID",
          "type": "uint256"
        },
        {
          "indexed": false,
          "internalType": "address",
          "name": "_newOwner",
          "type": "address"
        },
        {
          "indexed": false,
          "internalType": "uint256",
          "name": "_price",
          "type": "uint256"
        }
      ],
      "name": "AuctionClosed",
      "type": "event"
    },
    {
      "anonymous": false,
      "inputs": [
        {
          "indexed": false,
          "internalType": "address",
          "name": "_nftCollectionAddress",
          "type": "address"
        },
        {
          "indexed": false,
          "internalType": "uint256",
          "name": "_nftTokenID",
          "type": "uint256"
        },
        {
          "indexed": false,
          "internalType": "address",
          "name": "_owner",
          "type": "address"
        }
      ],
      "name": "AuctionStarted",
      "type": "event"
    },
    {
      "anonymous": false,
      "inputs": [
        {
          "indexed": false,
          "internalType": "address",
          "name": "_nftCollectionAddress",
          "type": "address"
        },
        {
          "indexed": false,
          "internalType": "uint256",
          "name": "_nftTokenID",
          "type": "uint256"
        },
        {
          "indexed": false,
          "internalType": "address",
          "name": "_bidder",
          "type": "address"
        },
        {
          "indexed": false,
          "internalType": "uint256",
          "name": "_newBid",
          "type": "uint256"
        }
      ],
      "name": "HighestBidIncreased",
      "type": "event"
    },
    {
      "anonymous": false,
      "inputs": [
        {
          "indexed": false,
          "internalType": "string",
          "name": "_collectionName",
          "type": "string"
        },
        {
          "indexed": false,
          "internalType": "address",
          "name": "_collectionAddress",
          "type": "address"
        },
        {
          "indexed": false,
          "internalType": "uint256",
          "name": "_tokenID",
          "type": "uint256"
        },
        {
          "indexed": false,
          "internalType": "address",
          "name": "_oldOwner",
          "type": "address"
        },
        {
          "indexed": false,
          "internalType": "address",
          "name": "_newOwner",
          "type": "address"
        },
        {
          "indexed": false,
          "internalType": "uint256",
          "name": "_price",
          "type": "uint256"
        },
        {
          "indexed": false,
          "internalType": "string",
          "name": "_units",
          "type": "string"
        }
      ],
      "name": "NFTSold",
      "type": "event"
    },
    {
      "inputs": [
        {
          "internalType": "address",
          "name": "_nftCollectionAddress",
          "type": "address"
        },
        {
          "internalType": "uint256",
          "name": "_nftTokenID",
          "type": "uint256"
        }
      ],
      "name": "bid",
      "outputs": [],
      "stateMutability": "payable",
      "type": "function",
      "payable": true
    },
    {
      "inputs": [
        {
          "internalType": "address",
          "name": "_nftCollectionAddress",
          "type": "address"
        },
        {
          "internalType": "uint256",
          "name": "_nftTokenID",
          "type": "uint256"
        }
      ],
      "name": "checkAuctionTimeExpired",
      "outputs": [
        {
          "internalType": "bool",
          "name": "",
          "type": "bool"
        }
      ],
      "stateMutability": "view",
      "type": "function",
      "constant": true
    },
    {
      "inputs": [
        {
          "internalType": "address",
          "name": "_nftCollectionAddress",
          "type": "address"
        },
        {
          "internalType": "uint256",
          "name": "_nftTokenID",
          "type": "uint256"
        }
      ],
      "name": "getBiddersAmount",
      "outputs": [
        {
          "internalType": "uint256",
          "name": "",
          "type": "uint256"
        }
      ],
      "stateMutability": "view",
      "type": "function",
      "constant": true
    },
    {
      "inputs": [
        {
          "internalType": "address",
          "name": "_nftCollectionAddress",
          "type": "address"
        },
        {
          "internalType": "uint256",
          "name": "_nftTokenID",
          "type": "uint256"
        }
      ],
      "name": "getCurrentHighestBid",
      "outputs": [
        {
          "internalType": "uint256",
          "name": "",
          "type": "uint256"
        }
      ],
      "stateMutability": "view",
      "type": "function",
      "constant": true
    },
    {
      "inputs": [
        {
          "internalType": "address",
          "name": "_nftCollectionAddress",
          "type": "address"
        },
        {
          "internalType": "uint256",
          "name": "_nftTokenID",
          "type": "uint256"
        }
      ],
      "name": "getCurrentHighestBidder",
      "outputs": [
        {
          "internalType": "address",
          "name": "",
          "type": "address"
        }
      ],
      "stateMutability": "view",
      "type": "function",
      "constant": true
    },
    {
      "inputs": [
        {
          "internalType": "address",
          "name": "_nftCollectionAddress",
          "type": "address"
        },
        {
          "internalType": "uint256",
          "name": "_nftTokenID",
          "type": "uint256"
        }
      ],
      "name": "getPendingRefunds",
      "outputs": [
        {
          "internalType": "uint256",
          "name": "",
          "type": "uint256"
        }
      ],
      "stateMutability": "view",
      "type": "function",
      "constant": true
    },
    {
      "inputs": [
        {
          "internalType": "address",
          "name": "_nftCollectionAddress",
          "type": "address"
        },
        {
          "internalType": "uint256",
          "name": "_nftTokenID",
          "type": "uint256"
        }
      ],
      "name": "getTotalBid",
      "outputs": [
        {
          "internalType": "uint256",
          "name": "",
          "type": "uint256"
        }
      ],
      "stateMutability": "view",
      "type": "function",
      "constant": true
    },
    {
      "inputs": [
        {
          "internalType": "address",
          "name": "_nftCollectionAddress",
          "type": "address"
        },
        {
          "internalType": "uint256",
          "name": "_nftTokenID",
          "type": "uint256"
        }
      ],
      "name": "isInAuction",
      "outputs": [
        {
          "internalType": "bool",
          "name": "",
          "type": "bool"
        }
      ],
      "stateMutability": "view",
      "type": "function",
      "constant": true
    },
    {
      "inputs": [
        {
          "internalType": "address",
          "name": "_nftCollectionAddress",
          "type": "address"
        },
        {
          "internalType": "uint256",
          "name": "_nftTokenID",
          "type": "uint256"
        },
        {
          "internalType": "uint256",
          "name": "_biddingTime",
          "type": "uint256"
        }
      ],
      "name": "startAuction",
      "outputs": [],
      "stateMutability": "payable",
      "type": "function",
      "payable": true
    },
    {
      "inputs": [],
      "name": "tokenCYON",
      "outputs": [
        {
          "internalType": "contract IERC20",
          "name": "",
          "type": "address"
        }
      ],
      "stateMutability": "view",
      "type": "function",
      "constant": true
    },
    {
      "inputs": [
        {
          "internalType": "address",
          "name": "_nftCollectionAddress",
          "type": "address"
        },
        {
          "internalType": "uint256",
          "name": "_nftTokenID",
          "type": "uint256"
        }
      ],
      "name": "withdrawRefund",
      "outputs": [],
      "stateMutability": "nonpayable",
      "type": "function"
    },
    {
      "inputs": [
        {
          "internalType": "address",
          "name": "_collectionAddress",
          "type": "address"
        },
        {
          "internalType": "address",
          "name": "_firstOwner",
          "type": "address"
        },
        {
          "internalType": "string",
          "name": "_tokenURI",
          "type": "string"
        },
        {
          "internalType": "string",
          "name": "_name",
          "type": "string"
        },
        {
          "internalType": "string",
          "name": "_description",
          "type": "string"
        },
        {
          "internalType": "string",
          "name": "_tag",
          "type": "string"
        }
      ],
      "name": "createNFT",
      "outputs": [
        {
          "internalType": "uint256",
          "name": "",
          "type": "uint256"
        }
      ],
      "stateMutability": "nonpayable",
      "type": "function"
    },
    {
      "inputs": [
        {
          "internalType": "address",
          "name": "_collectionAddress",
          "type": "address"
        },
        {
          "internalType": "uint256",
          "name": "_tokenID",
          "type": "uint256"
        },
        {
          "internalType": "uint256",
          "name": "_price",
          "type": "uint256"
        }
      ],
      "name": "setNewPrice",
      "outputs": [],
      "stateMutability": "nonpayable",
      "type": "function"
    },
    {
      "inputs": [
        {
          "internalType": "address",
          "name": "_collectionAddress",
          "type": "address"
        },
        {
          "internalType": "uint256",
          "name": "_tokenID",
          "type": "uint256"
        }
      ],
      "name": "buyNFT",
      "outputs": [],
      "stateMutability": "payable",
      "type": "function",
      "payable": true
    },
    {
      "inputs": [
        {
          "internalType": "address",
          "name": "_collectionAddress",
          "type": "address"
        },
        {
          "internalType": "uint256",
          "name": "_tokenID",
          "type": "uint256"
        }
      ],
      "name": "requestAuction",
      "outputs": [
        {
          "internalType": "bool",
          "name": "",
          "type": "bool"
        }
      ],
      "stateMutability": "nonpayable",
      "type": "function"
    },
    {
      "inputs": [
        {
          "internalType": "address",
          "name": "_collectionAddress",
          "type": "address"
        },
        {
          "internalType": "uint256",
          "name": "_tokenID",
          "type": "uint256"
        }
      ],
      "name": "closeAuction",
      "outputs": [],
      "stateMutability": "nonpayable",
      "type": "function"
    },
    {
      "inputs": [
        {
          "internalType": "address",
          "name": "_collectionAddress",
          "type": "address"
        },
        {
          "internalType": "uint256",
          "name": "_tokenID",
          "type": "uint256"
        }
      ],
      "name": "getURI",
      "outputs": [
        {
          "internalType": "string",
          "name": "",
          "type": "string"
        }
      ],
      "stateMutability": "view",
      "type": "function",
      "constant": true
    }
  ],
  "bytecode": "0x60806040523480156200001157600080fd5b50604051620053c5380380620053c58339818101604052810190620000379190620000e9565b80600160006101000a81548173ffffffffffffffffffffffffffffffffffffffff021916908373ffffffffffffffffffffffffffffffffffffffff160217905550506200011b565b600080fd5b600073ffffffffffffffffffffffffffffffffffffffff82169050919050565b6000620000b18262000084565b9050919050565b620000c381620000a4565b8114620000cf57600080fd5b50565b600081519050620000e381620000b8565b92915050565b6000602082840312156200010257620001016200007f565b5b60006200011284828501620000d2565b91505092915050565b61529a806200012b6000396000f3fe6080604052600436106100fe5760003560e01c806359d667a511610095578063c079139011610064578063c07913901461032e578063cceb2a4c1461036b578063d189ab19146103a8578063d35bfa95146103e5578063f27eede014610422576100fe565b806359d667a51461027c5780637b50315e14610298578063811ca7cf146102d5578063a82ba76f14610312576100fe565b806347237162116100d157806347237162146101cf578063501948951461020c57806353ea4d8a1461023757806356dd475514610260576100fe565b806320a564e61461010357806328d4ae0f14610140578063438364a114610169578063469298b114610192575b600080fd5b34801561010f57600080fd5b5061012a60048036038101906101259190613b4d565b61045f565b6040516101379190613b9c565b60405180910390f35b34801561014c57600080fd5b5061016760048036038101906101629190613bb7565b6105c9565b005b34801561017557600080fd5b50610190600480360381019061018b9190613b4d565b6107d4565b005b34801561019e57600080fd5b506101b960048036038101906101b49190613b4d565b611002565b6040516101c69190613b9c565b60405180910390f35b3480156101db57600080fd5b506101f660048036038101906101f19190613b4d565b61116f565b6040516102039190613ca3565b60405180910390f35b34801561021857600080fd5b50610221611273565b60405161022e9190613d24565b60405180910390f35b34801561024357600080fd5b5061025e60048036038101906102599190613b4d565b611299565b005b61027a60048036038101906102759190613bb7565b61164a565b005b61029660048036038101906102919190613b4d565b611bca565b005b3480156102a457600080fd5b506102bf60048036038101906102ba9190613b4d565b612588565b6040516102cc9190613d5a565b60405180910390f35b3480156102e157600080fd5b506102fc60048036038101906102f79190613eaa565b6126f5565b6040516103099190613b9c565b60405180910390f35b61032c60048036038101906103279190613b4d565b612892565b005b34801561033a57600080fd5b5061035560048036038101906103509190613b4d565b612e85565b6040516103629190613b9c565b60405180910390f35b34801561037757600080fd5b50610392600480360381019061038d9190613b4d565b612f8d565b60405161039f9190613d5a565b60405180910390f35b3480156103b457600080fd5b506103cf60048036038101906103ca9190613b4d565b613065565b6040516103dc9190613d5a565b60405180910390f35b3480156103f157600080fd5b5061040c60048036038101906104079190613b4d565b61328d565b6040516104199190613fb6565b60405180910390f35b34801561042e57600080fd5b5061044960048036038101906104449190613b4d565b613417565b6040516104569190613b9c565b60405180910390f35b60008073ffffffffffffffffffffffffffffffffffffffff168373ffffffffffffffffffffffffffffffffffffffff16036104cf576040517f08c379a00000000000000000000000000000000000000000000000000000000081526004016104c690614043565b60405180910390fd5b6000808473ffffffffffffffffffffffffffffffffffffffff1673ffffffffffffffffffffffffffffffffffffffff168152602001908152602001600020600083815260200190815260200160002060000160149054906101000a900460ff1661056e576040517f08c379a0000000000000000000000000000000000000000000000000000000008152600401610565906140d5565b60405180910390fd5b6000808473ffffffffffffffffffffffffffffffffffffffff1673ffffffffffffffffffffffffffffffffffffffff168152602001908152602001600020600083815260200190815260200160002060030154905092915050565b600073ffffffffffffffffffffffffffffffffffffffff168373ffffffffffffffffffffffffffffffffffffffff1603610638576040517f08c379a000000000000000000000000000000000000000000000000000000000815260040161062f90614043565b60405180910390fd5b3373ffffffffffffffffffffffffffffffffffffffff168373ffffffffffffffffffffffffffffffffffffffff16636352211e846040518263ffffffff1660e01b81526004016106889190613b9c565b602060405180830381865afa1580156106a5573d6000803e3d6000fd5b505050506040513d601f19601f820116820180604052508101906106c9919061410a565b73ffffffffffffffffffffffffffffffffffffffff161461071f576040517f08c379a0000000000000000000000000000000000000000000000000000000008152600401610716906141a9565b60405180910390fd5b60008111610762576040517f08c379a00000000000000000000000000000000000000000000000000000000081526004016107599061423b565b60405180910390fd5b8273ffffffffffffffffffffffffffffffffffffffff1663f7d9757783836040518363ffffffff1660e01b815260040161079d92919061425b565b600060405180830381600087803b1580156107b757600080fd5b505af11580156107cb573d6000803e3d6000fd5b50505050505050565b600073ffffffffffffffffffffffffffffffffffffffff168273ffffffffffffffffffffffffffffffffffffffff1603610843576040517f08c379a000000000000000000000000000000000000000000000000000000000815260040161083a90614043565b60405180910390fd5b8173ffffffffffffffffffffffffffffffffffffffff16636352211e826040518263ffffffff1660e01b815260040161087c9190613b9c565b602060405180830381865afa158015610899573d6000803e3d6000fd5b505050506040513d601f19601f820116820180604052508101906108bd919061410a565b503073ffffffffffffffffffffffffffffffffffffffff1663cceb2a4c83836040518363ffffffff1660e01b81526004016108f9929190614284565b602060405180830381865afa158015610916573d6000803e3d6000fd5b505050506040513d601f19601f8201168201806040525081019061093a91906142d9565b610979576040517f08c379a000000000000000000000000000000000000000000000000000000000815260040161097090614378565b60405180910390fd5b3073ffffffffffffffffffffffffffffffffffffffff16637b50315e83836040518363ffffffff1660e01b81526004016109b4929190614284565b602060405180830381865afa1580156109d1573d6000803e3d6000fd5b505050506040513d601f19601f820116820180604052508101906109f591906142d9565b610a34576040517f08c379a0000000000000000000000000000000000000000000000000000000008152600401610a2b9061440a565b60405180910390fd5b60003073ffffffffffffffffffffffffffffffffffffffff166320a564e684846040518363ffffffff1660e01b8152600401610a71929190614284565b602060405180830381865afa158015610a8e573d6000803e3d6000fd5b505050506040513d601f19601f82011682018060405250810190610ab2919061443f565b905060008373ffffffffffffffffffffffffffffffffffffffff16636352211e846040518263ffffffff1660e01b8152600401610aef9190613b9c565b602060405180830381865afa158015610b0c573d6000803e3d6000fd5b505050506040513d601f19601f82011682018060405250810190610b30919061410a565b905060003073ffffffffffffffffffffffffffffffffffffffff1663d35bfa9586866040518363ffffffff1660e01b8152600401610b6f929190614284565b602060405180830381865afa158015610b8c573d6000803e3d6000fd5b505050506040513d601f19601f82011682018060405250810190610bb0919061410a565b9050600073ffffffffffffffffffffffffffffffffffffffff168173ffffffffffffffffffffffffffffffffffffffff1603610c21576040517f08c379a0000000000000000000000000000000000000000000000000000000008152600401610c18906144de565b60405180910390fd5b6000831115610ffb5760008273ffffffffffffffffffffffffffffffffffffffff1684604051610c509061452f565b60006040518083038185875af1925050503d8060008114610c8d576040519150601f19603f3d011682016040523d82523d6000602084013e610c92565b606091505b5050905080610cd6576040517f08c379a0000000000000000000000000000000000000000000000000000000008152600401610ccd906145b6565b60405180910390fd5b8273ffffffffffffffffffffffffffffffffffffffff168273ffffffffffffffffffffffffffffffffffffffff1614610fef578573ffffffffffffffffffffffffffffffffffffffff1663f7d9757786866040518363ffffffff1660e01b8152600401610d4492919061425b565b600060405180830381600087803b158015610d5e57600080fd5b505af1158015610d72573d6000803e3d6000fd5b505050503073ffffffffffffffffffffffffffffffffffffffff168673ffffffffffffffffffffffffffffffffffffffff1663081812fc876040518263ffffffff1660e01b8152600401610dc69190613b9c565b602060405180830381865afa158015610de3573d6000803e3d6000fd5b505050506040513d601f19601f82011682018060405250810190610e07919061410a565b73ffffffffffffffffffffffffffffffffffffffff1614610e5d576040517f08c379a0000000000000000000000000000000000000000000000000000000008152600401610e5490614648565b60405180910390fd5b8573ffffffffffffffffffffffffffffffffffffffff166342842e0e8484886040518463ffffffff1660e01b8152600401610e9a93929190614668565b600060405180830381600087803b158015610eb457600080fd5b505af1158015610ec8573d6000803e3d6000fd5b505050508573ffffffffffffffffffffffffffffffffffffffff1663f7d975778660006040518363ffffffff1660e01b8152600401610f089291906146da565b600060405180830381600087803b158015610f2257600080fd5b505af1158015610f36573d6000803e3d6000fd5b505050507f746c6af116c0281aa3f3d8cecf00764b0e9b9ff8f4b82331cc4155f549572a9d8673ffffffffffffffffffffffffffffffffffffffff166306fdde036040518163ffffffff1660e01b8152600401600060405180830381865afa158015610fa6573d6000803e3d6000fd5b505050506040513d6000823e3d601f19601f82011682018060405250810190610fcf9190614773565b8787868689604051610fe696959493929190614808565b60405180910390a15b610ff9868661351f565b505b5050505050565b60008073ffffffffffffffffffffffffffffffffffffffff168373ffffffffffffffffffffffffffffffffffffffff1603611072576040517f08c379a000000000000000000000000000000000000000000000000000000000815260040161106990614043565b60405180910390fd5b6000808473ffffffffffffffffffffffffffffffffffffffff1673ffffffffffffffffffffffffffffffffffffffff168152602001908152602001600020600083815260200190815260200160002060000160149054906101000a900460ff16611111576040517f08c379a0000000000000000000000000000000000000000000000000000000008152600401611108906140d5565b60405180910390fd5b6000808473ffffffffffffffffffffffffffffffffffffffff1673ffffffffffffffffffffffffffffffffffffffff168152602001908152602001600020600083815260200190815260200160002060060180549050905092915050565b60608273ffffffffffffffffffffffffffffffffffffffff16636352211e836040518263ffffffff1660e01b81526004016111aa9190613b9c565b602060405180830381865afa1580156111c7573d6000803e3d6000fd5b505050506040513d601f19601f820116820180604052508101906111eb919061410a565b508273ffffffffffffffffffffffffffffffffffffffff1663c87b56dd836040518263ffffffff1660e01b81526004016112259190613b9c565b600060405180830381865afa158015611242573d6000803e3d6000fd5b505050506040513d6000823e3d601f19601f8201168201806040525081019061126b9190614773565b905092915050565b600160009054906101000a900473ffffffffffffffffffffffffffffffffffffffff1681565b600073ffffffffffffffffffffffffffffffffffffffff168273ffffffffffffffffffffffffffffffffffffffff1603611308576040517f08c379a00000000000000000000000000000000000000000000000000000000081526004016112ff90614043565b60405180910390fd5b60008060008473ffffffffffffffffffffffffffffffffffffffff1673ffffffffffffffffffffffffffffffffffffffff168152602001908152602001600020600083815260200190815260200160002060040160003373ffffffffffffffffffffffffffffffffffffffff1673ffffffffffffffffffffffffffffffffffffffff16815260200190815260200160002054116113da576040517f08c379a00000000000000000000000000000000000000000000000000000000081526004016113d1906148f5565b60405180910390fd5b60008060008473ffffffffffffffffffffffffffffffffffffffff1673ffffffffffffffffffffffffffffffffffffffff168152602001908152602001600020600083815260200190815260200160002060040160003373ffffffffffffffffffffffffffffffffffffffff1673ffffffffffffffffffffffffffffffffffffffff16815260200190815260200160002054905060008060008573ffffffffffffffffffffffffffffffffffffffff1673ffffffffffffffffffffffffffffffffffffffff168152602001908152602001600020600084815260200190815260200160002060040160003373ffffffffffffffffffffffffffffffffffffffff1673ffffffffffffffffffffffffffffffffffffffff1681526020019081526020016000208190555060008060008573ffffffffffffffffffffffffffffffffffffffff1673ffffffffffffffffffffffffffffffffffffffff168152602001908152602001600020600084815260200190815260200160002060050160003373ffffffffffffffffffffffffffffffffffffffff1673ffffffffffffffffffffffffffffffffffffffff1681526020019081526020016000208190555060003373ffffffffffffffffffffffffffffffffffffffff16826040516115be9061452f565b60006040518083038185875af1925050503d80600081146115fb576040519150601f19603f3d011682016040523d82523d6000602084013e611600565b606091505b5050905080611644576040517f08c379a000000000000000000000000000000000000000000000000000000000815260040161163b90614987565b60405180910390fd5b50505050565b600073ffffffffffffffffffffffffffffffffffffffff168373ffffffffffffffffffffffffffffffffffffffff16036116b9576040517f08c379a00000000000000000000000000000000000000000000000000000000081526004016116b090614043565b60405180910390fd5b3373ffffffffffffffffffffffffffffffffffffffff166000808573ffffffffffffffffffffffffffffffffffffffff1673ffffffffffffffffffffffffffffffffffffffff168152602001908152602001600020600084815260200190815260200160002060000160009054906101000a900473ffffffffffffffffffffffffffffffffffffffff1673ffffffffffffffffffffffffffffffffffffffff1614611799576040517f08c379a000000000000000000000000000000000000000000000000000000000815260040161179090614a19565b60405180910390fd5b6000808473ffffffffffffffffffffffffffffffffffffffff1673ffffffffffffffffffffffffffffffffffffffff168152602001908152602001600020600083815260200190815260200160002060000160149054906101000a900460ff1615611839576040517f08c379a000000000000000000000000000000000000000000000000000000000815260040161183090614aab565b60405180910390fd5b6000811161187c576040517f08c379a000000000000000000000000000000000000000000000000000000000815260040161187390614b3d565b60405180910390fd5b80426118889190614b8c565b6000808573ffffffffffffffffffffffffffffffffffffffff1673ffffffffffffffffffffffffffffffffffffffff168152602001908152602001600020600084815260200190815260200160002060010181905550336000808573ffffffffffffffffffffffffffffffffffffffff1673ffffffffffffffffffffffffffffffffffffffff168152602001908152602001600020600084815260200190815260200160002060020160006101000a81548173ffffffffffffffffffffffffffffffffffffffff021916908373ffffffffffffffffffffffffffffffffffffffff160217905550346000808573ffffffffffffffffffffffffffffffffffffffff1673ffffffffffffffffffffffffffffffffffffffff16815260200190815260200160002060008481526020019081526020016000206003018190555060016000808573ffffffffffffffffffffffffffffffffffffffff1673ffffffffffffffffffffffffffffffffffffffff168152602001908152602001600020600084815260200190815260200160002060000160146101000a81548160ff0219169083151502179055506000808473ffffffffffffffffffffffffffffffffffffffff1673ffffffffffffffffffffffffffffffffffffffff1681526020019081526020016000206000838152602001908152602001600020600601339080600181540180825580915050600190039060005260206000200160009091909190916101000a81548173ffffffffffffffffffffffffffffffffffffffff021916908373ffffffffffffffffffffffffffffffffffffffff160217905550346000808573ffffffffffffffffffffffffffffffffffffffff1673ffffffffffffffffffffffffffffffffffffffff168152602001908152602001600020600084815260200190815260200160002060050160003373ffffffffffffffffffffffffffffffffffffffff1673ffffffffffffffffffffffffffffffffffffffff1681526020019081526020016000206000828254611b839190614b8c565b925050819055507f881afad1f847f87e78464b076756f7b1016a2062fbff555c3c4992527cc2dbe0838333604051611bbd93929190614be2565b60405180910390a1505050565b600073ffffffffffffffffffffffffffffffffffffffff168273ffffffffffffffffffffffffffffffffffffffff1603611c39576040517f08c379a0000000000000000000000000000000000000000000000000000000008152600401611c3090614043565b60405180910390fd5b6000808373ffffffffffffffffffffffffffffffffffffffff1673ffffffffffffffffffffffffffffffffffffffff168152602001908152602001600020600082815260200190815260200160002060000160149054906101000a900460ff16611cd8576040517f08c379a0000000000000000000000000000000000000000000000000000000008152600401611ccf906140d5565b60405180910390fd5b6000808373ffffffffffffffffffffffffffffffffffffffff1673ffffffffffffffffffffffffffffffffffffffff1681526020019081526020016000206000828152602001908152602001600020600101544210611d6c576040517f08c379a0000000000000000000000000000000000000000000000000000000008152600401611d6390614c65565b60405180910390fd5b6103e86000808473ffffffffffffffffffffffffffffffffffffffff1673ffffffffffffffffffffffffffffffffffffffff16815260200190815260200160002060008381526020019081526020016000206006018054905010611e05576040517f08c379a0000000000000000000000000000000000000000000000000000000008152600401611dfc90614cf7565b60405180910390fd5b6000808373ffffffffffffffffffffffffffffffffffffffff1673ffffffffffffffffffffffffffffffffffffffff168152602001908152602001600020600082815260200190815260200160002060030154346000808573ffffffffffffffffffffffffffffffffffffffff1673ffffffffffffffffffffffffffffffffffffffff168152602001908152602001600020600084815260200190815260200160002060050160003373ffffffffffffffffffffffffffffffffffffffff1673ffffffffffffffffffffffffffffffffffffffff16815260200190815260200160002054611ef39190614b8c565b11611f33576040517f08c379a0000000000000000000000000000000000000000000000000000000008152600401611f2a90614d63565b60405180910390fd5b60008060008473ffffffffffffffffffffffffffffffffffffffff1673ffffffffffffffffffffffffffffffffffffffff168152602001908152602001600020600083815260200190815260200160002060030154146120f8576000808373ffffffffffffffffffffffffffffffffffffffff1673ffffffffffffffffffffffffffffffffffffffff1681526020019081526020016000206000828152602001908152602001600020600301546000808473ffffffffffffffffffffffffffffffffffffffff1673ffffffffffffffffffffffffffffffffffffffff168152602001908152602001600020600083815260200190815260200160002060040160008060008673ffffffffffffffffffffffffffffffffffffffff1673ffffffffffffffffffffffffffffffffffffffff168152602001908152602001600020600085815260200190815260200160002060020160009054906101000a900473ffffffffffffffffffffffffffffffffffffffff1673ffffffffffffffffffffffffffffffffffffffff1673ffffffffffffffffffffffffffffffffffffffff16815260200190815260200160002060008282546120f09190614b8c565b925050819055505b60008060008473ffffffffffffffffffffffffffffffffffffffff1673ffffffffffffffffffffffffffffffffffffffff168152602001908152602001600020600083815260200190815260200160002060050160003373ffffffffffffffffffffffffffffffffffffffff1673ffffffffffffffffffffffffffffffffffffffff1681526020019081526020016000205403612243576000808373ffffffffffffffffffffffffffffffffffffffff1673ffffffffffffffffffffffffffffffffffffffff1681526020019081526020016000206000828152602001908152602001600020600601339080600181540180825580915050600190039060005260206000200160009091909190916101000a81548173ffffffffffffffffffffffffffffffffffffffff021916908373ffffffffffffffffffffffffffffffffffffffff1602179055505b346000808473ffffffffffffffffffffffffffffffffffffffff1673ffffffffffffffffffffffffffffffffffffffff168152602001908152602001600020600083815260200190815260200160002060050160003373ffffffffffffffffffffffffffffffffffffffff1673ffffffffffffffffffffffffffffffffffffffff16815260200190815260200160002060008282546122e29190614b8c565b925050819055506000808373ffffffffffffffffffffffffffffffffffffffff1673ffffffffffffffffffffffffffffffffffffffff168152602001908152602001600020600082815260200190815260200160002060050160003373ffffffffffffffffffffffffffffffffffffffff1673ffffffffffffffffffffffffffffffffffffffff168152602001908152602001600020546000808473ffffffffffffffffffffffffffffffffffffffff1673ffffffffffffffffffffffffffffffffffffffff168152602001908152602001600020600083815260200190815260200160002060030181905550336000808473ffffffffffffffffffffffffffffffffffffffff1673ffffffffffffffffffffffffffffffffffffffff168152602001908152602001600020600083815260200190815260200160002060020160006101000a81548173ffffffffffffffffffffffffffffffffffffffff021916908373ffffffffffffffffffffffffffffffffffffffff16021790555060008060008473ffffffffffffffffffffffffffffffffffffffff1673ffffffffffffffffffffffffffffffffffffffff168152602001908152602001600020600083815260200190815260200160002060040160003373ffffffffffffffffffffffffffffffffffffffff1673ffffffffffffffffffffffffffffffffffffffff168152602001908152602001600020819055507ffab03ca36a06bc40a01733649a187387b026bc61b5ce7c1f2e0db35ff066bda88282336000808773ffffffffffffffffffffffffffffffffffffffff1673ffffffffffffffffffffffffffffffffffffffff16815260200190815260200160002060008681526020019081526020016000206003015460405161257c9493929190614d83565b60405180910390a15050565b60008073ffffffffffffffffffffffffffffffffffffffff168373ffffffffffffffffffffffffffffffffffffffff16036125f8576040517f08c379a00000000000000000000000000000000000000000000000000000000081526004016125ef90614043565b60405180910390fd5b6000808473ffffffffffffffffffffffffffffffffffffffff1673ffffffffffffffffffffffffffffffffffffffff168152602001908152602001600020600083815260200190815260200160002060000160149054906101000a900460ff16612697576040517f08c379a000000000000000000000000000000000000000000000000000000000815260040161268e906140d5565b60405180910390fd5b6000808473ffffffffffffffffffffffffffffffffffffffff1673ffffffffffffffffffffffffffffffffffffffff168152602001908152602001600020600083815260200190815260200160002060010154421015905092915050565b60008073ffffffffffffffffffffffffffffffffffffffff168773ffffffffffffffffffffffffffffffffffffffff1603612765576040517f08c379a000000000000000000000000000000000000000000000000000000000815260040161275c90614043565b60405180910390fd5b600073ffffffffffffffffffffffffffffffffffffffff168673ffffffffffffffffffffffffffffffffffffffff16036127d4576040517f08c379a00000000000000000000000000000000000000000000000000000000081526004016127cb90614e3a565b60405180910390fd5b8673ffffffffffffffffffffffffffffffffffffffff1663338e111e873388888888600160009054906101000a900473ffffffffffffffffffffffffffffffffffffffff1660008060006040518b63ffffffff1660e01b81526004016128439a99989796959493929190614e5a565b6020604051808303816000875af1158015612862573d6000803e3d6000fd5b505050506040513d601f19601f82011682018060405250810190612886919061443f565b90509695505050505050565b600073ffffffffffffffffffffffffffffffffffffffff168273ffffffffffffffffffffffffffffffffffffffff1603612901576040517f08c379a00000000000000000000000000000000000000000000000000000000081526004016128f890614043565b60405180910390fd5b60008273ffffffffffffffffffffffffffffffffffffffff1663e7572230836040518263ffffffff1660e01b815260040161293c9190613b9c565b602060405180830381865afa158015612959573d6000803e3d6000fd5b505050506040513d601f19601f8201168201806040525081019061297d919061443f565b9050600081116129c2576040517f08c379a00000000000000000000000000000000000000000000000000000000081526004016129b990614f5e565b60405180910390fd5b80600160009054906101000a900473ffffffffffffffffffffffffffffffffffffffff1673ffffffffffffffffffffffffffffffffffffffff1663dd62ed3e33306040518363ffffffff1660e01b8152600401612a20929190614f7e565b602060405180830381865afa158015612a3d573d6000803e3d6000fd5b505050506040513d601f19601f82011682018060405250810190612a61919061443f565b1015612aa2576040517f08c379a0000000000000000000000000000000000000000000000000000000008152600401612a9990614ff3565b60405180910390fd5b60008373ffffffffffffffffffffffffffffffffffffffff16636352211e846040518263ffffffff1660e01b8152600401612add9190613b9c565b602060405180830381865afa158015612afa573d6000803e3d6000fd5b505050506040513d601f19601f82011682018060405250810190612b1e919061410a565b90506000600160009054906101000a900473ffffffffffffffffffffffffffffffffffffffff1673ffffffffffffffffffffffffffffffffffffffff166323b872dd3384866040518463ffffffff1660e01b8152600401612b8193929190614668565b6020604051808303816000875af1158015612ba0573d6000803e3d6000fd5b505050506040513d601f19601f82011682018060405250810190612bc491906142d9565b905080612c06576040517f08c379a0000000000000000000000000000000000000000000000000000000008152600401612bfd90615085565b60405180910390fd5b3073ffffffffffffffffffffffffffffffffffffffff168573ffffffffffffffffffffffffffffffffffffffff1663081812fc866040518263ffffffff1660e01b8152600401612c569190613b9c565b602060405180830381865afa158015612c73573d6000803e3d6000fd5b505050506040513d601f19601f82011682018060405250810190612c97919061410a565b73ffffffffffffffffffffffffffffffffffffffff1614612ced576040517f08c379a0000000000000000000000000000000000000000000000000000000008152600401612ce490614648565b60405180910390fd5b8473ffffffffffffffffffffffffffffffffffffffff166342842e0e8333876040518463ffffffff1660e01b8152600401612d2a93929190614668565b600060405180830381600087803b158015612d4457600080fd5b505af1158015612d58573d6000803e3d6000fd5b505050508473ffffffffffffffffffffffffffffffffffffffff1663f7d975778560006040518363ffffffff1660e01b8152600401612d989291906146da565b600060405180830381600087803b158015612db257600080fd5b505af1158015612dc6573d6000803e3d6000fd5b505050507f746c6af116c0281aa3f3d8cecf00764b0e9b9ff8f4b82331cc4155f549572a9d8573ffffffffffffffffffffffffffffffffffffffff166306fdde036040518163ffffffff1660e01b8152600401600060405180830381865afa158015612e36573d6000803e3d6000fd5b505050506040513d6000823e3d601f19601f82011682018060405250810190612e5f9190614773565b8686853388604051612e76969594939291906150f1565b60405180910390a15050505050565b60008073ffffffffffffffffffffffffffffffffffffffff168373ffffffffffffffffffffffffffffffffffffffff1603612ef5576040517f08c379a0000000000000000000000000000000000000000000000000000000008152600401612eec90614043565b60405180910390fd5b6000808473ffffffffffffffffffffffffffffffffffffffff1673ffffffffffffffffffffffffffffffffffffffff168152602001908152602001600020600083815260200190815260200160002060040160003373ffffffffffffffffffffffffffffffffffffffff1673ffffffffffffffffffffffffffffffffffffffff16815260200190815260200160002054905092915050565b60008073ffffffffffffffffffffffffffffffffffffffff168373ffffffffffffffffffffffffffffffffffffffff1603612ffd576040517f08c379a0000000000000000000000000000000000000000000000000000000008152600401612ff490614043565b60405180910390fd5b6000808473ffffffffffffffffffffffffffffffffffffffff1673ffffffffffffffffffffffffffffffffffffffff168152602001908152602001600020600083815260200190815260200160002060000160149054906101000a900460ff16905092915050565b60008073ffffffffffffffffffffffffffffffffffffffff168373ffffffffffffffffffffffffffffffffffffffff16036130d5576040517f08c379a00000000000000000000000000000000000000000000000000000000081526004016130cc90614043565b60405180910390fd5b3373ffffffffffffffffffffffffffffffffffffffff168373ffffffffffffffffffffffffffffffffffffffff16636352211e846040518263ffffffff1660e01b81526004016131259190613b9c565b602060405180830381865afa158015613142573d6000803e3d6000fd5b505050506040513d601f19601f82011682018060405250810190613166919061410a565b73ffffffffffffffffffffffffffffffffffffffff16146131bc576040517f08c379a00000000000000000000000000000000000000000000000000000000081526004016131b3906141a9565b60405180910390fd5b60008373ffffffffffffffffffffffffffffffffffffffff1663e7572230846040518263ffffffff1660e01b81526004016131f79190613b9c565b602060405180830381865afa158015613214573d6000803e3d6000fd5b505050506040513d601f19601f82011682018060405250810190613238919061443f565b14613278576040517f08c379a000000000000000000000000000000000000000000000000000000000815260040161326f906151b8565b60405180910390fd5b613283838333613931565b6001905092915050565b60008073ffffffffffffffffffffffffffffffffffffffff168373ffffffffffffffffffffffffffffffffffffffff16036132fd576040517f08c379a00000000000000000000000000000000000000000000000000000000081526004016132f490614043565b60405180910390fd5b6000808473ffffffffffffffffffffffffffffffffffffffff1673ffffffffffffffffffffffffffffffffffffffff168152602001908152602001600020600083815260200190815260200160002060000160149054906101000a900460ff1661339c576040517f08c379a0000000000000000000000000000000000000000000000000000000008152600401613393906140d5565b60405180910390fd5b6000808473ffffffffffffffffffffffffffffffffffffffff1673ffffffffffffffffffffffffffffffffffffffff168152602001908152602001600020600083815260200190815260200160002060020160009054906101000a900473ffffffffffffffffffffffffffffffffffffffff16905092915050565b60008073ffffffffffffffffffffffffffffffffffffffff168373ffffffffffffffffffffffffffffffffffffffff1603613487576040517f08c379a000000000000000000000000000000000000000000000000000000000815260040161347e90614043565b60405180910390fd5b6000808473ffffffffffffffffffffffffffffffffffffffff1673ffffffffffffffffffffffffffffffffffffffff168152602001908152602001600020600083815260200190815260200160002060050160003373ffffffffffffffffffffffffffffffffffffffff1673ffffffffffffffffffffffffffffffffffffffff16815260200190815260200160002054905092915050565b60008060008473ffffffffffffffffffffffffffffffffffffffff1673ffffffffffffffffffffffffffffffffffffffff168152602001908152602001600020600083815260200190815260200160002060000160146101000a81548160ff02191690831515021790555060008060008473ffffffffffffffffffffffffffffffffffffffff1673ffffffffffffffffffffffffffffffffffffffff168152602001908152602001600020600083815260200190815260200160002060000160006101000a81548173ffffffffffffffffffffffffffffffffffffffff021916908373ffffffffffffffffffffffffffffffffffffffff16021790555060008060008473ffffffffffffffffffffffffffffffffffffffff1673ffffffffffffffffffffffffffffffffffffffff16815260200190815260200160002060008381526020019081526020016000206006018054905090506000808290505b60008111156137cb576000808673ffffffffffffffffffffffffffffffffffffffff1673ffffffffffffffffffffffffffffffffffffffff16815260200190815260200160002060008581526020019081526020016000206006016001826136e591906151d8565b815481106136f6576136f561520c565b5b9060005260206000200160009054906101000a900473ffffffffffffffffffffffffffffffffffffffff16915060008060008773ffffffffffffffffffffffffffffffffffffffff1673ffffffffffffffffffffffffffffffffffffffff168152602001908152602001600020600086815260200190815260200160002060050160008473ffffffffffffffffffffffffffffffffffffffff1673ffffffffffffffffffffffffffffffffffffffff1681526020019081526020016000208190555080806137c39061523b565b91505061367d565b506000808573ffffffffffffffffffffffffffffffffffffffff1673ffffffffffffffffffffffffffffffffffffffff1681526020019081526020016000206000848152602001908152602001600020600601600061382a9190613a67565b7ff821246114f0eb7e6c237eb13dac30e0cae5c2f953eef99ca5c103d3ce0d639584846000808873ffffffffffffffffffffffffffffffffffffffff1673ffffffffffffffffffffffffffffffffffffffff168152602001908152602001600020600087815260200190815260200160002060020160009054906101000a900473ffffffffffffffffffffffffffffffffffffffff166000808973ffffffffffffffffffffffffffffffffffffffff1673ffffffffffffffffffffffffffffffffffffffff1681526020019081526020016000206000888152602001908152602001600020600301546040516139239493929190614d83565b60405180910390a150505050565b6000808473ffffffffffffffffffffffffffffffffffffffff1673ffffffffffffffffffffffffffffffffffffffff168152602001908152602001600020600083815260200190815260200160002060000160149054906101000a900460ff16156139d1576040517f08c379a00000000000000000000000000000000000000000000000000000000081526004016139c890614aab565b60405180910390fd5b806000808573ffffffffffffffffffffffffffffffffffffffff1673ffffffffffffffffffffffffffffffffffffffff168152602001908152602001600020600084815260200190815260200160002060000160006101000a81548173ffffffffffffffffffffffffffffffffffffffff021916908373ffffffffffffffffffffffffffffffffffffffff160217905550505050565b5080546000825590600052602060002090810190613a859190613a88565b50565b5b80821115613aa1576000816000905550600101613a89565b5090565b6000604051905090565b600080fd5b600080fd5b600073ffffffffffffffffffffffffffffffffffffffff82169050919050565b6000613ae482613ab9565b9050919050565b613af481613ad9565b8114613aff57600080fd5b50565b600081359050613b1181613aeb565b92915050565b6000819050919050565b613b2a81613b17565b8114613b3557600080fd5b50565b600081359050613b4781613b21565b92915050565b60008060408385031215613b6457613b63613aaf565b5b6000613b7285828601613b02565b9250506020613b8385828601613b38565b9150509250929050565b613b9681613b17565b82525050565b6000602082019050613bb16000830184613b8d565b92915050565b600080600060608486031215613bd057613bcf613aaf565b5b6000613bde86828701613b02565b9350506020613bef86828701613b38565b9250506040613c0086828701613b38565b9150509250925092565b600081519050919050565b600082825260208201905092915050565b60005b83811015613c44578082015181840152602081019050613c29565b83811115613c53576000848401525b50505050565b6000601f19601f8301169050919050565b6000613c7582613c0a565b613c7f8185613c15565b9350613c8f818560208601613c26565b613c9881613c59565b840191505092915050565b60006020820190508181036000830152613cbd8184613c6a565b905092915050565b6000819050919050565b6000613cea613ce5613ce084613ab9565b613cc5565b613ab9565b9050919050565b6000613cfc82613ccf565b9050919050565b6000613d0e82613cf1565b9050919050565b613d1e81613d03565b82525050565b6000602082019050613d396000830184613d15565b92915050565b60008115159050919050565b613d5481613d3f565b82525050565b6000602082019050613d6f6000830184613d4b565b92915050565b600080fd5b600080fd5b7f4e487b7100000000000000000000000000000000000000000000000000000000600052604160045260246000fd5b613db782613c59565b810181811067ffffffffffffffff82111715613dd657613dd5613d7f565b5b80604052505050565b6000613de9613aa5565b9050613df58282613dae565b919050565b600067ffffffffffffffff821115613e1557613e14613d7f565b5b613e1e82613c59565b9050602081019050919050565b82818337600083830152505050565b6000613e4d613e4884613dfa565b613ddf565b905082815260208101848484011115613e6957613e68613d7a565b5b613e74848285613e2b565b509392505050565b600082601f830112613e9157613e90613d75565b5b8135613ea1848260208601613e3a565b91505092915050565b60008060008060008060c08789031215613ec757613ec6613aaf565b5b6000613ed589828a01613b02565b9650506020613ee689828a01613b02565b955050604087013567ffffffffffffffff811115613f0757613f06613ab4565b5b613f1389828a01613e7c565b945050606087013567ffffffffffffffff811115613f3457613f33613ab4565b5b613f4089828a01613e7c565b935050608087013567ffffffffffffffff811115613f6157613f60613ab4565b5b613f6d89828a01613e7c565b92505060a087013567ffffffffffffffff811115613f8e57613f8d613ab4565b5b613f9a89828a01613e7c565b9150509295509295509295565b613fb081613ad9565b82525050565b6000602082019050613fcb6000830184613fa7565b92915050565b7f54686520636f6c6c656374696f6e2061646472657373206e6565647320746f2060008201527f626520646966666572656e742066726f6d207a65726f2e000000000000000000602082015250565b600061402d603783613c15565b915061403882613fd1565b604082019050919050565b6000602082019050818103600083015261405c81614020565b9050919050565b7f5468657265206973206e6f2061756374696f6e207374617274656420666f722060008201527f74686973204e46542e0000000000000000000000000000000000000000000000602082015250565b60006140bf602983613c15565b91506140ca82614063565b604082019050919050565b600060208201905081810360008301526140ee816140b2565b9050919050565b60008151905061410481613aeb565b92915050565b6000602082840312156141205761411f613aaf565b5b600061412e848285016140f5565b91505092915050565b7f54686973204e465420646f6573206e6f742062656c6f6e6720746f207468652060008201527f63757272656e74206d6573736167652073656e6465722e000000000000000000602082015250565b6000614193603783613c15565b915061419e82614137565b604082019050919050565b600060208201905081810360008301526141c281614186565b9050919050565b7f506c6561736520646566696e6520612073656c6c696e6720707269636520686960008201527f67686572207468616e207a65726f2e0000000000000000000000000000000000602082015250565b6000614225602f83613c15565b9150614230826141c9565b604082019050919050565b6000602082019050818103600083015261425481614218565b9050919050565b60006040820190506142706000830185613b8d565b61427d6020830184613b8d565b9392505050565b60006040820190506142996000830185613fa7565b6142a66020830184613b8d565b9392505050565b6142b681613d3f565b81146142c157600080fd5b50565b6000815190506142d3816142ad565b92915050565b6000602082840312156142ef576142ee613aaf565b5b60006142fd848285016142c4565b91505092915050565b7f54686973204e465420646964206e6f7420737461727420616e2061756374696f60008201527f6e2e000000000000000000000000000000000000000000000000000000000000602082015250565b6000614362602283613c15565b915061436d82614306565b604082019050919050565b6000602082019050818103600083015261439181614355565b9050919050565b7f5468652061756374696f6e20686173206e6f742066696e69736865642079657460008201527f2e00000000000000000000000000000000000000000000000000000000000000602082015250565b60006143f4602183613c15565b91506143ff82614398565b604082019050919050565b60006020820190508181036000830152614423816143e7565b9050919050565b60008151905061443981613b21565b92915050565b60006020828403121561445557614454613aaf565b5b60006144638482850161442a565b91505092915050565b7f4572726f723a207468652068696768657374206269646465722069732074686560008201527f207a65726f20616464726573732e000000000000000000000000000000000000602082015250565b60006144c8602e83613c15565b91506144d38261446c565b604082019050919050565b600060208201905081810360008301526144f7816144bb565b9050919050565b600081905092915050565b50565b60006145196000836144fe565b915061452482614509565b600082019050919050565b600061453a8261450c565b9150819050919050565b7f4661696c656420746f2073656e642045544820746f20746865204e4654206f7760008201527f6e65722e00000000000000000000000000000000000000000000000000000000602082015250565b60006145a0602483613c15565b91506145ab82614544565b604082019050919050565b600060208201905081810360008301526145cf81614593565b9050919050565b7f54686973206164647265737320646f6573206e6f74206861766520746865206160008201527f6c6c6f77616e636520746f2073656e6420746865204e46540000000000000000602082015250565b6000614632603883613c15565b915061463d826145d6565b604082019050919050565b6000602082019050818103600083015261466181614625565b9050919050565b600060608201905061467d6000830186613fa7565b61468a6020830185613fa7565b6146976040830184613b8d565b949350505050565b6000819050919050565b60006146c46146bf6146ba8461469f565b613cc5565b613b17565b9050919050565b6146d4816146a9565b82525050565b60006040820190506146ef6000830185613b8d565b6146fc60208301846146cb565b9392505050565b600061471661471184613dfa565b613ddf565b90508281526020810184848401111561473257614731613d7a565b5b61473d848285613c26565b509392505050565b600082601f83011261475a57614759613d75565b5b815161476a848260208601614703565b91505092915050565b60006020828403121561478957614788613aaf565b5b600082015167ffffffffffffffff8111156147a7576147a6613ab4565b5b6147b384828501614745565b91505092915050565b7f4554480000000000000000000000000000000000000000000000000000000000600082015250565b60006147f2600383613c15565b91506147fd826147bc565b602082019050919050565b600060e08201905081810360008301526148228189613c6a565b90506148316020830188613fa7565b61483e6040830187613b8d565b61484b6060830186613fa7565b6148586080830185613fa7565b61486560a0830184613b8d565b81810360c0830152614876816147e5565b9050979650505050505050565b7f5468657265206973206e6f7468696e6720746f20726566756e6420746f20746860008201527f65206d6573736167652073656e64657220666f722074686973204e46542e0000602082015250565b60006148df603e83613c15565b91506148ea82614883565b604082019050919050565b6000602082019050818103600083015261490e816148d2565b9050919050565b7f4661696c656420746f2073656e642045544820746f207468652072657175657360008201527f7465722e00000000000000000000000000000000000000000000000000000000602082015250565b6000614971602483613c15565b915061497c82614915565b604082019050919050565b600060208201905081810360008301526149a081614964565b9050919050565b7f5468652076616c6964697479206f66207468652061756374696f6e206861732060008201527f6e6f74206265656e2076657269666965642c2079657400000000000000000000602082015250565b6000614a03603683613c15565b9150614a0e826149a7565b604082019050919050565b60006020820190508181036000830152614a32816149f6565b9050919050565b7f416e2061756374696f6e2068617320616c72656164792073746172746564206660008201527f6f722074686973204e46542e0000000000000000000000000000000000000000602082015250565b6000614a95602c83613c15565b9150614aa082614a39565b604082019050919050565b60006020820190508181036000830152614ac481614a88565b9050919050565b7f506c6561736520646566696e6520616e2061756374696f6e206869676865722060008201527f7468616e207a65726f2e00000000000000000000000000000000000000000000602082015250565b6000614b27602a83613c15565b9150614b3282614acb565b604082019050919050565b60006020820190508181036000830152614b5681614b1a565b9050919050565b7f4e487b7100000000000000000000000000000000000000000000000000000000600052601160045260246000fd5b6000614b9782613b17565b9150614ba283613b17565b9250827fffffffffffffffffffffffffffffffffffffffffffffffffffffffffffffffff03821115614bd757614bd6614b5d565b5b828201905092915050565b6000606082019050614bf76000830186613fa7565b614c046020830185613b8d565b614c116040830184613fa7565b949350505050565b7f5468652061756374696f6e2068617320616c726561647920656e6465642e0000600082015250565b6000614c4f601e83613c15565b9150614c5a82614c19565b602082019050919050565b60006020820190508181036000830152614c7e81614c42565b9050919050565b7f546869732061756374696f6e20616368696576656420746865206d6178696d7560008201527f6d20616d6f756e74206f6620626964646572732e000000000000000000000000602082015250565b6000614ce1603483613c15565b9150614cec82614c85565b604082019050919050565b60006020820190508181036000830152614d1081614cd4565b9050919050565b7f5468652062696420697320746f6f206c6f772e00000000000000000000000000600082015250565b6000614d4d601383613c15565b9150614d5882614d17565b602082019050919050565b60006020820190508181036000830152614d7c81614d40565b9050919050565b6000608082019050614d986000830187613fa7565b614da56020830186613b8d565b614db26040830185613fa7565b614dbf6060830184613b8d565b95945050505050565b7f54686520757365722061646472657373206e6565647320746f2062652064696660008201527f666572656e742066726f6d207a65726f2e000000000000000000000000000000602082015250565b6000614e24603183613c15565b9150614e2f82614dc8565b604082019050919050565b60006020820190508181036000830152614e5381614e17565b9050919050565b600061014082019050614e70600083018d613fa7565b614e7d602083018c613fa7565b8181036040830152614e8f818b613c6a565b90508181036060830152614ea3818a613c6a565b90508181036080830152614eb78189613c6a565b905081810360a0830152614ecb8188613c6a565b9050614eda60c0830187613fa7565b614ee760e08301866146cb565b614ef5610100830185613d4b565b614f03610120830184613d4b565b9b9a5050505050505050505050565b7f54686973204e4654206973206e6f7420666f722073616c652e00000000000000600082015250565b6000614f48601983613c15565b9150614f5382614f12565b602082019050919050565b60006020820190508181036000830152614f7781614f3b565b9050919050565b6000604082019050614f936000830185613fa7565b614fa06020830184613fa7565b9392505050565b7f43594f4e20746f6b656e20616c6c6f77616e636520746f6f206c6f772e000000600082015250565b6000614fdd601d83613c15565b9150614fe882614fa7565b602082019050919050565b6000602082019050818103600083015261500c81614fd0565b9050919050565b7f4661696c656420746f2073656e642043594f4e20746f20746865204e4654206f60008201527f776e65722e000000000000000000000000000000000000000000000000000000602082015250565b600061506f602583613c15565b915061507a82615013565b604082019050919050565b6000602082019050818103600083015261509e81615062565b9050919050565b7f43594f4e00000000000000000000000000000000000000000000000000000000600082015250565b60006150db600483613c15565b91506150e6826150a5565b602082019050919050565b600060e082019050818103600083015261510b8189613c6a565b905061511a6020830188613fa7565b6151276040830187613b8d565b6151346060830186613fa7565b6151416080830185613fa7565b61514e60a0830184613b8d565b81810360c083015261515f816150ce565b9050979650505050505050565b7f54686973204e465420697320616c726561647920666f722073616c652e000000600082015250565b60006151a2601d83613c15565b91506151ad8261516c565b602082019050919050565b600060208201905081810360008301526151d181615195565b9050919050565b60006151e382613b17565b91506151ee83613b17565b92508282101561520157615200614b5d565b5b828203905092915050565b7f4e487b7100000000000000000000000000000000000000000000000000000000600052603260045260246000fd5b600061524682613b17565b91506000820361525957615258614b5d565b5b60018203905091905056fea2646970667358221220022c40a40965271bc4caa241d7ab17bb18aa258705e5e7c5c5c2751cab8776af64736f6c634300080d0033",
  "immutableReferences": {},
  "source": "// SPDX-License-Identifier: GPL-3.0\npragma solidity 0.8.13;\n\nimport \"./Auction.sol\";\nimport \"./NFTCollectionFactory.sol\";\nimport \"@openzeppelin/contracts/token/ERC20/IERC20.sol\";\n\n/// @title Master contract to manage the decentralized NFT market place\n/// @author Sebastien Gazeau, Sbastien Dupertuis et Alexis Mendoza\n/// @notice This smart contract is the link between the Dapp and the subcontracts\ncontract Master is Auction {\n    //------------------------------------------------------------------------------------\n    // ----------------------------------Variables----------------------------------------\n    //------------------------------------------------------------------------------------\n    IERC20 public tokenCYON;\n\n    //------------------------------------------------------------------------------------\n    // ------------------------------------Events-----------------------------------------\n    //------------------------------------------------------------------------------------\n    /// @notice event for NFT sales\n    /// @param _collectionName Name of the NFT collection\n    /// @param _collectionAddress Address of the collection\n    /// @param _tokenID The ID of this given NFT\n    /// @param _oldOwner Previous owner of the sold NFT\n    /// @param _newOwner New owner of the bought NFT\n    /// @param _price The sale price of the given NFT\n    /// @param _units The units of the sale\n    event NFTSold(\n        string _collectionName,\n        address _collectionAddress,\n        uint256 _tokenID,\n        address _oldOwner,\n        address _newOwner,\n        uint256 _price,\n        string _units\n    );\n\n    //------------------------------------------------------------------------------------\n    // ----------------------------------Constructor--------------------------------------\n    //------------------------------------------------------------------------------------\n    /// @notice The constructor the Master smart contract\n    /// @param _addressCYON The ERC20 address of the platform token (CYON)\n    constructor(address _addressCYON) {\n        tokenCYON = IERC20(_addressCYON);\n    }\n\n    //------------------------------------------------------------------------------------\n    // -----------------------------------Functions---------------------------------------\n    //------------------------------------------------------------------------------------\n    /// @notice This function allows to create NFTs inside a collection and mint it directly\n    /// @dev Call this function when the user wants to create a new NFT and mint it to the given address\n    /// @param _collectionAddress The address of the collection in which the NFT will be created/minted\n    /// @param _firstOwner The destination address to which the NFT is minted\n    /// @param _tokenURI The metadata through a link URI\n    /// @param _name Name of the new NFT\n    /// @param _description Description of the new NFT\n    /// @param _tag Tag of the new NFT allowing filtering\n    /// @return _tokenID New id of the item that has been minted\n    function createNFT(\n        address _collectionAddress,\n        address _firstOwner,\n        string memory _tokenURI,\n        string memory _name,\n        string memory _description,\n        string memory _tag\n    ) external returns (uint256) {\n        require(\n            _collectionAddress != address(0),\n            \"The collection address needs to be different from zero.\"\n        );\n        require(\n            _firstOwner != address(0),\n            \"The user address needs to be different from zero.\"\n        );\n\n        return (\n            NFTCollections(_collectionAddress).MintNFT(\n                _firstOwner,\n                msg.sender,\n                _tokenURI,\n                _name,\n                _description,\n                _tag,\n                address(tokenCYON),\n                0,\n                false,\n                false\n            )\n        );\n    }\n\n    /// @notice This function allows to set the price of the given NFT\n    /// @dev Call this function when a sale is initiated\n    /// @param _collectionAddress The address of the collection of the NFT to set the price\n    /// @param _tokenID The token ID of the NFT to set the price\n    /// @param _price The price to set\n    function setNewPrice(\n        address _collectionAddress,\n        uint256 _tokenID,\n        uint256 _price\n    ) external {\n        require(\n            _collectionAddress != address(0),\n            \"The collection address needs to be different from zero.\"\n        ); // Make sure the address is different from zero\n        //require((_tokenID <= NFTCollections(_collectionAddress).getTotalSupply()) && (_tokenID > 0), \"This token ID does not exist.\");      // Make sure the token ID exists\n        require(\n            NFTCollections(_collectionAddress).ownerOf(_tokenID) == msg.sender,\n            \"This NFT does not belong to the current message sender.\"\n        ); // Make sure the sale comes from the owner. Revert if the tokenID does not exist (ERC721Upgradeable library)\n        require(_price > 0, \"Please define a selling price higher than zero.\"); // Make sure the price is more than zero\n\n        NFTCollections(_collectionAddress).setPrice(_tokenID, _price);\n    }\n\n    /// @notice This function allows to transfer the money to the NFT owner and the NFT to the buyer after a direct sale.\n    /// @dev Call this function when a buyer click on the BUY button\n    /// @param _collectionAddress The address of the collection of the NFT to be sold/transfered\n    /// @param _tokenID The token ID of the NFT to be sold/transfered\n    function buyNFT(address _collectionAddress, uint256 _tokenID)\n        external\n        payable\n    {\n        // Global requires\n        require(\n            _collectionAddress != address(0),\n            \"The collection address needs to be different from zero.\"\n        ); // Make sure the address is different from zero\n        uint256 price = NFTCollections(_collectionAddress).getPrice(_tokenID);\n        require(price > 0, \"This NFT is not for sale.\"); // Make sure the NFT is for sale\n\n        // Send the CYON to the current NFT owner\n        require(\n            tokenCYON.allowance(msg.sender, address(this)) >= price,\n            \"CYON token allowance too low.\"\n        ); // Make sure the Master contract has the allowance to manage the CYON transfer\n        address currentOwner = NFTCollections(_collectionAddress).ownerOf(\n            _tokenID\n        );\n        bool sent = tokenCYON.transferFrom(msg.sender, currentOwner, price);\n        require(sent, \"Failed to send CYON to the NFT owner.\");\n\n        // Send the NFT to the new owner\n        require(\n            NFTCollections(_collectionAddress).getApproved(_tokenID) ==\n                address(this),\n            \"This address does not have the allowance to send the NFT\"\n        ); // Make sure the Master contract has the allowance to manage the NFT transfer\n        NFTCollections(_collectionAddress).safeTransferFrom(\n            currentOwner,\n            msg.sender,\n            _tokenID\n        );\n\n        // Reset the price to 0 after the sale\n        NFTCollections(_collectionAddress).setPrice(_tokenID, 0);\n\n        emit NFTSold(\n            NFTCollections(_collectionAddress).name(),\n            _collectionAddress,\n            _tokenID,\n            currentOwner,\n            msg.sender,\n            price,\n            \"CYON\"\n        );\n    }\n\n    /// @notice This function allows to initiate an auction by verifying owner and tokenID\n    /// @dev Call this function before starting the auction procedure\n    /// @param _collectionAddress The address of the collection of the NFT to start an auction\n    /// @param _tokenID The token ID of the NFT to start an auction\n    /// @return _validity True if the auction is authorized\n    function requestAuction(address _collectionAddress, uint256 _tokenID)\n        external\n        returns (bool)\n    {\n        require(\n            _collectionAddress != address(0),\n            \"The collection address needs to be different from zero.\"\n        ); // Make sure the address is different from zero\n        require(\n            NFTCollections(_collectionAddress).ownerOf(_tokenID) == msg.sender,\n            \"This NFT does not belong to the current message sender.\"\n        ); // Make sure the sale comes from the owner. Revert if the tokenID does not exist (ERC721Upgradeable library)\n        require(\n            NFTCollections(_collectionAddress).getPrice(_tokenID) == 0,\n            \"This NFT is already for sale.\"\n        ); // Make sure the NFT is not already for sale\n\n        setAuctionValidity(_collectionAddress, _tokenID, msg.sender);\n\n        return true;\n    }\n\n    /// @notice This function allows to close an auction when the time has expired\n    /// @dev Call this function from the front when the auction time has expired\n    /// @param _collectionAddress The address of the collection of the NFT to close the auction\n    /// @param _tokenID The token ID of the NFT to close the auction\n    function closeAuction(address _collectionAddress, uint256 _tokenID)\n        external\n    {\n        require(\n            _collectionAddress != address(0),\n            \"The collection address needs to be different from zero.\"\n        ); // Make sure the address is different from zero\n        NFTCollections(_collectionAddress).ownerOf(_tokenID); // Revert if the tokenID does not exist (ERC721Upgradeable library)\n        require(\n            this.isInAuction(_collectionAddress, _tokenID),\n            \"This NFT did not start an auction.\"\n        ); // Make sure an auction started\n        require(\n            this.checkAuctionTimeExpired(_collectionAddress, _tokenID),\n            \"The auction has not finished yet.\"\n        ); // Make sure the auction is finished\n\n        // Get the data of the auction\n        uint256 price = this.getCurrentHighestBid(_collectionAddress, _tokenID);\n        address currentOwner = NFTCollections(_collectionAddress).ownerOf(\n            _tokenID\n        );\n        address highestBidder = this.getCurrentHighestBidder(\n            _collectionAddress,\n            _tokenID\n        );\n        require(\n            highestBidder != address(0),\n            \"Error: the highest bidder is the zero address.\"\n        ); // Make sure the address of the highest bidder is valid\n\n        // Check if price is more than 0. Otherwise, nobody has bidded\n        if (price > 0) {\n            // Send the ETH to the current NFT owner\n            (bool success, ) = payable(currentOwner).call{value: price}(\"\");\n            require(success, \"Failed to send ETH to the NFT owner.\");\n\n            // Verify that the highest bidder is not the current owner. Otherwise, nobody has bidded, except the initial bid of the owner (starting price)\n            if (highestBidder != currentOwner) {\n                NFTCollections(_collectionAddress).setPrice(_tokenID, price); // Update the price of the NFT for event tracking\n\n                // Send the NFT to the new owner\n                require(\n                    NFTCollections(_collectionAddress).getApproved(_tokenID) ==\n                        address(this),\n                    \"This address does not have the allowance to send the NFT\"\n                ); // Make sure the Master contract has the allowance to manage the NFT transfer\n                NFTCollections(_collectionAddress).safeTransferFrom(\n                    currentOwner,\n                    highestBidder,\n                    _tokenID\n                );\n\n                // Reset the price to 0 after the sale for price tracking\n                NFTCollections(_collectionAddress).setPrice(_tokenID, 0);\n\n                emit NFTSold(\n                    NFTCollections(_collectionAddress).name(),\n                    _collectionAddress,\n                    _tokenID,\n                    currentOwner,\n                    highestBidder,\n                    price,\n                    \"ETH\"\n                );\n            }\n\n            // Reset the auction data\n            endAuction(_collectionAddress, _tokenID);\n        }\n    }\n\n    //------------------------------------------------------------------------------------\n    // ------------------------------------Getters----------------------------------------\n    //------------------------------------------------------------------------------------\n    /// @notice This function returns the URI data of the given NFT\n    /// @dev Call this function to get the metadata of the NFT\n    /// @param _collectionAddress The address of the collection of the NFT to get the URI\n    /// @param _tokenID The token ID of the NFT to get the URI\n    /// @return _URI The URI data\n    function getURI(address _collectionAddress, uint256 _tokenID)\n        external\n        view\n        returns (string memory)\n    {\n        //require((_tokenID <= NFTCollections(_collectionAddress).getTotalSupply()) && (_tokenID > 0), \"This token ID does not exist.\");      // Make sure the token ID exists\n        NFTCollections(_collectionAddress).ownerOf(_tokenID); // Revert if the tokenID does not exist (ERC721Upgradeable library)\n        return (NFTCollections(_collectionAddress).tokenURI(_tokenID));\n    }\n\n    /*\n    /// @notice This function returns the current owner of the given NFT\n    /// @dev Call this function to get the owner of the NFT. Revert if the tokenID does not exist\n    /// @param _collectionAddress The address of the collection of the NFT to get the owner\n    /// @param _tokenID The token ID of the NFT to get the owner\n    /// @return _address The owner address\n    function getNFTOwner(address _collectionAddress, uint256 _tokenID) external view returns (address) {\n        return(NFTCollections(_collectionAddress).ownerOf(_tokenID));\n    }*/\n}\n",
  "sourcePath": "/home/alexis/Projects/project-nft-cyon/contracts/Master.sol",
  "compiler": {
    "name": "solc",
    "version": "0.8.13+commit.abaa5c0e.Emscripten.clang"
  },
  "schemaVersion": "3.4.7",
  "updatedAt": "2022-05-15T18:52:27.853Z",
  "networkType": "ethereum",
  "devdoc": {
    "author": "Sebastien Gazeau, Sbastien Dupertuis et Alexis Mendoza",
    "events": {
      "NFTSold(string,address,uint256,address,address,uint256,string)": {
        "params": {
          "_collectionAddress": "Address of the collection",
          "_collectionName": "Name of the NFT collection",
          "_newOwner": "New owner of the bought NFT",
          "_oldOwner": "Previous owner of the sold NFT",
          "_price": "The sale price of the given NFT",
          "_tokenID": "The ID of this given NFT",
          "_units": "The units of the sale"
        }
      }
    },
    "kind": "dev",
    "methods": {
      "bid(address,uint256)": {
        "details": "Call this function each time a user place a new bid",
        "params": {
          "_nftCollectionAddress": "Collection address of the given NFT",
          "_nftTokenID": "Token ID of the given NFT"
        }
      },
      "buyNFT(address,uint256)": {
        "details": "Call this function when a buyer click on the BUY button",
        "params": {
          "_collectionAddress": "The address of the collection of the NFT to be sold/transfered",
          "_tokenID": "The token ID of the NFT to be sold/transfered"
        }
      },
      "checkAuctionTimeExpired(address,uint256)": {
        "details": "Call this function to check if the time of the auction is over or not",
        "params": {
          "_nftCollectionAddress": "Collection address of the given NFT",
          "_nftTokenID": "Token ID of the given NFT"
        },
        "returns": {
          "_0": "Returns a boolean to define if the auction time has expired (true) or not (false)"
        }
      },
      "closeAuction(address,uint256)": {
        "details": "Call this function from the front when the auction time has expired",
        "params": {
          "_collectionAddress": "The address of the collection of the NFT to close the auction",
          "_tokenID": "The token ID of the NFT to close the auction"
        }
      },
      "constructor": {
        "params": {
          "_addressCYON": "The ERC20 address of the platform token (CYON)"
        }
      },
      "createNFT(address,address,string,string,string,string)": {
        "details": "Call this function when the user wants to create a new NFT and mint it to the given address",
        "params": {
          "_collectionAddress": "The address of the collection in which the NFT will be created/minted",
          "_description": "Description of the new NFT",
          "_firstOwner": "The destination address to which the NFT is minted",
          "_name": "Name of the new NFT",
          "_tag": "Tag of the new NFT allowing filtering",
          "_tokenURI": "The metadata through a link URI"
        },
        "returns": {
          "_0": "_tokenID New id of the item that has been minted"
        }
      },
      "getBiddersAmount(address,uint256)": {
        "details": "Call this function from the front to display the amount of bidders over the given limit (here 1000)",
        "params": {
          "_nftCollectionAddress": "Collection address of the given NFT",
          "_nftTokenID": "Token ID of the given NFT"
        },
        "returns": {
          "_0": "Returns the amount of bidders (how many addresses)"
        }
      },
      "getCurrentHighestBid(address,uint256)": {
        "details": "Call this function when you want to know the value of the highest bid",
        "params": {
          "_nftCollectionAddress": "Collection address of the given NFT",
          "_nftTokenID": "Token ID of the given NFT"
        },
        "returns": {
          "_0": "Returns the value of the current highest bid"
        }
      },
      "getCurrentHighestBidder(address,uint256)": {
        "details": "Call this function when you want to know the address of the highest bidder",
        "params": {
          "_nftCollectionAddress": "Collection address of the given NFT",
          "_nftTokenID": "Token ID of the given NFT"
        },
        "returns": {
          "_0": "Returns the address of the current highest bidder"
        }
      },
      "getPendingRefunds(address,uint256)": {
        "details": "Call this function from the front to know how much pending refunds a user has",
        "params": {
          "_nftCollectionAddress": "Collection address of the given NFT",
          "_nftTokenID": "Token ID of the given NFT"
        },
        "returns": {
          "_0": "Returns the total amount of pending refunds"
        }
      },
      "getTotalBid(address,uint256)": {
        "details": "Call this function from the front to know how mush the bidder already bidded",
        "params": {
          "_nftCollectionAddress": "Collection address of the given NFT",
          "_nftTokenID": "Token ID of the given NFT"
        },
        "returns": {
          "_0": "Returns the total amount the user bidded till now"
        }
      },
      "getURI(address,uint256)": {
        "details": "Call this function to get the metadata of the NFT",
        "params": {
          "_collectionAddress": "The address of the collection of the NFT to get the URI",
          "_tokenID": "The token ID of the NFT to get the URI"
        },
        "returns": {
          "_0": "_URI The URI data"
        }
      },
      "isInAuction(address,uint256)": {
        "details": "Call this function from the front to know if there is an auction ongoing",
        "params": {
          "_nftCollectionAddress": "Collection address of the given NFT",
          "_nftTokenID": "Token ID of the given NFT"
        },
        "returns": {
          "_0": "Returns true if an auction is in progress"
        }
      },
      "requestAuction(address,uint256)": {
        "details": "Call this function before starting the auction procedure",
        "params": {
          "_collectionAddress": "The address of the collection of the NFT to start an auction",
          "_tokenID": "The token ID of the NFT to start an auction"
        },
        "returns": {
          "_0": "_validity True if the auction is authorized"
        }
      },
      "setNewPrice(address,uint256,uint256)": {
        "details": "Call this function when a sale is initiated",
        "params": {
          "_collectionAddress": "The address of the collection of the NFT to set the price",
          "_price": "The price to set",
          "_tokenID": "The token ID of the NFT to set the price"
        }
      },
      "startAuction(address,uint256,uint256)": {
        "details": "Call this function when the user decides to sell his NFT through an auction. The owner can define a starting price if he sends money in the transaction.",
        "params": {
          "_biddingTime": "Auction time in seconds",
          "_nftCollectionAddress": "Collection address of the given NFT",
          "_nftTokenID": "Token ID of the given NFT"
        }
      },
      "withdrawRefund(address,uint256)": {
        "details": "The user can call this function through the front when his bid is not the highest anymore.",
        "params": {
          "_nftCollectionAddress": "Collection address of the given NFT",
          "_nftTokenID": "Token ID of the given NFT"
        }
      }
    },
    "title": "Master contract to manage the decentralized NFT market place",
    "version": 1
  },
  "userdoc": {
    "events": {
      "AuctionClosed(address,uint256,address,uint256)": {
        "notice": "Event raised when the auction has finished"
      },
      "AuctionStarted(address,uint256,address)": {
        "notice": "Event raised when the auction has started"
      },
      "HighestBidIncreased(address,uint256,address,uint256)": {
        "notice": "Event raised when the bid has increased"
      },
      "NFTSold(string,address,uint256,address,address,uint256,string)": {
        "notice": "event for NFT sales"
      }
    },
    "kind": "user",
    "methods": {
      "bid(address,uint256)": {
        "notice": "This function allows to place a new bid"
      },
      "buyNFT(address,uint256)": {
        "notice": "This function allows to transfer the money to the NFT owner and the NFT to the buyer after a direct sale."
      },
      "checkAuctionTimeExpired(address,uint256)": {
        "notice": "This function allows to check if the auction ended"
      },
      "closeAuction(address,uint256)": {
        "notice": "This function allows to close an auction when the time has expired"
      },
      "constructor": {
        "notice": "The constructor the Master smart contract"
      },
      "createNFT(address,address,string,string,string,string)": {
        "notice": "This function allows to create NFTs inside a collection and mint it directly"
      },
      "getBiddersAmount(address,uint256)": {
        "notice": "This function allows to check for the amount of bidders"
      },
      "getCurrentHighestBid(address,uint256)": {
        "notice": "This function allows to check for the current highest bid"
      },
      "getCurrentHighestBidder(address,uint256)": {
        "notice": "This function allows to check for the current highest bidder"
      },
      "getPendingRefunds(address,uint256)": {
        "notice": "This function allows to check the total pending refunds of a user, if any"
      },
      "getTotalBid(address,uint256)": {
        "notice": "This function allows to check the total bid of the user calling the message"
      },
      "getURI(address,uint256)": {
        "notice": "This function returns the URI data of the given NFT"
      },
      "isInAuction(address,uint256)": {
        "notice": "This function allows to check if there is an auction in progress for the given NFT"
      },
      "requestAuction(address,uint256)": {
        "notice": "This function allows to initiate an auction by verifying owner and tokenID"
      },
      "setNewPrice(address,uint256,uint256)": {
        "notice": "This function allows to set the price of the given NFT"
      },
      "startAuction(address,uint256,uint256)": {
        "notice": "This function allows to start a new auction"
      },
      "withdrawRefund(address,uint256)": {
        "notice": "This function allows a user that placed a bid (not the highest anymore) to get back his funds"
      }
    },
    "notice": "This smart contract is the link between the Dapp and the subcontracts",
    "version": 1
  }
}