{
  "contractName": "NFTCollections",
  "abi": [
    {
      "anonymous": false,
      "inputs": [
        {
          "indexed": true,
          "internalType": "address",
          "name": "owner",
          "type": "address"
        },
        {
          "indexed": true,
          "internalType": "address",
          "name": "approved",
          "type": "address"
        },
        {
          "indexed": true,
          "internalType": "uint256",
          "name": "tokenId",
          "type": "uint256"
        }
      ],
      "name": "Approval",
      "type": "event"
    },
    {
      "anonymous": false,
      "inputs": [
        {
          "indexed": true,
          "internalType": "address",
          "name": "owner",
          "type": "address"
        },
        {
          "indexed": true,
          "internalType": "address",
          "name": "operator",
          "type": "address"
        },
        {
          "indexed": false,
          "internalType": "bool",
          "name": "approved",
          "type": "bool"
        }
      ],
      "name": "ApprovalForAll",
      "type": "event"
    },
    {
      "anonymous": false,
      "inputs": [
        {
          "indexed": false,
          "internalType": "uint8",
          "name": "version",
          "type": "uint8"
        }
      ],
      "name": "Initialized",
      "type": "event"
    },
    {
      "anonymous": false,
      "inputs": [
        {
          "indexed": true,
          "internalType": "address",
          "name": "from",
          "type": "address"
        },
        {
          "indexed": true,
          "internalType": "address",
          "name": "to",
          "type": "address"
        },
        {
          "indexed": true,
          "internalType": "uint256",
          "name": "tokenId",
          "type": "uint256"
        }
      ],
      "name": "Transfer",
      "type": "event"
    },
    {
      "inputs": [
        {
          "internalType": "address",
          "name": "to",
          "type": "address"
        },
        {
          "internalType": "uint256",
          "name": "tokenId",
          "type": "uint256"
        }
      ],
      "name": "approve",
      "outputs": [],
      "stateMutability": "nonpayable",
      "type": "function"
    },
    {
      "inputs": [
        {
          "internalType": "address",
          "name": "owner",
          "type": "address"
        }
      ],
      "name": "balanceOf",
      "outputs": [
        {
          "internalType": "uint256",
          "name": "",
          "type": "uint256"
        }
      ],
      "stateMutability": "view",
      "type": "function",
      "constant": true
    },
    {
      "inputs": [
        {
          "internalType": "uint256",
          "name": "tokenId",
          "type": "uint256"
        }
      ],
      "name": "getApproved",
      "outputs": [
        {
          "internalType": "address",
          "name": "",
          "type": "address"
        }
      ],
      "stateMutability": "view",
      "type": "function",
      "constant": true
    },
    {
      "inputs": [
        {
          "internalType": "address",
          "name": "owner",
          "type": "address"
        },
        {
          "internalType": "address",
          "name": "operator",
          "type": "address"
        }
      ],
      "name": "isApprovedForAll",
      "outputs": [
        {
          "internalType": "bool",
          "name": "",
          "type": "bool"
        }
      ],
      "stateMutability": "view",
      "type": "function",
      "constant": true
    },
    {
      "inputs": [],
      "name": "name",
      "outputs": [
        {
          "internalType": "string",
          "name": "",
          "type": "string"
        }
      ],
      "stateMutability": "view",
      "type": "function",
      "constant": true
    },
    {
      "inputs": [
        {
          "internalType": "uint256",
          "name": "tokenId",
          "type": "uint256"
        }
      ],
      "name": "ownerOf",
      "outputs": [
        {
          "internalType": "address",
          "name": "",
          "type": "address"
        }
      ],
      "stateMutability": "view",
      "type": "function",
      "constant": true
    },
    {
      "inputs": [
        {
          "internalType": "address",
          "name": "from",
          "type": "address"
        },
        {
          "internalType": "address",
          "name": "to",
          "type": "address"
        },
        {
          "internalType": "uint256",
          "name": "tokenId",
          "type": "uint256"
        }
      ],
      "name": "safeTransferFrom",
      "outputs": [],
      "stateMutability": "nonpayable",
      "type": "function"
    },
    {
      "inputs": [
        {
          "internalType": "address",
          "name": "from",
          "type": "address"
        },
        {
          "internalType": "address",
          "name": "to",
          "type": "address"
        },
        {
          "internalType": "uint256",
          "name": "tokenId",
          "type": "uint256"
        },
        {
          "internalType": "bytes",
          "name": "_data",
          "type": "bytes"
        }
      ],
      "name": "safeTransferFrom",
      "outputs": [],
      "stateMutability": "nonpayable",
      "type": "function"
    },
    {
      "inputs": [
        {
          "internalType": "address",
          "name": "operator",
          "type": "address"
        },
        {
          "internalType": "bool",
          "name": "approved",
          "type": "bool"
        }
      ],
      "name": "setApprovalForAll",
      "outputs": [],
      "stateMutability": "nonpayable",
      "type": "function"
    },
    {
      "inputs": [
        {
          "internalType": "bytes4",
          "name": "interfaceId",
          "type": "bytes4"
        }
      ],
      "name": "supportsInterface",
      "outputs": [
        {
          "internalType": "bool",
          "name": "",
          "type": "bool"
        }
      ],
      "stateMutability": "view",
      "type": "function",
      "constant": true
    },
    {
      "inputs": [],
      "name": "symbol",
      "outputs": [
        {
          "internalType": "string",
          "name": "",
          "type": "string"
        }
      ],
      "stateMutability": "view",
      "type": "function",
      "constant": true
    },
    {
      "inputs": [
        {
          "internalType": "uint256",
          "name": "tokenId",
          "type": "uint256"
        }
      ],
      "name": "tokenURI",
      "outputs": [
        {
          "internalType": "string",
          "name": "",
          "type": "string"
        }
      ],
      "stateMutability": "view",
      "type": "function",
      "constant": true
    },
    {
      "inputs": [
        {
          "internalType": "address",
          "name": "from",
          "type": "address"
        },
        {
          "internalType": "address",
          "name": "to",
          "type": "address"
        },
        {
          "internalType": "uint256",
          "name": "tokenId",
          "type": "uint256"
        }
      ],
      "name": "transferFrom",
      "outputs": [],
      "stateMutability": "nonpayable",
      "type": "function"
    },
    {
      "inputs": [
        {
          "internalType": "string",
          "name": "_name",
          "type": "string"
        },
        {
          "internalType": "string",
          "name": "_symbol",
          "type": "string"
        }
      ],
      "name": "initialize",
      "outputs": [],
      "stateMutability": "nonpayable",
      "type": "function"
    },
    {
      "inputs": [
        {
          "internalType": "address",
          "name": "_user",
          "type": "address"
        },
        {
          "internalType": "string",
          "name": "_tokenURI",
          "type": "string"
        },
        {
          "internalType": "string",
          "name": "_name",
          "type": "string"
        },
        {
          "internalType": "string",
          "name": "_description",
          "type": "string"
        },
        {
          "internalType": "string",
          "name": "_tag",
          "type": "string"
        },
        {
          "internalType": "uint256",
          "name": "_price",
          "type": "uint256"
        },
        {
          "internalType": "bool",
          "name": "_favorite",
          "type": "bool"
        },
        {
          "internalType": "bool",
          "name": "_isAuctionable",
          "type": "bool"
        }
      ],
      "name": "MintNFTCollection",
      "outputs": [
        {
          "internalType": "uint256",
          "name": "",
          "type": "uint256"
        }
      ],
      "stateMutability": "nonpayable",
      "type": "function"
    }
  ],
  "bytecode": "0x608060405234801561001057600080fd5b5061321c806100206000396000f3fe608060405234801561001057600080fd5b50600436106100f55760003560e01c80636352211e11610097578063a22cb46511610066578063a22cb46514610296578063b88d4fde146102b2578063c87b56dd146102ce578063e985e9c5146102fe576100f5565b80636352211e146101e857806370a082311461021857806373bab3ed1461024857806395d89b4114610278576100f5565b8063095ea7b3116100d3578063095ea7b31461017857806323b872dd1461019457806342842e0e146101b05780634cd88b76146101cc576100f5565b806301ffc9a7146100fa57806306fdde031461012a578063081812fc14610148575b600080fd5b610114600480360381019061010f9190611cad565b61032e565b6040516101219190611cf5565b60405180910390f35b610132610410565b60405161013f9190611da9565b60405180910390f35b610162600480360381019061015d9190611e01565b6104a2565b60405161016f9190611e6f565b60405180910390f35b610192600480360381019061018d9190611eb6565b610527565b005b6101ae60048036038101906101a99190611ef6565b61063e565b005b6101ca60048036038101906101c59190611ef6565b61069e565b005b6101e660048036038101906101e1919061207e565b6106be565b005b61020260048036038101906101fd9190611e01565b610756565b60405161020f9190611e6f565b60405180910390f35b610232600480360381019061022d91906120f6565b610807565b60405161023f9190612132565b60405180910390f35b610262600480360381019061025d9190612179565b6108be565b60405161026f9190612132565b60405180910390f35b6102806109fb565b60405161028d9190611da9565b60405180910390f35b6102b060048036038101906102ab919061229f565b610a8d565b005b6102cc60048036038101906102c79190612380565b610aa3565b005b6102e860048036038101906102e39190611e01565b610b05565b6040516102f59190611da9565b60405180910390f35b61031860048036038101906103139190612403565b610c56565b6040516103259190611cf5565b60405180910390f35b60007f80ac58cd000000000000000000000000000000000000000000000000000000007bffffffffffffffffffffffffffffffffffffffffffffffffffffffff1916827bffffffffffffffffffffffffffffffffffffffffffffffffffffffff191614806103f957507f5b5e139f000000000000000000000000000000000000000000000000000000007bffffffffffffffffffffffffffffffffffffffffffffffffffffffff1916827bffffffffffffffffffffffffffffffffffffffffffffffffffffffff1916145b80610409575061040882610cea565b5b9050919050565b60606065805461041f90612472565b80601f016020809104026020016040519081016040528092919081815260200182805461044b90612472565b80156104985780601f1061046d57610100808354040283529160200191610498565b820191906000526020600020905b81548152906001019060200180831161047b57829003601f168201915b5050505050905090565b60006104ad82610d54565b6104ec576040517f08c379a00000000000000000000000000000000000000000000000000000000081526004016104e390612515565b60405180910390fd5b6069600083815260200190815260200160002060009054906101000a900473ffffffffffffffffffffffffffffffffffffffff169050919050565b600061053282610756565b90508073ffffffffffffffffffffffffffffffffffffffff168373ffffffffffffffffffffffffffffffffffffffff16036105a2576040517f08c379a0000000000000000000000000000000000000000000000000000000008152600401610599906125a7565b60405180910390fd5b8073ffffffffffffffffffffffffffffffffffffffff166105c1610dc0565b73ffffffffffffffffffffffffffffffffffffffff1614806105f057506105ef816105ea610dc0565b610c56565b5b61062f576040517f08c379a000000000000000000000000000000000000000000000000000000000815260040161062690612639565b60405180910390fd5b6106398383610dc8565b505050565b61064f610649610dc0565b82610e81565b61068e576040517f08c379a0000000000000000000000000000000000000000000000000000000008152600401610685906126cb565b60405180910390fd5b610699838383610f5f565b505050565b6106b983838360405180602001604052806000815250610aa3565b505050565b60006106ca60016111c5565b905080156106ee576001600060016101000a81548160ff0219169083151502179055505b6106f883836112b5565b80156107515760008060016101000a81548160ff0219169083151502179055507f7f26b83ff96e1f2b6a682f133852f6798a09c465da95921460cefb38474024986001604051610748919061273d565b60405180910390a15b505050565b6000806067600084815260200190815260200160002060009054906101000a900473ffffffffffffffffffffffffffffffffffffffff169050600073ffffffffffffffffffffffffffffffffffffffff168173ffffffffffffffffffffffffffffffffffffffff16036107fe576040517f08c379a00000000000000000000000000000000000000000000000000000000081526004016107f5906127ca565b60405180910390fd5b80915050919050565b60008073ffffffffffffffffffffffffffffffffffffffff168273ffffffffffffffffffffffffffffffffffffffff1603610877576040517f08c379a000000000000000000000000000000000000000000000000000000000815260040161086e9061285c565b60405180910390fd5b606860008373ffffffffffffffffffffffffffffffffffffffff1673ffffffffffffffffffffffffffffffffffffffff168152602001908152602001600020549050919050565b60006108ca60c9611312565b60ca6040518060c00160405280898152602001888152602001878152602001868152602001851515815260200184151581525090806001815401808255809150506001900390600052602060002090600502016000909190919091506000820151816000019080519060200190610942929190611b9e565b50602082015181600101908051906020019061095f929190611b9e565b50604082015181600201908051906020019061097c929190611b9e565b506060820151816003015560808201518160040160006101000a81548160ff02191690831515021790555060a08201518160040160016101000a81548160ff021916908315150217905550505060006109d560c9611328565b90506109e18a82611336565b6109eb818a61150f565b8091505098975050505050505050565b606060668054610a0a90612472565b80601f0160208091040260200160405190810160405280929190818152602001828054610a3690612472565b8015610a835780601f10610a5857610100808354040283529160200191610a83565b820191906000526020600020905b815481529060010190602001808311610a6657829003601f168201915b5050505050905090565b610a9f610a98610dc0565b8383611583565b5050565b610ab4610aae610dc0565b83610e81565b610af3576040517f08c379a0000000000000000000000000000000000000000000000000000000008152600401610aea906126cb565b60405180910390fd5b610aff848484846116ef565b50505050565b6060610b1082610d54565b610b4f576040517f08c379a0000000000000000000000000000000000000000000000000000000008152600401610b46906128ee565b60405180910390fd5b6000609760008481526020019081526020016000208054610b6f90612472565b80601f0160208091040260200160405190810160405280929190818152602001828054610b9b90612472565b8015610be85780601f10610bbd57610100808354040283529160200191610be8565b820191906000526020600020905b815481529060010190602001808311610bcb57829003601f168201915b505050505090506000610bf961174b565b90506000815103610c0e578192505050610c51565b600082511115610c43578082604051602001610c2b92919061294a565b60405160208183030381529060405292505050610c51565b610c4c84611762565b925050505b919050565b6000606a60008473ffffffffffffffffffffffffffffffffffffffff1673ffffffffffffffffffffffffffffffffffffffff16815260200190815260200160002060008373ffffffffffffffffffffffffffffffffffffffff1673ffffffffffffffffffffffffffffffffffffffff16815260200190815260200160002060009054906101000a900460ff16905092915050565b60007f01ffc9a7000000000000000000000000000000000000000000000000000000007bffffffffffffffffffffffffffffffffffffffffffffffffffffffff1916827bffffffffffffffffffffffffffffffffffffffffffffffffffffffff1916149050919050565b60008073ffffffffffffffffffffffffffffffffffffffff166067600084815260200190815260200160002060009054906101000a900473ffffffffffffffffffffffffffffffffffffffff1673ffffffffffffffffffffffffffffffffffffffff1614159050919050565b600033905090565b816069600083815260200190815260200160002060006101000a81548173ffffffffffffffffffffffffffffffffffffffff021916908373ffffffffffffffffffffffffffffffffffffffff160217905550808273ffffffffffffffffffffffffffffffffffffffff16610e3b83610756565b73ffffffffffffffffffffffffffffffffffffffff167f8c5be1e5ebec7d5bd14f71427d1e84f3dd0314c0f7b2291e5b200ac8c7c3b92560405160405180910390a45050565b6000610e8c82610d54565b610ecb576040517f08c379a0000000000000000000000000000000000000000000000000000000008152600401610ec2906129e0565b60405180910390fd5b6000610ed683610756565b90508073ffffffffffffffffffffffffffffffffffffffff168473ffffffffffffffffffffffffffffffffffffffff161480610f185750610f178185610c56565b5b80610f5657508373ffffffffffffffffffffffffffffffffffffffff16610f3e846104a2565b73ffffffffffffffffffffffffffffffffffffffff16145b91505092915050565b8273ffffffffffffffffffffffffffffffffffffffff16610f7f82610756565b73ffffffffffffffffffffffffffffffffffffffff1614610fd5576040517f08c379a0000000000000000000000000000000000000000000000000000000008152600401610fcc90612a72565b60405180910390fd5b600073ffffffffffffffffffffffffffffffffffffffff168273ffffffffffffffffffffffffffffffffffffffff1603611044576040517f08c379a000000000000000000000000000000000000000000000000000000000815260040161103b90612b04565b60405180910390fd5b61104f838383611809565b61105a600082610dc8565b6001606860008573ffffffffffffffffffffffffffffffffffffffff1673ffffffffffffffffffffffffffffffffffffffff16815260200190815260200160002060008282546110aa9190612b53565b925050819055506001606860008473ffffffffffffffffffffffffffffffffffffffff1673ffffffffffffffffffffffffffffffffffffffff16815260200190815260200160002060008282546111019190612b87565b92505081905550816067600083815260200190815260200160002060006101000a81548173ffffffffffffffffffffffffffffffffffffffff021916908373ffffffffffffffffffffffffffffffffffffffff160217905550808273ffffffffffffffffffffffffffffffffffffffff168473ffffffffffffffffffffffffffffffffffffffff167fddf252ad1be2c89b69c2b068fc378daa952ba7f163c4a11628f55a4df523b3ef60405160405180910390a46111c083838361180e565b505050565b60008060019054906101000a900460ff161561123c5760018260ff161480156111f457506111f230611813565b155b611233576040517f08c379a000000000000000000000000000000000000000000000000000000000815260040161122a90612c4f565b60405180910390fd5b600090506112b0565b8160ff1660008054906101000a900460ff1660ff1610611291576040517f08c379a000000000000000000000000000000000000000000000000000000000815260040161128890612c4f565b60405180910390fd5b816000806101000a81548160ff021916908360ff160217905550600190505b919050565b600060019054906101000a900460ff16611304576040517f08c379a00000000000000000000000000000000000000000000000000000000081526004016112fb90612ce1565b60405180910390fd5b61130e8282611836565b5050565b6001816000016000828254019250508190555050565b600081600001549050919050565b600073ffffffffffffffffffffffffffffffffffffffff168273ffffffffffffffffffffffffffffffffffffffff16036113a5576040517f08c379a000000000000000000000000000000000000000000000000000000000815260040161139c90612d4d565b60405180910390fd5b6113ae81610d54565b156113ee576040517f08c379a00000000000000000000000000000000000000000000000000000000081526004016113e590612db9565b60405180910390fd5b6113fa60008383611809565b6001606860008473ffffffffffffffffffffffffffffffffffffffff1673ffffffffffffffffffffffffffffffffffffffff168152602001908152602001600020600082825461144a9190612b87565b92505081905550816067600083815260200190815260200160002060006101000a81548173ffffffffffffffffffffffffffffffffffffffff021916908373ffffffffffffffffffffffffffffffffffffffff160217905550808273ffffffffffffffffffffffffffffffffffffffff16600073ffffffffffffffffffffffffffffffffffffffff167fddf252ad1be2c89b69c2b068fc378daa952ba7f163c4a11628f55a4df523b3ef60405160405180910390a461150b6000838361180e565b5050565b61151882610d54565b611557576040517f08c379a000000000000000000000000000000000000000000000000000000000815260040161154e90612e4b565b60405180910390fd5b8060976000848152602001908152602001600020908051906020019061157e929190611b9e565b505050565b8173ffffffffffffffffffffffffffffffffffffffff168373ffffffffffffffffffffffffffffffffffffffff16036115f1576040517f08c379a00000000000000000000000000000000000000000000000000000000081526004016115e890612eb7565b60405180910390fd5b80606a60008573ffffffffffffffffffffffffffffffffffffffff1673ffffffffffffffffffffffffffffffffffffffff16815260200190815260200160002060008473ffffffffffffffffffffffffffffffffffffffff1673ffffffffffffffffffffffffffffffffffffffff16815260200190815260200160002060006101000a81548160ff0219169083151502179055508173ffffffffffffffffffffffffffffffffffffffff168373ffffffffffffffffffffffffffffffffffffffff167f17307eab39ab6107e8899845ad3d59bd9653f200f220920489ca2b5937696c31836040516116e29190611cf5565b60405180910390a3505050565b6116fa848484610f5f565b611706848484846118b7565b611745576040517f08c379a000000000000000000000000000000000000000000000000000000000815260040161173c90612f49565b60405180910390fd5b50505050565b606060405180602001604052806000815250905090565b606061176d82610d54565b6117ac576040517f08c379a00000000000000000000000000000000000000000000000000000000081526004016117a390612fdb565b60405180910390fd5b60006117b661174b565b905060008151116117d65760405180602001604052806000815250611801565b806117e084611a3e565b6040516020016117f192919061294a565b6040516020818303038152906040525b915050919050565b505050565b505050565b6000808273ffffffffffffffffffffffffffffffffffffffff163b119050919050565b600060019054906101000a900460ff16611885576040517f08c379a000000000000000000000000000000000000000000000000000000000815260040161187c90612ce1565b60405180910390fd5b816065908051906020019061189b929190611b9e565b5080606690805190602001906118b2929190611b9e565b505050565b60006118d88473ffffffffffffffffffffffffffffffffffffffff16611813565b15611a31578373ffffffffffffffffffffffffffffffffffffffff1663150b7a02611901610dc0565b8786866040518563ffffffff1660e01b81526004016119239493929190613050565b6020604051808303816000875af192505050801561195f57506040513d601f19601f8201168201806040525081019061195c91906130b1565b60015b6119e1573d806000811461198f576040519150601f19603f3d011682016040523d82523d6000602084013e611994565b606091505b5060008151036119d9576040517f08c379a00000000000000000000000000000000000000000000000000000000081526004016119d090612f49565b60405180910390fd5b805181602001fd5b63150b7a0260e01b7bffffffffffffffffffffffffffffffffffffffffffffffffffffffff1916817bffffffffffffffffffffffffffffffffffffffffffffffffffffffff191614915050611a36565b600190505b949350505050565b606060008203611a85576040518060400160405280600181526020017f30000000000000000000000000000000000000000000000000000000000000008152509050611b99565b600082905060005b60008214611ab7578080611aa0906130de565b915050600a82611ab09190613155565b9150611a8d565b60008167ffffffffffffffff811115611ad357611ad2611f53565b5b6040519080825280601f01601f191660200182016040528015611b055781602001600182028036833780820191505090505b5090505b60008514611b9257600182611b1e9190612b53565b9150600a85611b2d9190613186565b6030611b399190612b87565b60f81b818381518110611b4f57611b4e6131b7565b5b60200101907effffffffffffffffffffffffffffffffffffffffffffffffffffffffffffff1916908160001a905350600a85611b8b9190613155565b9450611b09565b8093505050505b919050565b828054611baa90612472565b90600052602060002090601f016020900481019282611bcc5760008555611c13565b82601f10611be557805160ff1916838001178555611c13565b82800160010185558215611c13579182015b82811115611c12578251825591602001919060010190611bf7565b5b509050611c209190611c24565b5090565b5b80821115611c3d576000816000905550600101611c25565b5090565b6000604051905090565b600080fd5b600080fd5b60007fffffffff0000000000000000000000000000000000000000000000000000000082169050919050565b611c8a81611c55565b8114611c9557600080fd5b50565b600081359050611ca781611c81565b92915050565b600060208284031215611cc357611cc2611c4b565b5b6000611cd184828501611c98565b91505092915050565b60008115159050919050565b611cef81611cda565b82525050565b6000602082019050611d0a6000830184611ce6565b92915050565b600081519050919050565b600082825260208201905092915050565b60005b83811015611d4a578082015181840152602081019050611d2f565b83811115611d59576000848401525b50505050565b6000601f19601f8301169050919050565b6000611d7b82611d10565b611d858185611d1b565b9350611d95818560208601611d2c565b611d9e81611d5f565b840191505092915050565b60006020820190508181036000830152611dc38184611d70565b905092915050565b6000819050919050565b611dde81611dcb565b8114611de957600080fd5b50565b600081359050611dfb81611dd5565b92915050565b600060208284031215611e1757611e16611c4b565b5b6000611e2584828501611dec565b91505092915050565b600073ffffffffffffffffffffffffffffffffffffffff82169050919050565b6000611e5982611e2e565b9050919050565b611e6981611e4e565b82525050565b6000602082019050611e846000830184611e60565b92915050565b611e9381611e4e565b8114611e9e57600080fd5b50565b600081359050611eb081611e8a565b92915050565b60008060408385031215611ecd57611ecc611c4b565b5b6000611edb85828601611ea1565b9250506020611eec85828601611dec565b9150509250929050565b600080600060608486031215611f0f57611f0e611c4b565b5b6000611f1d86828701611ea1565b9350506020611f2e86828701611ea1565b9250506040611f3f86828701611dec565b9150509250925092565b600080fd5b600080fd5b7f4e487b7100000000000000000000000000000000000000000000000000000000600052604160045260246000fd5b611f8b82611d5f565b810181811067ffffffffffffffff82111715611faa57611fa9611f53565b5b80604052505050565b6000611fbd611c41565b9050611fc98282611f82565b919050565b600067ffffffffffffffff821115611fe957611fe8611f53565b5b611ff282611d5f565b9050602081019050919050565b82818337600083830152505050565b600061202161201c84611fce565b611fb3565b90508281526020810184848401111561203d5761203c611f4e565b5b612048848285611fff565b509392505050565b600082601f83011261206557612064611f49565b5b813561207584826020860161200e565b91505092915050565b6000806040838503121561209557612094611c4b565b5b600083013567ffffffffffffffff8111156120b3576120b2611c50565b5b6120bf85828601612050565b925050602083013567ffffffffffffffff8111156120e0576120df611c50565b5b6120ec85828601612050565b9150509250929050565b60006020828403121561210c5761210b611c4b565b5b600061211a84828501611ea1565b91505092915050565b61212c81611dcb565b82525050565b60006020820190506121476000830184612123565b92915050565b61215681611cda565b811461216157600080fd5b50565b6000813590506121738161214d565b92915050565b600080600080600080600080610100898b03121561219a57612199611c4b565b5b60006121a88b828c01611ea1565b985050602089013567ffffffffffffffff8111156121c9576121c8611c50565b5b6121d58b828c01612050565b975050604089013567ffffffffffffffff8111156121f6576121f5611c50565b5b6122028b828c01612050565b965050606089013567ffffffffffffffff81111561222357612222611c50565b5b61222f8b828c01612050565b955050608089013567ffffffffffffffff8111156122505761224f611c50565b5b61225c8b828c01612050565b94505060a061226d8b828c01611dec565b93505060c061227e8b828c01612164565b92505060e061228f8b828c01612164565b9150509295985092959890939650565b600080604083850312156122b6576122b5611c4b565b5b60006122c485828601611ea1565b92505060206122d585828601612164565b9150509250929050565b600067ffffffffffffffff8211156122fa576122f9611f53565b5b61230382611d5f565b9050602081019050919050565b600061232361231e846122df565b611fb3565b90508281526020810184848401111561233f5761233e611f4e565b5b61234a848285611fff565b509392505050565b600082601f83011261236757612366611f49565b5b8135612377848260208601612310565b91505092915050565b6000806000806080858703121561239a57612399611c4b565b5b60006123a887828801611ea1565b94505060206123b987828801611ea1565b93505060406123ca87828801611dec565b925050606085013567ffffffffffffffff8111156123eb576123ea611c50565b5b6123f787828801612352565b91505092959194509250565b6000806040838503121561241a57612419611c4b565b5b600061242885828601611ea1565b925050602061243985828601611ea1565b9150509250929050565b7f4e487b7100000000000000000000000000000000000000000000000000000000600052602260045260246000fd5b6000600282049050600182168061248a57607f821691505b60208210810361249d5761249c612443565b5b50919050565b7f4552433732313a20617070726f76656420717565727920666f72206e6f6e657860008201527f697374656e7420746f6b656e0000000000000000000000000000000000000000602082015250565b60006124ff602c83611d1b565b915061250a826124a3565b604082019050919050565b6000602082019050818103600083015261252e816124f2565b9050919050565b7f4552433732313a20617070726f76616c20746f2063757272656e74206f776e6560008201527f7200000000000000000000000000000000000000000000000000000000000000602082015250565b6000612591602183611d1b565b915061259c82612535565b604082019050919050565b600060208201905081810360008301526125c081612584565b9050919050565b7f4552433732313a20617070726f76652063616c6c6572206973206e6f74206f7760008201527f6e6572206e6f7220617070726f76656420666f7220616c6c0000000000000000602082015250565b6000612623603883611d1b565b915061262e826125c7565b604082019050919050565b6000602082019050818103600083015261265281612616565b9050919050565b7f4552433732313a207472616e736665722063616c6c6572206973206e6f74206f60008201527f776e6572206e6f7220617070726f766564000000000000000000000000000000602082015250565b60006126b5603183611d1b565b91506126c082612659565b604082019050919050565b600060208201905081810360008301526126e4816126a8565b9050919050565b6000819050919050565b600060ff82169050919050565b6000819050919050565b600061272761272261271d846126eb565b612702565b6126f5565b9050919050565b6127378161270c565b82525050565b6000602082019050612752600083018461272e565b92915050565b7f4552433732313a206f776e657220717565727920666f72206e6f6e657869737460008201527f656e7420746f6b656e0000000000000000000000000000000000000000000000602082015250565b60006127b4602983611d1b565b91506127bf82612758565b604082019050919050565b600060208201905081810360008301526127e3816127a7565b9050919050565b7f4552433732313a2062616c616e636520717565727920666f7220746865207a6560008201527f726f206164647265737300000000000000000000000000000000000000000000602082015250565b6000612846602a83611d1b565b9150612851826127ea565b604082019050919050565b6000602082019050818103600083015261287581612839565b9050919050565b7f45524337323155524953746f726167653a2055524920717565727920666f722060008201527f6e6f6e6578697374656e7420746f6b656e000000000000000000000000000000602082015250565b60006128d8603183611d1b565b91506128e38261287c565b604082019050919050565b60006020820190508181036000830152612907816128cb565b9050919050565b600081905092915050565b600061292482611d10565b61292e818561290e565b935061293e818560208601611d2c565b80840191505092915050565b60006129568285612919565b91506129628284612919565b91508190509392505050565b7f4552433732313a206f70657261746f7220717565727920666f72206e6f6e657860008201527f697374656e7420746f6b656e0000000000000000000000000000000000000000602082015250565b60006129ca602c83611d1b565b91506129d58261296e565b604082019050919050565b600060208201905081810360008301526129f9816129bd565b9050919050565b7f4552433732313a207472616e736665722066726f6d20696e636f72726563742060008201527f6f776e6572000000000000000000000000000000000000000000000000000000602082015250565b6000612a5c602583611d1b565b9150612a6782612a00565b604082019050919050565b60006020820190508181036000830152612a8b81612a4f565b9050919050565b7f4552433732313a207472616e7366657220746f20746865207a65726f2061646460008201527f7265737300000000000000000000000000000000000000000000000000000000602082015250565b6000612aee602483611d1b565b9150612af982612a92565b604082019050919050565b60006020820190508181036000830152612b1d81612ae1565b9050919050565b7f4e487b7100000000000000000000000000000000000000000000000000000000600052601160045260246000fd5b6000612b5e82611dcb565b9150612b6983611dcb565b925082821015612b7c57612b7b612b24565b5b828203905092915050565b6000612b9282611dcb565b9150612b9d83611dcb565b9250827fffffffffffffffffffffffffffffffffffffffffffffffffffffffffffffffff03821115612bd257612bd1612b24565b5b828201905092915050565b7f496e697469616c697a61626c653a20636f6e747261637420697320616c72656160008201527f647920696e697469616c697a6564000000000000000000000000000000000000602082015250565b6000612c39602e83611d1b565b9150612c4482612bdd565b604082019050919050565b60006020820190508181036000830152612c6881612c2c565b9050919050565b7f496e697469616c697a61626c653a20636f6e7472616374206973206e6f74206960008201527f6e697469616c697a696e67000000000000000000000000000000000000000000602082015250565b6000612ccb602b83611d1b565b9150612cd682612c6f565b604082019050919050565b60006020820190508181036000830152612cfa81612cbe565b9050919050565b7f4552433732313a206d696e7420746f20746865207a65726f2061646472657373600082015250565b6000612d37602083611d1b565b9150612d4282612d01565b602082019050919050565b60006020820190508181036000830152612d6681612d2a565b9050919050565b7f4552433732313a20746f6b656e20616c7265616479206d696e74656400000000600082015250565b6000612da3601c83611d1b565b9150612dae82612d6d565b602082019050919050565b60006020820190508181036000830152612dd281612d96565b9050919050565b7f45524337323155524953746f726167653a2055524920736574206f66206e6f6e60008201527f6578697374656e7420746f6b656e000000000000000000000000000000000000602082015250565b6000612e35602e83611d1b565b9150612e4082612dd9565b604082019050919050565b60006020820190508181036000830152612e6481612e28565b9050919050565b7f4552433732313a20617070726f766520746f2063616c6c657200000000000000600082015250565b6000612ea1601983611d1b565b9150612eac82612e6b565b602082019050919050565b60006020820190508181036000830152612ed081612e94565b9050919050565b7f4552433732313a207472616e7366657220746f206e6f6e20455243373231526560008201527f63656976657220696d706c656d656e7465720000000000000000000000000000602082015250565b6000612f33603283611d1b565b9150612f3e82612ed7565b604082019050919050565b60006020820190508181036000830152612f6281612f26565b9050919050565b7f4552433732314d657461646174613a2055524920717565727920666f72206e6f60008201527f6e6578697374656e7420746f6b656e0000000000000000000000000000000000602082015250565b6000612fc5602f83611d1b565b9150612fd082612f69565b604082019050919050565b60006020820190508181036000830152612ff481612fb8565b9050919050565b600081519050919050565b600082825260208201905092915050565b600061302282612ffb565b61302c8185613006565b935061303c818560208601611d2c565b61304581611d5f565b840191505092915050565b60006080820190506130656000830187611e60565b6130726020830186611e60565b61307f6040830185612123565b81810360608301526130918184613017565b905095945050505050565b6000815190506130ab81611c81565b92915050565b6000602082840312156130c7576130c6611c4b565b5b60006130d58482850161309c565b91505092915050565b60006130e982611dcb565b91507fffffffffffffffffffffffffffffffffffffffffffffffffffffffffffffffff820361311b5761311a612b24565b5b600182019050919050565b7f4e487b7100000000000000000000000000000000000000000000000000000000600052601260045260246000fd5b600061316082611dcb565b915061316b83611dcb565b92508261317b5761317a613126565b5b828204905092915050565b600061319182611dcb565b915061319c83611dcb565b9250826131ac576131ab613126565b5b828206905092915050565b7f4e487b7100000000000000000000000000000000000000000000000000000000600052603260045260246000fdfea2646970667358221220620c71baa41da7858551ea64f8bccd25afb1efe74969e428426a34723b2a36d864736f6c634300080d0033",
  "immutableReferences": {},
  "source": "// SPDX-License-Identifier: MIT\npragma solidity 0.8.13;\n\nimport \"../node_modules/@openzeppelin/contracts/token/ERC721/ERC721.sol\";\nimport \"../node_modules/@openzeppelin/contracts/utils/Counters.sol\";\nimport \"../node_modules/@openzeppelin/contracts-upgradeable/proxy/utils/Initializable.sol\";\nimport \"../node_modules/@openzeppelin/contracts-upgradeable/token/ERC721/extensions/ERC721URIStorageUpgradeable.sol\";\n// to implement\nimport \"../node_modules/@openzeppelin/contracts/token/ERC721/extensions/ERC721Enumerable.sol\";\nimport \"../node_modules/@openzeppelin/contracts/token/ERC721/extensions/IERC721Metadata.sol\";\n\n/// @title NFTCollections contract\n/// @author Sebastien Gazeau, Sbastien Dupertuis et Alexis Mendoza\n/// @dev The contract code contains comments for developers only visible in the source code\ncontract NFTCollections is Initializable, ERC721URIStorageUpgradeable {\n    using Counters for Counters.Counter;\n    Counters.Counter private _tokenIds;\n\n    // Structure of the NFT\n    struct NFT {\n        string name;\n        string description;\n        string tag;\n        uint256 price;\n        bool favorite;\n        bool isAuctionable;\n    }\n    NFT[] collection;\n\n    /// @notice initialization of the ERC271\n    /// @param _name name of the collection\n    /// @param _symbol symbol of the collection\n    function initialize(string memory _name, string memory _symbol)\n        public\n        initializer\n    {\n        __ERC721_init(_name, _symbol);\n    }\n\n    /// @notice mint from the collection\n    /// @param _user NFT and collection user\n    /// @param _tokenURI Token\n    /// @param _name Description of the NFT\n    /// @param _description Description of the NFT\n    /// @param _tag Tag of the NFT\n    /// @param _price NFT price\n    /// @param _favorite NFT favorite\n    /// @param _isAuctionable NFT auctioned\n    /// @return newItemId New id of the item that has been minted\n    function MintNFTCollection(\n        address _user,\n        string memory _tokenURI,\n        string memory _name,\n        string memory _description,\n        string memory _tag,\n        uint256 _price,\n        bool _favorite,\n        bool _isAuctionable\n    ) public returns (uint256) {\n        _tokenIds.increment();\n        collection.push(\n            NFT(_name, _description, _tag, _price, _favorite, _isAuctionable)\n        );\n        uint256 newItemId = _tokenIds.current();\n        _mint(_user, newItemId);\n        _setTokenURI(newItemId, _tokenURI);\n\n        return newItemId;\n    }\n}\n",
  "sourcePath": "/home/sebastien/Documents/cours/project-nft-cyon/contracts/NFTCollections.sol",
  "compiler": {
    "name": "solc",
    "version": "0.8.13+commit.abaa5c0e.Emscripten.clang"
  },
  "schemaVersion": "3.4.7",
  "updatedAt": "2022-05-09T11:13:22.463Z",
  "networkType": "ethereum",
  "devdoc": {
    "author": "Sebastien Gazeau, Sbastien Dupertuis et Alexis Mendoza",
    "details": "The contract code contains comments for developers only visible in the source code",
    "kind": "dev",
    "methods": {
      "MintNFTCollection(address,string,string,string,string,uint256,bool,bool)": {
        "params": {
          "_description": "Description of the NFT",
          "_favorite": "NFT favorite",
          "_isAuctionable": "NFT auctioned",
          "_name": "Description of the NFT",
          "_price": "NFT price",
          "_tag": "Tag of the NFT",
          "_tokenURI": "Token",
          "_user": "NFT and collection user"
        },
        "returns": {
          "_0": "newItemId New id of the item that has been minted"
        }
      },
      "approve(address,uint256)": {
        "details": "See {IERC721-approve}."
      },
      "balanceOf(address)": {
        "details": "See {IERC721-balanceOf}."
      },
      "getApproved(uint256)": {
        "details": "See {IERC721-getApproved}."
      },
      "initialize(string,string)": {
        "params": {
          "_name": "name of the collection",
          "_symbol": "symbol of the collection"
        }
      },
      "isApprovedForAll(address,address)": {
        "details": "See {IERC721-isApprovedForAll}."
      },
      "name()": {
        "details": "See {IERC721Metadata-name}."
      },
      "ownerOf(uint256)": {
        "details": "See {IERC721-ownerOf}."
      },
      "safeTransferFrom(address,address,uint256)": {
        "details": "See {IERC721-safeTransferFrom}."
      },
      "safeTransferFrom(address,address,uint256,bytes)": {
        "details": "See {IERC721-safeTransferFrom}."
      },
      "setApprovalForAll(address,bool)": {
        "details": "See {IERC721-setApprovalForAll}."
      },
      "supportsInterface(bytes4)": {
        "details": "See {IERC165-supportsInterface}."
      },
      "symbol()": {
        "details": "See {IERC721Metadata-symbol}."
      },
      "tokenURI(uint256)": {
        "details": "See {IERC721Metadata-tokenURI}."
      },
      "transferFrom(address,address,uint256)": {
        "details": "See {IERC721-transferFrom}."
      }
    },
    "title": "NFTCollections contract",
    "version": 1
  },
  "userdoc": {
    "kind": "user",
    "methods": {
      "MintNFTCollection(address,string,string,string,string,uint256,bool,bool)": {
        "notice": "mint from the collection"
      },
      "initialize(string,string)": {
        "notice": "initialization of the ERC271"
      }
    },
    "version": 1
  }
}