{
  "contractName": "NFTCollections",
  "abi": [
    {
      "inputs": [
        {
          "internalType": "string",
          "name": "_name",
          "type": "string"
        },
        {
          "internalType": "string",
          "name": "_symbol",
          "type": "string"
        }
      ],
      "stateMutability": "nonpayable",
      "type": "constructor"
    },
    {
      "anonymous": false,
      "inputs": [
        {
          "indexed": true,
          "internalType": "address",
          "name": "owner",
          "type": "address"
        },
        {
          "indexed": true,
          "internalType": "address",
          "name": "approved",
          "type": "address"
        },
        {
          "indexed": true,
          "internalType": "uint256",
          "name": "tokenId",
          "type": "uint256"
        }
      ],
      "name": "Approval",
      "type": "event"
    },
    {
      "anonymous": false,
      "inputs": [
        {
          "indexed": true,
          "internalType": "address",
          "name": "owner",
          "type": "address"
        },
        {
          "indexed": true,
          "internalType": "address",
          "name": "operator",
          "type": "address"
        },
        {
          "indexed": false,
          "internalType": "bool",
          "name": "approved",
          "type": "bool"
        }
      ],
      "name": "ApprovalForAll",
      "type": "event"
    },
    {
      "anonymous": false,
      "inputs": [
        {
          "indexed": false,
          "internalType": "string",
          "name": "_collectionName",
          "type": "string"
        },
        {
          "indexed": false,
          "internalType": "address",
          "name": "_collectionAddress",
          "type": "address"
        },
        {
          "indexed": false,
          "internalType": "uint256",
          "name": "_tokenID",
          "type": "uint256"
        },
        {
          "components": [
            {
              "internalType": "string",
              "name": "name",
              "type": "string"
            },
            {
              "internalType": "string",
              "name": "description",
              "type": "string"
            },
            {
              "internalType": "string",
              "name": "tag",
              "type": "string"
            },
            {
              "internalType": "address",
              "name": "tokenAddress",
              "type": "address"
            },
            {
              "internalType": "uint256",
              "name": "price",
              "type": "uint256"
            },
            {
              "internalType": "bool",
              "name": "favorite",
              "type": "bool"
            },
            {
              "internalType": "bool",
              "name": "isAuctionable",
              "type": "bool"
            }
          ],
          "indexed": false,
          "internalType": "struct NFTCollections.NFT",
          "name": "_collectionData",
          "type": "tuple"
        },
        {
          "indexed": false,
          "internalType": "address",
          "name": "_creator",
          "type": "address"
        }
      ],
      "name": "NFTCreated",
      "type": "event"
    },
    {
      "anonymous": false,
      "inputs": [
        {
          "indexed": false,
          "internalType": "string",
          "name": "_collectionName",
          "type": "string"
        },
        {
          "indexed": false,
          "internalType": "address",
          "name": "_collectionAddress",
          "type": "address"
        },
        {
          "indexed": false,
          "internalType": "uint256",
          "name": "_tokenID",
          "type": "uint256"
        },
        {
          "indexed": false,
          "internalType": "uint256",
          "name": "_price",
          "type": "uint256"
        }
      ],
      "name": "NewPriceSet",
      "type": "event"
    },
    {
      "anonymous": false,
      "inputs": [
        {
          "indexed": true,
          "internalType": "address",
          "name": "from",
          "type": "address"
        },
        {
          "indexed": true,
          "internalType": "address",
          "name": "to",
          "type": "address"
        },
        {
          "indexed": true,
          "internalType": "uint256",
          "name": "tokenId",
          "type": "uint256"
        }
      ],
      "name": "Transfer",
      "type": "event"
    },
    {
      "inputs": [
        {
          "internalType": "address",
          "name": "to",
          "type": "address"
        },
        {
          "internalType": "uint256",
          "name": "tokenId",
          "type": "uint256"
        }
      ],
      "name": "approve",
      "outputs": [],
      "stateMutability": "nonpayable",
      "type": "function"
    },
    {
      "inputs": [
        {
          "internalType": "address",
          "name": "owner",
          "type": "address"
        }
      ],
      "name": "balanceOf",
      "outputs": [
        {
          "internalType": "uint256",
          "name": "",
          "type": "uint256"
        }
      ],
      "stateMutability": "view",
      "type": "function"
    },
    {
      "inputs": [
        {
          "internalType": "uint256",
          "name": "tokenId",
          "type": "uint256"
        }
      ],
      "name": "getApproved",
      "outputs": [
        {
          "internalType": "address",
          "name": "",
          "type": "address"
        }
      ],
      "stateMutability": "view",
      "type": "function"
    },
    {
      "inputs": [
        {
          "internalType": "address",
          "name": "owner",
          "type": "address"
        },
        {
          "internalType": "address",
          "name": "operator",
          "type": "address"
        }
      ],
      "name": "isApprovedForAll",
      "outputs": [
        {
          "internalType": "bool",
          "name": "",
          "type": "bool"
        }
      ],
      "stateMutability": "view",
      "type": "function"
    },
    {
      "inputs": [],
      "name": "name",
      "outputs": [
        {
          "internalType": "string",
          "name": "",
          "type": "string"
        }
      ],
      "stateMutability": "view",
      "type": "function"
    },
    {
      "inputs": [
        {
          "internalType": "uint256",
          "name": "tokenId",
          "type": "uint256"
        }
      ],
      "name": "ownerOf",
      "outputs": [
        {
          "internalType": "address",
          "name": "",
          "type": "address"
        }
      ],
      "stateMutability": "view",
      "type": "function"
    },
    {
      "inputs": [
        {
          "internalType": "address",
          "name": "from",
          "type": "address"
        },
        {
          "internalType": "address",
          "name": "to",
          "type": "address"
        },
        {
          "internalType": "uint256",
          "name": "tokenId",
          "type": "uint256"
        }
      ],
      "name": "safeTransferFrom",
      "outputs": [],
      "stateMutability": "nonpayable",
      "type": "function"
    },
    {
      "inputs": [
        {
          "internalType": "address",
          "name": "from",
          "type": "address"
        },
        {
          "internalType": "address",
          "name": "to",
          "type": "address"
        },
        {
          "internalType": "uint256",
          "name": "tokenId",
          "type": "uint256"
        },
        {
          "internalType": "bytes",
          "name": "_data",
          "type": "bytes"
        }
      ],
      "name": "safeTransferFrom",
      "outputs": [],
      "stateMutability": "nonpayable",
      "type": "function"
    },
    {
      "inputs": [
        {
          "internalType": "address",
          "name": "operator",
          "type": "address"
        },
        {
          "internalType": "bool",
          "name": "approved",
          "type": "bool"
        }
      ],
      "name": "setApprovalForAll",
      "outputs": [],
      "stateMutability": "nonpayable",
      "type": "function"
    },
    {
      "inputs": [
        {
          "internalType": "bytes4",
          "name": "interfaceId",
          "type": "bytes4"
        }
      ],
      "name": "supportsInterface",
      "outputs": [
        {
          "internalType": "bool",
          "name": "",
          "type": "bool"
        }
      ],
      "stateMutability": "view",
      "type": "function"
    },
    {
      "inputs": [],
      "name": "symbol",
      "outputs": [
        {
          "internalType": "string",
          "name": "",
          "type": "string"
        }
      ],
      "stateMutability": "view",
      "type": "function"
    },
    {
      "inputs": [
        {
          "internalType": "uint256",
          "name": "tokenId",
          "type": "uint256"
        }
      ],
      "name": "tokenURI",
      "outputs": [
        {
          "internalType": "string",
          "name": "",
          "type": "string"
        }
      ],
      "stateMutability": "view",
      "type": "function"
    },
    {
      "inputs": [
        {
          "internalType": "address",
          "name": "from",
          "type": "address"
        },
        {
          "internalType": "address",
          "name": "to",
          "type": "address"
        },
        {
          "internalType": "uint256",
          "name": "tokenId",
          "type": "uint256"
        }
      ],
      "name": "transferFrom",
      "outputs": [],
      "stateMutability": "nonpayable",
      "type": "function"
    },
    {
      "inputs": [
        {
          "internalType": "address",
          "name": "_firstOwner",
          "type": "address"
        },
        {
          "internalType": "address",
          "name": "_creator",
          "type": "address"
        },
        {
          "internalType": "string",
          "name": "_tokenURI",
          "type": "string"
        },
        {
          "internalType": "string",
          "name": "_name",
          "type": "string"
        },
        {
          "internalType": "string",
          "name": "_description",
          "type": "string"
        },
        {
          "internalType": "string",
          "name": "_tag",
          "type": "string"
        },
        {
          "internalType": "address",
          "name": "_tokenAddress",
          "type": "address"
        },
        {
          "internalType": "uint256",
          "name": "_price",
          "type": "uint256"
        },
        {
          "internalType": "bool",
          "name": "_favorite",
          "type": "bool"
        },
        {
          "internalType": "bool",
          "name": "_isAuctionable",
          "type": "bool"
        }
      ],
      "name": "MintNFT",
      "outputs": [
        {
          "internalType": "uint256",
          "name": "",
          "type": "uint256"
        }
      ],
      "stateMutability": "nonpayable",
      "type": "function"
    },
    {
      "inputs": [
        {
          "internalType": "uint256",
          "name": "_tokenID",
          "type": "uint256"
        },
        {
          "internalType": "uint256",
          "name": "_price",
          "type": "uint256"
        }
      ],
      "name": "setPrice",
      "outputs": [],
      "stateMutability": "nonpayable",
      "type": "function"
    },
    {
      "inputs": [
        {
          "internalType": "uint256",
          "name": "_tokenID",
          "type": "uint256"
        }
      ],
      "name": "getPrice",
      "outputs": [
        {
          "internalType": "uint256",
          "name": "",
          "type": "uint256"
        }
      ],
      "stateMutability": "view",
      "type": "function"
    },
    {
      "inputs": [],
      "name": "getTotalSupply",
      "outputs": [
        {
          "internalType": "uint256",
          "name": "",
          "type": "uint256"
        }
      ],
      "stateMutability": "view",
      "type": "function"
    }
  ],
  "bytecode": "0x60806040523480156200001157600080fd5b506040516200386f3803806200386f8339818101604052810190620000379190620002c2565b818181600090805190602001906200005192919062000075565b5080600190805190602001906200006a92919062000075565b5050505050620003ab565b828054620000839062000376565b90600052602060002090601f016020900481019282620000a75760008555620000f3565b82601f10620000c257805160ff1916838001178555620000f3565b82800160010185558215620000f3579182015b82811115620000f2578251825591602001919060010190620000d5565b5b50905062000102919062000106565b5090565b5b808211156200012157600081600090555060010162000107565b5090565b6000604051905090565b600080fd5b600080fd5b600080fd5b600080fd5b6000601f19601f8301169050919050565b7f4e487b7100000000000000000000000000000000000000000000000000000000600052604160045260246000fd5b6200018e8262000143565b810181811067ffffffffffffffff82111715620001b057620001af62000154565b5b80604052505050565b6000620001c562000125565b9050620001d3828262000183565b919050565b600067ffffffffffffffff821115620001f657620001f562000154565b5b620002018262000143565b9050602081019050919050565b60005b838110156200022e57808201518184015260208101905062000211565b838111156200023e576000848401525b50505050565b60006200025b6200025584620001d8565b620001b9565b9050828152602081018484840111156200027a57620002796200013e565b5b620002878482856200020e565b509392505050565b600082601f830112620002a757620002a662000139565b5b8151620002b984826020860162000244565b91505092915050565b60008060408385031215620002dc57620002db6200012f565b5b600083015167ffffffffffffffff811115620002fd57620002fc62000134565b5b6200030b858286016200028f565b925050602083015167ffffffffffffffff8111156200032f576200032e62000134565b5b6200033d858286016200028f565b9150509250929050565b7f4e487b7100000000000000000000000000000000000000000000000000000000600052602260045260246000fd5b600060028204905060018216806200038f57607f821691505b602082108103620003a557620003a462000347565b5b50919050565b6134b480620003bb6000396000f3fe608060405234801561001057600080fd5b506004361061010b5760003560e01c806370a08231116100a2578063c4e41b2211610071578063c4e41b22146102c8578063c87b56dd146102e6578063e757223014610316578063e985e9c514610346578063f7d97577146103765761010b565b806370a082311461024257806395d89b4114610272578063a22cb46514610290578063b88d4fde146102ac5761010b565b806323b872dd116100de57806323b872dd146101aa578063338e111e146101c657806342842e0e146101f65780636352211e146102125761010b565b806301ffc9a71461011057806306fdde0314610140578063081812fc1461015e578063095ea7b31461018e575b600080fd5b61012a60048036038101906101259190611d25565b610392565b6040516101379190611d6d565b60405180910390f35b610148610474565b6040516101559190611e21565b60405180910390f35b61017860048036038101906101739190611e79565b610506565b6040516101859190611ee7565b60405180910390f35b6101a860048036038101906101a39190611f2e565b61058b565b005b6101c460048036038101906101bf9190611f6e565b6106a2565b005b6101e060048036038101906101db9190612122565b610702565b6040516101ed9190612280565b60405180910390f35b610210600480360381019061020b9190611f6e565b610983565b005b61022c60048036038101906102279190611e79565b6109a3565b6040516102399190611ee7565b60405180910390f35b61025c6004803603810190610257919061229b565b610a54565b6040516102699190612280565b60405180910390f35b61027a610b0b565b6040516102879190611e21565b60405180910390f35b6102aa60048036038101906102a591906122c8565b610b9d565b005b6102c660048036038101906102c191906123a9565b610bb3565b005b6102d0610c15565b6040516102dd9190612280565b60405180910390f35b61030060048036038101906102fb9190611e79565b610c26565b60405161030d9190611e21565b60405180910390f35b610330600480360381019061032b9190611e79565b610d77565b60405161033d9190612280565b60405180910390f35b610360600480360381019061035b919061242c565b610db2565b60405161036d9190611d6d565b60405180910390f35b610390600480360381019061038b919061246c565b610e46565b005b60007f80ac58cd000000000000000000000000000000000000000000000000000000007bffffffffffffffffffffffffffffffffffffffffffffffffffffffff1916827bffffffffffffffffffffffffffffffffffffffffffffffffffffffff1916148061045d57507f5b5e139f000000000000000000000000000000000000000000000000000000007bffffffffffffffffffffffffffffffffffffffffffffffffffffffff1916827bffffffffffffffffffffffffffffffffffffffffffffffffffffffff1916145b8061046d575061046c82610f30565b5b9050919050565b606060008054610483906124db565b80601f01602080910402602001604051908101604052809291908181526020018280546104af906124db565b80156104fc5780601f106104d1576101008083540402835291602001916104fc565b820191906000526020600020905b8154815290600101906020018083116104df57829003601f168201915b5050505050905090565b600061051182610f9a565b610550576040517f08c379a00000000000000000000000000000000000000000000000000000000081526004016105479061257e565b60405180910390fd5b6004600083815260200190815260200160002060009054906101000a900473ffffffffffffffffffffffffffffffffffffffff169050919050565b6000610596826109a3565b90508073ffffffffffffffffffffffffffffffffffffffff168373ffffffffffffffffffffffffffffffffffffffff1603610606576040517f08c379a00000000000000000000000000000000000000000000000000000000081526004016105fd90612610565b60405180910390fd5b8073ffffffffffffffffffffffffffffffffffffffff16610625611006565b73ffffffffffffffffffffffffffffffffffffffff16148061065457506106538161064e611006565b610db2565b5b610693576040517f08c379a000000000000000000000000000000000000000000000000000000000815260040161068a906126a2565b60405180910390fd5b61069d838361100e565b505050565b6106b36106ad611006565b826110c7565b6106f2576040517f08c379a00000000000000000000000000000000000000000000000000000000081526004016106e990612734565b60405180910390fd5b6106fd8383836111a5565b505050565b600061070e600761140b565b60086040518060e001604052808a81526020018981526020018881526020018773ffffffffffffffffffffffffffffffffffffffff1681526020018681526020018515158152602001841515815250908060018154018082558091505060019003906000526020600020906006020160009091909190915060008201518160000190805190602001906107a2929190611c16565b5060208201518160010190805190602001906107bf929190611c16565b5060408201518160020190805190602001906107dc929190611c16565b5060608201518160030160006101000a81548173ffffffffffffffffffffffffffffffffffffffff021916908373ffffffffffffffffffffffffffffffffffffffff1602179055506080820151816004015560a08201518160050160006101000a81548160ff02191690831515021790555060c08201518160050160016101000a81548160ff0219169083151502179055505050600061087c6007611421565b90506108888c8261142f565b610892818b611608565b7f273b433d4280597bf13dc2dc5f2a5712a07000eaf6607c9905e91971ff2a858a3073ffffffffffffffffffffffffffffffffffffffff166306fdde036040518163ffffffff1660e01b8152600401600060405180830381865afa1580156108fe573d6000803e3d6000fd5b505050506040513d6000823e3d601f19601f8201168201806040525081019061092791906127c4565b30836008600186610938919061283c565b8154811061094957610948612870565b5b90600052602060002090600602018f604051610969959493929190612af9565b60405180910390a1809150509a9950505050505050505050565b61099e83838360405180602001604052806000815250610bb3565b505050565b6000806002600084815260200190815260200160002060009054906101000a900473ffffffffffffffffffffffffffffffffffffffff169050600073ffffffffffffffffffffffffffffffffffffffff168173ffffffffffffffffffffffffffffffffffffffff1603610a4b576040517f08c379a0000000000000000000000000000000000000000000000000000000008152600401610a4290612bcc565b60405180910390fd5b80915050919050565b60008073ffffffffffffffffffffffffffffffffffffffff168273ffffffffffffffffffffffffffffffffffffffff1603610ac4576040517f08c379a0000000000000000000000000000000000000000000000000000000008152600401610abb90612c5e565b60405180910390fd5b600360008373ffffffffffffffffffffffffffffffffffffffff1673ffffffffffffffffffffffffffffffffffffffff168152602001908152602001600020549050919050565b606060018054610b1a906124db565b80601f0160208091040260200160405190810160405280929190818152602001828054610b46906124db565b8015610b935780601f10610b6857610100808354040283529160200191610b93565b820191906000526020600020905b815481529060010190602001808311610b7657829003601f168201915b5050505050905090565b610baf610ba8611006565b838361167c565b5050565b610bc4610bbe611006565b836110c7565b610c03576040517f08c379a0000000000000000000000000000000000000000000000000000000008152600401610bfa90612734565b60405180910390fd5b610c0f848484846117e8565b50505050565b6000610c216007611421565b905090565b6060610c3182610f9a565b610c70576040517f08c379a0000000000000000000000000000000000000000000000000000000008152600401610c6790612cf0565b60405180910390fd5b6000600660008481526020019081526020016000208054610c90906124db565b80601f0160208091040260200160405190810160405280929190818152602001828054610cbc906124db565b8015610d095780601f10610cde57610100808354040283529160200191610d09565b820191906000526020600020905b815481529060010190602001808311610cec57829003601f168201915b505050505090506000610d1a611844565b90506000815103610d2f578192505050610d72565b600082511115610d64578082604051602001610d4c929190612d4c565b60405160208183030381529060405292505050610d72565b610d6d8461185b565b925050505b919050565b60006008600183610d88919061283c565b81548110610d9957610d98612870565b5b9060005260206000209060060201600401549050919050565b6000600560008473ffffffffffffffffffffffffffffffffffffffff1673ffffffffffffffffffffffffffffffffffffffff16815260200190815260200160002060008373ffffffffffffffffffffffffffffffffffffffff1673ffffffffffffffffffffffffffffffffffffffff16815260200190815260200160002060009054906101000a900460ff16905092915050565b806008600184610e56919061283c565b81548110610e6757610e66612870565b5b9060005260206000209060060201600401819055507f8cad8957ee10ddd3d8f599648ff555c669f911cbd76d32673627c3b59c10315b3073ffffffffffffffffffffffffffffffffffffffff166306fdde036040518163ffffffff1660e01b8152600401600060405180830381865afa158015610ee8573d6000803e3d6000fd5b505050506040513d6000823e3d601f19601f82011682018060405250810190610f1191906127c4565b308484604051610f249493929190612d70565b60405180910390a15050565b60007f01ffc9a7000000000000000000000000000000000000000000000000000000007bffffffffffffffffffffffffffffffffffffffffffffffffffffffff1916827bffffffffffffffffffffffffffffffffffffffffffffffffffffffff1916149050919050565b60008073ffffffffffffffffffffffffffffffffffffffff166002600084815260200190815260200160002060009054906101000a900473ffffffffffffffffffffffffffffffffffffffff1673ffffffffffffffffffffffffffffffffffffffff1614159050919050565b600033905090565b816004600083815260200190815260200160002060006101000a81548173ffffffffffffffffffffffffffffffffffffffff021916908373ffffffffffffffffffffffffffffffffffffffff160217905550808273ffffffffffffffffffffffffffffffffffffffff16611081836109a3565b73ffffffffffffffffffffffffffffffffffffffff167f8c5be1e5ebec7d5bd14f71427d1e84f3dd0314c0f7b2291e5b200ac8c7c3b92560405160405180910390a45050565b60006110d282610f9a565b611111576040517f08c379a000000000000000000000000000000000000000000000000000000000815260040161110890612e2e565b60405180910390fd5b600061111c836109a3565b90508073ffffffffffffffffffffffffffffffffffffffff168473ffffffffffffffffffffffffffffffffffffffff16148061115e575061115d8185610db2565b5b8061119c57508373ffffffffffffffffffffffffffffffffffffffff1661118484610506565b73ffffffffffffffffffffffffffffffffffffffff16145b91505092915050565b8273ffffffffffffffffffffffffffffffffffffffff166111c5826109a3565b73ffffffffffffffffffffffffffffffffffffffff161461121b576040517f08c379a000000000000000000000000000000000000000000000000000000000815260040161121290612ec0565b60405180910390fd5b600073ffffffffffffffffffffffffffffffffffffffff168273ffffffffffffffffffffffffffffffffffffffff160361128a576040517f08c379a000000000000000000000000000000000000000000000000000000000815260040161128190612f52565b60405180910390fd5b611295838383611902565b6112a060008261100e565b6001600360008573ffffffffffffffffffffffffffffffffffffffff1673ffffffffffffffffffffffffffffffffffffffff16815260200190815260200160002060008282546112f0919061283c565b925050819055506001600360008473ffffffffffffffffffffffffffffffffffffffff1673ffffffffffffffffffffffffffffffffffffffff16815260200190815260200160002060008282546113479190612f72565b92505081905550816002600083815260200190815260200160002060006101000a81548173ffffffffffffffffffffffffffffffffffffffff021916908373ffffffffffffffffffffffffffffffffffffffff160217905550808273ffffffffffffffffffffffffffffffffffffffff168473ffffffffffffffffffffffffffffffffffffffff167fddf252ad1be2c89b69c2b068fc378daa952ba7f163c4a11628f55a4df523b3ef60405160405180910390a4611406838383611907565b505050565b6001816000016000828254019250508190555050565b600081600001549050919050565b600073ffffffffffffffffffffffffffffffffffffffff168273ffffffffffffffffffffffffffffffffffffffff160361149e576040517f08c379a000000000000000000000000000000000000000000000000000000000815260040161149590613014565b60405180910390fd5b6114a781610f9a565b156114e7576040517f08c379a00000000000000000000000000000000000000000000000000000000081526004016114de90613080565b60405180910390fd5b6114f360008383611902565b6001600360008473ffffffffffffffffffffffffffffffffffffffff1673ffffffffffffffffffffffffffffffffffffffff16815260200190815260200160002060008282546115439190612f72565b92505081905550816002600083815260200190815260200160002060006101000a81548173ffffffffffffffffffffffffffffffffffffffff021916908373ffffffffffffffffffffffffffffffffffffffff160217905550808273ffffffffffffffffffffffffffffffffffffffff16600073ffffffffffffffffffffffffffffffffffffffff167fddf252ad1be2c89b69c2b068fc378daa952ba7f163c4a11628f55a4df523b3ef60405160405180910390a461160460008383611907565b5050565b61161182610f9a565b611650576040517f08c379a000000000000000000000000000000000000000000000000000000000815260040161164790613112565b60405180910390fd5b80600660008481526020019081526020016000209080519060200190611677929190611c16565b505050565b8173ffffffffffffffffffffffffffffffffffffffff168373ffffffffffffffffffffffffffffffffffffffff16036116ea576040517f08c379a00000000000000000000000000000000000000000000000000000000081526004016116e19061317e565b60405180910390fd5b80600560008573ffffffffffffffffffffffffffffffffffffffff1673ffffffffffffffffffffffffffffffffffffffff16815260200190815260200160002060008473ffffffffffffffffffffffffffffffffffffffff1673ffffffffffffffffffffffffffffffffffffffff16815260200190815260200160002060006101000a81548160ff0219169083151502179055508173ffffffffffffffffffffffffffffffffffffffff168373ffffffffffffffffffffffffffffffffffffffff167f17307eab39ab6107e8899845ad3d59bd9653f200f220920489ca2b5937696c31836040516117db9190611d6d565b60405180910390a3505050565b6117f38484846111a5565b6117ff8484848461190c565b61183e576040517f08c379a000000000000000000000000000000000000000000000000000000000815260040161183590613210565b60405180910390fd5b50505050565b606060405180602001604052806000815250905090565b606061186682610f9a565b6118a5576040517f08c379a000000000000000000000000000000000000000000000000000000000815260040161189c906132a2565b60405180910390fd5b60006118af611844565b905060008151116118cf57604051806020016040528060008152506118fa565b806118d984611a93565b6040516020016118ea929190612d4c565b6040516020818303038152906040525b915050919050565b505050565b505050565b600061192d8473ffffffffffffffffffffffffffffffffffffffff16611bf3565b15611a86578373ffffffffffffffffffffffffffffffffffffffff1663150b7a02611956611006565b8786866040518563ffffffff1660e01b81526004016119789493929190613317565b6020604051808303816000875af19250505080156119b457506040513d601f19601f820116820180604052508101906119b19190613378565b60015b611a36573d80600081146119e4576040519150601f19603f3d011682016040523d82523d6000602084013e6119e9565b606091505b506000815103611a2e576040517f08c379a0000000000000000000000000000000000000000000000000000000008152600401611a2590613210565b60405180910390fd5b805181602001fd5b63150b7a0260e01b7bffffffffffffffffffffffffffffffffffffffffffffffffffffffff1916817bffffffffffffffffffffffffffffffffffffffffffffffffffffffff191614915050611a8b565b600190505b949350505050565b606060008203611ada576040518060400160405280600181526020017f30000000000000000000000000000000000000000000000000000000000000008152509050611bee565b600082905060005b60008214611b0c578080611af5906133a5565b915050600a82611b05919061341c565b9150611ae2565b60008167ffffffffffffffff811115611b2857611b27611fcb565b5b6040519080825280601f01601f191660200182016040528015611b5a5781602001600182028036833780820191505090505b5090505b60008514611be757600182611b73919061283c565b9150600a85611b82919061344d565b6030611b8e9190612f72565b60f81b818381518110611ba457611ba3612870565b5b60200101907effffffffffffffffffffffffffffffffffffffffffffffffffffffffffffff1916908160001a905350600a85611be0919061341c565b9450611b5e565b8093505050505b919050565b6000808273ffffffffffffffffffffffffffffffffffffffff163b119050919050565b828054611c22906124db565b90600052602060002090601f016020900481019282611c445760008555611c8b565b82601f10611c5d57805160ff1916838001178555611c8b565b82800160010185558215611c8b579182015b82811115611c8a578251825591602001919060010190611c6f565b5b509050611c989190611c9c565b5090565b5b80821115611cb5576000816000905550600101611c9d565b5090565b6000604051905090565b600080fd5b600080fd5b60007fffffffff0000000000000000000000000000000000000000000000000000000082169050919050565b611d0281611ccd565b8114611d0d57600080fd5b50565b600081359050611d1f81611cf9565b92915050565b600060208284031215611d3b57611d3a611cc3565b5b6000611d4984828501611d10565b91505092915050565b60008115159050919050565b611d6781611d52565b82525050565b6000602082019050611d826000830184611d5e565b92915050565b600081519050919050565b600082825260208201905092915050565b60005b83811015611dc2578082015181840152602081019050611da7565b83811115611dd1576000848401525b50505050565b6000601f19601f8301169050919050565b6000611df382611d88565b611dfd8185611d93565b9350611e0d818560208601611da4565b611e1681611dd7565b840191505092915050565b60006020820190508181036000830152611e3b8184611de8565b905092915050565b6000819050919050565b611e5681611e43565b8114611e6157600080fd5b50565b600081359050611e7381611e4d565b92915050565b600060208284031215611e8f57611e8e611cc3565b5b6000611e9d84828501611e64565b91505092915050565b600073ffffffffffffffffffffffffffffffffffffffff82169050919050565b6000611ed182611ea6565b9050919050565b611ee181611ec6565b82525050565b6000602082019050611efc6000830184611ed8565b92915050565b611f0b81611ec6565b8114611f1657600080fd5b50565b600081359050611f2881611f02565b92915050565b60008060408385031215611f4557611f44611cc3565b5b6000611f5385828601611f19565b9250506020611f6485828601611e64565b9150509250929050565b600080600060608486031215611f8757611f86611cc3565b5b6000611f9586828701611f19565b9350506020611fa686828701611f19565b9250506040611fb786828701611e64565b9150509250925092565b600080fd5b600080fd5b7f4e487b7100000000000000000000000000000000000000000000000000000000600052604160045260246000fd5b61200382611dd7565b810181811067ffffffffffffffff8211171561202257612021611fcb565b5b80604052505050565b6000612035611cb9565b90506120418282611ffa565b919050565b600067ffffffffffffffff82111561206157612060611fcb565b5b61206a82611dd7565b9050602081019050919050565b82818337600083830152505050565b600061209961209484612046565b61202b565b9050828152602081018484840111156120b5576120b4611fc6565b5b6120c0848285612077565b509392505050565b600082601f8301126120dd576120dc611fc1565b5b81356120ed848260208601612086565b91505092915050565b6120ff81611d52565b811461210a57600080fd5b50565b60008135905061211c816120f6565b92915050565b6000806000806000806000806000806101408b8d03121561214657612145611cc3565b5b60006121548d828e01611f19565b9a505060206121658d828e01611f19565b99505060408b013567ffffffffffffffff81111561218657612185611cc8565b5b6121928d828e016120c8565b98505060608b013567ffffffffffffffff8111156121b3576121b2611cc8565b5b6121bf8d828e016120c8565b97505060808b013567ffffffffffffffff8111156121e0576121df611cc8565b5b6121ec8d828e016120c8565b96505060a08b013567ffffffffffffffff81111561220d5761220c611cc8565b5b6122198d828e016120c8565b95505060c061222a8d828e01611f19565b94505060e061223b8d828e01611e64565b93505061010061224d8d828e0161210d565b92505061012061225f8d828e0161210d565b9150509295989b9194979a5092959850565b61227a81611e43565b82525050565b60006020820190506122956000830184612271565b92915050565b6000602082840312156122b1576122b0611cc3565b5b60006122bf84828501611f19565b91505092915050565b600080604083850312156122df576122de611cc3565b5b60006122ed85828601611f19565b92505060206122fe8582860161210d565b9150509250929050565b600067ffffffffffffffff82111561232357612322611fcb565b5b61232c82611dd7565b9050602081019050919050565b600061234c61234784612308565b61202b565b90508281526020810184848401111561236857612367611fc6565b5b612373848285612077565b509392505050565b600082601f8301126123905761238f611fc1565b5b81356123a0848260208601612339565b91505092915050565b600080600080608085870312156123c3576123c2611cc3565b5b60006123d187828801611f19565b94505060206123e287828801611f19565b93505060406123f387828801611e64565b925050606085013567ffffffffffffffff81111561241457612413611cc8565b5b6124208782880161237b565b91505092959194509250565b6000806040838503121561244357612442611cc3565b5b600061245185828601611f19565b925050602061246285828601611f19565b9150509250929050565b6000806040838503121561248357612482611cc3565b5b600061249185828601611e64565b92505060206124a285828601611e64565b9150509250929050565b7f4e487b7100000000000000000000000000000000000000000000000000000000600052602260045260246000fd5b600060028204905060018216806124f357607f821691505b602082108103612506576125056124ac565b5b50919050565b7f4552433732313a20617070726f76656420717565727920666f72206e6f6e657860008201527f697374656e7420746f6b656e0000000000000000000000000000000000000000602082015250565b6000612568602c83611d93565b91506125738261250c565b604082019050919050565b600060208201905081810360008301526125978161255b565b9050919050565b7f4552433732313a20617070726f76616c20746f2063757272656e74206f776e6560008201527f7200000000000000000000000000000000000000000000000000000000000000602082015250565b60006125fa602183611d93565b91506126058261259e565b604082019050919050565b60006020820190508181036000830152612629816125ed565b9050919050565b7f4552433732313a20617070726f76652063616c6c6572206973206e6f74206f7760008201527f6e6572206e6f7220617070726f76656420666f7220616c6c0000000000000000602082015250565b600061268c603883611d93565b915061269782612630565b604082019050919050565b600060208201905081810360008301526126bb8161267f565b9050919050565b7f4552433732313a207472616e736665722063616c6c6572206973206e6f74206f60008201527f776e6572206e6f7220617070726f766564000000000000000000000000000000602082015250565b600061271e603183611d93565b9150612729826126c2565b604082019050919050565b6000602082019050818103600083015261274d81612711565b9050919050565b600061276761276284612046565b61202b565b90508281526020810184848401111561278357612782611fc6565b5b61278e848285611da4565b509392505050565b600082601f8301126127ab576127aa611fc1565b5b81516127bb848260208601612754565b91505092915050565b6000602082840312156127da576127d9611cc3565b5b600082015167ffffffffffffffff8111156127f8576127f7611cc8565b5b61280484828501612796565b91505092915050565b7f4e487b7100000000000000000000000000000000000000000000000000000000600052601160045260246000fd5b600061284782611e43565b915061285283611e43565b9250828210156128655761286461280d565b5b828203905092915050565b7f4e487b7100000000000000000000000000000000000000000000000000000000600052603260045260246000fd5b600082825260208201905092915050565b60008190508160005260206000209050919050565b600081546128d2816124db565b6128dc818661289f565b945060018216600081146128f757600181146129095761293c565b60ff198316865260208601935061293c565b612912856128b0565b60005b8381101561293457815481890152600182019150602081019050612915565b808801955050505b50505092915050565b60008160001c9050919050565b600073ffffffffffffffffffffffffffffffffffffffff82169050919050565b600061298561298083612945565b612952565b9050919050565b61299581611ec6565b82525050565b6000819050919050565b60006129b86129b383612945565b61299b565b9050919050565b6129c881611e43565b82525050565b600060ff82169050919050565b60006129ee6129e983612945565b6129ce565b9050919050565b6129fe81611d52565b82525050565b60008160081c9050919050565b6000612a24612a1f83612a04565b6129ce565b9050919050565b600060e0830160008084018583036000870152612a4883826128c5565b925050600184018583036020870152612a6183826128c5565b925050600284018583036040870152612a7a83826128c5565b92505060038401549050612a8d81612972565b612a9a606087018261298c565b5060048401549050612aab816129a5565b612ab860808701826129bf565b5060058401549050612ac9816129db565b612ad660a08701826129f5565b50612ae081612a11565b612aed60c08701826129f5565b50819250505092915050565b600060a0820190508181036000830152612b138188611de8565b9050612b226020830187611ed8565b612b2f6040830186612271565b8181036060830152612b418185612a2b565b9050612b506080830184611ed8565b9695505050505050565b7f4552433732313a206f776e657220717565727920666f72206e6f6e657869737460008201527f656e7420746f6b656e0000000000000000000000000000000000000000000000602082015250565b6000612bb6602983611d93565b9150612bc182612b5a565b604082019050919050565b60006020820190508181036000830152612be581612ba9565b9050919050565b7f4552433732313a2062616c616e636520717565727920666f7220746865207a6560008201527f726f206164647265737300000000000000000000000000000000000000000000602082015250565b6000612c48602a83611d93565b9150612c5382612bec565b604082019050919050565b60006020820190508181036000830152612c7781612c3b565b9050919050565b7f45524337323155524953746f726167653a2055524920717565727920666f722060008201527f6e6f6e6578697374656e7420746f6b656e000000000000000000000000000000602082015250565b6000612cda603183611d93565b9150612ce582612c7e565b604082019050919050565b60006020820190508181036000830152612d0981612ccd565b9050919050565b600081905092915050565b6000612d2682611d88565b612d308185612d10565b9350612d40818560208601611da4565b80840191505092915050565b6000612d588285612d1b565b9150612d648284612d1b565b91508190509392505050565b60006080820190508181036000830152612d8a8187611de8565b9050612d996020830186611ed8565b612da66040830185612271565b612db36060830184612271565b95945050505050565b7f4552433732313a206f70657261746f7220717565727920666f72206e6f6e657860008201527f697374656e7420746f6b656e0000000000000000000000000000000000000000602082015250565b6000612e18602c83611d93565b9150612e2382612dbc565b604082019050919050565b60006020820190508181036000830152612e4781612e0b565b9050919050565b7f4552433732313a207472616e736665722066726f6d20696e636f72726563742060008201527f6f776e6572000000000000000000000000000000000000000000000000000000602082015250565b6000612eaa602583611d93565b9150612eb582612e4e565b604082019050919050565b60006020820190508181036000830152612ed981612e9d565b9050919050565b7f4552433732313a207472616e7366657220746f20746865207a65726f2061646460008201527f7265737300000000000000000000000000000000000000000000000000000000602082015250565b6000612f3c602483611d93565b9150612f4782612ee0565b604082019050919050565b60006020820190508181036000830152612f6b81612f2f565b9050919050565b6000612f7d82611e43565b9150612f8883611e43565b9250827fffffffffffffffffffffffffffffffffffffffffffffffffffffffffffffffff03821115612fbd57612fbc61280d565b5b828201905092915050565b7f4552433732313a206d696e7420746f20746865207a65726f2061646472657373600082015250565b6000612ffe602083611d93565b915061300982612fc8565b602082019050919050565b6000602082019050818103600083015261302d81612ff1565b9050919050565b7f4552433732313a20746f6b656e20616c7265616479206d696e74656400000000600082015250565b600061306a601c83611d93565b915061307582613034565b602082019050919050565b600060208201905081810360008301526130998161305d565b9050919050565b7f45524337323155524953746f726167653a2055524920736574206f66206e6f6e60008201527f6578697374656e7420746f6b656e000000000000000000000000000000000000602082015250565b60006130fc602e83611d93565b9150613107826130a0565b604082019050919050565b6000602082019050818103600083015261312b816130ef565b9050919050565b7f4552433732313a20617070726f766520746f2063616c6c657200000000000000600082015250565b6000613168601983611d93565b915061317382613132565b602082019050919050565b600060208201905081810360008301526131978161315b565b9050919050565b7f4552433732313a207472616e7366657220746f206e6f6e20455243373231526560008201527f63656976657220696d706c656d656e7465720000000000000000000000000000602082015250565b60006131fa603283611d93565b91506132058261319e565b604082019050919050565b60006020820190508181036000830152613229816131ed565b9050919050565b7f4552433732314d657461646174613a2055524920717565727920666f72206e6f60008201527f6e6578697374656e7420746f6b656e0000000000000000000000000000000000602082015250565b600061328c602f83611d93565b915061329782613230565b604082019050919050565b600060208201905081810360008301526132bb8161327f565b9050919050565b600081519050919050565b600082825260208201905092915050565b60006132e9826132c2565b6132f381856132cd565b9350613303818560208601611da4565b61330c81611dd7565b840191505092915050565b600060808201905061332c6000830187611ed8565b6133396020830186611ed8565b6133466040830185612271565b818103606083015261335881846132de565b905095945050505050565b60008151905061337281611cf9565b92915050565b60006020828403121561338e5761338d611cc3565b5b600061339c84828501613363565b91505092915050565b60006133b082611e43565b91507fffffffffffffffffffffffffffffffffffffffffffffffffffffffffffffffff82036133e2576133e161280d565b5b600182019050919050565b7f4e487b7100000000000000000000000000000000000000000000000000000000600052601260045260246000fd5b600061342782611e43565b915061343283611e43565b925082613442576134416133ed565b5b828204905092915050565b600061345882611e43565b915061346383611e43565b925082613473576134726133ed565b5b82820690509291505056fea2646970667358221220297ebcf7962b1292f1b4dbd943cca6ed6a43aedf36db8479cc164bd816978f4264736f6c634300080d0033",
  "immutableReferences": {},
  "source": "// SPDX-License-Identifier: MIT\npragma solidity 0.8.13;\n\nimport \"@openzeppelin/contracts/token/ERC721/ERC721.sol\";\nimport \"@openzeppelin/contracts/token/ERC721/extensions/ERC721URIStorage.sol\";\nimport \"@openzeppelin/contracts/utils/Counters.sol\";\n\n/// @title NFTCollections contract\n/// @author Sebastien Gazeau, Sbastien Dupertuis et Alexis Mendoza\n/// @dev The contract code contains comments for developers only visible in the source code\ncontract NFTCollections is ERC721URIStorage {\n    //------------------------------------------------------------------------------------\n    // ----------------------------------Variables----------------------------------------\n    //------------------------------------------------------------------------------------\n    using Counters for Counters.Counter;\n    Counters.Counter private _tokenIds;\n\n    // Structure of the NFT\n    struct NFT {\n        string name;\n        string description;\n        string tag;\n        address tokenAddress;\n        uint256 price;\n        bool favorite;\n        bool isAuctionable;\n    }\n    NFT[] collection;\n    constructor(string memory _name, string memory _symbol) ERC721 (_name, _symbol) {}\n    //------------------------------------------------------------------------------------\n    // ------------------------------------Events-----------------------------------------\n    //------------------------------------------------------------------------------------\n    /// @notice event for NFT creation\n    /// @param _collectionName Name of the NFT collection\n    /// @param _collectionAddress Address of the collection\n    /// @param _tokenID The ID of this given NFT\n    /// @param _collectionData Data of the given NFT\n    /// @param _creator The address of the creator of the NFT\n    event NFTCreated(string _collectionName, address _collectionAddress, uint256 _tokenID, NFT _collectionData, address _creator);\n\n    /// @notice event for NFT sales\n    /// @param _collectionName Name of the NFT collection\n    /// @param _collectionAddress Address of the collection\n    /// @param _tokenID The ID of this given NFT\n    /// @param _price The new price of the given NFT\n    event NewPriceSet(string _collectionName, address _collectionAddress, uint256 _tokenID, uint256 _price);\n\n    //------------------------------------------------------------------------------------\n    // ----------------------------------Constructor--------------------------------------\n    //------------------------------------------------------------------------------------\n    // /// @notice initialization of the ERC271\n    // /// @param _name name of the collection\n    // /// @param _symbol symbol of the collection\n    // function initialize(string memory _name, string memory _symbol) public initializer\n    // {\n    //     __ERC721_init(_name, _symbol);\n    // }\n\n    /// @notice Mint a NFT in the collection\n    /// @param _firstOwner The address to mint the NFT to\n    /// @param _creator The creator of the new NFT\n    /// @param _tokenURI Token\n    /// @param _name Description of the NFT\n    /// @param _description Description of the NFT\n    /// @param _tag Tag of the NFT\n    /// @param _tokenAddress address du token\n    /// @param _price NFT price\n    /// @param _favorite NFT favorite\n    /// @param _isAuctionable NFT auctioned\n    /// @return newItemId New id of the item that has been minted\n    function MintNFT(\n        address _firstOwner,\n        address _creator,\n        string memory _tokenURI,\n        string memory _name,\n        string memory _description,\n        string memory _tag,\n        address _tokenAddress,\n        uint256 _price,\n        bool _favorite,\n        bool _isAuctionable\n    ) public returns (uint256) {\n        _tokenIds.increment();\n        collection.push(\n            NFT(\n                _name,\n                _description,\n                _tag,\n                _tokenAddress,\n                _price,\n                _favorite,\n                _isAuctionable\n            )\n        );\n        uint256 newItemId = _tokenIds.current();\n        _mint(_firstOwner, newItemId);\n        _setTokenURI(newItemId, _tokenURI);\n\n        emit NFTCreated(this.name(), address(this), newItemId, collection[newItemId-1], _creator);   // Emit the event at each NFT created\n\n        return newItemId;\n    }\n\n    /// @notice This function allows to set the price of the given NFT\n    /// @dev Call this function when a sale is initiated\n    /// @param _tokenID The token ID of the NFT to set the price\n    /// @param _price The price to set\n    function setPrice(uint256 _tokenID, uint256 _price) external {\n        // All the require are done on the upper level in Master SC\n        collection[_tokenID-1].price = _price;\n\n        emit NewPriceSet(this.name(), address(this), _tokenID, _price);\n    }\n\n\n    //------------------------------------------------------------------------------------\n    // ------------------------------------Getters----------------------------------------\n    //------------------------------------------------------------------------------------\n    /// @notice This function allows to get the sale price of the given NFT (if in sale)\n    /// @dev Call this function to get the current sale price\n    /// @param _tokenID The token ID of the NFT to get the price\n    /// @return _price The price of the given NFT\n    function getPrice(uint256 _tokenID) external view returns (uint256) {\n        return(collection[_tokenID-1].price);\n    }\n\n    //------------------------------------------------------------------------------------\n    // ------------------------------------Getters----------------------------------------\n    //------------------------------------------------------------------------------------\n    /// @notice This function allows to get the total amount of NFTs saved in this contract\n    /// @dev Call this function to check the last created token ID\n    /// @return _totalSupply The last created token ID\n    function getTotalSupply() external view returns (uint256) {\n        return(_tokenIds.current());\n    }\n}\n",
  "sourcePath": "/home/sebastien/Documents/cours/project-nft-cyon/contracts/NFTCollections.sol",
  "compiler": {
    "name": "solc",
    "version": "0.8.13+commit.abaa5c0e.Emscripten.clang"
  },
  "schemaVersion": "3.4.7",
  "updatedAt": "2022-05-12T08:04:53.734Z",
  "devdoc": {
    "author": "Sebastien Gazeau, Sbastien Dupertuis et Alexis Mendoza",
    "details": "The contract code contains comments for developers only visible in the source code",
    "events": {
      "NFTCreated(string,address,uint256,(string,string,string,address,uint256,bool,bool),address)": {
        "params": {
          "_collectionAddress": "Address of the collection",
          "_collectionData": "Data of the given NFT",
          "_collectionName": "Name of the NFT collection",
          "_creator": "The address of the creator of the NFT",
          "_tokenID": "The ID of this given NFT"
        }
      },
      "NewPriceSet(string,address,uint256,uint256)": {
        "params": {
          "_collectionAddress": "Address of the collection",
          "_collectionName": "Name of the NFT collection",
          "_price": "The new price of the given NFT",
          "_tokenID": "The ID of this given NFT"
        }
      }
    },
    "kind": "dev",
    "methods": {
      "MintNFT(address,address,string,string,string,string,address,uint256,bool,bool)": {
        "params": {
          "_creator": "The creator of the new NFT",
          "_description": "Description of the NFT",
          "_favorite": "NFT favorite",
          "_firstOwner": "The address to mint the NFT to",
          "_isAuctionable": "NFT auctioned",
          "_name": "Description of the NFT",
          "_price": "NFT price",
          "_tag": "Tag of the NFT",
          "_tokenAddress": "address du token",
          "_tokenURI": "Token"
        },
        "returns": {
          "_0": "newItemId New id of the item that has been minted"
        }
      },
      "approve(address,uint256)": {
        "details": "See {IERC721-approve}."
      },
      "balanceOf(address)": {
        "details": "See {IERC721-balanceOf}."
      },
      "getApproved(uint256)": {
        "details": "See {IERC721-getApproved}."
      },
      "getPrice(uint256)": {
        "details": "Call this function to get the current sale price",
        "params": {
          "_tokenID": "The token ID of the NFT to get the price"
        },
        "returns": {
          "_0": "_price The price of the given NFT"
        }
      },
      "getTotalSupply()": {
        "details": "Call this function to check the last created token ID",
        "returns": {
          "_0": "_totalSupply The last created token ID"
        }
      },
      "isApprovedForAll(address,address)": {
        "details": "See {IERC721-isApprovedForAll}."
      },
      "name()": {
        "details": "See {IERC721Metadata-name}."
      },
      "ownerOf(uint256)": {
        "details": "See {IERC721-ownerOf}."
      },
      "safeTransferFrom(address,address,uint256)": {
        "details": "See {IERC721-safeTransferFrom}."
      },
      "safeTransferFrom(address,address,uint256,bytes)": {
        "details": "See {IERC721-safeTransferFrom}."
      },
      "setApprovalForAll(address,bool)": {
        "details": "See {IERC721-setApprovalForAll}."
      },
      "setPrice(uint256,uint256)": {
        "details": "Call this function when a sale is initiated",
        "params": {
          "_price": "The price to set",
          "_tokenID": "The token ID of the NFT to set the price"
        }
      },
      "supportsInterface(bytes4)": {
        "details": "See {IERC165-supportsInterface}."
      },
      "symbol()": {
        "details": "See {IERC721Metadata-symbol}."
      },
      "tokenURI(uint256)": {
        "details": "See {IERC721Metadata-tokenURI}."
      },
      "transferFrom(address,address,uint256)": {
        "details": "See {IERC721-transferFrom}."
      }
    },
    "title": "NFTCollections contract",
    "version": 1
  },
  "userdoc": {
    "events": {
      "NFTCreated(string,address,uint256,(string,string,string,address,uint256,bool,bool),address)": {
        "notice": "event for NFT creation"
      },
      "NewPriceSet(string,address,uint256,uint256)": {
        "notice": "event for NFT sales"
      }
    },
    "kind": "user",
    "methods": {
      "MintNFT(address,address,string,string,string,string,address,uint256,bool,bool)": {
        "notice": "Mint a NFT in the collection"
      },
      "getPrice(uint256)": {
        "notice": "This function allows to get the sale price of the given NFT (if in sale)"
      },
      "getTotalSupply()": {
        "notice": "This function allows to get the total amount of NFTs saved in this contract"
      },
      "setPrice(uint256,uint256)": {
        "notice": "This function allows to set the price of the given NFT"
      }
    },
    "version": 1
  }
}