{
  "contractName": "NFTCollections",
  "abi": [
    {
      "inputs": [
        {
          "internalType": "string",
          "name": "_name",
          "type": "string"
        },
        {
          "internalType": "string",
          "name": "_symbol",
          "type": "string"
        }
      ],
      "stateMutability": "nonpayable",
      "type": "constructor"
    },
    {
      "anonymous": false,
      "inputs": [
        {
          "indexed": true,
          "internalType": "address",
          "name": "owner",
          "type": "address"
        },
        {
          "indexed": true,
          "internalType": "address",
          "name": "approved",
          "type": "address"
        },
        {
          "indexed": true,
          "internalType": "uint256",
          "name": "tokenId",
          "type": "uint256"
        }
      ],
      "name": "Approval",
      "type": "event"
    },
    {
      "anonymous": false,
      "inputs": [
        {
          "indexed": true,
          "internalType": "address",
          "name": "owner",
          "type": "address"
        },
        {
          "indexed": true,
          "internalType": "address",
          "name": "operator",
          "type": "address"
        },
        {
          "indexed": false,
          "internalType": "bool",
          "name": "approved",
          "type": "bool"
        }
      ],
      "name": "ApprovalForAll",
      "type": "event"
    },
    {
      "anonymous": false,
      "inputs": [
        {
          "indexed": false,
          "internalType": "string",
          "name": "_collectionName",
          "type": "string"
        },
        {
          "indexed": false,
          "internalType": "address",
          "name": "_collectionAddress",
          "type": "address"
        },
        {
          "indexed": false,
          "internalType": "uint256",
          "name": "_tokenID",
          "type": "uint256"
        },
        {
          "components": [
            {
              "internalType": "string",
              "name": "name",
              "type": "string"
            },
            {
              "internalType": "string",
              "name": "description",
              "type": "string"
            },
            {
              "internalType": "string",
              "name": "tag",
              "type": "string"
            },
            {
              "internalType": "address",
              "name": "tokenAddress",
              "type": "address"
            },
            {
              "internalType": "uint256",
              "name": "price",
              "type": "uint256"
            },
            {
              "internalType": "bool",
              "name": "favorite",
              "type": "bool"
            },
            {
              "internalType": "bool",
              "name": "isAuctionable",
              "type": "bool"
            }
          ],
          "indexed": false,
          "internalType": "struct NFTCollections.NFT",
          "name": "_collectionData",
          "type": "tuple"
        },
        {
          "indexed": false,
          "internalType": "address",
          "name": "_creator",
          "type": "address"
        }
      ],
      "name": "NFTCreated",
      "type": "event"
    },
    {
      "anonymous": false,
      "inputs": [
        {
          "indexed": false,
          "internalType": "string",
          "name": "_collectionName",
          "type": "string"
        },
        {
          "indexed": false,
          "internalType": "address",
          "name": "_collectionAddress",
          "type": "address"
        },
        {
          "indexed": false,
          "internalType": "uint256",
          "name": "_tokenID",
          "type": "uint256"
        },
        {
          "indexed": false,
          "internalType": "uint256",
          "name": "_price",
          "type": "uint256"
        }
      ],
      "name": "NewPriceSet",
      "type": "event"
    },
    {
      "anonymous": false,
      "inputs": [
        {
          "indexed": true,
          "internalType": "address",
          "name": "from",
          "type": "address"
        },
        {
          "indexed": true,
          "internalType": "address",
          "name": "to",
          "type": "address"
        },
        {
          "indexed": true,
          "internalType": "uint256",
          "name": "tokenId",
          "type": "uint256"
        }
      ],
      "name": "Transfer",
      "type": "event"
    },
    {
      "inputs": [
        {
          "internalType": "address",
          "name": "to",
          "type": "address"
        },
        {
          "internalType": "uint256",
          "name": "tokenId",
          "type": "uint256"
        }
      ],
      "name": "approve",
      "outputs": [],
      "stateMutability": "nonpayable",
      "type": "function"
    },
    {
      "inputs": [
        {
          "internalType": "address",
          "name": "owner",
          "type": "address"
        }
      ],
      "name": "balanceOf",
      "outputs": [
        {
          "internalType": "uint256",
          "name": "",
          "type": "uint256"
        }
      ],
      "stateMutability": "view",
      "type": "function"
    },
    {
      "inputs": [
        {
          "internalType": "uint256",
          "name": "tokenId",
          "type": "uint256"
        }
      ],
      "name": "getApproved",
      "outputs": [
        {
          "internalType": "address",
          "name": "",
          "type": "address"
        }
      ],
      "stateMutability": "view",
      "type": "function"
    },
    {
      "inputs": [
        {
          "internalType": "address",
          "name": "owner",
          "type": "address"
        },
        {
          "internalType": "address",
          "name": "operator",
          "type": "address"
        }
      ],
      "name": "isApprovedForAll",
      "outputs": [
        {
          "internalType": "bool",
          "name": "",
          "type": "bool"
        }
      ],
      "stateMutability": "view",
      "type": "function"
    },
    {
      "inputs": [],
      "name": "name",
      "outputs": [
        {
          "internalType": "string",
          "name": "",
          "type": "string"
        }
      ],
      "stateMutability": "view",
      "type": "function"
    },
    {
      "inputs": [
        {
          "internalType": "uint256",
          "name": "tokenId",
          "type": "uint256"
        }
      ],
      "name": "ownerOf",
      "outputs": [
        {
          "internalType": "address",
          "name": "",
          "type": "address"
        }
      ],
      "stateMutability": "view",
      "type": "function"
    },
    {
      "inputs": [
        {
          "internalType": "address",
          "name": "from",
          "type": "address"
        },
        {
          "internalType": "address",
          "name": "to",
          "type": "address"
        },
        {
          "internalType": "uint256",
          "name": "tokenId",
          "type": "uint256"
        }
      ],
      "name": "safeTransferFrom",
      "outputs": [],
      "stateMutability": "nonpayable",
      "type": "function"
    },
    {
      "inputs": [
        {
          "internalType": "address",
          "name": "from",
          "type": "address"
        },
        {
          "internalType": "address",
          "name": "to",
          "type": "address"
        },
        {
          "internalType": "uint256",
          "name": "tokenId",
          "type": "uint256"
        },
        {
          "internalType": "bytes",
          "name": "_data",
          "type": "bytes"
        }
      ],
      "name": "safeTransferFrom",
      "outputs": [],
      "stateMutability": "nonpayable",
      "type": "function"
    },
    {
      "inputs": [
        {
          "internalType": "address",
          "name": "operator",
          "type": "address"
        },
        {
          "internalType": "bool",
          "name": "approved",
          "type": "bool"
        }
      ],
      "name": "setApprovalForAll",
      "outputs": [],
      "stateMutability": "nonpayable",
      "type": "function"
    },
    {
      "inputs": [
        {
          "internalType": "bytes4",
          "name": "interfaceId",
          "type": "bytes4"
        }
      ],
      "name": "supportsInterface",
      "outputs": [
        {
          "internalType": "bool",
          "name": "",
          "type": "bool"
        }
      ],
      "stateMutability": "view",
      "type": "function"
    },
    {
      "inputs": [],
      "name": "symbol",
      "outputs": [
        {
          "internalType": "string",
          "name": "",
          "type": "string"
        }
      ],
      "stateMutability": "view",
      "type": "function"
    },
    {
      "inputs": [
        {
          "internalType": "uint256",
          "name": "tokenId",
          "type": "uint256"
        }
      ],
      "name": "tokenURI",
      "outputs": [
        {
          "internalType": "string",
          "name": "",
          "type": "string"
        }
      ],
      "stateMutability": "view",
      "type": "function"
    },
    {
      "inputs": [
        {
          "internalType": "address",
          "name": "from",
          "type": "address"
        },
        {
          "internalType": "address",
          "name": "to",
          "type": "address"
        },
        {
          "internalType": "uint256",
          "name": "tokenId",
          "type": "uint256"
        }
      ],
      "name": "transferFrom",
      "outputs": [],
      "stateMutability": "nonpayable",
      "type": "function"
    },
    {
      "inputs": [
        {
          "internalType": "address",
          "name": "_firstOwner",
          "type": "address"
        },
        {
          "internalType": "address",
          "name": "_creator",
          "type": "address"
        },
        {
          "internalType": "string",
          "name": "_tokenURI",
          "type": "string"
        },
        {
          "internalType": "string",
          "name": "_name",
          "type": "string"
        },
        {
          "internalType": "string",
          "name": "_description",
          "type": "string"
        },
        {
          "internalType": "string",
          "name": "_tag",
          "type": "string"
        },
        {
          "internalType": "address",
          "name": "_tokenAddress",
          "type": "address"
        },
        {
          "internalType": "uint256",
          "name": "_price",
          "type": "uint256"
        },
        {
          "internalType": "bool",
          "name": "_favorite",
          "type": "bool"
        },
        {
          "internalType": "bool",
          "name": "_isAuctionable",
          "type": "bool"
        }
      ],
      "name": "MintNFT",
      "outputs": [
        {
          "internalType": "uint256",
          "name": "",
          "type": "uint256"
        }
      ],
      "stateMutability": "nonpayable",
      "type": "function"
    },
    {
      "inputs": [
        {
          "internalType": "uint256",
          "name": "_tokenID",
          "type": "uint256"
        },
        {
          "internalType": "uint256",
          "name": "_price",
          "type": "uint256"
        }
      ],
      "name": "setPrice",
      "outputs": [],
      "stateMutability": "nonpayable",
      "type": "function"
    },
    {
      "inputs": [
        {
          "internalType": "uint256",
          "name": "_tokenID",
          "type": "uint256"
        }
      ],
      "name": "getPrice",
      "outputs": [
        {
          "internalType": "uint256",
          "name": "",
          "type": "uint256"
        }
      ],
      "stateMutability": "view",
      "type": "function"
    }
  ],
  "bytecode": "0x60806040523480156200001157600080fd5b50604051620038f2380380620038f28339818101604052810190620000379190620002c2565b818181600090805190602001906200005192919062000075565b5080600190805190602001906200006a92919062000075565b5050505050620003ab565b828054620000839062000376565b90600052602060002090601f016020900481019282620000a75760008555620000f3565b82601f10620000c257805160ff1916838001178555620000f3565b82800160010185558215620000f3579182015b82811115620000f2578251825591602001919060010190620000d5565b5b50905062000102919062000106565b5090565b5b808211156200012157600081600090555060010162000107565b5090565b6000604051905090565b600080fd5b600080fd5b600080fd5b600080fd5b6000601f19601f8301169050919050565b7f4e487b7100000000000000000000000000000000000000000000000000000000600052604160045260246000fd5b6200018e8262000143565b810181811067ffffffffffffffff82111715620001b057620001af62000154565b5b80604052505050565b6000620001c562000125565b9050620001d3828262000183565b919050565b600067ffffffffffffffff821115620001f657620001f562000154565b5b620002018262000143565b9050602081019050919050565b60005b838110156200022e57808201518184015260208101905062000211565b838111156200023e576000848401525b50505050565b60006200025b6200025584620001d8565b620001b9565b9050828152602081018484840111156200027a57620002796200013e565b5b620002878482856200020e565b509392505050565b600082601f830112620002a757620002a662000139565b5b8151620002b984826020860162000244565b91505092915050565b60008060408385031215620002dc57620002db6200012f565b5b600083015167ffffffffffffffff811115620002fd57620002fc62000134565b5b6200030b858286016200028f565b925050602083015167ffffffffffffffff8111156200032f576200032e62000134565b5b6200033d858286016200028f565b9150509250929050565b7f4e487b7100000000000000000000000000000000000000000000000000000000600052602260045260246000fd5b600060028204905060018216806200038f57607f821691505b602082108103620003a557620003a462000347565b5b50919050565b61353780620003bb6000396000f3fe608060405234801561001057600080fd5b50600436106101005760003560e01c806370a0823111610097578063c87b56dd11610066578063c87b56dd146102bd578063e7572230146102ed578063e985e9c51461031d578063f7d975771461034d57610100565b806370a082311461023757806395d89b4114610267578063a22cb46514610285578063b88d4fde146102a157610100565b806323b872dd116100d357806323b872dd1461019f578063338e111e146101bb57806342842e0e146101eb5780636352211e1461020757610100565b806301ffc9a71461010557806306fdde0314610135578063081812fc14610153578063095ea7b314610183575b600080fd5b61011f600480360381019061011a9190611d66565b610369565b60405161012c9190611dae565b60405180910390f35b61013d61044b565b60405161014a9190611e62565b60405180910390f35b61016d60048036038101906101689190611eba565b6104dd565b60405161017a9190611f28565b60405180910390f35b61019d60048036038101906101989190611f6f565b610562565b005b6101b960048036038101906101b49190611faf565b610679565b005b6101d560048036038101906101d09190612163565b6106d9565b6040516101e291906122c1565b60405180910390f35b61020560048036038101906102009190611faf565b61095a565b005b610221600480360381019061021c9190611eba565b61097a565b60405161022e9190611f28565b60405180910390f35b610251600480360381019061024c91906122dc565b610a2b565b60405161025e91906122c1565b60405180910390f35b61026f610ae2565b60405161027c9190611e62565b60405180910390f35b61029f600480360381019061029a9190612309565b610b74565b005b6102bb60048036038101906102b691906123ea565b610b8a565b005b6102d760048036038101906102d29190611eba565b610bec565b6040516102e49190611e62565b60405180910390f35b61030760048036038101906103029190611eba565b610d3d565b60405161031491906122c1565b60405180910390f35b6103376004803603810190610332919061246d565b610df3565b6040516103449190611dae565b60405180910390f35b610367600480360381019061036291906124ad565b610e87565b005b60007f80ac58cd000000000000000000000000000000000000000000000000000000007bffffffffffffffffffffffffffffffffffffffffffffffffffffffff1916827bffffffffffffffffffffffffffffffffffffffffffffffffffffffff1916148061043457507f5b5e139f000000000000000000000000000000000000000000000000000000007bffffffffffffffffffffffffffffffffffffffffffffffffffffffff1916827bffffffffffffffffffffffffffffffffffffffffffffffffffffffff1916145b80610444575061044382610f71565b5b9050919050565b60606000805461045a9061251c565b80601f01602080910402602001604051908101604052809291908181526020018280546104869061251c565b80156104d35780601f106104a8576101008083540402835291602001916104d3565b820191906000526020600020905b8154815290600101906020018083116104b657829003601f168201915b5050505050905090565b60006104e882610fdb565b610527576040517f08c379a000000000000000000000000000000000000000000000000000000000815260040161051e906125bf565b60405180910390fd5b6004600083815260200190815260200160002060009054906101000a900473ffffffffffffffffffffffffffffffffffffffff169050919050565b600061056d8261097a565b90508073ffffffffffffffffffffffffffffffffffffffff168373ffffffffffffffffffffffffffffffffffffffff16036105dd576040517f08c379a00000000000000000000000000000000000000000000000000000000081526004016105d490612651565b60405180910390fd5b8073ffffffffffffffffffffffffffffffffffffffff166105fc611047565b73ffffffffffffffffffffffffffffffffffffffff16148061062b575061062a81610625611047565b610df3565b5b61066a576040517f08c379a0000000000000000000000000000000000000000000000000000000008152600401610661906126e3565b60405180910390fd5b610674838361104f565b505050565b61068a610684611047565b82611108565b6106c9576040517f08c379a00000000000000000000000000000000000000000000000000000000081526004016106c090612775565b60405180910390fd5b6106d48383836111e6565b505050565b60006106e5600761144c565b60086040518060e001604052808a81526020018981526020018881526020018773ffffffffffffffffffffffffffffffffffffffff168152602001868152602001851515815260200184151581525090806001815401808255809150506001900390600052602060002090600602016000909190919091506000820151816000019080519060200190610779929190611c57565b506020820151816001019080519060200190610796929190611c57565b5060408201518160020190805190602001906107b3929190611c57565b5060608201518160030160006101000a81548173ffffffffffffffffffffffffffffffffffffffff021916908373ffffffffffffffffffffffffffffffffffffffff1602179055506080820151816004015560a08201518160050160006101000a81548160ff02191690831515021790555060c08201518160050160016101000a81548160ff021916908315150217905550505060006108536007611462565b905061085f8c82611470565b610869818b611649565b7f273b433d4280597bf13dc2dc5f2a5712a07000eaf6607c9905e91971ff2a858a3073ffffffffffffffffffffffffffffffffffffffff166306fdde036040518163ffffffff1660e01b8152600401600060405180830381865afa1580156108d5573d6000803e3d6000fd5b505050506040513d6000823e3d601f19601f820116820180604052508101906108fe9190612805565b3083600860018661090f919061287d565b815481106109205761091f6128b1565b5b90600052602060002090600602018f604051610940959493929190612b3a565b60405180910390a1809150509a9950505050505050505050565b61097583838360405180602001604052806000815250610b8a565b505050565b6000806002600084815260200190815260200160002060009054906101000a900473ffffffffffffffffffffffffffffffffffffffff169050600073ffffffffffffffffffffffffffffffffffffffff168173ffffffffffffffffffffffffffffffffffffffff1603610a22576040517f08c379a0000000000000000000000000000000000000000000000000000000008152600401610a1990612c0d565b60405180910390fd5b80915050919050565b60008073ffffffffffffffffffffffffffffffffffffffff168273ffffffffffffffffffffffffffffffffffffffff1603610a9b576040517f08c379a0000000000000000000000000000000000000000000000000000000008152600401610a9290612c9f565b60405180910390fd5b600360008373ffffffffffffffffffffffffffffffffffffffff1673ffffffffffffffffffffffffffffffffffffffff168152602001908152602001600020549050919050565b606060018054610af19061251c565b80601f0160208091040260200160405190810160405280929190818152602001828054610b1d9061251c565b8015610b6a5780601f10610b3f57610100808354040283529160200191610b6a565b820191906000526020600020905b815481529060010190602001808311610b4d57829003601f168201915b5050505050905090565b610b86610b7f611047565b83836116bd565b5050565b610b9b610b95611047565b83611108565b610bda576040517f08c379a0000000000000000000000000000000000000000000000000000000008152600401610bd190612775565b60405180910390fd5b610be684848484611829565b50505050565b6060610bf782610fdb565b610c36576040517f08c379a0000000000000000000000000000000000000000000000000000000008152600401610c2d90612d31565b60405180910390fd5b6000600660008481526020019081526020016000208054610c569061251c565b80601f0160208091040260200160405190810160405280929190818152602001828054610c829061251c565b8015610ccf5780601f10610ca457610100808354040283529160200191610ccf565b820191906000526020600020905b815481529060010190602001808311610cb257829003601f168201915b505050505090506000610ce0611885565b90506000815103610cf5578192505050610d38565b600082511115610d2a578082604051602001610d12929190612d8d565b60405160208183030381529060405292505050610d38565b610d338461189c565b925050505b919050565b60003073ffffffffffffffffffffffffffffffffffffffff16636352211e836040518263ffffffff1660e01b8152600401610d7891906122c1565b602060405180830381865afa158015610d95573d6000803e3d6000fd5b505050506040513d601f19601f82011682018060405250810190610db99190612dc6565b506008600183610dc9919061287d565b81548110610dda57610dd96128b1565b5b9060005260206000209060060201600401549050919050565b6000600560008473ffffffffffffffffffffffffffffffffffffffff1673ffffffffffffffffffffffffffffffffffffffff16815260200190815260200160002060008373ffffffffffffffffffffffffffffffffffffffff1673ffffffffffffffffffffffffffffffffffffffff16815260200190815260200160002060009054906101000a900460ff16905092915050565b806008600184610e97919061287d565b81548110610ea857610ea76128b1565b5b9060005260206000209060060201600401819055507f8cad8957ee10ddd3d8f599648ff555c669f911cbd76d32673627c3b59c10315b3073ffffffffffffffffffffffffffffffffffffffff166306fdde036040518163ffffffff1660e01b8152600401600060405180830381865afa158015610f29573d6000803e3d6000fd5b505050506040513d6000823e3d601f19601f82011682018060405250810190610f529190612805565b308484604051610f659493929190612df3565b60405180910390a15050565b60007f01ffc9a7000000000000000000000000000000000000000000000000000000007bffffffffffffffffffffffffffffffffffffffffffffffffffffffff1916827bffffffffffffffffffffffffffffffffffffffffffffffffffffffff1916149050919050565b60008073ffffffffffffffffffffffffffffffffffffffff166002600084815260200190815260200160002060009054906101000a900473ffffffffffffffffffffffffffffffffffffffff1673ffffffffffffffffffffffffffffffffffffffff1614159050919050565b600033905090565b816004600083815260200190815260200160002060006101000a81548173ffffffffffffffffffffffffffffffffffffffff021916908373ffffffffffffffffffffffffffffffffffffffff160217905550808273ffffffffffffffffffffffffffffffffffffffff166110c28361097a565b73ffffffffffffffffffffffffffffffffffffffff167f8c5be1e5ebec7d5bd14f71427d1e84f3dd0314c0f7b2291e5b200ac8c7c3b92560405160405180910390a45050565b600061111382610fdb565b611152576040517f08c379a000000000000000000000000000000000000000000000000000000000815260040161114990612eb1565b60405180910390fd5b600061115d8361097a565b90508073ffffffffffffffffffffffffffffffffffffffff168473ffffffffffffffffffffffffffffffffffffffff16148061119f575061119e8185610df3565b5b806111dd57508373ffffffffffffffffffffffffffffffffffffffff166111c5846104dd565b73ffffffffffffffffffffffffffffffffffffffff16145b91505092915050565b8273ffffffffffffffffffffffffffffffffffffffff166112068261097a565b73ffffffffffffffffffffffffffffffffffffffff161461125c576040517f08c379a000000000000000000000000000000000000000000000000000000000815260040161125390612f43565b60405180910390fd5b600073ffffffffffffffffffffffffffffffffffffffff168273ffffffffffffffffffffffffffffffffffffffff16036112cb576040517f08c379a00000000000000000000000000000000000000000000000000000000081526004016112c290612fd5565b60405180910390fd5b6112d6838383611943565b6112e160008261104f565b6001600360008573ffffffffffffffffffffffffffffffffffffffff1673ffffffffffffffffffffffffffffffffffffffff1681526020019081526020016000206000828254611331919061287d565b925050819055506001600360008473ffffffffffffffffffffffffffffffffffffffff1673ffffffffffffffffffffffffffffffffffffffff16815260200190815260200160002060008282546113889190612ff5565b92505081905550816002600083815260200190815260200160002060006101000a81548173ffffffffffffffffffffffffffffffffffffffff021916908373ffffffffffffffffffffffffffffffffffffffff160217905550808273ffffffffffffffffffffffffffffffffffffffff168473ffffffffffffffffffffffffffffffffffffffff167fddf252ad1be2c89b69c2b068fc378daa952ba7f163c4a11628f55a4df523b3ef60405160405180910390a4611447838383611948565b505050565b6001816000016000828254019250508190555050565b600081600001549050919050565b600073ffffffffffffffffffffffffffffffffffffffff168273ffffffffffffffffffffffffffffffffffffffff16036114df576040517f08c379a00000000000000000000000000000000000000000000000000000000081526004016114d690613097565b60405180910390fd5b6114e881610fdb565b15611528576040517f08c379a000000000000000000000000000000000000000000000000000000000815260040161151f90613103565b60405180910390fd5b61153460008383611943565b6001600360008473ffffffffffffffffffffffffffffffffffffffff1673ffffffffffffffffffffffffffffffffffffffff16815260200190815260200160002060008282546115849190612ff5565b92505081905550816002600083815260200190815260200160002060006101000a81548173ffffffffffffffffffffffffffffffffffffffff021916908373ffffffffffffffffffffffffffffffffffffffff160217905550808273ffffffffffffffffffffffffffffffffffffffff16600073ffffffffffffffffffffffffffffffffffffffff167fddf252ad1be2c89b69c2b068fc378daa952ba7f163c4a11628f55a4df523b3ef60405160405180910390a461164560008383611948565b5050565b61165282610fdb565b611691576040517f08c379a000000000000000000000000000000000000000000000000000000000815260040161168890613195565b60405180910390fd5b806006600084815260200190815260200160002090805190602001906116b8929190611c57565b505050565b8173ffffffffffffffffffffffffffffffffffffffff168373ffffffffffffffffffffffffffffffffffffffff160361172b576040517f08c379a000000000000000000000000000000000000000000000000000000000815260040161172290613201565b60405180910390fd5b80600560008573ffffffffffffffffffffffffffffffffffffffff1673ffffffffffffffffffffffffffffffffffffffff16815260200190815260200160002060008473ffffffffffffffffffffffffffffffffffffffff1673ffffffffffffffffffffffffffffffffffffffff16815260200190815260200160002060006101000a81548160ff0219169083151502179055508173ffffffffffffffffffffffffffffffffffffffff168373ffffffffffffffffffffffffffffffffffffffff167f17307eab39ab6107e8899845ad3d59bd9653f200f220920489ca2b5937696c318360405161181c9190611dae565b60405180910390a3505050565b6118348484846111e6565b6118408484848461194d565b61187f576040517f08c379a000000000000000000000000000000000000000000000000000000000815260040161187690613293565b60405180910390fd5b50505050565b606060405180602001604052806000815250905090565b60606118a782610fdb565b6118e6576040517f08c379a00000000000000000000000000000000000000000000000000000000081526004016118dd90613325565b60405180910390fd5b60006118f0611885565b90506000815111611910576040518060200160405280600081525061193b565b8061191a84611ad4565b60405160200161192b929190612d8d565b6040516020818303038152906040525b915050919050565b505050565b505050565b600061196e8473ffffffffffffffffffffffffffffffffffffffff16611c34565b15611ac7578373ffffffffffffffffffffffffffffffffffffffff1663150b7a02611997611047565b8786866040518563ffffffff1660e01b81526004016119b9949392919061339a565b6020604051808303816000875af19250505080156119f557506040513d601f19601f820116820180604052508101906119f291906133fb565b60015b611a77573d8060008114611a25576040519150601f19603f3d011682016040523d82523d6000602084013e611a2a565b606091505b506000815103611a6f576040517f08c379a0000000000000000000000000000000000000000000000000000000008152600401611a6690613293565b60405180910390fd5b805181602001fd5b63150b7a0260e01b7bffffffffffffffffffffffffffffffffffffffffffffffffffffffff1916817bffffffffffffffffffffffffffffffffffffffffffffffffffffffff191614915050611acc565b600190505b949350505050565b606060008203611b1b576040518060400160405280600181526020017f30000000000000000000000000000000000000000000000000000000000000008152509050611c2f565b600082905060005b60008214611b4d578080611b3690613428565b915050600a82611b46919061349f565b9150611b23565b60008167ffffffffffffffff811115611b6957611b6861200c565b5b6040519080825280601f01601f191660200182016040528015611b9b5781602001600182028036833780820191505090505b5090505b60008514611c2857600182611bb4919061287d565b9150600a85611bc391906134d0565b6030611bcf9190612ff5565b60f81b818381518110611be557611be46128b1565b5b60200101907effffffffffffffffffffffffffffffffffffffffffffffffffffffffffffff1916908160001a905350600a85611c21919061349f565b9450611b9f565b8093505050505b919050565b6000808273ffffffffffffffffffffffffffffffffffffffff163b119050919050565b828054611c639061251c565b90600052602060002090601f016020900481019282611c855760008555611ccc565b82601f10611c9e57805160ff1916838001178555611ccc565b82800160010185558215611ccc579182015b82811115611ccb578251825591602001919060010190611cb0565b5b509050611cd99190611cdd565b5090565b5b80821115611cf6576000816000905550600101611cde565b5090565b6000604051905090565b600080fd5b600080fd5b60007fffffffff0000000000000000000000000000000000000000000000000000000082169050919050565b611d4381611d0e565b8114611d4e57600080fd5b50565b600081359050611d6081611d3a565b92915050565b600060208284031215611d7c57611d7b611d04565b5b6000611d8a84828501611d51565b91505092915050565b60008115159050919050565b611da881611d93565b82525050565b6000602082019050611dc36000830184611d9f565b92915050565b600081519050919050565b600082825260208201905092915050565b60005b83811015611e03578082015181840152602081019050611de8565b83811115611e12576000848401525b50505050565b6000601f19601f8301169050919050565b6000611e3482611dc9565b611e3e8185611dd4565b9350611e4e818560208601611de5565b611e5781611e18565b840191505092915050565b60006020820190508181036000830152611e7c8184611e29565b905092915050565b6000819050919050565b611e9781611e84565b8114611ea257600080fd5b50565b600081359050611eb481611e8e565b92915050565b600060208284031215611ed057611ecf611d04565b5b6000611ede84828501611ea5565b91505092915050565b600073ffffffffffffffffffffffffffffffffffffffff82169050919050565b6000611f1282611ee7565b9050919050565b611f2281611f07565b82525050565b6000602082019050611f3d6000830184611f19565b92915050565b611f4c81611f07565b8114611f5757600080fd5b50565b600081359050611f6981611f43565b92915050565b60008060408385031215611f8657611f85611d04565b5b6000611f9485828601611f5a565b9250506020611fa585828601611ea5565b9150509250929050565b600080600060608486031215611fc857611fc7611d04565b5b6000611fd686828701611f5a565b9350506020611fe786828701611f5a565b9250506040611ff886828701611ea5565b9150509250925092565b600080fd5b600080fd5b7f4e487b7100000000000000000000000000000000000000000000000000000000600052604160045260246000fd5b61204482611e18565b810181811067ffffffffffffffff821117156120635761206261200c565b5b80604052505050565b6000612076611cfa565b9050612082828261203b565b919050565b600067ffffffffffffffff8211156120a2576120a161200c565b5b6120ab82611e18565b9050602081019050919050565b82818337600083830152505050565b60006120da6120d584612087565b61206c565b9050828152602081018484840111156120f6576120f5612007565b5b6121018482856120b8565b509392505050565b600082601f83011261211e5761211d612002565b5b813561212e8482602086016120c7565b91505092915050565b61214081611d93565b811461214b57600080fd5b50565b60008135905061215d81612137565b92915050565b6000806000806000806000806000806101408b8d03121561218757612186611d04565b5b60006121958d828e01611f5a565b9a505060206121a68d828e01611f5a565b99505060408b013567ffffffffffffffff8111156121c7576121c6611d09565b5b6121d38d828e01612109565b98505060608b013567ffffffffffffffff8111156121f4576121f3611d09565b5b6122008d828e01612109565b97505060808b013567ffffffffffffffff81111561222157612220611d09565b5b61222d8d828e01612109565b96505060a08b013567ffffffffffffffff81111561224e5761224d611d09565b5b61225a8d828e01612109565b95505060c061226b8d828e01611f5a565b94505060e061227c8d828e01611ea5565b93505061010061228e8d828e0161214e565b9250506101206122a08d828e0161214e565b9150509295989b9194979a5092959850565b6122bb81611e84565b82525050565b60006020820190506122d660008301846122b2565b92915050565b6000602082840312156122f2576122f1611d04565b5b600061230084828501611f5a565b91505092915050565b600080604083850312156123205761231f611d04565b5b600061232e85828601611f5a565b925050602061233f8582860161214e565b9150509250929050565b600067ffffffffffffffff8211156123645761236361200c565b5b61236d82611e18565b9050602081019050919050565b600061238d61238884612349565b61206c565b9050828152602081018484840111156123a9576123a8612007565b5b6123b48482856120b8565b509392505050565b600082601f8301126123d1576123d0612002565b5b81356123e184826020860161237a565b91505092915050565b6000806000806080858703121561240457612403611d04565b5b600061241287828801611f5a565b945050602061242387828801611f5a565b935050604061243487828801611ea5565b925050606085013567ffffffffffffffff81111561245557612454611d09565b5b612461878288016123bc565b91505092959194509250565b6000806040838503121561248457612483611d04565b5b600061249285828601611f5a565b92505060206124a385828601611f5a565b9150509250929050565b600080604083850312156124c4576124c3611d04565b5b60006124d285828601611ea5565b92505060206124e385828601611ea5565b9150509250929050565b7f4e487b7100000000000000000000000000000000000000000000000000000000600052602260045260246000fd5b6000600282049050600182168061253457607f821691505b602082108103612547576125466124ed565b5b50919050565b7f4552433732313a20617070726f76656420717565727920666f72206e6f6e657860008201527f697374656e7420746f6b656e0000000000000000000000000000000000000000602082015250565b60006125a9602c83611dd4565b91506125b48261254d565b604082019050919050565b600060208201905081810360008301526125d88161259c565b9050919050565b7f4552433732313a20617070726f76616c20746f2063757272656e74206f776e6560008201527f7200000000000000000000000000000000000000000000000000000000000000602082015250565b600061263b602183611dd4565b9150612646826125df565b604082019050919050565b6000602082019050818103600083015261266a8161262e565b9050919050565b7f4552433732313a20617070726f76652063616c6c6572206973206e6f74206f7760008201527f6e6572206e6f7220617070726f76656420666f7220616c6c0000000000000000602082015250565b60006126cd603883611dd4565b91506126d882612671565b604082019050919050565b600060208201905081810360008301526126fc816126c0565b9050919050565b7f4552433732313a207472616e736665722063616c6c6572206973206e6f74206f60008201527f776e6572206e6f7220617070726f766564000000000000000000000000000000602082015250565b600061275f603183611dd4565b915061276a82612703565b604082019050919050565b6000602082019050818103600083015261278e81612752565b9050919050565b60006127a86127a384612087565b61206c565b9050828152602081018484840111156127c4576127c3612007565b5b6127cf848285611de5565b509392505050565b600082601f8301126127ec576127eb612002565b5b81516127fc848260208601612795565b91505092915050565b60006020828403121561281b5761281a611d04565b5b600082015167ffffffffffffffff81111561283957612838611d09565b5b612845848285016127d7565b91505092915050565b7f4e487b7100000000000000000000000000000000000000000000000000000000600052601160045260246000fd5b600061288882611e84565b915061289383611e84565b9250828210156128a6576128a561284e565b5b828203905092915050565b7f4e487b7100000000000000000000000000000000000000000000000000000000600052603260045260246000fd5b600082825260208201905092915050565b60008190508160005260206000209050919050565b600081546129138161251c565b61291d81866128e0565b94506001821660008114612938576001811461294a5761297d565b60ff198316865260208601935061297d565b612953856128f1565b60005b8381101561297557815481890152600182019150602081019050612956565b808801955050505b50505092915050565b60008160001c9050919050565b600073ffffffffffffffffffffffffffffffffffffffff82169050919050565b60006129c66129c183612986565b612993565b9050919050565b6129d681611f07565b82525050565b6000819050919050565b60006129f96129f483612986565b6129dc565b9050919050565b612a0981611e84565b82525050565b600060ff82169050919050565b6000612a2f612a2a83612986565b612a0f565b9050919050565b612a3f81611d93565b82525050565b60008160081c9050919050565b6000612a65612a6083612a45565b612a0f565b9050919050565b600060e0830160008084018583036000870152612a898382612906565b925050600184018583036020870152612aa28382612906565b925050600284018583036040870152612abb8382612906565b92505060038401549050612ace816129b3565b612adb60608701826129cd565b5060048401549050612aec816129e6565b612af96080870182612a00565b5060058401549050612b0a81612a1c565b612b1760a0870182612a36565b50612b2181612a52565b612b2e60c0870182612a36565b50819250505092915050565b600060a0820190508181036000830152612b548188611e29565b9050612b636020830187611f19565b612b7060408301866122b2565b8181036060830152612b828185612a6c565b9050612b916080830184611f19565b9695505050505050565b7f4552433732313a206f776e657220717565727920666f72206e6f6e657869737460008201527f656e7420746f6b656e0000000000000000000000000000000000000000000000602082015250565b6000612bf7602983611dd4565b9150612c0282612b9b565b604082019050919050565b60006020820190508181036000830152612c2681612bea565b9050919050565b7f4552433732313a2062616c616e636520717565727920666f7220746865207a6560008201527f726f206164647265737300000000000000000000000000000000000000000000602082015250565b6000612c89602a83611dd4565b9150612c9482612c2d565b604082019050919050565b60006020820190508181036000830152612cb881612c7c565b9050919050565b7f45524337323155524953746f726167653a2055524920717565727920666f722060008201527f6e6f6e6578697374656e7420746f6b656e000000000000000000000000000000602082015250565b6000612d1b603183611dd4565b9150612d2682612cbf565b604082019050919050565b60006020820190508181036000830152612d4a81612d0e565b9050919050565b600081905092915050565b6000612d6782611dc9565b612d718185612d51565b9350612d81818560208601611de5565b80840191505092915050565b6000612d998285612d5c565b9150612da58284612d5c565b91508190509392505050565b600081519050612dc081611f43565b92915050565b600060208284031215612ddc57612ddb611d04565b5b6000612dea84828501612db1565b91505092915050565b60006080820190508181036000830152612e0d8187611e29565b9050612e1c6020830186611f19565b612e2960408301856122b2565b612e3660608301846122b2565b95945050505050565b7f4552433732313a206f70657261746f7220717565727920666f72206e6f6e657860008201527f697374656e7420746f6b656e0000000000000000000000000000000000000000602082015250565b6000612e9b602c83611dd4565b9150612ea682612e3f565b604082019050919050565b60006020820190508181036000830152612eca81612e8e565b9050919050565b7f4552433732313a207472616e736665722066726f6d20696e636f72726563742060008201527f6f776e6572000000000000000000000000000000000000000000000000000000602082015250565b6000612f2d602583611dd4565b9150612f3882612ed1565b604082019050919050565b60006020820190508181036000830152612f5c81612f20565b9050919050565b7f4552433732313a207472616e7366657220746f20746865207a65726f2061646460008201527f7265737300000000000000000000000000000000000000000000000000000000602082015250565b6000612fbf602483611dd4565b9150612fca82612f63565b604082019050919050565b60006020820190508181036000830152612fee81612fb2565b9050919050565b600061300082611e84565b915061300b83611e84565b9250827fffffffffffffffffffffffffffffffffffffffffffffffffffffffffffffffff038211156130405761303f61284e565b5b828201905092915050565b7f4552433732313a206d696e7420746f20746865207a65726f2061646472657373600082015250565b6000613081602083611dd4565b915061308c8261304b565b602082019050919050565b600060208201905081810360008301526130b081613074565b9050919050565b7f4552433732313a20746f6b656e20616c7265616479206d696e74656400000000600082015250565b60006130ed601c83611dd4565b91506130f8826130b7565b602082019050919050565b6000602082019050818103600083015261311c816130e0565b9050919050565b7f45524337323155524953746f726167653a2055524920736574206f66206e6f6e60008201527f6578697374656e7420746f6b656e000000000000000000000000000000000000602082015250565b600061317f602e83611dd4565b915061318a82613123565b604082019050919050565b600060208201905081810360008301526131ae81613172565b9050919050565b7f4552433732313a20617070726f766520746f2063616c6c657200000000000000600082015250565b60006131eb601983611dd4565b91506131f6826131b5565b602082019050919050565b6000602082019050818103600083015261321a816131de565b9050919050565b7f4552433732313a207472616e7366657220746f206e6f6e20455243373231526560008201527f63656976657220696d706c656d656e7465720000000000000000000000000000602082015250565b600061327d603283611dd4565b915061328882613221565b604082019050919050565b600060208201905081810360008301526132ac81613270565b9050919050565b7f4552433732314d657461646174613a2055524920717565727920666f72206e6f60008201527f6e6578697374656e7420746f6b656e0000000000000000000000000000000000602082015250565b600061330f602f83611dd4565b915061331a826132b3565b604082019050919050565b6000602082019050818103600083015261333e81613302565b9050919050565b600081519050919050565b600082825260208201905092915050565b600061336c82613345565b6133768185613350565b9350613386818560208601611de5565b61338f81611e18565b840191505092915050565b60006080820190506133af6000830187611f19565b6133bc6020830186611f19565b6133c960408301856122b2565b81810360608301526133db8184613361565b905095945050505050565b6000815190506133f581611d3a565b92915050565b60006020828403121561341157613410611d04565b5b600061341f848285016133e6565b91505092915050565b600061343382611e84565b91507fffffffffffffffffffffffffffffffffffffffffffffffffffffffffffffffff82036134655761346461284e565b5b600182019050919050565b7f4e487b7100000000000000000000000000000000000000000000000000000000600052601260045260246000fd5b60006134aa82611e84565b91506134b583611e84565b9250826134c5576134c4613470565b5b828204905092915050565b60006134db82611e84565b91506134e683611e84565b9250826134f6576134f5613470565b5b82820690509291505056fea2646970667358221220e920a1105a6ef83610c61ea0ef11734e6b6e2d4c5bee64bcc1513313cbf7b0f764736f6c634300080d0033",
  "immutableReferences": {},
  "source": "// SPDX-License-Identifier: MIT\npragma solidity 0.8.13;\n\nimport \"@openzeppelin/contracts/token/ERC721/ERC721.sol\";\nimport \"@openzeppelin/contracts/token/ERC721/extensions/ERC721URIStorage.sol\";\nimport \"@openzeppelin/contracts/utils/Counters.sol\";\n\n/// @title NFTCollections contract\n/// @author Sebastien Gazeau, Sbastien Dupertuis et Alexis Mendoza\n/// @dev The contract code contains comments for developers only visible in the source code\ncontract NFTCollections is ERC721URIStorage {\n    //------------------------------------------------------------------------------------\n    // ----------------------------------Variables----------------------------------------\n    //------------------------------------------------------------------------------------\n    using Counters for Counters.Counter;\n    Counters.Counter private _tokenIds;\n\n    // Structure of the NFT\n    struct NFT {\n        string name;\n        string description;\n        string tag;\n        address tokenAddress;\n        uint256 price;\n        bool favorite;\n        bool isAuctionable;\n    }\n    NFT[] collection;\n\n    constructor(string memory _name, string memory _symbol)\n        ERC721(_name, _symbol)\n    {}\n\n    //------------------------------------------------------------------------------------\n    // ------------------------------------Events-----------------------------------------\n    //------------------------------------------------------------------------------------\n    /// @notice event for NFT creation\n    /// @param _collectionName Name of the NFT collection\n    /// @param _collectionAddress Address of the collection\n    /// @param _tokenID The ID of this given NFT\n    /// @param _collectionData Data of the given NFT\n    /// @param _creator The address of the creator of the NFT\n    event NFTCreated(\n        string _collectionName,\n        address _collectionAddress,\n        uint256 _tokenID,\n        NFT _collectionData,\n        address _creator\n    );\n\n    /// @notice event for NFT sales\n    /// @param _collectionName Name of the NFT collection\n    /// @param _collectionAddress Address of the collection\n    /// @param _tokenID The ID of this given NFT\n    /// @param _price The new price of the given NFT\n    event NewPriceSet(\n        string _collectionName,\n        address _collectionAddress,\n        uint256 _tokenID,\n        uint256 _price\n    );\n\n    //------------------------------------------------------------------------------------\n    // ----------------------------------Constructor--------------------------------------\n    //------------------------------------------------------------------------------------\n    // /// @notice initialization of the ERC271\n    // /// @param _name name of the collection\n    // /// @param _symbol symbol of the collection\n    // function initialize(string memory _name, string memory _symbol) public initializer\n    // {\n    //     __ERC721_init(_name, _symbol);\n    // }\n\n    /// @notice Mint a NFT in the collection\n    /// @param _firstOwner The address to mint the NFT to\n    /// @param _creator The creator of the new NFT\n    /// @param _tokenURI Token\n    /// @param _name Description of the NFT\n    /// @param _description Description of the NFT\n    /// @param _tag Tag of the NFT\n    /// @param _tokenAddress address du token\n    /// @param _price NFT price\n    /// @param _favorite NFT favorite\n    /// @param _isAuctionable NFT auctioned\n    /// @return newItemId New id of the item that has been minted\n    function MintNFT(\n        address _firstOwner,\n        address _creator,\n        string memory _tokenURI,\n        string memory _name,\n        string memory _description,\n        string memory _tag,\n        address _tokenAddress,\n        uint256 _price,\n        bool _favorite,\n        bool _isAuctionable\n    ) public returns (uint256) {\n        _tokenIds.increment();\n        collection.push(\n            NFT(\n                _name,\n                _description,\n                _tag,\n                _tokenAddress,\n                _price,\n                _favorite,\n                _isAuctionable\n            )\n        );\n        uint256 newItemId = _tokenIds.current();\n        _mint(_firstOwner, newItemId);\n        _setTokenURI(newItemId, _tokenURI);\n\n        emit NFTCreated(\n            this.name(),\n            address(this),\n            newItemId,\n            collection[newItemId - 1],\n            _creator\n        ); // Emit the event at each NFT created\n\n        return newItemId;\n    }\n\n    /// @notice This function allows to set the price of the given NFT\n    /// @dev Call this function when a sale is initiated\n    /// @param _tokenID The token ID of the NFT to set the price\n    /// @param _price The price to set\n    function setPrice(uint256 _tokenID, uint256 _price) external {\n        // All the \"require\" are done on the upper level in Master SC\n        collection[_tokenID - 1].price = _price;\n\n        emit NewPriceSet(this.name(), address(this), _tokenID, _price);\n    }\n\n    //------------------------------------------------------------------------------------\n    // ------------------------------------Getters----------------------------------------\n    //------------------------------------------------------------------------------------\n    /// @notice This function allows to get the sale price of the given NFT (if in sale)\n    /// @dev Call this function to get the current sale price\n    /// @param _tokenID The token ID of the NFT to get the price\n    /// @return _price The price of the given NFT\n    function getPrice(uint256 _tokenID) external view returns (uint256) {\n        //require((_tokenID <= _tokenIds.current()) && (_tokenID > 0), \"This token ID does not exist.\");      // Make sure the token ID exists\n        this.ownerOf(_tokenID);       // Revert if the tokenID does not exist (ERC721Upgradeable library)\n        return(collection[_tokenID-1].price);\n    }\n\n    /*/// @notice This function allows to get the total amount of NFTs saved in this contract\n    /// @dev Call this function to check the last created token ID\n    /// @return _totalSupply The last created token ID\n    function getTotalSupply() external view returns (uint256) {\n        return(_tokenIds.current());\n    }*/\n}\n",
  "sourcePath": "/home/alexis/Projects/project-nft-cyon/contracts/NFTCollections.sol",
  "compiler": {
    "name": "solc",
    "version": "0.8.13+commit.abaa5c0e.Emscripten.clang"
  },
  "schemaVersion": "3.4.7",
  "updatedAt": "2022-05-13T16:54:32.685Z",
  "devdoc": {
    "author": "Sebastien Gazeau, Sbastien Dupertuis et Alexis Mendoza",
    "details": "The contract code contains comments for developers only visible in the source code",
    "events": {
      "NFTCreated(string,address,uint256,(string,string,string,address,uint256,bool,bool),address)": {
        "params": {
          "_collectionAddress": "Address of the collection",
          "_collectionData": "Data of the given NFT",
          "_collectionName": "Name of the NFT collection",
          "_creator": "The address of the creator of the NFT",
          "_tokenID": "The ID of this given NFT"
        }
      },
      "NewPriceSet(string,address,uint256,uint256)": {
        "params": {
          "_collectionAddress": "Address of the collection",
          "_collectionName": "Name of the NFT collection",
          "_price": "The new price of the given NFT",
          "_tokenID": "The ID of this given NFT"
        }
      }
    },
    "kind": "dev",
    "methods": {
      "MintNFT(address,address,string,string,string,string,address,uint256,bool,bool)": {
        "params": {
          "_creator": "The creator of the new NFT",
          "_description": "Description of the NFT",
          "_favorite": "NFT favorite",
          "_firstOwner": "The address to mint the NFT to",
          "_isAuctionable": "NFT auctioned",
          "_name": "Description of the NFT",
          "_price": "NFT price",
          "_tag": "Tag of the NFT",
          "_tokenAddress": "address du token",
          "_tokenURI": "Token"
        },
        "returns": {
          "_0": "newItemId New id of the item that has been minted"
        }
      },
      "approve(address,uint256)": {
        "details": "See {IERC721-approve}."
      },
      "balanceOf(address)": {
        "details": "See {IERC721-balanceOf}."
      },
      "getApproved(uint256)": {
        "details": "See {IERC721-getApproved}."
      },
      "getPrice(uint256)": {
        "details": "Call this function to get the current sale price",
        "params": {
          "_tokenID": "The token ID of the NFT to get the price"
        },
        "returns": {
          "_0": "_price The price of the given NFT"
        }
      },
      "isApprovedForAll(address,address)": {
        "details": "See {IERC721-isApprovedForAll}."
      },
      "name()": {
        "details": "See {IERC721Metadata-name}."
      },
      "ownerOf(uint256)": {
        "details": "See {IERC721-ownerOf}."
      },
      "safeTransferFrom(address,address,uint256)": {
        "details": "See {IERC721-safeTransferFrom}."
      },
      "safeTransferFrom(address,address,uint256,bytes)": {
        "details": "See {IERC721-safeTransferFrom}."
      },
      "setApprovalForAll(address,bool)": {
        "details": "See {IERC721-setApprovalForAll}."
      },
      "setPrice(uint256,uint256)": {
        "details": "Call this function when a sale is initiated",
        "params": {
          "_price": "The price to set",
          "_tokenID": "The token ID of the NFT to set the price"
        }
      },
      "supportsInterface(bytes4)": {
        "details": "See {IERC165-supportsInterface}."
      },
      "symbol()": {
        "details": "See {IERC721Metadata-symbol}."
      },
      "tokenURI(uint256)": {
        "details": "See {IERC721Metadata-tokenURI}."
      },
      "transferFrom(address,address,uint256)": {
        "details": "See {IERC721-transferFrom}."
      }
    },
    "title": "NFTCollections contract",
    "version": 1
  },
  "userdoc": {
    "events": {
      "NFTCreated(string,address,uint256,(string,string,string,address,uint256,bool,bool),address)": {
        "notice": "event for NFT creation"
      },
      "NewPriceSet(string,address,uint256,uint256)": {
        "notice": "event for NFT sales"
      }
    },
    "kind": "user",
    "methods": {
      "MintNFT(address,address,string,string,string,string,address,uint256,bool,bool)": {
        "notice": "Mint a NFT in the collection"
      },
      "getPrice(uint256)": {
        "notice": "This function allows to get the sale price of the given NFT (if in sale)"
      },
      "setPrice(uint256,uint256)": {
        "notice": "This function allows to set the price of the given NFT"
      }
    },
    "version": 1
  }
}